:020000040800F2
:10000000000003205D060008D9230008DB23000858
:10001000DD230008DF230008E123000800000000C2
:10002000000000000000000000000000A1770008B0
:10003000E32300080000000031780008B9700008D0
:10004000AD060008AD060008AD060008AD060008C4
:10005000AD060008AD060008AD060008AD060008B4
:10006000AD060008AD060008AD060008AD060008A4
:10007000AD060008AD060008AD060008AD06000894
:10008000AD060008AD060008AD060008AD06000884
:10009000AD060008AD060008AD060008AD06000874
:1000A000AD060008AD060008AD060008AD06000864
:1000B000AD060008AD060008AD060008AD06000854
:1000C000AD060008AD060008AD060008AD06000844
:1000D000AD060008AD060008AD060008AD06000834
:1000E000AD060008AD060008AD060008AD06000824
:1000F000AD060008AD060008AD060008AD06000814
:10010000AD060008AD060008AD060008AD06000803
:10011000AD060008AD060008E5230008AD0600089E
:10012000AD060008AD060008AD060008AD060008E3
:10013000AD060008AD060008AD060008AD060008D3
:10014000AD060008AD060008AD060008AD060008C3
:10015000AD060008AD060008AD060008AD060008B3
:10016000AD060008AD060008AD060008AD060008A3
:10017000AD060008AD060008AD060008000000004E
:10018000AD060008AD060008AD060008AD06000883
:10019000AD060008AD060008AD060008AD06000873
:0C01A000F1230008AD060008FD23000854
:1001B00010B5054C237833B9044B13B10448AFF3A1
:1001C00000800123237010BD800300200000000088
:1001D000403B020808B5034B1BB103490348AFF38A
:1001E000008008BD0000000084030020403B02089E
:1001F00001F0FF01102A2BDB10F0070F08D010F8D8
:10020000013B013A8B422DD010F0070F42B3F6D1DB
:10021000F0B441EA012141EA014122F007047FF0F4
:1002200000070023F0E80256083C85EA010586EA4B
:10023000010685FA47F5A3FA87F586FA47F6A5FA87
:1002400087F68EB9EED1F0BC01F0FF0102F0070293
:1002500032B110F8013B013A83EA010313B1F8D13E
:100260000020704701387047002D06BF354603381F
:10027000073815F0010F07D1013015F4807F02BF58
:10028000013015F4C03F0130F0BC0138704700BFA9
:100290007BB972B90029BEBF00204FF0004106E0D3
:1002A00008BF00281CBF6FF000414FF0FF3000F086
:1002B000D3B9ADF1080C6DE904CE002909DB002BA0
:1002C0001ADB00F04DF8DDF804E0DDE9022304B0AC
:1002D0007047404261EB4101002B1BDB00F040F80E
:1002E000DDF804E0DDE9022304B0404261EB4101A6
:1002F000524263EB43037047524263EB430300F007
:100300002FF8DDF804E0DDE9022304B0404261EBA0
:1003100041017047524263EB430300F021F8DDF8DE
:1003200004E0DDE9022304B0524263EB430370476B
:1003300053B94AB9002908BF00281CBF4FF0FF314C
:100340004FF0FF3000F088B9ADF1080C6DE904CE34
:1003500000F006F8DDF804E0DDE9022304B07047A0
:100360002DE9F047089D8E4604468846002B4AD169
:100370008A42174662D9B2FA82F64EB1C6F120031C
:1003800001FA06F820FA03F3B74043EA0808B4403C
:100390004FEA174E1FFA87FCB8FBFEF1230C0EFB49
:1003A000118843EA084301FB0CF29A4209D9FB1871
:1003B00001F1FF3080F0EA809A4240F2E780023992
:1003C0003B449A1AA3B2B2FBFEF00EFB102243EAA2
:1003D000024300FB0CFC9C4509D9FB1800F1FF32DD
:1003E00080F0D6809C4540F2D3803B44023840EAFE
:1003F0000140A3EB0C0300211DB1F3400022C5E92D
:100400000032BDE8F0878B4205D90DB1C5E9000186
:1004100000210846F5E7B3FA83F1002946D1734578
:1004200002D3824200F20581841A6EEB030201209E
:100430009046002DE5D0C5E90048E2E7002A00F02B
:100440009080B2FA82F6002E40F0A4808A1A030C43
:100450004FEA174E80B2BCB20121B2FBFEFC0EFB8C
:100460001C2243EA024304FB0CF29A4207D9FB1810
:100470000CF1FF3802D29A4200F2E080C4469B1A87
:10048000B3FBFEF20EFB123340EA034302FB04F41B
:100490009C4207D9FB1802F1FF3002D29C4200F2C5
:1004A000CA8002461B1B42EA0C40A5E7C1F12006A8
:1004B0008B4022FA06F71F430EFA01F420FA06F3E6
:1004C0002EFA06FE4FEA1749234300FA01F81FFAF5
:1004D00087FCBEFBF9F01C0C09FB10EE44EA0E444D
:1004E00000FB0CFEA64502FA01F209D93C1900F105
:1004F000FF3A80F09C80A64540F2998002383C4447
:10050000A4EB0E041FFA83FEB4FBF9F309FB1344BA
:100510004EEA044403FB0CFCA44508D93C1903F142
:10052000FF3E80F08280A4457FD9023B3C4443EAF1
:100530000040A4EB0C04A0FB02EC64457346E146CA
:1005400062D35FD05DB1B8EB030264EB090404FA37
:1005500006F622FA01F31E43CC40C5E900640021EF
:100560004FE7B1FBF2FC010C41EA0E4180B240EAD8
:1005700001423B4638463C46B846BE462026B1FBC3
:10058000F7F1A2EB080241EA0C4166E7014618E7E1
:1005900010462CE7C6F120022EFA02F3B740B14014
:1005A00020FA02F24FEA174E0A43B3FBFEF8BCB240
:1005B0000EFB1833110C41EA034108FB04F9B0406B
:1005C00089454FEA104380B23ED9791808F1FF3CC3
:1005D00001D289451FD8A1EB0901B1FBFEF909FB46
:1005E00004F80EFB191192B242EA0142424529D2A7
:1005F000BA1809F1FF31C4D24245C2D2A9F10201B1
:100600003A44BEE7F0459DD2BEEB02036CEB070C0B
:100610000138E14696E7A7EB09094944A8F1020C25
:10062000B1FBFEF909FB04F8DBE773467FE75046B0
:1006300066E70846FDE63B44023A33E7ACF1020CBC
:100640003B441CE749469CE7A1EB0901C446B1FBCA
:10065000FEF909FB04F8C4E7704700BFDFF834D0A7
:10066000002103E00C4B5B58435004310B480C4B0A
:1006700042189A42F6D30B4A02E0002342F8043BA8
:10068000094B9A42F9D303F039FE22F0EBFC01F05A
:1006900061F870470000032054F1030800000020B7
:1006A0006401002080030020DC3D0120FEE770474C
:1006B00008B500F0B9FDBDE8084000F03DBD00F010
:1006C000B5BD704710B50421044621F0DFFA20467D
:1006D00010BD000038B50C4B0C4C18800C4B822020
:1006E00019806368984740F6110398420AD1094D72
:1006F00023682C60822098472B688220DB6898470B
:10070000002038BD0120FCE7A60300204C0000209B
:10071000A4030020A80300204FF4A071F020FFF7ED
:10072000D9BF0000F7B5394D2B6804461B698220FC
:100730009847208000284ED02B680DF106025B6997
:1007400001A982209847324B1B78002B4BD0BDF873
:10075000062040F674639A423FD9ADF80630BDF8E2
:1007600006209B1A9BB20A2B42D90B22B3FBF2F351
:10077000284A1288934201D9013A93B2BDF8042065
:10078000254840F6B8318A4234D8C2F571620E323B
:10079000016892B20F25B2FBF5F2204D2D88AA42D6
:1007A00084BF05F1FF35AAB28A4215468EB22AD916
:1007B000921B91B21A4E3768BB42BAB28CBF9A1ADA
:1007C000D21A92B211440529C4BF05603360036890
:1007D00063803368A38003B0F0BDB32A9CBFB4220A
:1007E000ADF80620BBE7BDF80630A3F5B473B9E752
:1007F0000023C3E7C2F56D62083292B20E2A016887
:10080000C8D800252A46891A89B2D3E7A803002050
:10081000B41F0020A4030020A0030020A603002092
:100820009C03002037B568460D461446FFF77AFF53
:10083000BDF8000030B1BDF802302B60BDF80430C7
:100840002360012003B030BD032821D8DFE800F089
:10085000020B12190F4B1A68B2FA82F252090421E4
:100860000D4804F0F5B90B4B5A68B2FA82F25209FE
:100870000821F5E7074B9A68B2FA82F25209102173
:10088000EEE7044BDA68B2FA82F252092021E7E778
:10089000704700BFAC03002000100240032821D89D
:1008A000DFE800F0020B12190F4B1A68003A18BF6C
:1008B000012204210D4804F0CBB90B4B5A68003AD1
:1008C00018BF01220821F5E7074B9A68003A18BFC4
:1008D00001221021EEE7044BDA68003A18BF01222A
:1008E0002021E7E7704700BFAC0300200010024062
:1008F00003280DD8DFE800F00206080A04210548A5
:1009000004F0ABB90821FAE71021F8E72021F6E757
:10091000704700BF0010024008B5032811D8DFE877
:1009200000F0020A0C0E0421074804F08BF9431E64
:100930005842584108BD0821F6E71021F4E720216C
:10094000F2E70020F3E700BF0010024070B5084D49
:1009500000240126E0B2FFF7DFFF18B12B68012B5E
:1009600018BF2E600134052C05F10405F2D170BDCD
:10097000AC030020012380F8781080F879307047AC
:100980007047002070470000034B4164003918BFD6
:1009900001211970704700BF9B3001207047002073
:1009A0007047836B0BB10846184770474FF6FF70CE
:1009B0007047406803689B691847704770477047E5
:1009C0007047704710B5044600F046FD23680349A0
:1009D000D3F890302046BDE810401847000000D002
:1009E00008B503680446D3F8843098472368204646
:1009F000DB6F984700F0ECF8236820465B6F984760
:100A0000292001F081F900F0E3F8236820465B6FAC
:100A10009847F8E710B5044609F0BAFC2368204669
:100A2000D3F8BC30BDE81040184700F0F9BC00F026
:100A3000FDBC00F02FBD00F0CFBC00F03FBD00F0CA
:100A400047BD00F0D3BC08F0D1BE10B584210446E8
:100A500021F01CF9204610BD10B590F8341090F824
:100A600078400C4B8C421A7809D03AB90A4A0B49A3
:100A70001488088810800C8001221A7010BD002A8A
:100A8000FCD0054A05491488088810800C80002293
:100A9000F3E700BF94300120903001209230012014
:100AA00070B50D46194635B9094B0A4A0A4840F255
:100AB000FF2122F027F8C0E90F52084B003A18BF77
:100AC00001221A700368BDE87040D3F890301847CF
:100AD000B83B0208F03B02083E3C02089A30012075
:100AE00008B5094B1B888B4203D8084B1B889342DF
:100AF00005D9074B074A0848A32122F003F8074B02
:100B00001980074B1A8008BD9030012092300120D7
:100B1000833C0208E63C02083E3C02089630012075
:100B200098300120034690F87A0018B1586803689D
:100B30001B68184770470000012108B500220846CD
:100B400006F044FB0A4B186028B90A4B0A4A2821D0
:100B50000A4821F0D7FF00220421012006F0D5FB2E
:100B6000074B186018B9074B034A2C21F0E708BD62
:100B7000C0030020293D0208723D0208A13D020881
:100B8000BC030020EC3D0208024B4FF0FF31186817
:100B900006F066BBC0030020014B186806F08CBB52
:100BA000C0030020024B0021186806F059BB00BFAB
:100BB000C0030020FFF7F0BF03480449006800238A
:100BC0001A4606F0DDBB00BFBC0300200400002075
:100BD00013B5084C00231A4601A9206806F001FC51
:100BE00020684FF0FF33002201A906F0FAFB02B0A3
:100BF00010BD00BFBC03002003685B6C18470120D8
:100C0000704703689B6A1847FEE740F2EF30704771
:100C1000054B0360054B4FF08062C3F88820BFF39B
:100C20004F8FBFF36F8F70471449020800E100E057
:100C300010B504464FF45A61FFF7EAFF204621F051
:100C400025F8204610BD000082B0002301930E4B12
:100C50001A6B42F400021A631A6B02F4000201924A
:100C6000019A1A6942F400021A611A6922F4000218
:100C70001A61064B064A1A61064A5A61064B4FF042
:100C800080629A6002B0704700380240A0210020C4
:100C9000E90E0008090C000800E100E008B50A2888
:100CA00009D8DFE800F006100E0808080810101038
:100CB0001000022008BD054B054A0648902121F08E
:100CC00021FF0020F6E70120F4E700BF2E3E0208D6
:100CD000493E0208943E020838B50C46887FFFF76B
:100CE000DDFFA58AE28A164B2169586342EA054274
:100CF0005A64628BD963521B1A642568082D0ED181
:100D00009A611A615862207F0E4A42EA0062DA61F3
:100D1000E2681A620C4A5961D9601A6038BD002233
:100D2000D8611A61E1680A0A480902F4784200F4BD
:100D3000FC600243C1F3C4010A439A63034AECE72F
:100D400000B002400900010001230200012303005A
:100D500008B50B280BD8DFE800F00612100A0A0AC3
:100D60000A0808080808022008BD0520FCE7054B12
:100D7000054A06486F2121F0C5FE0020F4E7012056
:100D8000F2E700BF2E3E0208DD3E0208943E020854
:100D90002DE9F04191F81D800C464046FFF7D8FF41
:100DA000A77F05463846FFF7D3FF06463846FFF7CC
:100DB00075FFA18A628B444B521A1A649A61228B86
:100DC000521A1A61E28A586342EA01425A6421695E
:100DD0006268D963DA602068802828D0227F0FD823
:100DE000202867D0402865D004281AD0364B45EA21
:100DF000026545F40035B845DD6161D0334A44E011
:100E0000B0F5807F04D0B0F5007FEFD1304800E02E
:100E1000304840EA0262DA61E2681A625E62596151
:100E200032E045EA026242F40032DA61F6E7A06895
:100E3000021DDA62227F45EA026545F40035DD6174
:100E40005E625961017841B1012921D0224B234AC8
:100E500023484FF48D7121F055FEDA69418822F460
:100E60007F42013922F0100242EA0122DA610121B7
:100E7000154BDA6942F02002DA61DA699206FCD495
:100E800010229A600029B9D0164A1A60BDE8F08194
:100E9000B2F1FF01DA69408822F47F4200F1FF30AD
:100EA00022F0100242EA002242F0100218BF012193
:100EB000DA61DDE745EA0262034B42F40032B4E74F
:100EC00042F20132E1E700BF00B00240012301001D
:100ED000090002000A000200273F0208413F020801
:100EE000943E020801230200024B1B685868036805
:100EF0005B6918479C30012070B5044625460A4BB3
:100F00000C30002660602672667245F8203B602235
:100F1000294609F093FB04F55A63EE6024359D429F
:100F2000FBD1204670BD00BF14490208034B1A686C
:100F3000D207FCD423229A60704700BF00B0024061
:100F40007047000030B50F4C2568ED07FCD4232511
:100F50000904A56041F001010225FF2B656361646E
:100F6000E0630AD00849656241EA0363E361074B25
:100F700022626061E060236030BDE561039BA36392
:100F8000034BF8E700B00240090001000100020035
:100F90000100030030B50E4C2568ED07FCD4232575
:100FA0001204A56042F001020225FF2B6563626412
:100FB000E063E16008D01B0643F00213E361054BD8
:100FC00065626061236030BD034BE3610123F9E793
:100FD00000B0024001000200020002FF30B50B4CDD
:100FE0002568ED07FCD4232512041B06A56043F4F5
:100FF0000033022542F0010265636264E063E16050
:10100000E361034B65626061236030BD00B0024064
:1010100001000200012070474020704700EB811062
:101020000830704700EB811008307047012070478E
:1010300040F67420704740F6742303FB010008302B
:10104000704740F6742303FB01000830704701200D
:1010500070471020704700EB01100830704700EB1C
:10106000011008307047084601F002BD10B5034B6F
:101070000360044608F00FF9204610BDCC49020871
:1010800010B50446FFF7F2FF2046482120F0FEFD90
:10109000204610BD10B5034B0360044608F0FBF872
:1010A000204610BD9849020810B50446FFF7F2FF2C
:1010B000204640F67C2120F0E9FD204610BD0000CE
:1010C00010B5034B0360044608F0E5F8204610BD58
:1010D0006449020810B50446FFF7F2FF20461821C4
:1010E00020F0D4FD204610BD10B5084B0360044627
:1010F00000F6A820FFF7BAFF04F12C00FFF7CAFFA3
:1011000004F11400FFF7DCFF204610BD004A02087E
:1011100008B50248FFF7E8FF08BD00BF9C12002099
:1011200010B50446FFF7E0FF20464FF4456120F07C
:10113000ADFD204610BD00002DE9F34101F0D4F9CA
:10114000054601F0D5F900240146234628462246EB
:10115000009411F0E9FC274B274A1A60204602F060
:1011600057F9264D264B274A27489A6011F044FC30
:101170002B68BFF35B8FDB0735D4284620F088FD52
:1011800088B3224C224B236004F6F42604F11400A9
:1011900004F12C0804F6A8276060C4F80880E76012
:1011A000266108F079F81B4B6361404608F074F83B
:1011B000194BE362384608F06FF8184BC4F8A83AA8
:1011C00004F52F6002F07AFD224604F52F613046C7
:1011D00002F098F9304601F04BFC114821F0B0FCC8
:1011E000284620F061FD0F4802B0BDE8F041FFF74E
:1011F000E9BB00BF00310120480400209812002004
:10120000680400204C040020080000209C120020EC
:10121000004A02086449020898490208CC490208B9
:1012200011110008C4030020704700000148FFF7B7
:10123000D7BB00BFC403002070B5264E264C274DF7
:10124000274B23603046FFF757FE284616F072FD05
:1012500024480FF05FF9244B2448DC6000224FF44F
:101260008071C3E9121222491A86C3E91A12214970
:1012700083F85820C3E91E011F49C3F880101F4995
:101280001F480B60F021C3E90422C3E90622C3E929
:101290000822C3E90A22C3E90E22C3E91022C3E9E6
:1012A0001422C3E917225A6683F870205A67C3E9EB
:1012B000016501801348018013484FF4A07101803B
:1012C0001248018012490A70012283F83420114A21
:1012D0001A6070BDF40400209412002068040020FD
:1012E000A83B02084C040020C403002000000101B8
:1012F00001000001000450001A0014009C3001207D
:101300009030012096300120923001209830012049
:1013100094300120284802080148FFF779BC00BF3B
:10132000F40400200020704781807047C18070471E
:10133000018170474181704770477047704770471F
:10134000704710B4C4880368121B84885B6D091B46
:1013500012B25DF8044B09B218474FF6FF73838150
:101360004FF0FF3303621368C361106070470020C1
:1013700070478B88838001207047704780F8261063
:10138000704790F82600704710B50022B1F9084068
:10139000B1F90A10028042808480C18010BD002211
:1013A000028042808280C28070470177704780ED62
:1013B000080A704780F82410704780F8251070479D
:1013C00001207047983070478C30704784307047E8
:1013D0007047704770470000034B902283F85A23F0
:1013E00083F85823704700BF00E100E0094A0A492A
:1013F000D3680A48C3F30A03013B9BB20B8011690F
:10140000C1F30A01013901801364536B43F00103F6
:101410005363704700680140EE1E0020EC1E002060
:10142000014BD3F8AC00704700680140024B012229
:10143000C3F8AC105A6270470068014010B52C2107
:10144000044620F023FC204610BD10B5BC21044604
:1014500020F01CFC204610BD70B5044608F01BFAB5
:1014600023689D6E0DF0EEFD01462046A8472368D7
:10147000054AD3F88C502046AC460023BDE87040A6
:10148000A2F51631604700BF00B004D008F0EAB9F9
:1014900008F0F4B908F0B0B908F01FBB90F82520A7
:1014A00012B103685B691847704790F825201AB19C
:1014B00090F8242002B1186070470000034B4FF0F1
:1014C00080629A604FF080729A60704700E100E09D
:1014D000084B4FF08062C3F88820BFF34F8FBFF3F3
:1014E0006F8F4FF08072C3F88820BFF34F8FBFF328
:1014F0006F8F704700E100E070B50023124E8380CB
:10150000124B0360336893F8582005460AB1D86C33
:1015100000B998680368DB6A98473368B0FA80F4CA
:10152000D86C640930B10368DB6A9847002808BFAB
:1015300044F001042CB9064B064A07482C2121F03F
:10154000E1FA284670BD00BF9C300120144A020811
:101550007F3F0208DD3F02081640020870B5254EA5
:101560003568BFF35B8F15F0010540D1304620F0A0
:101570008FFB00283BD0204C204B256104F1340028
:10158000C4E90035C4E90255E584A562A5850FF0DC
:10159000A6FA04F158000AF007FD194BA36520468E
:1015A000184B40F8843BFFF7A7FF174BC4F8843073
:1015B0002433C4F88C304FF4C803C4E92835002321
:1015C000C4F8AC30C4F8B030C4F8B430C4F8B830A3
:1015D0000E480F4BC4F89050C4F89C50C4F8A85063
:1015E000C4F8983021F0ACFA304620F05DFB024898
:1015F00070BD00BFF01E0020F41E00203451020810
:10160000344A0208AC4A0208E8500208D513000820
:10161000C850020838B5184C23685BB3174B184AFA
:101620001B6C11888B4216D1164B198804F0FAF8FE
:10163000236893F86A200025013283F86A2083F832
:101640007C50FFF7B9FA206808F0A2FE2846BDE8F2
:101650003840FFF7F9B804F0E5F82468236820461D
:101660001B6A9847012384F87C300020BDE838408D
:10167000FFF714B938BD00BF9C300120006801405D
:10168000EE1E0020EC1E002007B5064BADF806004C
:101690001B68054801220DF1060104F0AFFE03B0FE
:1016A0005DF804FB0C0000203C20002008B56420FD
:1016B00005F080FDFBE7000030B595B01022002159
:1016C0000AA821F026FC1422002103A821F021FC05
:1016D00000241E4B01941A6C42F080521A641B6C59
:1016E00003F080530193019B194B02941A6842F452
:1016F00040421A601B6803F4404302930122029B9C
:101700004FF48033CDE9082302254FF480030821EC
:10171000CDE90E534FF4B473CDE9101308A8042398
:101720001393129504F0D6F804F09AF80F23CDE93C
:1017300003354FF4A0504FF48053CDE90603052143
:1017400003A8059404F0A2FA15B030BD0038024099
:10175000007000402DE980489BB002F0DDFDFFF7EE
:10176000ABFF142200210DA821F0D3FB0024C94BAC
:1017700000941A6BC848C94DDFF8588342F0100234
:101780001A631A6B02F010020092009A01941A6B0D
:1017900042F020021A631A6B02F020020192019AB1
:1017A00002941A6B42F080021A631A6B02F08002F4
:1017B0000292029A03941A6B42F004021A631A6BA3
:1017C00002F004020392039A04941A6B42F001029D
:1017D0001A631A6B02F001020492049A05941A6BC0
:1017E00042F002021A631A6B02F002020592059A95
:1017F00006941A6B42F040021A631A6B02F0400220
:101800000692069A07941A6B42F008021A631B6B41
:1018100003F00803224607933C21079B03F018FAC4
:101820009F480122022103F013FA22469C4804211A
:1018300003F00EFA22469B484FF4405103F008FA99
:1018400001263C23CDE90D3693480F9403230DA9BF
:101850000227109303F012F991480DA9CDE90D76F6
:10186000CDE90F4403F00AF904238D480DA9CDE911
:101870000D36CDE90F4703F001F920238A480F9672
:101880000DA9CDE90D3403F0F9F80DA94FF440533B
:101890008448CDE90D36CDE90F4703F0EFF88348D2
:1018A000834B036002F0E0FFDFF82CE2814B2C62F7
:1018B000C5E900E328464FF48043C5E90434C5E98F
:1018C0000244C5E9064403F0D1FB1021284603F089
:1018D00015FE21462846784D03F02FFE4FF4827303
:1018E000C5E900834FF400791823C5E9069328461B
:1018F0000A23C5E90244C5E90444C5E90844AC62C9
:10190000EB6204F01FFD8F232246394664488DF8B0
:1019100024308DF8344003F09BF932464FF47A734B
:1019200009A9284604F06AFD4FF47A7332460DA9DE
:10193000284604F00FFF3246394659485F4D03F000
:1019400087F99DF83430D32B04BF5D4B1E705D4B7F
:101950000126C5E900364FF0100A40230024C5E9EE
:1019600004A34FF4C073C5E906344FF40063C5E91E
:1019700008344FF4005302274FF0040B4FF00308D4
:10198000AB620DA907232846CDE90D73CDE90FB34E
:101990004FF00809C5E9024BCDE91187139704F010
:1019A000B5FB4FF6FF7209A92846CDE90A960894BF
:1019B00009960C9404F0CAFB304602F0D9FC4FF6AD
:1019C000FF7209A92846CDE90979CDE90B6404F035
:1019D000BDFB4FF6FF7209A92846CDE90989CDE97B
:1019E0000BB404F0B3FB4FF40C730893089B0C93F7
:1019F0004FF6FF7209A92846CDE909B90B9604F004
:101A0000A5FB40F26A51284604F0BEFB3422214671
:101A10000DEB020021F07DFA2B4D2C4B2C61C5E91A
:101A200000340923C5E905361D23C5E9073840F20E
:101A30000D1240F24313C5E9092340F2171140F299
:101A400047132846C5E90B13C5E90244AC8685F85F
:101A5000364003F005FEFF21F022CDE912144FF4C9
:101A6000806005214FF4A073CDE91401CDE90E2467
:101A70000DA9CDE9164228462246CDE91037144D6E
:101A800018930D94ADF864408DF8664003F09CFE09
:101A900024E000BF00380240001002404C2100202A
:101AA00000080240000C024000000240E02100203B
:101AB00000300240A08601003C200020C01F002012
:101AC000B41F0020400100A0A420002000680140B5
:101AD000B01F002000500140005C00403F4B2B60D5
:101AE0001B6898472B683E4DDB6898473D4B28465E
:101AF000C5E90034C5E90274C5E90A47C5E90C44E3
:101B000002F0C2FE3146284602F074FF364D374FD0
:101B1000524621460DA821F0FCF94FF48033C5E967
:101B200000732846324BAB62AC602C612C7685F892
:101B30002040EC62EC60EE6185F830406E6102F0AE
:101B40002BFC0DA92846CDE90D66CDF83C8002F0AE
:101B50009DFD2848284B294D036004F08BFA1C2278
:101B600021460DA8CDE9094421F0D3F94FF0804C6E
:101B70005323C5E900C3284640F2E733C5E90334DF
:101B8000AC60AC6105F05EF809A92846CDE90944CE
:101B900005F0BAF9602322460DA92846CDE90D3497
:101BA0000F94119405F0AAF8284600F031FBFEF7D7
:101BB0007FFDFEF77CFD05F08DFA114A11482146A4
:101BC00005F0B4FA104B114A18602146104805F090
:101BD000ADFA104B186005F08FFAFEE714000020F4
:101BE000A021002000B00240E82100200020014098
:101BF0000100000F9420002000080650F41F002070
:101C0000144B0208AD160008BC1F0020F04A020861
:101C1000BF060008B81F0020704770477FB5094B0A
:101C20008DF817201B6802930DF117020123009213
:101C300001930A460146044803F0C0FA07B05DF874
:101C400004FB00BF100000204C2100207FB50023C2
:101C50008DF81730084B1B6802930A4601230DF1DB
:101C60001701009101930146044803F037FB9DF8EA
:101C7000170007B05DF804FB100000204C21002085
:101C80001FB5084C24680092CDE901340A460123AF
:101C90000146054803F022FB003818BF012004B0BC
:101CA00010BD00BF100000204C21002002F060BBDE
:101CB00010B5064C00222046042102F0C9FF204640
:101CC0000122BDE81040042102F0C2BF000802401A
:101CD00038B50B4D044601220A484FF4005102F07A
:101CE000B7FF00220421284602F0B2FF2046FFF78A
:101CF000CBFC28460122BDE83840042102F0A8BFF1
:101D000000080240000C024038B50B4D044600228A
:101D10000A484FF4005102F09BFF0022042128469C
:101D200002F096FF2046FFF7AFFC28460122BDE8EF
:101D30003840042102F08CBF00080240000C024031
:101D4000F7B5144E144F05460C46304600220421C8
:101D500002F07EFF00224FF40051384602F078FF77
:101D60002846FFF791FC0D4B0D481B68224601A940
:101D700004F0F0FC384601224FF40051019C02F0BF
:101D800067FF30460122042102F062FF204603B0C3
:101D9000F0BD00BF00080240000C02400C00002013
:101DA0003C20002002F0E4BA0268034B9A4201D1C1
:101DB00002F0CCBA704700BF00100040704700002E
:101DC00082B00E4B00220092596C41F4804159645C
:101DD000596C01F48041009100990192196C41F015
:101DE000805119641B6C03F080530193019B0F21F8
:101DF0006FF0010002B002F0F7BC00BF00380240F3
:101E000010B5044688B01422002103A821F081F8FF
:101E10002268124B9A421ED103F58C3300210191A6
:101E20005A6C0F4842F480725A645A6C02F4807201
:101E30000192019A02911A6B42F001021A631B6B24
:101E400003F001030293029B0222032303A9CDE9BD
:101E5000032302F013FE08B010BD00BF00200140B4
:101E6000000002400268094B9A4282B00BD1002365
:101E70000193074B1A6B42F480521A631B6B03F4F5
:101E800080530193019B02B0704700BF00300240B5
:101E90000038024007B50F4B02689A4216D1002263
:101EA000A3F5F0430192196B41F4000119631B6B18
:101EB00003F40003019305215A20019B02F094FCD6
:101EC0005A2003B05DF804EB02F0C0BC03B05DF82B
:101ED00004FB00BF00B002402DE9F043044689B086
:101EE0001422002103A821F014F82268244B9A42FE
:101EF00043D1244C244800250095236B43F0040370
:101F00002363236B03F004030093009B0195236B71
:101F100043F001032363236B03F001030193019B4F
:101F20004FF012094FF400734FF001080327042605
:101F300003A9CDE90339CDE90587079602F09EFD97
:101F40004FF480731148079603A9CDE90339CDE911
:101F5000058702F093FD0295236C43F4000323648C
:101F6000236C03F400030293029B236A43F40003EF
:101F70002362236A23F40003236209B0BDE8F083DF
:101F8000005C0040003802400008024000000240AF
:101F9000F0B599B004461422002107A820F0B9FF3B
:101FA00030220DEB0200002120F0B3FF22685E4BCF
:101FB0009A4240F0B78008230C93C0231093042367
:101FC00012930CA84FF40033159303F027FF08B1C8
:101FD000FFF7F4FE554B5648002400945A6C42F02B
:101FE00080625A645A6C02F080620092009A0194F6
:101FF0001A6B42F020021A631A6B02F0200201925F
:10200000019A02941A6B42F001021A631A6B02F0F1
:1020100001020292029A03941A6B42F002021A63BE
:102020001A6B02F002020392039A04941A6B42F0B4
:1020300040021A631A6B02F040020492049A05945B
:102040001A6B42F004021A631A6B02F00402059242
:10205000059A06941A6B42F008021A631B6B03F090
:102060000803069302250E26069B0B964FF4806309
:1020700007A9CDE90735CDE9094502F0FFFC41F696
:1020800058032C480B9607A9CDE907350927CDE958
:10209000094502F0F3FC032327480B9707A9CDE974
:1020A0000735CDE9094502F0E9FC4FF47063224899
:1020B0000B9607A9CDE90735CDE9094502F0DEFC0D
:1020C0004FF40C631D480B9607A9CDE90735CDE900
:1020D000094502F0D3FCC02319480B9607A9CDE9A6
:1020E0000735CDE9094502F0C9FC082315480B96D0
:1020F00007A9CDE90735CDE9094502F0BFFC4FF44A
:10210000A0530E480B9707A9CDE90735CDE909453E
:1021100002F0B4FC58202246052102F065FB58204D
:1021200002F094FB19B0F0BD006801400038024095
:102130000014024000000240000402400018024067
:1021400000080240000C02400268094B9A4282B02B
:102150000BD100230193074B5A6B42F040025A63A4
:102160005B6B03F040030193019B02B0704700BF1B
:10217000000806500038024010B5044688B014220A
:10218000002103A820F0C5FE2268144B9A4223D1F7
:1021900003F56843002101915A6C114842F4801202
:1021A0005A645A6C02F480120192019A02911A6BDD
:1021B00042F020021A631B6B03F020030293029B80
:1021C0004FF4607202230321CDE903230523CDE9F7
:1021D000061303A902F052FC08B010BD00500140E4
:1021E000001402400368B3F1804F82B00BD100238A
:1021F0000193064B1A6C42F001021A641B6C03F047
:1022000001030193019B02B0704700BF00380240F8
:1022100010B5044686B01422002101A820F079FEF2
:102220002368B3F1804F14D1002300930A4B0B486D
:102230001A6B42F001021A631B6B03F00103009357
:10224000009B0222012301A9CDE90132059302F08E
:1022500015FC06B010BD00BF00380240000002406F
:102260002DE9F04186B0002303932B4B1C68002C12
:102270004FD14FF00108C3F80080284B00949A6BAF
:10228000274842EA08029A639B6B03EA080300931B
:10229000022703260C25009B01A94FF63F03CDE939
:1022A0000137CDE9046502F0E9FB1E48059501A957
:1022B000CDE90187CDE9034602F0E0FB48F2331394
:1022C0001948059501A9CDE90137CDE9034602F08A
:1022D000D5FB4FF683731548059501A9CDE9013764
:1022E000CDE9034602F0CAFB4CF203731048059592
:1022F00001A9CDE90137CDE9034602F0BFFB602318
:102300000C48059501A9CDE90137CDE9034602F056
:10231000B5FB06B0BDE8F081302200200038024055
:102320000014024000080240001802400010024061
:10233000000C02400004024070B588B000230293F4
:10234000204B1A6C42F010021A641B6C03F010034D
:102350000293054601A903A8029B03F041FD069BD9
:102360004BBB03F02DFD184E184B336040F2E733A2
:10237000F360174BB0FBF3F3013B7360304600236F
:102380003361B360B36104F031FC044680B9304678
:1023900004F006FB044658B9362002F057FA0F2D18
:1023A0000DD822462946362002F01EFA094B1D6040
:1023B000204608B070BD03F003FD4000D3E70124C0
:1023C000F6E700BF00380240342200200010004031
:1023D00040420F007C0000207047FEE7FEE7FEE76A
:1023E000FEE77047014804F019BB00BF342200200B
:1023F000014803F08CB900BFA4200020014802F07E
:102400006FBA00BFA02100200120704708B520F05E
:1024100023FE162303604FF0FF3008BD08B520F0FF
:102420001BFE16230360FEE770B50D4614460E46EC
:10243000731B9C4201DC204670BDAFF3008006F8A0
:10244000010BF5E770B50D4614460E46731B9C4212
:1024500001DC204670BD16F8010BAFF30080F5E7F4
:102460004FF0FF3070474FF400534B60002070472F
:1024700001207047002070470A4A116808B50346DA
:1024800009B9094911601068694603448B4206D9AD
:1024900020F0E2FD0C2303604FF0FF3008BD136015
:1024A000FCE700BF7C220020E03D0120704708B51A
:1024B000042910D8DFE801F003070B0B0B0000F034
:1024C000F3FF006808BD00F0EFFF4068FAE700F096
:1024D000EBFF8068F6E70020F4E710B5042104461E
:1024E0001FF0D4FB204610BD004870474C4B02083B
:1024F0000720704713B5002451B1036801948DF88B
:10250000034001AA9C680DF10303A04702B010BD6F
:102510000846FBE7C0897047008A7047C08870474B
:1025200080887047807A00F07F007047807AC00909
:1025300070470020704700009FED010A704700BF00
:1025400000000000704710B5082104461FF09EFBF4
:10255000204610BD7047704700F5987308684968B9
:1025600003C37047704770474160704770477047BA
:10257000064BC0F84C310023C0F8503100F5A2736F
:10258000C0F84801C0F84031704700BF0927000873
:102590000123037270477047704710B4C2684168E6
:1025A0005410034601EB6200D20748BF0A599B68EA
:1025B0005DF8044B48BFD35818470346406830B114
:1025C0009A681AB9D86800F0010070470120704776
:1025D00010B50C2104461FF059FB204610BD10B564
:1025E000102104461FF052FB204610BD10B54FF4D9
:1025F000AE7104461FF04AFB204610BD10B54021C5
:1026000004461FF043FB204610BD10B50CF01AFD28
:102610000368BDE81040DB6B18470000054B1B78D2
:1026200001462BB1406818B103680C315B6E184746
:10263000704700BF9B300120037A70B50546BBB9D7
:1026400040680368DB69984704463CB968680368DA
:1026500005F10C011B6EBDE870401847A1886B8F17
:10266000C91A236820461B6B09B29847A469ECE796
:1026700070BD10B50446D0F8400158B10368DB685E
:10268000984738B1D4F8400103689B689847002305
:10269000C4F8403110BD70B5044690F8390094F884
:1026A00038300130C0B2984284F8390005D901238E
:1026B0002372002384F8393070BDB4F93A20002128
:1026C0000EF076FEC30706D500284FF6FF73C8BF8D
:1026D0000123184400B2238AC01AA08760680368E7
:1026E000DB69984705462DB960680368BDE870400E
:1026F0005B691847A988A38F19442B6828461B6B70
:1027000009B29847AD69EEE72DE9F14FD0E9556A76
:102710000746B06803681B6A9847C32805D8444B2E
:10272000444AA321444820F0EDF9706803681B6A0D
:1027300098470F2803D8414B3E4AA421F2E7F0689E
:1027400003681B6A98470B2803D83D4B394AA521DB
:10275000E8E70CF077FCDFF8F09004300CF097FC21
:10276000D9F8000010B10368DB689847D9F8000079
:1027700010B103681B689847DFF8D080D8F80000D4
:1027800010B103685B699847D7F83C0110B1036842
:102790005B689847D8F8000010B103681B68984739
:1027A000D7F83C0110B103689B689847F06803684C
:1027B00000215B6A98474FF0000B224BC0F804B031
:1027C000044680F808B00360B068036859465B6A45
:1027D0009847054601F0E6FA7068036859465B6A57
:1027E00098472946064601F0BDFA331DC7F83C61FB
:1027F000C9F80040C8F80050CAF800302B68C6F885
:1028000008A02846DB68EE639847336830461B68AB
:102810009847214628460EF0C5FD236820461B69CF
:10282000984723685B69204601B0BDE8F04F184720
:102830008D4002081B410208F54102083C42020893
:10284000DF4202085C4C0208E4300120E030012045
:102850002DE9F14FD0E9556A0746B06803681B6A55
:10286000984740F67323984205D8564B564AA32101
:10287000564820F047F9706803681B6A98470F288C
:1028800003D8534B504AA421F2E7F06803681B6A4F
:1028900098473F2803D84F4B4B4AA521E8E70CF057
:1028A000D1FBDFF8449104300CF0F1FBD9F80000C3
:1028B00010B10368DB689847D9F8000010B10368CD
:1028C0001B689847DFF82481D8F8000010B103682E
:1028D0005B699847D7F83C0110B103685B6898477B
:1028E000D8F8000010B103681B689847D7F83C017E
:1028F00010B103689B689847F068036800215B6A21
:10290000984705460023344A4360037245F80C2B70
:102910000446284609F0F0FB142222872F4A127839
:102920000023A387002A35D101232372B0680368EE
:1029300000215B6A9847054600F076FE70680368E0
:1029400000215B6A98472946064600F009FE331DC0
:10295000C7F83C61C9F80040C8F80050CAF8003018
:102960002B68C6F808A02846DB68EE6398473368F2
:1029700030461B689847214628460EF013FD236811
:1029800020461B69984723685B69204601B0BDE873
:10299000F04F18471249134AB1F900B0E1682361BA
:1029A00028468B6BB2F900109847E3685946DB6BF9
:1029B00028469847284609F01AFB0A4A13885B42C2
:1029C0006387B3E78D40020882430208F54102089D
:1029D0003C420208DF420208804C02089B30012082
:1029E0009230012090300120E4300120E0300120BD
:1029F000044B1B6893F858200AB1D86C00B998684A
:102A0000704700BF9C300120F8B5174604460E46BB
:102A10000CF0DAFB124B1C60124B2360124B0025AA
:102A2000C4E95135114BC4E95355186803680121B5
:102A30009B68C4E94F55C4E955769847284600F08D
:102A4000E7FCFFF7D5FF17F01EF8FFF7D1FF17F0EF
:102A500095F8FFF7CDFF17F09DF82046F8BD00BFB1
:102A6000F0300120084C0208F04B02089C30012095
:102A7000064BC0F84C310023C0F8503100F5A2736A
:102A8000C0F84801C0F84031704700BF092700086E
:102A9000064BC0F84C310023C0F8503100F5A2734A
:102AA000C0F84801C0F84031704700BF5128000805
:102AB0007047704770477047704730B5036885B0FE
:102AC0006D460181D3F88430014604462846984774
:102AD00095E807003C3484E8070005B030BD30B508
:102AE000036885B06D464181D3F8843001460446C1
:102AF0002846984795E807003C3484E8070005B06D
:102B000030BD0022028042808280C280704780F8FF
:102B10003610704770B5036804461B6B154698471E
:102B20002368294620465B6EBDE8704018470020A8
:102B30007047806C704770477047704710B54C21E4
:102B400004461FF0A3F8204610BD10B54FF4DA710B
:102B500004461FF09BF8204610BD08B5FEF79EFC0A
:102B600008BD0000036870B55E6B124B1B6804461D
:102B70008DB22BB9104B114A6C2111481FF0C2FFC6
:102B80001049828D0988914203D80F4B0B4A6D2161
:102B9000F3E713F812200D4B1B6853F8220003686B
:102BA0001B6B9847291A3346204609B2BDE870408E
:102BB000184700BFF43001206D440208AF440208FA
:102BC000EA440208F830012031450208FC300120B7
:102BD00000224FF0FF31C0E900218260704770B5DC
:102BE000036804461B6B1546984723682946204610
:102BF0005B6BBDE87040184770B504461D46BDF9D3
:102C00001060FFF7ECFF2368294620469B6B98472E
:102C1000236831462046DB6BBDE870401847000052
:102C20000022C0E90122C0E90322C0E90522C0E96F
:102C300007224FF480728284014A0260704700BF0D
:102C4000A44C020810B526220446002120F061F9A8
:102C50002046FFF7E5FF0A4BA3624FF6FF73A385FB
:102C60004FF47F020023C4E90C32064A2260238716
:102C70004FF0FF32C4E91023E363A364204610BD84
:102C8000E04B02080C4D02082DE9F04F04468BB0D2
:102C9000A2460EF0DBF90025944BE5634AF8403B71
:102CA00026222946504620F034F95046FFF7B8FF57
:102CB00004F16C06FF278E4B236426224FF6FF7328
:102CC000294684F866703046A566ADF8203020F0BD
:102CD00020F93046FFF7A4FF864BE366BDF82030AD
:102CE000A4F8923008A9304604F1980984F8947049
:102CF00009F0BBFC04F1E4084846FFF7A3FF404697
:102D0000FFF7A0FF04F5987318460293FFF79AFFA8
:102D10004FF4A0732A46504600932946F023FFF74C
:102D20006BFF4FF07F43A366231D18465146039364
:102D300006F0C6FA40F2131230466921FFF74FFF42
:102D40004FF0040A304608A9ADF820A009F08DFC28
:102D5000314604EB0A0006F0B3FA1E234FF49172D9
:102D600000932946F0234846FFF746FF624BC4F81C
:102D7000C830D4F89830A4F8CC5004AED3F88430DE
:102D80005E4F49463046984796E8070004F1D40361
:102D900083E807003B6804F5BE7B2BB9584B594AC2
:102DA000602159481FF0AEFE584B1B88052B03D8F5
:102DB000574B544A6121F4E7564B0521186800F03F
:102DC00063FB554A03460C2158460FF007FE484660
:102DD000C4F8E0B008A9DFF844B1ADF824A0CDF8FC
:102DE00020B009F0B3FA4946201D06F069FA2A46D8
:102DF0001B214046FFF7F3FED4F8E430A4F8185145
:102E00004FF0FF3AD3F88430C4F814A1414630465D
:102E1000984796E8070004F5907383E807003B683D
:102E200004F5CA79002BB9D0384A1388022BBFD9D0
:102E3000384B0221186800F027FB374A0346082167
:102E400048460FF0CBFD4046C4F82C9109F05EFADD
:102E5000032308A94046ADF82430CDF820B009F08E
:102E600075FA4146201D06F02BFA2A460298A52144
:102E7000FFF7B5FED4F830310299D3F88430C4F8A6
:102E800060A13046A4F86451984796E8070004F51D
:102E9000B67383E807003B6804F5D276002B3FF455
:102EA0007DAF1A4A1388012B82D91A4B0121186869
:102EB00000F0EAFA184A0346082130460FF08EFD6A
:102EC0000298C4F8786109F021FA0298CDF820B090
:102ED00008A9ADF8245009F039FA201D029906F02E
:102EE000EFF920460BB0BDE8F08F00BF9C4D020803
:102EF00068520208D05202082200FFFFF43001207D
:102F00006D4402086F450208EA440208F8300120C7
:102F10003145020800310120BA450208E04B0208A1
:102F2000406A7047806A704770478A880B8810B57E
:102F3000D20A4C88C1699BB251F8220043EA04438B
:102F4000184410BD10B50446BAB1107B68B1537B6C
:102F5000D27A1B0203F4E0631A43236A03EB820371
:102F60001A888A4202D193F9020010BD05D80138AF
:102F700080B204330028F3D1F7E70020F5E710B55D
:102F80002C2104461EF082FE204610BD30B58BB0C9
:102F90000446BDF860500895BDF85C5007959DF853
:102FA000505006959DF84C5005959DF84850049555
:102FB0009DF8445003959DF8405002959DF83C5073
:102FC0000195BDF8385000950DF046FE064B236084
:102FD000159BE361169B2362199B63621A9BA36294
:102FE00020460BB030BD00BFD04D0208704770477F
:102FF000704730B4C26844685510034604EB620061
:10300000D20748BF62599B6830BC48BFD3581847A5
:103010000346406830B19A681AB9D86800F00100D8
:1030200070470120704710B5102104461EF02EFE97
:10303000204610BD10B5C42104461EF027FE2046D0
:1030400010BD6C30884208B505D10BF0FBFFBDE820
:103050000840FFF71DBD08BDF8B5194B018F1B884F
:103060008B4206462AD9174B1B682BB9164B174AB9
:1030700017486C211FF046FD13F81120154B1B68F3
:1030800053F82250144B186800F0FEF92B680746DD
:103090009B6B284698472B6804469B6C394628460C
:1030A00098472B6814FB00F45B6A3946284698471A
:1030B000A4B223181BB2A6F84630F8BD0023FAE7E5
:1030C000F8300120F43001206D440208AF440208BA
:1030D000EA440208FC300120003101202DE9F341CF
:1030E00004460DF0B3FF2F4B23602F4B0025C4E99E
:1030F00010354FF4807304F16C06A4F86430FF239C
:1031000084F86630C4E91255C4E91455C4E916556B
:10311000E5632566A566304609F0E8FB234BC4E964
:103120002D34234B04F140072A46C4E92F352946A4
:103130003846FFF754FD3846F021FEF7F9F83846D7
:103140004FF4A071FEF7F6F804F104084FF07F4346
:10315000A3663946404606F0B3F829463046E322D6
:10316000FFF73DFD01AA694601233046ADF8043062
:10317000ADF8005009F047F90623A4F8A430304612
:10318000FFF76AFF4FF0FF33C4E92A3304F1B403B9
:103190004046C4F89430314606F092F8204602B01A
:1031A000BDE8F081504E020868520208384E02080D
:1031B000433000087047000030B5174D2C6814F0FC
:1031C00001048FB0BFF35B8F22D128461EF060FD53
:1031D000F0B13F230993114B0893114B1149124849
:1031E0000A94CDE9064301220423CDE903320A23E0
:1031F000009315220C23CDE90B44CDE9014405943D
:10320000FFF7C4FE09481FF09BFC28461EF04CFD4A
:1032100005480FB030BD00BF802200208063020847
:103220008C630208A061020884220020B5310008E6
:103230007047000030B5174D2C6814F001048FB0B2
:10324000BFF35B8F22D128461EF022FDF0B13F2351
:103250000993114B0893114B114912480A94CDE977
:10326000064301220423CDE90332142300930C22E8
:103270001823CDE90B44CDE901440594FFF786FE00
:1032800009481FF05DFC28461EF00EFD05480FB0F2
:1032900030BD00BFB02200208463020890630208A2
:1032A000C8620208B42200203132000870470000D2
:1032B00030B5164D2C6814F001048FB0BFF35B8F4E
:1032C00020D128461EF0E4FCE0B13F230993104BC7
:1032D0000893104B104911480A940122CDE9064386
:1032E0000423CDE9033228230093CDE90B44CDE933
:1032F00001440594FFF74AFE09481FF021FC2846C7
:103300001EF0D2FC05480FB030BD00BFE022002007
:10331000886302089463020870630208E4220020B4
:10332000AD32000800207047002070470EB403B58E
:1033300003AB002153F8042B01930CF00BFF02B0F8
:103340005DF804EB03B070470CB407B504AB53F859
:10335000042B01930CF0FEFE03B05DF804EB02B009
:1033600070470000436C10B5044673B3038F2BB94C
:10337000184B194AC52119481FF0C4FBC38E00EB36
:1033800043035B8C0BB30EF080FD238F012B03D81E
:10339000134B144ACB21EEE7E28E531C9BB2092B50
:1033A000194688BFA3F10A0104EB410140F63F1022
:1033B000498C814209D10A2B04EB420228BF002329
:1033C00004EB4303508C588451842046BDE81040E0
:1033D0000EF05EBCBD450208C645020871460208F3
:1033E000BB460208C94602080EF019BC10B586B0EB
:1033F00002AC84E806001A460AAB05930193099BC8
:1034000000932146089B0BF0BBF906B010BD0000ED
:1034100038B518BB124B13481C681349B4B1226865
:1034200022440260626822440A60A26814440F4B7E
:1034300000221A8000F038F8054600F033F80C4BF3
:103440001C600C4B1D600C4B188007E00B4B03609D
:103450000B4B0B600B4B1C68002CE8D138BD00BF38
:103460001C230020142300201023002018230020F8
:10347000F4300120FC300120F8300120B463020850
:1034800098630208F4630208044B1B6853F8210098
:10349000034B1B6803EB4000704700BF1023002064
:1034A0001423002007207047004870472023002085
:1034B00010B5FFF7BFFE044C2060FFF7F9FE606017
:1034C000FFF77AFEA06010BD2023002010B5002475
:1034D00004600C6014601C6010BD704710B54FF4A0
:1034E000AE7104461EF0D2FB204610BD10B5044656
:1034F000D0F8580100F0E6FB2046BDE810400BF084
:1035000023BE000010B50446FFF77EFA014B23608E
:10351000204610BD844E020870470438704770473B
:1035200010B5102104461EF0B1FB204610BDA0F1DD
:103530000400F5E7C06800F0DDB8A0F10400FFF773
:10354000F9BFC06800F0E6B8A0F10400FFF7F9BFCA
:10355000C06800F0D5BAA0F10400FFF7F9BF000081
:1035600000228260024A026024324260C1607047D9
:10357000D84E020870470000164B70B50546036030
:103580004FF4226440F69C16B4421DD140F284668A
:103590002B5928191B682C3C9847B442F8D12B5959
:1035A00028191B682C3C9847B4F5457FF7D12B5957
:1035B00028191B682C3C9847B4F5C47FF7D12846DE
:1035C000FFF7BAFA284670BD2B5928191B6898478F
:1035D0002C3CD9E7184F020810B50446FFF7CCFF82
:1035E000204640F674211EF051FB204610BD00001D
:1035F000002310B5C0E90133C0E90333C0E9073344
:10360000C0E905334FF480738384064B03600B8855
:10361000C384FF23044680F8283009F026F82046AA
:1036200010BD00BFD05202082DE9F3410546FFF757
:103630002BFB2E4B2B6005F5DA7405F550764FF613
:10364000FF77204601A92C34ADF80470FFF7D0FFB6
:10365000B442F6D105F5D6664FF6FF77204601A9AC
:103660002C34ADF80470FFF7C3FFB442F6D105F671
:10367000C8164FF6FF7804F58477204601A92C344C
:10368000ADF80480FFF7B4FFBC42F6D1A642F2D1F8
:1036900034464FF6FF7705F64C26204601A92C3418
:1036A000ADF80470FFF7A4FFB442F6D1104B062228
:1036B00018689B88C5F84C0A0A21A3802846002375
:1036C000C5F8582A032285F8523AC5F8543AC5F885
:1036D0005C2AC5F8601AC5F8643AC5F8683AC5F8B6
:1036E0006C2A85F8703A02B0BDE8F081184F0208E4
:1036F000583B020808B5B0F97030B0F9722019448F
:10370000D229A8BFD22121EAE17109B26C30FDF7BC
:1037100018FE08BD10B50B460446064A182100F5F0
:10372000BE700FF05BF904F19800BDE810400CF09A
:103730003BBE00BF9B470208B1F90400B1F9083055
:1037400030B5B2F904400344A34215DBB2F90830A6
:103750002344834210DBB1F90640B1F90A30B2F9D3
:1037600006502344AB4207DBB2F90A002844A042CA
:10377000B4BF0020012030BD0020FCE707B505489C
:1037800001A902F08FFC18B9019803B05DF804FBA1
:103790002A20FAE7942000202DE9F0410546002375
:1037A0002C2005F2653600FB03F4375D97B904F56C
:1037B00050762E4430462C4412B209B2FFF70FFA6D
:1037C000012384F86533D4F8403330465B69BDE8A3
:1037D000F04118470133142BE5D1BDE8F08100001A
:1037E0002DE9F74F0446054600F5C67806464FF02A
:1037F000000996F8D9314BB1B6F9BA21B6F9BE3104
:10380000043A5B42934213DD86F8D9912C36464543
:10381000EFD104F55073DFF8B8A2009304F5DA761F
:103820004FF4847996F82530002B6ED000271EE0E7
:10383000D6F8B431B6F9B8119B6D06F5DA7738468B
:1038400012B29847D6F8B43138465B699847DDE73D
:10385000032A0CBF0A33053339E008F10108B8F137
:10386000060F03F12C0306D10137032F4DD009FBBE
:1038700007434FF0000893F8D526002AEDD003F552
:10388000D66B5A46314620460193FFF755FF019B00
:103890000028E2D009FB07F32C2101FB0838A044E3
:1038A000002286F8252088F8D526336830465B69E3
:1038B0009847D8F8B03604EB47075B6958469847F5
:1038C000B7F84C2AD4F8683A052AC1D114337F4A94
:1038D000C4F8683A102104F5CA700FF07FF804F1BB
:1038E000E4000CF061FDD4F8683ADAF80020934265
:1038F0000BDD764ACAF80030102104F5D2700FF0C3
:103900006DF804F598700CF04FFD009B2C369E422C
:1039100088D1D4F8643AD4F8602A01339342C4F8C9
:10392000643AC0F2B6800027C4F8647AE6194FF012
:10393000060996F8D536E3B194F8523AB6F9B416BA
:10394000B6F9B626032B06D8DFE803F002A6AAAE26
:10395000D4F85C3A1944D6F8B03606F5D6689B6DB3
:10396000404612B209B29847D6F8B03640465B6975
:103970009847B9F1010906F12C06DAD107F58477E9
:10398000B7F5467FD2D1D4F8543AD4F8582A013347
:103990009342C4F8543A08DB94F8523AC4F8549A63
:1039A000013303F0030384F8523A2046FFF7E6FEA2
:1039B0000323B0FBF3F303EB4303C61A2046FFF7E0
:1039C000DDFE0623B0FBF3F202FB13004FF4847319
:1039D0005E432C2303FB0066264496F8D536C3B11C
:1039E0002046FFF7CBFE1423B0FBF3F202FB1300DB
:1039F00078B9B6F9B816B6F9B606B6F9BA26B6F970
:103A0000B43601EBD171024403EB61012046FFF7AC
:103A1000C3FE04F55C7704F16C0800264FF0010941
:103A200095F8653393B3B5F946B30BF10A0BBBF5C3
:103A3000A07F05F5507AC8BF85F8656342465146B8
:103A40002046FFF779FED5F8403388B350465B69CE
:103A500085F865639847D4F86C0A00280EDD0138B4
:103A60002C23C4F86C0A5843231800F6C81083F8B6
:103A7000ED69D3F8C83920445B699847D4F86C3AAB
:103A800023B994F8703A0BB984F8709A2C35BD427A
:103A9000C6D103B0BDE8F08FD4F85C3A1A445AE7B7
:103AA000D4F85C3AC91A56E7D4F85C3AD21A52E70D
:103AB00050469B6DB5F944130FFA8BF29847D5F831
:103AC000403350465B699847E0E700BF9B470208D8
:103AD0002C23002010B5094C0021204603F0D2F918
:103AE00023684FF4FA7232205A6300F041FC2046FA
:103AF0000021BDE8104003F005BA00BFF41F00200C
:103B000070B5002304462C2200F2D91102FB03F504
:103B1000485D40BB05F5DA762544B4F87220B5F867
:103B2000BE31B4F87010D21AB4F9743003EBD37309
:103B300001EB6301B5F9BC3103EBD3732644A1EB70
:103B40006301304612B209B2FFF749F8012385F844
:103B5000D931D5F8B43130465B6998472046BDE885
:103B60007040FFF7B7BF0133092BCFD170BD000004
:103B70002DE9F04F85B00446FEF7DFFF04F5DA7655
:103B800004F550754FF002080027336830461B6E6D
:103B9000ADF80C8003A904F10409984786F8257054
:103BA000314648462C3605F08BFBAE42EDD100265F
:103BB0004FF4847B04F64C2306EB860202EB820270
:103BC0001E3212B200920BFB06480F27D8F8B0261F
:103BD00033F81610126E019308F5D66AADF80C1082
:103BE000504603A9904739B2009A5046FEF7F7FFB6
:103BF00023374FF0010388F8D53651464846BFB207
:103C000005F05EFBE12F019B08F12C08DED10136A7
:103C1000032ED1D104F5D6664FF0020800272B6899
:103C200028461B6EADF80C8003A9984785F82570CF
:103C3000294648462C3505F043FBAE42EFD104F649
:103C4000C8150A264FF0040801272B6828461B6E6A
:103C5000ADF80C8003A9984731B228464FF496720C
:103C60002336FEF7BCFFB6B285F8257029464846D4
:103C700005F026FB732E05F12C05E6D1D4F8683A41
:103C80000C4A102104F5CA700EF0A8FE0A4B094A2E
:103C90001B68102104F5D2700EF0A0FE04F1E400C0
:103CA0000CF082FB04F5987005B0BDE8F04F0CF005
:103CB0007BBB00BF9B4702082C2300200022026030
:103CC0007047000038B504461A4800F00BFC19484C
:103CD0000A2100F085FC90B9164800F0D4FC0528B4
:103CE000054623D9102834BF00210321206803682A
:103CF0009B689847206803682946DB6898470E4D03
:103D00000E482B68002BC8BF03F1FF334FF0200192
:103D1000C8BF2B6000F096FF38B92B682BB920681C
:103D200003681B6998470A232B6038BD6FF00201B6
:103D3000DCE700BFE8210020302300200000024023
:103D4000704770477047704704387047704710B528
:103D5000102104461DF09AFF204610BDA0F104007A
:103D6000F5E7000000228260024A026018324260D9
:103D7000C16070474C4F02087047000010B5034BFC
:103D800003600446FFF733F9204610BD804F020858
:103D900010B50446FFF7F2FF2046C4211DF076FF60
:103DA000204610BD10B50446FFF798F9014B23607B
:103DB000204610BD804F0208FFF71AB9F020704767
:103DC0004FF4A07070472920FDF79EBF2820FDF713
:103DD0009BBF08B5FDF76CFFCA20FDF795FFC32018
:103DE000FDF776FF0820FDF773FF5020FDF770FF09
:103DF000CF20FDF789FF0020FDF76AFFC120FDF706
:103E000067FF3020FDF764FFED20FDF77DFF6420A4
:103E1000FDF75EFF0320FDF75BFF1220FDF758FF63
:103E20008120FDF755FFE820FDF76EFF8520FDF7A7
:103E30004FFF0020FDF74CFF7820FDF749FFCB2016
:103E4000FDF762FF3920FDF743FF2C20FDF740FF0F
:103E50000020FDF73DFF3420FDF73AFF0220FDF77B
:103E600037FFF720FDF750FF2020FDF731FFEA2054
:103E7000FDF74AFF0020FDF72BFF0020FDF728FF8C
:103E8000B120FDF741FF0020FDF722FF1B20FDF7C9
:103E90001FFFB620FDF738FF0A20FDF719FFA2200B
:103EA000FDF716FFC020FDF72FFF1020FDF710FFD4
:103EB000C120FDF729FF1020FDF70AFFC520FDF7FF
:103EC00023FF4520FDF704FF1520FDF701FFC72064
:103ED000FDF71AFF9020FDF7FBFE3620FDF714FFDB
:103EE000C820FDF7F5FEF220FDF70EFF0020FDF7DC
:103EF000EFFEB020FDF708FFC220FDF7E9FEB62077
:103F0000FDF702FF0A20FDF7E3FEA720FDF7E0FE24
:103F10002720FDF7DDFE0420FDF7DAFE2A20FDF75D
:103F2000F3FE0020FDF7D4FE0020FDF7D1FE0020B7
:103F3000FDF7CEFEEF20FDF7CBFE2B20FDF7E4FED4
:103F40000020FDF7C5FE0020FDF7C2FE0120FDF7B1
:103F5000BFFE3F20FDF7BCFEF620FDF7D5FE012099
:103F6000FDF7B6FE0020FDF7B3FE0620FDF7B0FE1C
:103F70002C20FDF7C9FEC820FDF714FF2620FDF711
:103F8000C3FE0120FDF7A4FEE020FDF7BDFE0F20DB
:103F9000FDF79EFE2920FDF79BFE2420FDF798FEED
:103FA0000C20FDF795FE0E20FDF792FE0920FDF78F
:103FB0008FFE4E20FDF78CFE7820FDF789FE3C2019
:103FC000FDF786FE0920FDF783FE1320FDF780FE36
:103FD0000520FDF77DFE1720FDF77AFE1120FDF785
:103FE00077FE0020FDF774FEE120FDF78DFE002036
:103FF000FDF76EFE1620FDF76BFE1B20FDF768FE39
:104000000420FDF765FE1120FDF762FE0720FDF795
:104010005FFE3120FDF75CFE3320FDF759FE4220A4
:10402000FDF756FE0520FDF753FE0C20FDF750FE70
:104030000A20FDF74DFE2820FDF74AFE2F20FDF750
:1040400047FE0F20FDF744FE1120FDF75DFEC8205E
:10405000FDF7A8FE2920FDF757FEBDE808402C20FB
:10406000FDF752BE08B5FDF723FE0321D320FDF76F
:1040700067FE80B208BD10B5C4B2022203212046FB
:10408000FDF7CCFD0A20FDF711FE2046002203219A
:10409000FDF7C4FDBDE810400220FDF707BE38B5AE
:1040A0000446E4B2FDF7B8FD00212046FDF7CEFD41
:1040B000012105462046FDF7C9FD40EA052080B2F2
:1040C00038BD10B5C4B240212046FDF7BFFD030640
:1040D00007D54C212046FDF7B9FD003818BF012057
:1040E00010BD01224B212046FDF798FD20460022FD
:1040F0004B21FDF793FD0020F2E773B50423C4B212
:104100000E461546D7210DEB03022046FDF7B8FDFC
:10411000019B1BBA1A0DC3F30B23328020462B8060
:1041200001224B21FDF77AFD00224B212046FDF7AD
:1041300075FD02B070BD000010B50A4A13789842B0
:1041400004460DD0517888420AD00BB141B9012301
:10415000D454FDF761FD2046BDE81040FFF78BBF4A
:1041600010BD00BF3423002010B5C4B20921204681
:10417000FDF76CFD40F00102D2B220460921BDE8F6
:104180001040FDF74BBD10B5C4B209212046FDF724
:104190005DFD092100F0FE022046BDE81040FDF75C
:1041A0003DBD38B5C4B20D4620460A21FDF74EFD8F
:1041B00040EA0502D2B220460A21BDE83840FDF7A8
:1041C0002DBD10B50446FDF728FD20461F21FFF741
:1041D000E8FF2046BDE81040FFF7C6BF38B5C4B2BF
:1041E0000D4620460A21FDF731FD20EA0502D2B234
:1041F00020460A21BDE83840FDF710BD10B5044641
:10420000FFF7C1FF20461F21BDE81040FFF7E6BFC2
:1042100010B5C0B20C460B21FDF718FD204010BDB3
:104220001F21FFF7F5BF0A46C0B20B21FDF7F6BC10
:104230001F21FFF7F8BF38B5C4B20D46204617213D
:10424000FDF704FD20EA0502D2B220461721BDE8A1
:104250003840FDF7E3BC70B5C4B2064604212046E1
:10426000FDF7F4FC042100F0FB0205462046FDF7B3
:10427000D5FC3046F021FFF7DEFF05F0F8022046BE
:104280000421FDF7CBFC492220212046FDF7C6FC86
:104290000220FDF70BFD204601222121FDF7BEFC87
:1042A00020469A224121FDF7B9FC204601224A21ED
:1042B000FDF7B4FC204601224B21FDF7AFFC204660
:1042C00000224B21FDF7AAFC204601225621FDF7D2
:1042D000A5FC204601225821FDF7A0FC2046012222
:1042E0004021FDF79BFC2046FF220B21FDF796FCA9
:1042F000BDE870400220FDF7D9BC0000054BD3F8A3
:10430000882042F47002C3F888204FF000629A605F
:10431000704700BF00ED00E008B50B4B1A6842F48F
:1043200000721A601A6842F480621A601A6842F4D5
:1043300080721A60032000F045FA0020FDF7FCFFB0
:10434000FDF73EFD002008BD003C0240034A044B3F
:1043500011681B780B441360704700BF382300209E
:1043600078000020014B1868704700BF38230020F8
:1043700038B50446FFF7F6FF631C1CBF054B1B78DE
:10438000054618BFE418FFF7EDFF431BA342FAD31D
:1043900038BD00BF7800002038B50446002800F082
:1043A0009B80056C25B9FDF72BFD656484F83C50B6
:1043B000236CDB0600F18E80236C23F4885323F0FA
:1043C000020343F002032364444B5A6822F4403250
:1043D0005A605A6861680A435A60236821695A68BA
:1043E00022F480725A605A6842EA01225A605A687E
:1043F000A16822F040725A605A680A435A609A686B
:10440000E16822F400629A609A680A439A6034492B
:10441000A26A8A4252D0996821F0706199609968C5
:104420000A439A609A68E16A22F040529A609A6858
:104430000A439A609A6822F002029A609A68217E82
:1044400042EA41029A6094F82020002A3ED05A683D
:10445000616A42F400625A605A6822F460425A600B
:104460005A68013942EA41325A60DA6AE16922F453
:104470007002DA62DA6A013942EA0152DA629A6853
:1044800022F400729A609A6894F8301042EA41224D
:104490009A609A68616922F480629A609A68002042
:1044A00042EA81229A606064236C23F0030343F0A4
:1044B00001032364002384F83C3038BD9A6822F05D
:1044C00070629A609A6822F04052B2E75A6822F409
:1044D0000062C9E70120EDE70120EEE7002301407B
:1044E0000100000F82B00023019390F83C30012BB3
:1044F00069D0012380F83C3003689A68D2070BD555
:104500009A68D1071AD4036C43F010030364436C18
:1045100043F0010343644CE09A682C4942F00102E5
:104520009A602B4A1268B2FBF1F202EB420201924E
:10453000019A002AE4D0019A013AF8E7026C22F4C9
:10454000E06222F0010242F4807202645A6852056D
:1045500041BF026C22F4405242F480520264026C69
:1045600012F480521CBF426C22F006024264002208
:1045700080F83C206FF022021A60164A516811F050
:104580001F0F15491CD18B4207D001F580718B425A
:104590000CD1526812F01F0F0BD19A6812F0405FD5
:1045A00007D19A6842F080429A6002E00B498B4240
:1045B00002D0002002B07047526812F0100FEBE7F3
:1045C0008B42F6D1E9E70220F4E700BF40420F003A
:1045D000740000200023014000200140002201401F
:1045E00003689A68520570B504460D460BD59B6862
:1045F000DE0508D5036C43F020030364002380F834
:104600003C30012070BDFFF7ADFE064623681A68F6
:1046100091070CD56FF012021A60226C42F40072FE
:1046200022649A6812F0405F17D00020EAE7681C05
:10463000EDD065B923681B6813F00203E6D1226C44
:1046400084F83C3042F0040222640320DAE7FFF7EA
:1046500089FE801BA842EDD8D8E7227E002AE4D14B
:10466000DA6A12F4700F02D09B685A05DDD4236C0D
:1046700023F480732364236CDB04D6D4236C43F0CF
:1046800001032364D1E70368D86C7047F7B50023B2
:10469000019390F83C30012B054600F08680012301
:1046A00080F83C3008682B688E68092884B233D9BA
:1046B00004EB4402DF681E3A4FF0070C0CFA02FCD0
:1046C00027EA0C07DF60DF6806FA02F23A43DA6095
:1046D0004968062901EB81022DD8596B053A1F263E
:1046E000964021EA06015963596B04FA02F20A4323
:1046F0005A632F4A93420AD1122837D12D4B5A6858
:1047000022F400025A605A6842F480025A60002083
:1047100085F83C0003B0F0BD1A6900EB400C072798
:1047200007FA0CF722EA07021A611A6906FA0CF670
:1047300016431E61CCE70C294FF01F010BD81E6BEE
:10474000233A914026EA01011963196B04FA02F237
:104750000A431A63CDE7DE6A413A914026EA010135
:10476000D962D96A94400C43DC62C2E7124B98428A
:1047700001D01128CBD10F4B5A6822F480025A6025
:104780005A6842F400025A600B4B9842BFD10B4B5F
:104790000B4A1B68B3FBF2F30A2253430193019BBC
:1047A000002BB4D0019B013BF8E70220B2E700BF29
:1047B000002001400023014012000010740000207E
:1047C00040420F000749CA6822F4E0620302120463
:1047D00003F4E063120C134343F0BF6343F400336C
:1047E000CB60704700ED00E0164B30B5DC68C4F3D9
:1047F0000224C4F10703251D042B28BF0423062D22
:104800004FF0FF358CBF033C002405FA03F321EA87
:104810000303A54022EA0502A340002843EA02035D
:10482000ACBF00F16040084A4FEA0313B8BF00F084
:104830000F00DBB2AABF00F56140135480F80033CB
:1048400030BD00BF00ED00E014ED00E0002807DB04
:10485000044A4109012300F01F00834042F821303F
:10486000704700BF00E100E010B5044650B1437945
:1048700003F0FF0213B90271FDF7F4FA012363712B
:10488000002010BD0120FCE710B5044620B390F8CD
:10489000393003F0FF021BB980F83820FDF7FAFA2F
:1048A000022384F83930236861681A6822F44032A0
:1048B0000A431A605A6BA16822F007020A435A633E
:1048C0001A6CE1686FF30D020A431A640020012399
:1048D000E06384F8393010BD0120FCE77047704771
:1048E000036870B55E681D68F207044614D5E905D3
:1048F00012D51A6822F480721A60C26B42F001026B
:10490000C26301229A60042380F83930002380F8C2
:104910003830436903B19847B20616D5AB0414D5B5
:1049200023681A6822F400521A6020229A60E36B0E
:1049300043F00203E363042384F83930002384F84E
:10494000383063690BB120469847300716D52905E2
:1049500014D523681A6822F400621A6008229A604B
:10496000E36B43F00403E363042384F8393000234A
:1049700084F8383063690BB12046984772070BD52D
:104980006B0509D523681A6822F480621A60042234
:104990009A602046FFF7A2FFB00714D5A90512D5EB
:1049A00023681A6822F400721A6002229A60E36B8C
:1049B000E363012384F83930002384F83830236915
:1049C0000BB120469847F20613D5EB0411D52368A6
:1049D0001A6822F480521A6010229A60E36BE36333
:1049E000012384F83930002384F838302046FFF75B
:1049F00076FF70BDF0B590F83820012A03464FF0DD
:104A000002002BD0012283F8382083F8390003EB11
:104A10000112D2E90740556A174F44EA0040093CA9
:104A2000012C9CBF05F07F4210434FEA01161A6823
:104A300088BF40EA056091B9516A3940014351622B
:104A4000012C9969916103D8596A21F07F419162E3
:104A50000122002083F8392083F83800F0BDD169A5
:104A600039400143D1619919012C896911619CBFB9
:104A700025F07F451562EBE7F0FFFC002DE9F74FCD
:104A8000DFF8BC916C4A00230D6801249C4004EAC5
:104A90000506AC4340F0B7804D68032705F00304DA
:104AA0004FEA430807FA08FC671E012F6FEA0C0C57
:104AB00034D8876807EA0C0ECF6807FA08F747EA88
:104AC0000E078760476827EA060EC5F300179F4068
:104AD00047EA0E074760C76807EA0C0E8F6807FAB7
:104AE00008F747EA0E07022CC76019D14FEAD30A2C
:104AF00000EB8A0A03F0070BDAF820704FEA8B0B01
:104B00004FF00F0E0EFA0BFE27EA0E0E0F6907FA92
:104B10000BF747EA0E07CAF8207001E0032CDAD140
:104B2000076804FA08F407EA0C073C4315F4403F11
:104B3000046068D000240194D9F8444044F48044CF
:104B4000C9F84440D9F8444023F0030707F18047EF
:104B500004F4804407F59C37019403F0030C019C96
:104B6000D7F808E04FEA8C0C0F2404FA0CF42EEA74
:104B7000040E324CA0424DD004F58064A0424BD0CC
:104B800004F58064A04249D004F58064A04247D077
:104B900004F58064A04245D004F58064A04243D06F
:104BA00004F58064A04241D004F58064A0423FD067
:104BB00004F58064A0423DD004F58064A04214BF97
:104BC0000A24092404FA0CF444EA0E04BC60946834
:104BD000F74315F4801F0CBF3C4034439460D46805
:104BE00015F4001F0CBF3C403443D460546815F4E6
:104BF000003F0CBF3C40344354601468ED0354BF85
:104C00003C40344314600133102B7FF43DAF03B0BC
:104C1000BDE8F08F0024D5E70124D3E70224D1E7D3
:104C20000324CFE70424CDE70524CBE70624C9E716
:104C30000724C7E70824C5E7003C01400000024004
:104C4000003802400369194214BF01200020704758
:104C50000AB1816170470904FBE7436901EA030275
:104C600021EA030141EA02418161704701684B6911
:104C700013F480634FF0000210D06FF480634B6137
:104C80002023026380F83D3080F83E20036C80F8DA
:104C90003C2043F00403036401207047184670472A
:104CA0002DE9F84606460F4691461D464FEA114A41
:104CB0003368BAF1010F0CBF5C699C6927EA0404F0
:104CC000A4B2B4FA84F46409A14501D0002025E01F
:104CD0006A1CEED0FFF746FB089BC01AA84201D819
:104CE000002DE5D13368BAF1010F0CBF5B699B69F8
:104CF00027EA03039BB2B3FA83F35B099945D7D143
:104D000000232022336386F83D2086F83E30326C43
:104D100086F83C3042F0200232640120BDE8F8867B
:104D20002DE9F04104460F46164698462568686905
:104D300027EA000080B2C0B16B695A0517D52B680D
:104D400043F400732B606FF480636B6120220023B7
:104D5000236384F83D2084F83E30236C43F0040341
:104D60002364002384F83C300120BDE8F081731CEB
:104D7000DDD0FFF7F7FAA0EB0800B04201D8002E13
:104D8000D4D123685A6927EA020292B2002ACDD010
:104D900000232022236384F83D2084F83E30236CD6
:104DA0001343DDE770B504460D46164623685B697C
:104DB0001B0601D500201EE02046FFF757FFC8B9AB
:104DC0006A1CF3D0FFF7CEFA801BA84201D8002D51
:104DD000ECD123685B6913F08003E7D120222363C1
:104DE00084F83D2084F83E30226C84F83C3042F058
:104DF00020022264012070BD2DE9F04315460268AF
:104E000085B0DDE90C789946136843F4807313602C
:104E10000E463B46CDF8008000224FF001110446BB
:104E2000FFF73EFF236838B11B68DB0502D54FF45E
:104E300000732364032620E006F0FE061E611A4973
:104E400043463A462046FFF76BFFA8B92368039014
:104E50005A6903929B690393424639462046039B55
:104E6000FFF7A0FF064660B1236C042B01BF226848
:104E7000136843F4007313600126304605B0BDE8A3
:104E8000F083B9F1010F236802D1EDB21D61F4E79F
:104E90002A0A1A61394642462046FFF783FF002856
:104EA000E2D12368F1E700BF020001002DE9FF47CE
:104EB0009A46036815461A6842F480621A601A68B6
:104EC000DDE90C7842F480721A600E463B46CDF85C
:104ED000008000224FF001110446FFF7E1FE236835
:104EE00038B11B68DB0544BF4FF400732364032013
:104EF00021E05FFA86F906F0FE061E612B49434663
:104F00003A462046FFF70CFFA0B9236803905A6980
:104F100003929B690393424639462046039BFFF761
:104F200041FF58B1236C042B01BF2268136843F47E
:104F300000731360012004B0BDE8F087BAF1010FDF
:104F400023681AD1EDB242461D6139462046FFF76B
:104F500029FF02460028E5D121680B6843F48073DD
:104F60000B602046CDF800803B464FF00111FFF763
:104F700097FE226860B11368B4E72A0A1A613946BD
:104F800042462046FFF70EFF0028CBD12368D9E721
:104F900049F001031361054943463A462046FFF7AD
:104FA000BFFE003818BF0120C5E700BF02000100A6
:104FB00070B504460D46164623685B695B0701D54C
:104FC00000201EE02046FFF751FEC8B96A1CF3D04E
:104FD000FFF7C8F9801BA84201D8002DECD1236847
:104FE0005B6913F00403E7D12022236384F83D209A
:104FF00084F83E30226C84F83C3042F02002226477
:10500000012070BD70B504460D46164621684B69F7
:1050100013F0400301D0002011E04A69D2060FD5F9
:105020006FF010024A612022236384F83D2084F847
:105030003E30236C2364002384F83C30012070BD93
:10504000FFF790F9801BA84201D8002DDED123681C
:105050005B6913F04003D9D12022236384F83D20FB
:1050600084F83E30236C1343E4E7000070B5044637
:1050700008B9012070BD90F83D3003F0FF021BB964
:1050800080F83C20FCF728FF242384F83D30236877
:105090001A6822F001021A601A6842F400421A608B
:1050A0001A6822F400421A6000F08AFE3F4B6568DD
:1050B0009D4294BF3E4B3F4B98428CBF002301233F
:1050C000002BD6D12268394E51683B4BB0FBF3F32D
:1050D00021F03F011943B542516088BF4FF49676E5
:1050E000116A88BF734321F03F0184BF4FF47A7681
:1050F000B3FBF6F301330B431362D169431E2B4814
:1051000021F44F41854221F0FF0132D86D0040F675
:10511000FC70B3FBF5F30133034242D0C3F30B033E
:105120001943D161D4E907301168034321F0C0016C
:105130000B4313609168D4E9030321F40341034353
:1051400021F0FF010B439360D4E90530D16803439C
:1051500021F0FF010B43D360136843F00103136098
:1051600000202023206484F83D30206384F83E0032
:1051700080E7A06850B905EB4505B3FBF5F30133B3
:10518000C3F30B037BB143F40043C9E71920684321
:10519000B3FBF0F30133C3F30B0323B143F44043F8
:1051A000BEE70423BCE70123BAE700BFA0860100E5
:1051B0007F841E00FF083D0040420F002DE9F743A9
:1051C000044699460C9E0F469046FFF7CBF894F89C
:1051D0003D30202B054603D0022003B0BDE8F0830C
:1051E00000903C49192301222046FFF759FD002871
:1051F000F2D194F83C30012BEED02068012384F8E2
:105200003C300368D9075EBF036843F001030360C5
:10521000036823F400630360212384F83D304023B6
:1052200084F83E30002323640A9B6362BDF82C306F
:105230006385638D2385284BE3624246CDE9006593
:105240004B4639462046FFF7D7FD00282AD00120DB
:10525000C3E7FFF7A7FD40B1236C042B01BF226811
:10526000136843F400731360F1E7636A27681A4612
:1052700012F8011B39616262628D218D013A92B28E
:1052800062857A69481E80B2520720850AD548B1E6
:105290005A783A6102336362638D013B02399BB2F3
:1052A00021856385238D2A4631462046002BD0D1A7
:1052B000FFF77EFE0028CFD12268136843F4007305
:1052C0001360202384F83D3084F83C0084F83E00CD
:1052D00083E700BF020010000000FFFF2DE9F0434C
:1052E000044687B09946109F0D469046FFF73AF85E
:1052F00094F83D30202B064604D00225284607B0FE
:10530000BDE8F08300907A49192301222046FFF777
:10531000C7FC0028F1D194F83C30012BEDD0206877
:10532000012384F83C300368DB075EBF036843F069
:1053300001030360036823F400630360222384F8FD
:105340003D30402384F83E30002323640E9B63628B
:10535000BDF83C306385638D2385664BE362294647
:10536000CDE900764B4642462046FFF79FFD0546B5
:1053700008B10125C2E7228D2368B2B902905A69AB
:1053800002929A690292029A1A6842F400721A60B2
:10539000DFF86481238D002B2CD1202284F83D205E
:1053A00084F83C3084F83E30A8E7012A0AD11A6814
:1053B00022F480621A6003905A6903929A690392F8
:1053C000039AE1E7022A0ED11A6822F480621A6079
:1053D0001A6842F400621A6004905A6904929B6948
:1053E0000493049BD4E705905A6905929B69059341
:1053F000059BCDE7032B56D8012B15D132463946F4
:105400002046FFF7FFFD0028B3D123681A69636ABD
:105410001A70636A01336362238D013B2385638DB8
:10542000013B9BB26385B5E7022B00963B464FF0EC
:1054300000024146204619D1FFF732FC002898D1DE
:1054400023681A6842F400721A601A69636A1A7053
:10545000626A531C6362238D013B2385638D013B8C
:105460009BB2638523681B695370D2E7FFF718FC72
:10547000024600287FF47DAF2368196821F480611B
:1054800019601969636A1970636A01336362238D55
:10549000013B2385638D013B9BB2638541460096AA
:1054A0003B462046C8E7324639462046FFF7AAFD6C
:1054B00000287FF45EAF23681A69636A1A70628DF0
:1054C000616A013A92B24B1C628522686362238D45
:1054D0005069013B9BB2400723857FF55BAF032BEF
:1054E00002BF136823F48063136013694B7090E765
:1054F000020010000000FFFF0400010010B590F84A
:105500003D30202BDCB216D1242380F83D300368D7
:105510001A6822F001021A605A6A22F010025A62D6
:105520005A6A114359621A6842F001021A6080F8FF
:105530003D40002010BD0220FCE730B590F83D3022
:10554000202BDCB216D10268242380F83D3013688A
:1055500023F001031360556A4FF6F0732B400B43A1
:105560009BB25362136843F00103136080F83D401F
:10557000002030BD0220FCE70068D201843283188D
:10558000F0B5C7685D684C680E6805F470455D60ED
:10559000C56806F1010CC5F30B45C7F30B4727445B
:1055A000654445EA07455D60C768CD68C7F30A07EB
:1055B0002F449D6805F470459D60D0F80CC08D683F
:1055C000CCF30A0C0135654445EA07459D601D6929
:1055D000D1F810C08F6925F007051D61C3F810C010
:1055E00091F8305045EA076591F8317045EA072592
:1055F00091F8327045EA07459D615D6925F0FF0528
:105600005D614D695D61DD6925F4E06525F00705A3
:10561000DD61D1E907573D43DD61BCF1070F4D6AFC
:105620009D629CBF0D4D15F80C70DD6A05F0E025FC
:10563000DD6288BF01278D6AC96AA41B7C437D4354
:10564000033444EA0544DC621C6B6FF30A041C63F8
:105650001963835843F001038350F0BDC44F02081F
:1056600038B5044600284ED090F8A13003F0FF0270
:105670001BB980F8A020FCF78BFC022384F8A13032
:1056800023689A6922F070429A61D4E901200243AA
:10569000E06899690243206902430A439A61D4E9A8
:1056A000051242EA01429A60D4E9071242EA014235
:1056B000DA60D4E9091242EA01421A61D4E90B1214
:1056C00042EA01425A61DA6A94F8350094F83610D9
:1056D00002F07F42DA62DD6A94F834202A4342EA1B
:1056E000002242EA0142DA625A6B42F006025A6331
:1056F0009A6942F001029A6100200123C4F8A400D3
:1057000084F8A13038BD0120FCE77047704703687A
:1057100070B59E6B5D6B7207044614D5690712D590
:105720005A6B22F004025A630422DA63D0F8A430E0
:1057300043F00103C0F8A430002380F8A12080F8D2
:10574000A030FFF7E2FFB20716D5AB0714D52368E8
:105750005A6B22F002025A630222DA63D4F8A430B0
:105760001343C4F8A430042384F8A130002384F840
:10577000A0302046FFF7C9FFF00710D5E9070ED586
:1057800023685A6B22F001025A630122DA63002374
:1057900084F8A12084F8A0302046FBF73BFF3207B5
:1057A00011D52B070FD523685A6B22F008025A63D4
:1057B0000822DA63012384F8A130002384F8A030A2
:1057C0002046FFF7A3FF70BD2DE9F04190F8A0300F
:1057D000012B06460F4694464FF002001FD04FF0B3
:1057E000010886F8A08086F8A10034240D4604FB49
:1057F00002640FCD38340FC40FCD0FC40FCD0FC4CA
:105800002B682360304662463946FFF7B5FE3368A1
:105810000020C3F8248086F8A18086F8A000BDE8A7
:10582000F081000090F8A020012A03464FF002000A
:1058300012D01A6883F8A100506B20F00100506369
:1058400006480164516B41F00101516300200122BF
:1058500083F8A12083F8A000704700BF00680140D2
:1058600037B500230193184B184D1A6C42F0805243
:105870001A641B6C03F080530193019B144B0122AB
:105880001A64FEF76FFD04466B68DA030BD5104B04
:105890000E4D01225A64FEF765FD04466B689B03BA
:1058A0000AD5002006E0FEF75DFD001BB0F57A7F0B
:1058B000EAD9032003B030BDFEF754FD001BB0F55C
:1058C0007A7FEBD9F5E700BF003802400070004056
:1058D00000000E422DE9F341044640B30368DE07A1
:1058E00010D423689D075BD42368190700F19D80BD
:1058F00023685A0700F1BD80A369002B40F0248182
:1059000000202CE08D4B9A6802F00C02042A07D08C
:105910009A6802F00C02082A0BD15B68590208D57C
:10592000864B1B689A03DCD56368002BD9D1012014
:1059300015E06368814DB3F5803F13D12B6843F4C4
:1059400080332B60FEF70EFD7C4E054633689B03CB
:10595000C7D4FEF707FD401B6428F7D9032002B027
:10596000BDE8F081B3F5A02F04D12B6843F4802368
:105970002B60E3E72A6822F480322A602A6822F446
:1059800080222A60002BDDD1FEF7ECFC06462B6856
:105990009F03A6D5FEF7E6FC801B6428F7D9DDE758
:1059A000664B9A6812F00C0F07D09A6802F00C024E
:1059B000082A11D15B685D020ED4604A136899070A
:1059C00002D5E368012BB2D11368216923F0F803F3
:1059D00043EAC103136087E7E268594BB2B1012281
:1059E0001A60FEF7BFFC554D06462B689B0707D58E
:1059F0002B68226923F0F80343EAC2032B6073E7A4
:105A0000FEF7B0FC801B0228EFD9A7E71A60FEF76B
:105A1000A9FC4A4E054633689F077FF565AFFEF740
:105A2000A1FC401B0228F6D998E76269444B82B179
:105A30000122C3F8802EFEF795FC404E0546736F99
:105A40009B073FF555AFFEF78DFC401B0228F6D9AA
:105A500084E7C3F8802EFEF785FC384E0546736F49
:105A60009F077FF545AFFEF77DFC401B0228F6D966
:105A700074E7324B1A6C12F0805228D101921A6CE2
:105A800042F080521A641B6C03F080530193019B17
:105A900001272C4D2B68D8051BD5A368274D012B5A
:105AA00027D12B6F43F001032B67FEF75BFC234EDE
:105AB000054641F28838336F9A0739D5002F3FF4F5
:105AC0001BAF1E4A136C23F08053136414E70027A6
:105AD000DFE72B6843F480732B60FEF743FC064638
