:020000040800F2
:10000000000003205D060008C5220008C722000882
:10001000C9220008CB220008CD2200080000000001
:1000200000000000000000000000000091670008D0
:10003000CF2200080000000021680008B560000819
:10004000AD060008AD060008AD060008AD060008C4
:10005000AD060008AD060008AD060008AD060008B4
:10006000AD060008AD060008AD060008AD060008A4
:10007000AD060008AD060008AD060008AD06000894
:10008000AD060008AD060008AD060008AD06000884
:10009000AD060008AD060008AD060008AD06000874
:1000A000AD060008AD060008AD060008AD06000864
:1000B000AD060008AD060008AD060008AD06000854
:1000C000AD060008AD060008AD060008AD06000844
:1000D000AD060008AD060008AD060008AD06000834
:1000E000AD060008AD060008AD060008AD06000824
:1000F000AD060008AD060008AD060008AD06000814
:10010000AD060008AD060008AD060008AD06000803
:10011000AD060008AD060008D1220008AD060008B3
:10012000AD060008AD060008AD060008AD060008E3
:10013000AD060008AD060008AD060008AD060008D3
:10014000AD060008AD060008AD060008AD060008C3
:10015000AD060008AD060008AD060008AD060008B3
:10016000AD060008AD060008AD060008AD060008A3
:10017000AD060008AD060008AD060008000000004E
:10018000AD060008AD060008AD060008AD06000883
:10019000AD060008AD060008AD060008AD06000873
:0C01A000DD220008AD060008E92200087E
:1001B00010B5054C237833B9044B13B10448AFF3A1
:1001C00000800123237010BD800300200000000088
:1001D000B020020808B5034B1BB103490348AFF335
:1001E000008008BD0000000084030020B020020849
:1001F00001F0FF01102A2BDB10F0070F08D010F8D8
:10020000013B013A8B422DD010F0070F42B3F6D1DB
:10021000F0B441EA012141EA014122F007047FF0F4
:1002200000070023F0E80256083C85EA010586EA4B
:10023000010685FA47F5A3FA87F586FA47F6A5FA87
:1002400087F68EB9EED1F0BC01F0FF0102F0070293
:1002500032B110F8013B013A83EA010313B1F8D13E
:100260000020704701387047002D06BF354603381F
:10027000073815F0010F07D1013015F4807F02BF58
:10028000013015F4C03F0130F0BC0138704700BFA9
:100290007BB972B90029BEBF00204FF0004106E0D3
:1002A00008BF00281CBF6FF000414FF0FF3000F086
:1002B000D3B9ADF1080C6DE904CE002909DB002BA0
:1002C0001ADB00F04DF8DDF804E0DDE9022304B0AC
:1002D0007047404261EB4101002B1BDB00F040F80E
:1002E000DDF804E0DDE9022304B0404261EB4101A6
:1002F000524263EB43037047524263EB430300F007
:100300002FF8DDF804E0DDE9022304B0404261EBA0
:1003100041017047524263EB430300F021F8DDF8DE
:1003200004E0DDE9022304B0524263EB430370476B
:1003300053B94AB9002908BF00281CBF4FF0FF314C
:100340004FF0FF3000F088B9ADF1080C6DE904CE34
:1003500000F006F8DDF804E0DDE9022304B07047A0
:100360002DE9F047089D8E4604468846002B4AD169
:100370008A42174662D9B2FA82F64EB1C6F120031C
:1003800001FA06F820FA03F3B74043EA0808B4403C
:100390004FEA174E1FFA87FCB8FBFEF1230C0EFB49
:1003A000118843EA084301FB0CF29A4209D9FB1871
:1003B00001F1FF3080F0EA809A4240F2E780023992
:1003C0003B449A1AA3B2B2FBFEF00EFB102243EAA2
:1003D000024300FB0CFC9C4509D9FB1800F1FF32DD
:1003E00080F0D6809C4540F2D3803B44023840EAFE
:1003F0000140A3EB0C0300211DB1F3400022C5E92D
:100400000032BDE8F0878B4205D90DB1C5E9000186
:1004100000210846F5E7B3FA83F1002946D1734578
:1004200002D3824200F20581841A6EEB030201209E
:100430009046002DE5D0C5E90048E2E7002A00F02B
:100440009080B2FA82F6002E40F0A4808A1A030C43
:100450004FEA174E80B2BCB20121B2FBFEFC0EFB8C
:100460001C2243EA024304FB0CF29A4207D9FB1810
:100470000CF1FF3802D29A4200F2E080C4469B1A87
:10048000B3FBFEF20EFB123340EA034302FB04F41B
:100490009C4207D9FB1802F1FF3002D29C4200F2C5
:1004A000CA8002461B1B42EA0C40A5E7C1F12006A8
:1004B0008B4022FA06F71F430EFA01F420FA06F3E6
:1004C0002EFA06FE4FEA1749234300FA01F81FFAF5
:1004D00087FCBEFBF9F01C0C09FB10EE44EA0E444D
:1004E00000FB0CFEA64502FA01F209D93C1900F105
:1004F000FF3A80F09C80A64540F2998002383C4447
:10050000A4EB0E041FFA83FEB4FBF9F309FB1344BA
:100510004EEA044403FB0CFCA44508D93C1903F142
:10052000FF3E80F08280A4457FD9023B3C4443EAF1
:100530000040A4EB0C04A0FB02EC64457346E146CA
:1005400062D35FD05DB1B8EB030264EB090404FA37
:1005500006F622FA01F31E43CC40C5E900640021EF
:100560004FE7B1FBF2FC010C41EA0E4180B240EAD8
:1005700001423B4638463C46B846BE462026B1FBC3
:10058000F7F1A2EB080241EA0C4166E7014618E7E1
:1005900010462CE7C6F120022EFA02F3B740B14014
:1005A00020FA02F24FEA174E0A43B3FBFEF8BCB240
:1005B0000EFB1833110C41EA034108FB04F9B0406B
:1005C00089454FEA104380B23ED9791808F1FF3CC3
:1005D00001D289451FD8A1EB0901B1FBFEF909FB46
:1005E00004F80EFB191192B242EA0142424529D2A7
:1005F000BA1809F1FF31C4D24245C2D2A9F10201B1
:100600003A44BEE7F0459DD2BEEB02036CEB070C0B
:100610000138E14696E7A7EB09094944A8F1020C25
:10062000B1FBFEF909FB04F8DBE773467FE75046B0
:1006300066E70846FDE63B44023A33E7ACF1020CBC
:100640003B441CE749469CE7A1EB0901C446B1FBCA
:10065000FEF909FB04F8C4E7704700BFDFF834D0A7
:10066000002103E00C4B5B58435004310B480C4B0A
:1006700042189A42F6D30B4A02E0002342F8043BA8
:10068000094B9A42F9D303F0A5F820F0A3FF01F03B
:1006900061F87047000003200021040800000020DA
:1006A000640100208003002024340120FEE770470D
:1006B00008B500F0B9FDBDE8084000F03DBD00F010
:1006C000B5BD704710B5042104461FF097FD2046C4
:1006D00010BD000038B50C4B0C4C18800C4B822020
:1006E00019806368984740F6110398420AD1094D72
:1006F00023682C60822098472B688220DB6898470B
:10070000002038BD0120FCE7A60300204C0000209B
:10071000A4030020A80300204FF4A071F020FFF7ED
:10072000D9BF0000F7B5394D2B6804461B698220FC
:100730009847208000284ED02B680DF106025B6997
:1007400001A982209847324B1B78002B4BD0BDF873
:10075000062040F674639A423FD9ADF80630BDF8E2
:1007600006209B1A9BB20A2B42D90B22B3FBF2F351
:10077000284A1288934201D9013A93B2BDF8042065
:10078000254840F6B8318A4234D8C2F571620E323B
:10079000016892B20F25B2FBF5F2204D2D88AA42D6
:1007A00084BF05F1FF35AAB28A4215468EB22AD916
:1007B000921B91B21A4E3768BB42BAB28CBF9A1ADA
:1007C000D21A92B211440529C4BF05603360036890
:1007D00063803368A38003B0F0BDB32A9CBFB4220A
:1007E000ADF80620BBE7BDF80630A3F5B473B9E752
:1007F0000023C3E7C2F56D62083292B20E2A016887
:10080000C8D800252A46891A89B2D3E7A803002050
:100810005C160020A4030020A0030020A6030020F3
:100820009C03002037B568460D461446FFF77AFF53
:10083000BDF8000030B1BDF802302B60BDF80430C7
:100840002360012003B030BD032821D8DFE800F089
:10085000020B12190F4B1A68B2FA82F252090421E4
:100860000D4803F061BC0B4B5A68B2FA82F2520990
:100870000821F5E7074B9A68B2FA82F25209102173
:10088000EEE7044BDA68B2FA82F252092021E7E778
:10089000704700BFAC03002000100240032821D89D
:1008A000DFE800F0020B12190F4B1A68003A18BF6C
:1008B000012204210D4803F037BC0B4B5A68003A63
:1008C00018BF01220821F5E7074B9A68003A18BFC4
:1008D00001221021EEE7044BDA68003A18BF01222A
:1008E0002021E7E7704700BFAC0300200010024062
:1008F00003280DD8DFE800F00206080A04210548A5
:1009000003F017BC0821FAE71021F8E72021F6E7E9
:10091000704700BF0010024008B5032811D8DFE877
:1009200000F0020A0C0E0421074803F0F7FB431EF7
:100930005842584108BD0821F6E71021F4E720216C
:10094000F2E70020F3E700BF0010024070B5084D49
:1009500000240126E0B2FFF7DFFF18B12B68012B5E
:1009600018BF2E600134052C05F10405F2D170BDCD
:10097000AC030020012380F8781080F879307047AC
:100980007047002070470000034B4164003918BFD6
:1009900001211970704700BFE32601207047002035
:1009A0007047836B0BB10846184770474FF6FF70CE
:1009B0007047406803689B691847704770477047E5
:1009C0007047704710B5044600F046FD23680349A0
:1009D000D3F890302046BDE810401847000000D002
:1009E00008B503680446D3F8843098472368204646
:1009F000DB6F984700F0ECF8236820465B6F984760
:100A0000292001F04DF900F0E3F8236820465B6FE0
:100A10009847F8E710B5044608F0B2FC2368204672
:100A2000D3F8BC30BDE81040184700F0F9BC00F026
:100A3000FDBC00F02FBD00F0CFBC00F03FBD00F0CA
:100A400047BD00F0D3BC07F0C9BE10B584210446F1
:100A50001FF0D4FB204610BD10B590F8341090F86C
:100A600078400C4B8C421A7809D03AB90A4A0B49A3
:100A70001488088810800C8001221A7010BD002A8A
:100A8000FCD0054A05491488088810800C80002293
:100A9000F3E700BFDC260120D8260120DA2601205A
:100AA00070B50D46194635B9094B0A4A0A4840F255
:100AB000FF2120F0DFFAC0E90F52084B003A18BFBF
:100AC00001221A700368BDE87040D3F890301847CF
:100AD0002021020858210208A6210208E22601204E
:100AE00008B5094B1B888B4203D8084B1B889342DF
:100AF00005D9074B074A0848A32120F0BBFA074B4A
:100B00001980074B1A8008BDD8260120DA2601205B
:100B1000EB2102084E220208A6210208DE2601204F
:100B2000E0260120034690F87A0018B1586803685F
:100B30001B68184770470000012108B500220846CD
:100B400005F042FB0A4B186028B90A4B0A4A2821D3
:100B50000A4820F08FFA00220421012005F0D3FB7F
:100B6000074B186018B9074B034A2C21F0E708BD62
:100B7000C003002091220208DA2202080923020899
:100B8000BC03002054230208024B4FF0FF311868C9
:100B900005F064BBC0030020014B186805F08ABB58
:100BA000C0030020024B0021186805F057BB00BFAE
:100BB000C0030020FFF7F0BF03480449006800238A
:100BC0001A4605F0DBBB00BFBC0300200400002078
:100BD00013B5084C00231A4601A9206805F0FFFB55
:100BE00020684FF0FF33002201A905F0F8FB02B0A6
:100BF00010BD00BFBC03002003685B6C18470120D8
:100C0000704703689B6A1847FEE740F2EF30704771
:100C1000054B0360054B4FF08062C3F88820BFF39B
:100C20004F8FBFF36F8F7047EC2D020800E100E09B
:100C300010B504464FF45A61FFF7EAFF20461FF053
:100C4000DDFA204610BD000082B0002301930E4B58
:100C50001A6B42F400021A631A6B02F4000201924A
:100C6000019A1A6942F400021A611A6922F4000218
:100C70001A61064B064A1A61064A5A61064B4FF042
:100C800080629A6002B0704700380240F01700207E
:100C9000E90E0008090C000800E100E008B50A2888
:100CA00009D8DFE800F006100E0808080810101038
:100CB0001000022008BD054B054A0648902120F08F
:100CC000D9F90020F6E70120F4E700BF96230208D7
:100CD000B1230208FC23020838B50C46887FFFF7D1
:100CE000DDFFA58AE28A164B2169586342EA054274
:100CF0005A64628BD963521B1A642568082D0ED181
:100D00009A611A615862207F0E4A42EA0062DA61F3
:100D1000E2681A620C4A5961D9601A6038BD002233
:100D2000D8611A61E1680A0A480902F4784200F4BD
:100D3000FC600243C1F3C4010A439A63034AECE72F
:100D400000B002400900010001230200012303005A
:100D500008B50B280BD8DFE800F00612100A0A0AC3
:100D60000A0808080808022008BD0520FCE7054B12
:100D7000054A06486F2120F07DF90020F4E70120A4
:100D8000F2E700BF9623020845240208FC2302086C
:100D90002DE9F04191F81D800C464046FFF7D8FF41
:100DA000A77F05463846FFF7D3FF06463846FFF7CC
:100DB00075FFA18A628B444B521A1A649A61228B86
:100DC000521A1A61E28A586342EA01425A6421695E
:100DD0006268D963DA602068802828D0227F0FD823
:100DE000202867D0402865D004281AD0364B45EA21
:100DF000026545F40035B845DD6161D0334A44E011
:100E0000B0F5807F04D0B0F5007FEFD1304800E02E
:100E1000304840EA0262DA61E2681A625E62596151
:100E200032E045EA026242F40032DA61F6E7A06895
:100E3000021DDA62227F45EA026545F40035DD6174
:100E40005E625961017841B1012921D0224B234AC8
:100E500023484FF48D7120F00DF9DA69418822F4AE
:100E60007F42013922F0100242EA0122DA610121B7
:100E7000154BDA6942F02002DA61DA699206FCD495
:100E800010229A600029B9D0164A1A60BDE8F08194
:100E9000B2F1FF01DA69408822F47F4200F1FF30AD
:100EA00022F0100242EA002242F0100218BF012193
:100EB000DA61DDE745EA0262034B42F40032B4E74F
:100EC00042F20132E1E700BF00B00240012301001D
:100ED000090002000A0002008F240208A924020867
:100EE000FC23020801230200024B1B6858680368B8
:100EF0005B691847E426012070B5044625460A4B75
:100F00000C30002660602672667245F8203B602235
:100F1000294608F08BFB04F55A63EE6024359D42A8
:100F2000FBD1204670BD00BFEC2D0208034B1A68B0
:100F3000D207FCD423229A60704700BF00B0024061
:100F40007047000030B50F4C2568ED07FCD4232511
:100F50000904A56041F001010225FF2B656361646E
:100F6000E0630AD00849656241EA0363E361074B25
:100F700022626061E060236030BDE561039BA36392
:100F8000034BF8E700B00240090001000100020035
:100F90000100030030B50E4C2568ED07FCD4232575
:100FA0001204A56042F001020225FF2B6563626412
:100FB000E063E16008D01B0643F00213E361054BD8
:100FC00065626061236030BD034BE3610123F9E793
:100FD00000B0024001000200020002FF30B50B4CDD
:100FE0002568ED07FCD4232512041B06A56043F4F5
:100FF0000033022542F0010265636264E063E16050
:10100000E361034B65626061236030BD00B0024064
:1010100001000200012070474020704700EB811062
:101020000830704700EB811008307047012070478E
:101030004FF48E7070474FF48E7303FB010008303D
:1010400070474FF48E7303FB010008307047012096
:1010500070471020704700EB01100830704700EB1C
:10106000011008307047084601F078BC10B5034BFA
:101070000360044607F007F9204610BDA42E0208BD
:1010800010B50446FFF7F2FF204648211FF0B6F8DE
:10109000204610BD10B5034B0360044607F0F3F87B
:1010A000204610BD702E020810B50446FFF7F2FF6F
:1010B00020464FF492711FF0A1F8204610BD0000A9
:1010C00010B5034B0360044607F0DDF8204610BD61
:1010D0003C2E020810B50446FFF7F2FF2046182107
:1010E0001FF08CF8204610BD10B5084B0360044675
:1010F00000F5A870FFF7BAFF04F12C00FFF7CAFF54
:1011000004F11400FFF7DCFF204610BDD82E0208C2
:1011100008B50248FFF7E8FF08BD00BF9C12002099
:1011200010B50446FFF7E0FF20464FF43E711FF074
:1011300065F8204610BD00002DE9F34101F04AF9A1
:10114000054601F04BF90024014623462846224675
:1011500000940FF0A1FF274B274A1A60204601F0A8
:101160006BFF264D264B274A27489A600FF0FCFE5E
:101170002B68BFF35B8FDB0735D428461FF040F8A0
:1011800088B3224C224B236004F5CE7604F1140080
:1011900004F12C0804F5A8776060C4F80880E760C3
:1011A000266107F071F81B4B6361404607F06CF84D
:1011B000194BE362384607F067F8184BC4F8503112
:1011C00004F5CC7002F009F8224604F5CC713046E3
:1011D00001F0ACFF304601F0C1FB11481FF068FF81
:1011E00028461FF019F80F4802B0BDE8F041FFF79C
:1011F000E9BB00BF482701204804002098120020C6
:10120000680400204C040020080000209C120020EC
:10121000D82E02083C2E0208702E0208A42E0208C6
:1012200011110008C4030020704700000148FFF7B7
:10123000D7BB00BFC403002070B5264E264C274DF7
:10124000274B23603046FFF757FE284615F02AF853
:1012500024480DF093FF244B2448DC6000224FF417
:101260008071C3E9121222491A86C3E91A12214970
:1012700083F85820C3E91E011F49C3F880101F4995
:101280001F480B60F021C3E90422C3E90622C3E929
:101290000822C3E90A22C3E90E22C3E91022C3E9E6
:1012A0001422C3E917225A6683F870205A67C3E9EB
:1012B000016501801348018013484FF4A07101803B
:1012C0001248018012490A70012283F83420114A21
:1012D0001A6070BDF40400209412002068040020FD
:1012E000102102084C040020C4030020000001016A
:1012F00001000001000450001A001400E42601203F
:10130000D8260120DE260120DA260120E026012051
:10131000DC260120002D02080148FFF779BC00BF40
:10132000F40400200020704781807047C18070471E
:10133000018170474181704770477047704770471F
:10134000704710B4C4880368121B84885B6D091B46
:1013500012B25DF8044B09B218474FF6FF73838150
:101360004FF0FF3303621368C361106070470020C1
:1013700070478B88838001207047704780F8261063
:10138000704790F82600704710B50022B1F9084068
:10139000B1F90A10028042808480C18010BD002211
:1013A000028042808280C28070470177704780ED62
:1013B000080A704780F82410704780F8251070479D
:1013C00001207047983070478C30704784307047E8
:1013D0007047704770470000034B902283F85A23F0
:1013E00083F85823704700BF00E100E0094A0A492A
:1013F000D3680A48C3F30A03013B9BB20B8011690F
:10140000C1F30A01013901801364536B43F00103F6
:101410005363704700680140961500209415002022
:10142000014BD3F8AC00704700680140024B012229
:10143000C3F8AC105A6270470068014010B52C2107
:1014400004461EF0DBFE204610BD10B5BC2104464C
:101450001EF0D4FE204610BD70B5044607F013FA06
:1014600023689D6E0CF022FC01462046A8472368A5
:10147000054AD3F88C502046AC460023BDE87040A6
:10148000A2F51631604700BF00B004D007F0E2B902
:1014900007F0ECB907F0A8B907F017BB90F82520C2
:1014A00012B103685B691847704790F825201AB19C
:1014B00090F8242002B1186070470000034B4FF0F1
:1014C00080629A604FF080729A60704700E100E09D
:1014D000084B4FF08062C3F88820BFF34F8FBFF3F3
:1014E0006F8F4FF08072C3F88820BFF34F8FBFF328
:1014F0006F8F704700E100E070B50023124E8380CB
:10150000124B0360336893F8582005460AB1D86C33
:1015100000B998680368DB6A98473368B0FA80F4CA
:10152000D86C640930B10368DB6A9847002808BFAB
:1015300044F001042CB9064B064A07482C211FF041
:1015400099FD284670BD00BFE4260120EC2E02085C
:10155000E7240208452502087E25020870B5254EBD
:101560003568BFF35B8F15F0010540D130461EF0A2
:1015700047FE00283BD0204C204B256104F134006D
:10158000C4E90035C4E90255E584A562A5850EF0DD
:10159000DAF804F1580009F0FFFC194BA365204666
:1015A000184B40F8843BFFF7A7FF174BC4F8843073
:1015B0002433C4F88C304FF4C803C4E92835002321
:1015C000C4F8AC30C4F8B030C4F8B430C4F8B830A3
:1015D0000E480F4BC4F89050C4F89C50C4F8A85063
:1015E000C4F898301FF064FD30461EF015FE024826
:1015F00070BD00BF981500209C150020FC34020827
:101600000C2F0208842F0208B0340208D5130008FA
:101610009034020838B5184C23685BB3174B184A4E
:101620001B6C11888B4216D1164B198803F066FB90
:10163000236893F86A200025013283F86A2083F832
:101640007C50FFF7B9FA206807F09AFE2846BDE8FB
:101650003840FFF7F9B803F051FB246823682046AF
:101660001B6A9847012384F87C300020BDE838408D
:10167000FFF714B938BD00BFE4260120006801401F
:10168000961500209415002007B5064BADF806000E
:101690001B68054801220DF1060104F0CFF803B0E4
:1016A0005DF804FB0C0000209C16002008B56420A7
:1016B00004F07EFDFBE7000030B595B0102200215C
:1016C0000AA81FF0DEFE1422002103A81FF0D9FE95
:1016D00000241E4B01941A6C42F080521A641B6C59
:1016E00003F080530193019B194B02941A6842F452
:1016F00040421A601B6803F4404302930122029B9C
:101700004FF48033CDE9082302254FF480030821EC
:10171000CDE90E534FF4B473CDE9101308A8042398
:101720001393129503F042FB03F006FB0F23CDE960
:1017300003354FF4A0504FF48053CDE90603052143
:1017400003A8059403F00EFD15B030BD003802402B
:10175000007000402DE980489BB002F049F8FFF787
:10176000ABFF142200210DA81FF08BFE0024C94BF3
:1017700000941A6BC848C94D42F010021A631A6BE4
:1017800002F010020092009A01941A6B42F02002BB
:101790001A631A6B02F020020192019A02941A6BEA
:1017A00042F080021A631A6B02F080020292029ADF
:1017B00003941A6B42F004021A631A6B02F00402DB
:1017C0000392039A04941A6B42F001021A631A6B93
:1017D00002F001020492049A05941A6B42F002028C
:1017E0001A631A6B02F002020592059A06941A6BAC
:1017F00042F040021A631A6B02F040020692069A07
:1018000007941A6B42F008021A631B6B03F008037B
:10181000224607933C21079B02F086FCA048012248
:10182000022102F081FC22469D48042102F07CFC4A
:1018300022469C484FF4405102F076FC01263C239E
:10184000CDE90D3694480F9403230DA90227109378
:1018500002F080FB92480DA9CDE90D76CDE90F4449
:1018600002F078FB04238E480DA9CDE90D36CDE9B1
:101870000F4702F06FFB20238B480F960DA9CDE98F
:101880000D3402F067FB0DA94FF440538548CDE9B4
:101890000D36CDE90F4702F05DFB8448844B0360B1
:1018A00002F04EFADFF82CC2824B2C62C5E900C36D
:1018B00028464FF48043C5E90434C5E90244C5E92C
:1018C000064402F03FFE1021284603F083F821462B
:1018D000284603F09EF8784DDFF8FCE1AC624FF447
:1018E0008273C5E900E34FF400781823C5E9068345
:1018F00028460A23C5E90244C5E90444C5E9084469
:10190000EB6203F03FFF8F232246394664488DF88F
:1019100024308DF8344002F007FC32464FF47A73DD
:1019200009A9284603F08AFF4FF47A7332460DA9BD
:10193000284604F02FF93246394659485F4D02F0E7
:10194000F3FB9DF83430D32B04BF5D4B1E705D4B11
:101950000126C5E900364FF0100A40230024C5E9EE
:1019600004A34FF4C073C5E906344FF40063C5E91E
:1019700008344FF4005302274FF0040B4FF00308D4
:10198000AB620DA907232846CDE90D73CDE90FB34E
:101990004FF00809C5E9024BCDE91187139703F011
:1019A000D5FD4FF6FF7209A92846CDE90A9608949D
:1019B00009960C9403F0EAFD304601F045FF4FF61E
:1019C000FF7209A92846CDE90979CDE90B6403F036
:1019D000DDFD4FF6FF7209A92846CDE90989CDE959
:1019E0000BB403F0D3FD4FF40C730893089B0C93D6
:1019F0004FF6FF7209A92846CDE909B90B9603F005
:101A0000C5FD40F26A51284603F0DEFD342221462E
:101A10000DEB02001FF035FD2B4D2C4B2C61C5E961
:101A200000340923C5E905361D23C5E9073840F20E
:101A30000D1240F24313C5E9092340F2171140F299
:101A400047132846C5E90B13C5E90244AC8685F85F
:101A5000364003F071F8FF21F022CDE912144FF463
:101A6000806005214FF4A073CDE91401CDE90E2467
:101A70000DA9CDE9164228462246CDE91037144D6E
:101A800018930D94ADF864408DF8664003F008F9A2
:101A900024E000BF00380240001002409C170020E4
:101AA00000080240000C02400000024030180020F4
:101AB00000300240A08601009C160020681600201D
:101AC0005C160020400100A0F416002000680140D0
:101AD00058160020005C004000500140284B2B604D
:101AE0001B6898472B68274DDB689847264B28468C
:101AF000C5E90034C5E90274C5E90A47C5E90C44E3
:101B000002F02EF93146284602F0E0F91F4D204F31
:101B1000524621460DA81FF0B4FC4FF48033C5E9AE
:101B2000007328461B4BAB62AC602C612C7685F8A9
:101B30002040EC62EC60EE6185F830406E6101F0AF
:101B400097FE0DA92846CDE90D66CDF83C8002F040
:101B500009F8FEF7ADFDFEF7AAFD04F0B9FA0E4A4A
:101B60000E48214604F0E0FA0D4B0E4A186021465B
:101B70000D4804F0D9FA0D4B186004F0BBFAFEE7EB
:101B800014000020F017002000B002403818002098
:101B9000002001400100000FEC2F0208AD160008E4
:101BA00064160020C82F0208BF0600086016002037
:101BB000704770477FB5094B8DF817201B6802935B
:101BC0000DF117020123009201930A4601460448D1
:101BD00002F060FD07B05DF804FB00BF10000020BC
:101BE0009C1700207FB500238DF81730084B1B6829
:101BF00002930A4601230DF117010091019301465A
:101C0000044802F0D7FD9DF8170007B05DF804FB0B
:101C1000100000209C1700201FB5084C246800927B
:101C2000CDE901340A4601230146054802F0C2FD10
:101C3000003818BF012004B010BD00BF1000002004
:101C40009C17002001F000BE10B5064C0022204673
:101C5000042102F069FA20460122BDE81040042167
:101C600002F062BA0008024038B50B4D044601226A
:101C70000A484FF4005102F057FA00220421284686
:101C800002F052FA2046FFF7FFFC28460122BDE889
:101C90003840042102F048BA00080240000C02401B
:101CA00038B50B4D044600220A484FF4005102F0AB
:101CB0003BFA00220421284602F036FA2046FFF7BC
:101CC000E3FC28460122BDE83840042102F02CBA8A
:101CD00000080240000C0240F7B5144E144F0546B0
:101CE0000C4630460022042102F01EFA00224FF476
:101CF0000051384602F018FA2846FFF7C5FC0D4B94
:101D00000D481B68224601A903F044FF3846012212
:101D10004FF40051019C02F007FA304601220421E1
:101D200002F002FA204603B0F0BD00BF00080240F6
:101D3000000C02400C0000209C16002001F084BD25
:101D40000268034B9A4201D101F06CBD704700BF9D
:101D5000001000407047000082B00E4B002200923D
:101D6000596C41F480415964596C01F480410091EF
:101D700000990192196C41F0805119641B6C03F0B9
:101D800080530193019B0F216FF0010002B001F01D
:101D900097BF00BF0038024010B5044688B0142237
:101DA000002103A81FF06DFB2268124B9A421ED13E
:101DB00003F58C33002101915A6C0F4842F4807274
:101DC0005A645A6C02F480720192019A02911A6B61
:101DD00042F001021A631B6B03F001030293029BA2
:101DE0000222032303A9CDE9032302F0B3F808B0CC
:101DF00010BD00BF00200140000002400268094BF6
:101E00009A4282B00BD100230193074B1A6B42F424
:101E100080521A631B6B03F480530193019B02B041
:101E2000704700BF003002400038024007B50F4B3A
:101E300002689A4216D10022A3F5F0430192196B71
:101E400041F4000119631B6B03F4000301930521A6
:101E50005A20019B01F034FF5A2003B05DF804EBD7
:101E600001F060BF03B05DF804FB00BF00B00240AA
:101E70002DE9F043044689B01422002103A81FF085
:101E800000FB2268244B9A4243D1244C244800256D
:101E90000095236B43F004032363236B03F00403D7
:101EA0000093009B0195236B43F001032363236B95
:101EB00003F001030193019B4FF012094FF40073EB
:101EC0004FF001080327042603A9CDE90339CDE922
:101ED0000587079602F03EF84FF480731148079685
:101EE00003A9CDE90339CDE9058702F033F802955E
:101EF000236C43F400032364236C03F40003029374
:101F0000029B236A43F400032362236A23F4000341
:101F1000236209B0BDE8F083005C00400038024055
:101F20000008024000000240F0B599B004461422B7
:101F3000002107A81FF0A5FA30220DEB02000021B6
:101F40001FF09FFA22685E4B9A4240F0B780082348
:101F50000C93C0231093042312930CA84FF4003366
:101F6000159303F0C7F908B1FFF7F4FE554B564837
:101F7000002400945A6C42F080625A645A6C02F059
:101F800080620092009A01941A6B42F020021A6358
:101F90001A6B02F020020192019A02941A6B42F02D
:101FA00001021A631A6B02F001020292029A039470
:101FB0001A6B42F002021A631A6B02F002020392D9
:101FC000039A04941A6B42F040021A631A6B02F0EF
:101FD00040020492049A05941A6B42F004021A63B8
:101FE0001A6B02F004020592059A06941A6B42F0ED
:101FF00008021A631B6B03F00803069302250E26E2
:10200000069B0B964FF4806307A9CDE90735CDE910
:10201000094501F09FFF41F658032C480B9607A98C
:10202000CDE907350927CDE9094501F093FF0323E1
:1020300027480B9707A9CDE90735CDE9094501F0F8
:1020400089FF4FF4706322480B9607A9CDE9073545
:10205000CDE9094501F07EFF4FF40C631D480B9656
:1020600007A9CDE90735CDE9094501F073FFC02384
:1020700019480B9607A9CDE90735CDE9094501F0C7
:1020800069FF082315480B9607A9CDE90735CDE967
:10209000094501F05FFF4FF4A0530E480B9707A9C5
:1020A000CDE90735CDE9094501F054FF5820224616
:1020B000052101F005FE582001F034FE19B0F0BDF5
:1020C0000068014000380240001402400000024055
:1020D000000402400018024000080240000C0240C8
:1020E00010B5044688B01422002103A81FF0C9F9D6
:1020F0002268144B9A4223D103F5684300210191D1
:102100005A6C114842F480125A645A6C02F48012DC
:102110000192019A02911A6B42F020021A631B6B22
:1021200003F020030293029B4FF460720223032109
:10213000CDE903230523CDE9061303A901F00AFF26
:1021400008B010BD00500140001402402DE9F041DC
:1021500086B0002303932B4B1C68002C4FD14FF00B
:102160000108C3F80080284B00949A6B274842EA84
:1021700008029A639B6B03EA080300930227032675
:102180000C25009B01A94FF63F03CDE90137CDE9AE
:10219000046501F0DFFE1E48059501A9CDE9018720
:1021A000CDE9034601F0D6FE48F2331319480595F0
:1021B00001A9CDE90137CDE9034601F0CBFE4FF689
:1021C00083731548059501A9CDE90137CDE903468B
:1021D00001F0C0FE4CF203731048059501A9CDE94A
:1021E0000137CDE9034601F0B5FE60230C480595A3
:1021F00001A9CDE90137CDE9034601F0ABFE06B0F8
:10220000BDE8F08180180020003802400014024030
:10221000000802400018024000100240000C02407A
:102220000004024070B588B000230293204B1A6C62
:1022300042F010021A641B6C03F01003029305466F
:1022400001A903A8029B03F037F8069B4BBB03F0E0
:1022500023F8184E184B336040F2E733F360174B06
:10226000B0FBF3F3013B7360304600233361B3608E
:10227000B36103F059FE044680B9304603F02EFDE9
:10228000044658B9362001F04DFD0F2D0DD82246D9
:102290002946362001F014FD094B1D60204608B088
:1022A00070BD02F0F9FF4000D3E70124F6E700BF5C
:1022B00000380240841800200010004040420F0007
:1022C0007C0000207047FEE7FEE7FEE7FEE7704770
:1022D000014803F041BD00BF84180020014802F00E
:1022E00082BC00BFF4160020014801F065BD00BFAC
:1022F000F01700200120704708B51FF065F916237C
:1023000003604FF0FF3008BD08B51FF05DF91623DC
:102310000360FEE770B50D4614460E46731B9C42E3
:1023200001DC204670BDAFF3008006F8010BF5E735
:1023300070B50D4614460E46731B9C4201DC2046C8
:1023400070BD16F8010BAFF30080F5E74FF0FF30DA
:1023500070474FF400534B600020704701207047D6
:10236000002070470A4A116808B5034609B90949AF
:1023700011601068694603448B4206D91FF024F9A6
:102380000C2303604FF0FF3008BD1360FCE700BF73
:10239000CC18002028340120704710B504210446D1
:1023A0001DF02CFF204610BD08B503290FD8DFE82B
:1023B00001F00A02060A00F08BFE406808BD00F03A
:1023C00087FE8068FAE700F083FE0068F6E70020E9
:1023D000F4E70000004870472430020807207047E7
:1023E00013B5002451B1036801948DF8034001AA8C
:1023F0009C680DF10303A04702B010BD0846FBE73F
:10240000C0897047008A7047C088704780887047CD
:10241000807A00F07F007047807AC0097047002002
:10242000704700009FED010A704700BF00000000E8
:10243000704710B5082104461DF0E0FE204610BD8F
:102440007047704700F598730868496803C3704780
:10245000704770474160704770477047064BC0F83F
:102460004C310023C0F8503100F5A273C0F8480188
:10247000C0F84031704700BFF52500080123037202
:1024800070477047704710B4C268416854100346E3
:1024900001EB6200D20748BF0A599B685DF8044B04
:1024A00048BFD35818470346406830B19A681AB9F4
:1024B000D86800F0010070470120704710B50C216A
:1024C00004461DF09BFE204610BD10B510210446A9
:1024D0001DF094FE204610BD10B54FF4AE710446B9
:1024E0001DF08CFE204610BD10B5402104461DF0A5
:1024F00085FE204610BD10B50BF0D8FB0368BDE883
:102500001040DB6B18470000054B1B7801462BB1D0
:10251000406818B103680C315B6E1847704700BF04
:10252000E3260120037A70B50546BBB9406803680D
:10253000DB69984704463CB96868036805F10C01FB
:102540001B6EBDE870401847A1886B8FC91A2368BD
:1025500020461B6B09B29847A469ECE770BD10B523
:102560000446D0F8400158B10368DB68984738B199
:10257000D4F8400103689B6898470023C4F84031B1
:1025800010BD70B5044690F8390094F83830013029
:10259000C0B2984284F8390005D901232372002380
:1025A00084F8393070BDB4F93A2000210DF034FDC3
:1025B000C30706D500284FF6FF73C8BF0123184490
:1025C00000B2238AC01AA08760680368DB69984755
:1025D00005462DB960680368BDE870405B6918471F
:1025E000A988A38F19442B6828461B6B09B298470A
:1025F000AD69EEE72DE9F14FD0E9556A0746B068BD
:1026000003681B6A9847C32805D8444B444AA32152
:1026100044481EF02FFD706803681B6A98470F2816
:1026200003D8414B3E4AA421F2E7F06803681B6AD5
:1026300098470B2803D83D4B394AA521E8E70BF012
:1026400035FBDFF8F09004300BF055FBD9F80000B3
:1026500010B10368DB689847D9F8000010B103682F
:102660001B689847DFF8D080D8F8000010B10368E5
:102670005B699847D7F83C0110B103685B689847DD
:10268000D8F8000010B103681B689847D7F83C01E0
:1026900010B103689B689847F068036800215B6A83
:1026A00098474FF0000B224BC0F804B0044680F866
:1026B00008B00360B068036859465B6A98470546EE
:1026C00000F0DCFD7068036859465B6A984729464C
:1026D000064600F0B3FD331DC7F83C61C9F8004061
:1026E000C8F80050CAF800302B68C6F808A0284681
:1026F000DB68EE639847336830461B68984721468D
:1027000028460DF083FC236820461B699847236800
:102710005B69204601B0BDE8F04F1847F525020877
:10272000832602085D270208A4270208472802081A
:10273000343102082C270120282701202DE9F14FF0
:10274000D0E9556A0746B06803681B6A9847B0F538
:102750008E7F05D2564B574AA32157481EF08AFC5C
:10276000706803681B6A98470F2803D8534B514A77
:10277000A421F2E7F06803681B6A98473F2803D852
:102780004F4B4C4AA521E8E70BF090FADFF8449153
:1027900004300BF0B0FAD9F8000010B10368DB6820
:1027A0009847D9F8000010B103681B689847DFF814
:1027B0002881D8F8000010B103685B699847D7F802
:1027C0003C0110B103685B689847D8F8000010B16D
:1027D00003681B689847D7F83C0110B103689B68F1
:1027E0009847F068036800215B6A98470546002314
:1027F000344A4360037245F80C2B0446284608F01F
:1028000073FC14222287304A12780023A387002AFF
:1028100035D101232372B068036800215B6A9847B1
:10282000054600F0C5FC7068036800215B6A9847A4
:102830002946064600F09AFC331DC7F83C61C9F8EA
:102840000040C8F80050CAF800302B68C6F808A04D
:102850002846DB68EE639847336830461B68984724
:10286000214628460DF0D2FB236820461B69984775
:1028700023685B69204601B0BDE8F04F1847134953
:10288000134AB1F900B0E168236128468B6BB2F9B5
:1028900000109847E3685946DB6B2846984728465E
:1028A00008F09DFB0A4A13885B426387B3E700BFC9
:1028B000F5250208EA2802085D270208A427020875
:1028C0004728020858310208E3260120DA260120B1
:1028D000D82601202C27012028270120044B1B6823
:1028E00093F858200AB1D86C00B99868704700BFB7
:1028F000E4260120F8B5174604460E460BF098FA78
:10290000124B1C60124B2360124B0025C4E9513559
:10291000114BC4E953551868036801219B68C4E949
:102920004F55C4E955769847284600F085FBFFF7D8
:10293000D5FF15F060FBFFF7D1FF15F0D7FBFFF7D0
:10294000CDFF15F0DFFB2046F8BD00BF3827012082
:10295000E0300208C8300208E4260120064BC0F827
:102960004C310023C0F8503100F5A273C0F8480183
:10297000C0F84031704700BFF5250008064BC0F88D
:102980004C310023C0F8503100F5A273C0F8480163
:10299000C0F84031704700BF3D27000870477047BE
:1029A0007047704770477047704710B54FF48E718D
:1029B00004461DF023FC204610BD70B50368044694
:1029C0001B6B154698472368294620465B6BBDE87C
:1029D00070401847002310B5C0E90133C0E9033344
:1029E000C0E90733C0E905334FF480738384064B95
:1029F00003600B88C384FF23044680F8283008F066
:102A000098FC204610BD00BF983602082DE9F34718
:102A100004460DF04FF94B4B23604B4B0025C4E9A6
:102A200010354FF4807304F16C09A4F86430FF236F
:102A300084F866304FF6FF7A04F19808C4E912551D
:102A4000C4E91455C4E91655E5632566A56601A9D0
:102A5000484604F1C407ADF804A0FFF7BBFF01A985
:102A6000404604F1F006ADF804A0FFF7B3FF01A95A
:102A70003846ADF804A0FFF7ADFFADF804A001A9FA
:102A800004F1400A3046FFF7A5FF2A462946504682
:102A9000FFF793FF5046F021FEF74AFC50464FF4F3
:102AA000A071FEF747FC251D4FF07F43A3665146FA
:102AB000284605F0FDFB40F2131248465A21FFF765
:102AC0007CFF04230DEB03014846ADF8043008F009
:102AD00030FC4946284605F0EBFB90224046642135
:102AE000FFF76BFF052301A94046ADF8043008F05D
:102AF00020FC4146284605F0DBFB5F223846642176
:102B0000FFF75BFF032301A93846ADF8043008F056
:102B100010FC3946284605F0CBFB2A2230466421BA
:102B2000FFF74BFF062301A93046ADF8043008F04B
:102B300000FC2846314605F0BBFB204602B0BDE84C
:102B4000F08700BF7C31020830360208406A7047C7
:102B5000806A704770478A880B8810B5D20A4C8803
:102B6000C1699BB251F8220043EA0443184410BDE6
:102B700010B50446BAB1107B68B1537BD27A1B0200
:102B800003F4E0631A43236A03EB82031A888A4240
:102B900002D193F9020010BD05D8013880B2043388
:102BA0000028F3D1F7E70020F5E710B52C21044603
:102BB0001DF024FB204610BD30B58BB00446BDF897
:102BC00060500895BDF85C5007959DF850500695EB
:102BD0009DF84C5005959DF8485004959DF844503B
:102BE00003959DF8405002959DF83C500195BDF825
:102BF000385000950CF064FE064B2360159BE36192
:102C0000169B2362199B63621A9BA36220460BB03A
:102C100030BD00BFB031020870477047704730B414
:102C2000C26844685510034604EB6200D20748BFEF
:102C300062599B6830BC48BFD35818470346406868
:102C400030B19A681AB9D86800F0010070470120C5
:102C5000704710B5102104461DF0D0FA204610BD73
:102C600010B5C42104461DF0C9FA204610BD6C30D1
:102C7000884208B505D10BF019F8BDE80840FFF708
:102C80007DBE08BDF8B5194B018F1B888B420646E7
:102C90002AD9174B1B682BB9164B174A17486C21BA
:102CA0001EF0E8F913F81120154B1B6853F8225059
:102CB000144B186800F0FCF92B6807469B6B2846FC
:102CC00098472B6804469B6C3946284698472B68E2
:102CD00014FB00F45B6A394628469847A4B22318CF
:102CE0001BB2A6F84630F8BD0023FAE740270120C2
:102CF0003C270120D5290208172A0208522A020877
:102D000044270120482701202DE9F34104460CF017
:102D1000D1FF2F4B23602F4B0025C4E910354FF412
:102D2000807304F16C06A4F86430FF23C4E91255E3
:102D3000C4E91455C4E91655E563256684F8663080
:102D4000A566304608F036FC234BC4E92D34234BEE
:102D500004F14007C4E92F352A4629463846FFF7D3
:102D60002CFE3846F021FEF7E3FA38464FF4A07106
:102D7000FEF7E0FA04F104084FF07F43A3663946FA
:102D8000404605F095FA29463046D222FFF715FE57
:102D900001AA6946ADF8005030460125ADF804504F
:102DA00008F001FA3046A4F8A450FFF76BFF4FF08B
:102DB000FF33C4E92A3304F1B4034046C4F8943025
:102DC000314605F075FA204602B0BDE8F08100BF3B
:102DD0003032020830360208183202086F2C000820
:102DE0007047000030B5164D2C6814F001048FB008
:102DF000BFF35B8F20D128461DF002FAE0B13F23DC
:102E00000993104B0893104B104911480A94012262
:102E1000CDE906430423CDE903320A230093CDE92B
:102E20000B44CDE901440594FFF7C6FE09481EF0A6
:102E30003FF928461DF0F0F905480FB030BD00BF3E
:102E4000D0180020E4440208044502081C4402088B
:102E5000D4180020E12D00087047000030B5174D50
:102E60002C6814F001048FB0BFF35B8F22D1284689
:102E70001DF0C6F9F0B13F230993114B0893114B94
:102E800007930123CDE9054304930423CDE90243CD
:102E900014230D4900930C221823CDE90B440B4851
:102EA0000A940194FFF788FE09481EF001F92846AC
:102EB0001DF0B2F905480FB030BD00BF0019002069
:102EC000E8440208084502082C44020804190020BE
:102ED000592E00087047000030B5164D2C6814F0CC
:102EE00001048FB0BFF35B8F20D128461DF088F915
:102EF000E0B13F230993104B0893104B1049114840
:102F00000A940122CDE906430423CDE903322823A4
:102F10000093CDE90B44CDE901440594FFF74CFE45
:102F200009481EF0C5F828461DF076F905480FB08F
:102F300030BD00BF30190020004502080C450208D2
:102F4000D444020834190020D52E00080020704710
:102F5000002070470EB403B503AB002153F8042BD7
:102F600001930BF02BFF02B05DF804EB03B0704748
:102F70000CB407B504AB53F8042B01930BF01EFF00
:102F800003B05DF804EB02B070470000436C10B56D
:102F9000044673B3038F2BB9184B194AC52119483E
:102FA0001EF068F8C38E00EB43035B8C0BB30DF08F
:102FB000A0FD238F012B03D8134B144ACB21EEE73E
:102FC000E28E531C9BB2092B194688BFA3F10A015C
:102FD00004EB410140F63F10498C814209D10A2B94
:102FE00004EB420228BF002304EB4303508C5884B7
:102FF00051842046BDE810400DF07EBC992A02089D
:10300000A22A02084D2B0208972B0208A52B0208C2
:103010000DF039BC10B586B002AC84E806001A4643
:103020000AAB05930193099B00932146089B0AF084
:10303000DBF906B010BD000038B518BB124B1348C1
:103040001C681349B4B122682244026062682244B9
:103050000A60A26814440F4B00221A8000F038F86E
:10306000054600F033F80C4B1C600C4B1D600C4BFC
:10307000188007E00B4B03600B4B0B600B4B1C687D
:10308000002CE8D138BD00BF6C1900206419002065
:1030900060190020681900203C27012044270120E6
:1030A000402701201845020810450208344502084F
:1030B000044B1B6853F82100034B1B6803EB4000D3
:1030C000704700BF6019002064190020022070477B
:1030D000004870477019002010B5FFF7BFFE044C80
:1030E0002060FFF7F9FE6060FFF77CFEA06010BD76
:1030F0007019002010B5002404600C6014601C607E
:1031000010BD704710B54FF4AE7104461DF076F84F
:10311000204610BD10B50446D0F8580100F060F804
:103120002046BDE810400AF043BE000010B504463A
:10313000FFF7E0FB014B2360204610BD643202081C
:10314000704704387047704710B5102104461DF0D1
:1031500055F8204610BDA0F10400F5E7C06800F066
:1031600033B8A0F10400FFF7F9BF0000002282602D
:10317000024A02601C324260C1607047B8320208E5
:103180007047000010B5034B03600446FFF70BFCCB
:10319000204610BDE832020810B50446FFF7F2FFE2
:1031A00020464FF48E711DF029F8204610BD000016
:1031B00010B50446FFF72AFC014B2360204610BDE2
:1031C000E8320208FFF7F0BBB0F87010C1F15A0105
:1031D000002209B26C300BF09DBF002202607047E4
:1031E00010B504460C4800F0E9FB0B480A2100F03A
:1031F00063FC80B9084800F0B2FC01462068BE2399
:10320000594340F6FF73B1FBF3F10368BDE810408A
:103210009B681E31184710BD381800207047704752
:1032200004387047704710B5102104461CF0E6FFC3
:10323000204610BDA0F10400F5E7000000228260E6
:10324000024A026018324260C16070471C330208B3
:103250007047000010B5034B03600446FFF7DDFC28
:10326000204610BD4833020810B50446FFF7F2FFB0
:103270002046C4211CF0C2FF204610BD10B50446F4
:10328000FFF742FD014B2360204610BD4833020882
:10329000FFF7C4BCF02070474FF4A070704729209E
:1032A000FEF7FEBC2820FEF7FBBC08B5FEF7CCFC01
:1032B000CA20FEF7F5FCC320FEF7D6FC0820FEF777
:1032C000D3FC5020FEF7D0FCCF20FEF7E9FC002015
:1032D000FEF7CAFCC120FEF7C7FC3020FEF7C4FC95
:1032E000ED20FEF7DDFC6420FEF7BEFC0320FEF7B8
:1032F000BBFC1220FEF7B8FC8120FEF7B5FCE820ED
:10330000FEF7CEFC8520FEF7AFFC0020FEF7ACFCFC
:103310007820FEF7A9FCCB20FEF7C2FC3920FEF78F
:10332000A3FC2C20FEF7A0FC0020FEF79DFC34201F
:10333000FEF79AFC0220FEF797FCF720FEF7B0FCA0
:103340002020FEF791FCEA20FEF7AAFC0020FEF701
:103350008BFC0020FEF788FCB120FEF7A1FC0020CA
:10336000FEF782FC1B20FEF77FFCB620FEF798FCE0
:103370000A20FEF779FCA220FEF776FCC020FEF7BB
:103380008FFC1020FEF770FCC120FEF789FC102096
:10339000FEF76AFCC520FEF783FC4520FEF764FCBF
:1033A0001520FEF761FCC720FEF77AFC9020FEF79F
:1033B0005BFC3620FEF774FCC820FEF755FCF220BB
:1033C000FEF76EFC0020FEF74FFCB020FEF768FC15
:1033D000C220FEF749FCB620FEF762FC0A20FEF789
:1033E00043FCA720FEF740FC2720FEF73DFC04200D
:1033F000FEF73AFC2A20FEF753FC0020FEF734FCCF
:103400000020FEF731FC0020FEF72EFCEF20FEF737
:103410002BFC2B20FEF744FC0020FEF725FC0020AF
:10342000FEF722FC0120FEF71FFC3F20FEF71CFCEC
:10343000F620FEF735FC0120FEF716FC0020FEF713
:1034400013FC0620FEF710FC2C20FEF729FCC820F8
:10345000FEF774FC2620FEF723FC0120FEF704FC97
:10346000E020FEF71DFC0F20FEF7FEFB2920FEF7F3
:10347000FBFB2420FEF7F8FB0C20FEF7F5FB0E20EB
:10348000FEF7F2FB0920FEF7EFFB4E20FEF7ECFB08
:103490007820FEF7E9FB3C20FEF7E6FB0920FEF76B
:1034A000E3FB1320FEF7E0FB0520FEF7DDFB172012
:1034B000FEF7DAFB1120FEF7D7FB0020FEF7D4FB66
:1034C000E120FEF7EDFB0020FEF7CEFB1620FEF715
:1034D000CBFB1B20FEF7C8FB0420FEF7C5FB112029
:1034E000FEF7C2FB0720FEF7BFFB3120FEF7BCFB57
:1034F0003320FEF7B9FB4220FEF7B6FB0520FEF7AE
:10350000B3FB0C20FEF7B0FB0A20FEF7ADFB282032
:10351000FEF7AAFB2F20FEF7A7FB0F20FEF7A4FB68
:103520001120FEF7BDFBC820FEF708FC2920FEF79E
:10353000B7FBBDE808402C20FEF7B2BB08B5FEF78C
:1035400083FB0321D320FEF7C7FB80B208BD10B573
:10355000C4B2022203212046FEF72CFB0A20FEF70C
:1035600071FB204600220321FEF724FBBDE810403A
:103570000220FEF767BB38B50446E4B2FEF718FB3D
:1035800000212046FEF72EFB012105462046FEF7CE
:1035900029FB40EA052080B238BD10B5C4B24021F5
:1035A0002046FEF71FFB030607D54C212046FEF7F9
:1035B00019FB003818BF012010BD01224B21204605
:1035C000FEF7F8FA204600224B21FEF7F3FA00201E
:1035D000F2E773B50423C4B20E461546D7210DEBAE
:1035E00003022046FEF718FB019B1BBA1A0DC3F31A
:1035F0000B23328020462B8001224B21FEF7DAFA82
:1036000000224B212046FEF7D5FA02B070BD000023
:1036100010B50A4A1378984204460DD05178884272
:103620000AD00BB141B90123D454FEF7C1FA2046A8
:10363000BDE81040FFF78BBF10BD00BF7C19002014
:1036400010B5C4B209212046FEF7CCFA40F00102C1
:10365000D2B220460921BDE81040FEF7ABBA10B542
:10366000C4B209212046FEF7BDFA092100F0FE028E
:103670002046BDE81040FEF79DBA38B5C4B20D46ED
:1036800020460A21FEF7AEFA40EA0502D2B22046F1
:103690000A21BDE83840FEF78DBA10B50446FEF7A2
:1036A00088FA20461F21FFF7E8FF2046BDE81040BA
:1036B000FFF7C6BF38B5C4B20D4620460A21FEF753
:1036C00091FA20EA0502D2B220460A21BDE838402C
:1036D000FEF770BA10B50446FFF7C1FF20461F2160
:1036E000BDE81040FFF7E6BF10B5C0B20C460B2195
:1036F000FEF778FA204010BD1F21FFF7F5BF0A46FC
:10370000C0B20B21FEF756BA1F21FFF7F8BF38B53C
:10371000C4B20D4620461721FEF764FA20EA0502DE
:10372000D2B220461721BDE83840FEF743BA70B543
:10373000C4B2064604212046FEF754FA042100F0E4
:10374000FB0205462046FEF735FA3046F021FFF72A
:10375000DEFF05F0F80220460421FEF72BFA49228D
:1037600020212046FEF726FA0220FEF76BFA2046BB
:1037700001222121FEF71EFA20469A224121FEF75E
:1037800019FA204601224A21FEF714FA20460122A6
:103790004B21FEF70FFA204600224B21FEF70AFAD2
:1037A000204601225621FEF705FA20460122582123
:1037B000FEF700FA204601224021FEF7FBF92046E1
:1037C000FF220B21FEF7F6F9BDE870400220FEF75C
:1037D00039BA0000054BD3F8882042F47002C3F8D0
:1037E00088204FF000629A60704700BF00ED00E053
:1037F00008B50B4B1A6842F400721A601A6842F45A
:1038000080621A601A6842F480721A60032000F025
:1038100045FA0020FEF706FDFEF79EFA002008BDDF
:10382000003C0240034A044B11681B780B441360B0
:10383000704700BF8019002078000020014B1868F5
:10384000704700BF8019002038B50446FFF7F6FF27
:10385000631C1CBF054B1B78054618BFE418FFF717
:10386000EDFF431BA342FAD338BD00BF7800002010
:1038700038B50446002800F09B80056C25B9FEF79A
:103880008BFA656484F83C50236CDB0600F18E8073
:10389000236C23F4885323F0020343F002032364D0
:1038A000444B5A6822F440325A605A6861680A43AD
:1038B0005A60236821695A6822F480725A605A68F3
:1038C00042EA01225A605A68A16822F040725A60A6
:1038D0005A680A435A609A68E16822F400629A6062
:1038E0009A680A439A603449A26A8A4252D0996817
:1038F00021F07061996099680A439A609A68E16A58
:1039000022F040529A609A680A439A609A6822F0BC
:1039100002029A609A68217E42EA41029A6094F813
:103920002020002A3ED05A68616A42F400625A6040
:103930005A6822F460425A605A68013942EA4132B8
:103940005A60DA6AE16922F47002DA62DA6A0139ED
:1039500042EA0152DA629A6822F400729A609A6826
:1039600094F8301042EA41229A609A68616922F420
:1039700080629A609A68002042EA81229A606064BC
:10398000236C23F0030343F001032364002384F832
:103990003C3038BD9A6822F070629A609A6822F0D2
:1039A0004052B2E75A6822F40062C9E70120EDE70D
:1039B0000120EEE7002301400100000F82B0002348
:1039C000019390F83C30012B69D0012380F83C3002
:1039D00003689A68D2070BD59A68D1071AD4036C8A
:1039E00043F010030364436C43F0010343644CE071
:1039F0009A682C4942F001029A602B4A1268B2FB85
:103A0000F1F202EB42020192019A002AE4D0019AFB
:103A1000013AF8E7026C22F4E06222F0010242F47B
:103A2000807202645A68520541BF026C22F440520F
:103A300042F480520264026C12F480521CBF426C49
:103A400022F006024264002280F83C206FF022023D
:103A50001A60164A516811F01F0F15491CD18B428C
:103A600007D001F580718B420CD1526812F01F0F04
:103A70000BD19A6812F0405F07D19A6842F08042F9
:103A80009A6002E00B498B4202D0002002B07047DE
:103A9000526812F0100FEBE78B42F6D1E9E70220F3
:103AA000F4E700BF40420F007400002000230140F3
:103AB000002001400022014003689A68520570B559
:103AC00004460D460BD59B68DE0508D5036C43F014
:103AD00020030364002380F83C30012070BDFFF711
:103AE000ADFE064623681A6891070CD56FF01202E6
:103AF0001A60226C42F4007222649A6812F0405FED
:103B000017D00020EAE7681CEDD065B923681B6870
:103B100013F00203E6D1226C84F83C3042F0040238
:103B200022640320DAE7FFF789FE801BA842EDD864
:103B3000D8E7227E002AE4D1DA6A12F4700F02D0AC
:103B40009B685A05DDD4236C23F480732364236CB3
:103B5000DB04D6D4236C43F001032364D1E703686C
:103B6000D86C7047F7B50023019390F83C30012BD7
:103B7000054600F08680012380F83C3008682B68F9
:103B80008E68092884B233D904EB4402DF681E3AF8
:103B90004FF0070C0CFA02FC27EA0C07DF60DF6825
:103BA00006FA02F23A43DA604968062901EB81021B
:103BB0002DD8596B053A1F26964021EA0601596314
:103BC000596B04FA02F20A435A632F4A93420AD10C
:103BD000122837D12D4B5A6822F400025A605A68D5
:103BE00042F480025A60002085F83C0003B0F0BD2A
:103BF0001A6900EB400C072707FA0CF722EA0702C4
:103C00001A611A6906FA0CF616431E61CCE70C29F4
:103C10004FF01F010BD81E6B233A914026EA010199
:103C20001963196B04FA02F20A431A63CDE7DE6ADC
:103C3000413A914026EA0101D962D96A94400C4385
:103C4000DC62C2E7124B984201D01128CBD10F4B56
:103C50005A6822F480025A605A6842F400025A609C
:103C60000B4B9842BFD10B4B0B4A1B68B3FBF2F3D3
:103C70000A2253430193019B002BB4D0019B013BCB
:103C8000F8E70220B2E700BF002001400023014016
:103C9000120000107400002040420F000749CA685B
:103CA00022F4E0620302120403F4E063120C1343F3
:103CB00043F0BF6343F40033CB60704700ED00E096
:103CC000164B30B5DC68C4F30224C4F10703251D8C
:103CD000042B28BF0423062D4FF0FF358CBF033C77
:103CE000002405FA03F321EA0303A54022EA0502B2
:103CF000A340002843EA0203ACBF00F16040084A39
:103D00004FEA0313B8BF00F00F00DBB2AABF00F503
:103D10006140135480F8003330BD00BF00ED00E077
:103D200014ED00E0002807DB044A4109012300F0FC
:103D30001F00834042F82130704700BF00E100E0DF
:103D400010B5044650B1437903F0FF0213B9027174
:103D5000FEF754F801236371002010BD0120FCE739
:103D600010B5044620B390F8393003F0FF021BB9B8
:103D700080F83820FEF75AF8022384F83930236897
:103D800061681A6822F440320A431A605A6BA168CB
:103D900022F007020A435A631A6CE1686FF30D02BE
:103DA0000A431A6400200123E06384F8393010BD0F
:103DB0000120FCE770477047036870B55E681D68B6
:103DC000F207044614D5E90512D51A6822F4807268
:103DD0001A60C26B42F00102C26301229A6004239E
:103DE00080F83930002380F83830436903B19847B0
:103DF000B20616D5AB0414D523681A6822F4005213
:103E00001A6020229A60E36B43F00203E363042309
:103E100084F83930002384F8383063690BB12046C8
:103E20009847300716D5290514D523681A6822F457
:103E300000621A6008229A60E36B43F00403E363B4
:103E4000042384F83930002384F8383063690BB1D7
:103E50002046984772070BD56B0509D523681A6869
:103E600022F480621A6004229A602046FFF7A2FFC3
:103E7000B00714D5A90512D523681A6822F4007278
:103E80001A6002229A60E36BE363012384F83930FD
:103E9000002384F8383023690BB120469847F20696
:103EA00013D5EB0411D523681A6822F480521A60E6
:103EB00010229A60E36BE363012384F83930002316
:103EC00084F838302046FFF776FF70BDF0B590F8E3
:103ED0003820012A03464FF002002BD0012283F83C
:103EE000382083F8390003EB0112D2E90740556A04
:103EF000174F44EA0040093C012C9CBF05F07F426B
:103F000010434FEA01161A6888BF40EA056091B96C
:103F1000516A394001435162012C9969916103D87A
:103F2000596A21F07F4191620122002083F83920F3
:103F300083F83800F0BDD16939400143D161991946
:103F4000012C896911619CBF25F07F451562EBE763
:103F5000F0FFFC002DE9F74FDFF8BC916C4A00231D
:103F60000D6801249C4004EA0506AC4340F0B7808C
:103F70004D68032705F003044FEA430807FA08FCDD
:103F8000671E012F6FEA0C0C34D8876807EA0C0E05
:103F9000CF6807FA08F747EA0E078760476827EAFD
:103FA000060EC5F300179F4047EA0E074760C76833
:103FB00007EA0C0E8F6807FA08F747EA0E07022C8B
:103FC000C76019D14FEAD30A00EB8A0A03F0070B46
:103FD000DAF820704FEA8B0B4FF00F0E0EFA0BFE43
:103FE00027EA0E0E0F6907FA0BF747EA0E07CAF821
:103FF000207001E0032CDAD1076804FA08F407EA1C
:104000000C073C4315F4403F046068D00024019441
:10401000D9F8444044F48044C9F84440D9F84440B5
:1040200023F0030707F1804704F4804407F59C3729
:10403000019403F0030C019CD7F808E04FEA8C0CC4
:104040000F2404FA0CF42EEA040E324CA0424DD098
:1040500004F58064A0424BD004F58064A04249D0AE
:1040600004F58064A04247D004F58064A04245D0A6
:1040700004F58064A04243D004F58064A04241D09E
:1040800004F58064A0423FD004F58064A0423DD096
:1040900004F58064A04214BF0A24092404FA0CF435
:1040A00044EA0E04BC609468F74315F4801F0CBF0B
:1040B0003C4034439460D46815F4001F0CBF3C406E
:1040C0003443D460546815F4003F0CBF3C40344383
:1040D00054601468ED0354BF3C4034431460013312
:1040E000102B7FF43DAF03B0BDE8F08F0024D5E77F
:1040F0000124D3E70224D1E70324CFE70424CDE74A
:104100000524CBE70624C9E70724C7E70824C5E749
:10411000003C01400000024000380240036919429F
:1041200014BF0120002070470AB181617047090463
:10413000FBE7436901EA030221EA030141EA024184
:104140008161704701684B6913F480634FF000028E
:1041500010D06FF480634B612023026380F83D3000
:1041600080F83E20036C80F83C2043F00403036495
:1041700001207047184670472DE9F84606460F465D
:1041800091461D464FEA114A3368BAF1010F0CBF40
:104190005C699C6927EA0404A4B2B4FA84F4640953
:1041A000A14501D0002025E06A1CEED0FFF746FBB8
:1041B000089BC01AA84201D8002DE5D13368BAF196
:1041C000010F0CBF5B699B6927EA03039BB2B3FA3B
:1041D00083F35B099945D7D100232022336386F806
:1041E0003D2086F83E30326C86F83C3042F02002AA
:1041F00032640120BDE8F8862DE9F04104460F46FF
:10420000164698462568686927EA000080B2C0B162
:104210006B695A0517D52B6843F400732B606FF454
:1042200080636B6120220023236384F83D2084F89F
:104230003E30236C43F004032364002384F83C30B5
:104240000120BDE8F081731CDDD0FFF7F7FAA0EB89
:104250000800B04201D8002ED4D123685A6927EA59
:10426000020292B2002ACDD000232022236384F8D8
:104270003D2084F83E30236C1343DDE770B50446DF
:104280000D46164623685B691B0601D500201EE01B
:104290002046FFF757FFC8B96A1CF3D0FFF7CEFAE4
:1042A000801BA84201D8002DECD123685B6913F074
:1042B0008003E7D12022236384F83D2084F83E3038
:1042C000226C84F83C3042F020022264012070BD50
:1042D0002DE9F0431546026885B0DDE90C78994672
:1042E000136843F4807313600E463B46CDF800809C
:1042F00000224FF001110446FFF73EFF236838B15A
:104300001B68DB0502D54FF400732364032620E00D
:1043100006F0FE061E611A4943463A462046FFF75C
:104320006BFFA8B9236803905A6903929B690393B2
:10433000424639462046039BFFF7A0FF064660B180
:10434000236C042B01BF2268136843F400731360CD
:104350000126304605B0BDE8F083B9F1010F2368AE
:1043600002D1EDB21D61F4E72A0A1A6139464246CC
:104370002046FFF783FF0028E2D12368F1E700BF62
:10438000020001002DE9FF479A46036815461A68A6
:1043900042F480621A601A68DDE90C7842F4807297
:1043A0001A600E463B46CDF8008000224FF0011106
:1043B0000446FFF7E1FE236838B11B68DB0544BF04
:1043C0004FF400732364032021E05FFA86F906F0BE
:1043D000FE061E612B4943463A462046FFF70CFF76
:1043E000A0B9236803905A6903929B6903934246DC
:1043F00039462046039BFFF741FF58B1236C042B3D
:1044000001BF2268136843F400731360012004B0F5
:10441000BDE8F087BAF1010F23681AD1EDB2424628
:104420001D6139462046FFF729FF02460028E5D1E5
:1044300021680B6843F480730B602046CDF8008040
:104440003B464FF00111FFF797FE226860B11368F9
:10445000B4E72A0A1A61394642462046FFF70EFFA2
:104460000028CBD12368D9E749F00103136105493E
:1044700043463A462046FFF7BFFE003818BF0120EA
:10448000C5E700BF0200010070B504460D461646A0
:1044900023685B695B0701D500201EE02046FFF71B
:1044A00051FEC8B96A1CF3D0FFF7C8F9801BA842B7
:1044B00001D8002DECD123685B6913F00403E7D128
:1044C0002022236384F83D2084F83E30226C84F857
:1044D0003C3042F020022264012070BD70B50446D9
:1044E0000D46164621684B6913F0400301D00020A9
:1044F00011E04A69D2060FD56FF010024A612022FE
:10450000236384F83D2084F83E30236C2364002329
:1045100084F83C30012070BDFFF790F9801BA84261
:1045200001D8002DDED123685B6913F04003D9D197
:104530002022236384F83D2084F83E30236C13430B
:10454000E4E7000070B5044608B9012070BD90F89A
:104550003D3003F0FF021BB980F83C20FDF788FCDA
:10456000242384F83D3023681A6822F001021A607F
:104570001A6842F400421A601A6822F400421A6073
:1045800000F08AFE3F4B65689D4294BF3E4B3F4B17
:1045900098428CBF00230123002BD6D12268394ECC
:1045A00051683B4BB0FBF3F321F03F011943B54297
:1045B000516088BF4FF49676116A88BF734321F02B
:1045C0003F0184BF4FF47A76B3FBF6F301330B431C
:1045D0001362D169431E2B4821F44F41854221F0DB
:1045E000FF0132D86D0040F6FC70B3FBF5F30133E8
:1045F000034242D0C3F30B031943D161D4E907301E
:104600001168034321F0C0010B4313609168D4E9A2
:10461000030321F40341034321F0FF010B439360A3
:10462000D4E90530D168034321F0FF010B43D36087
:10463000136843F00103136000202023206484F8F2
:104640003D30206384F83E0080E7A06850B905EB58
:104650004505B3FBF5F30133C3F30B037BB143F41F
:104660000043C9E719206843B3FBF0F30133C3F3F8
:104670000B0323B143F44043BEE70423BCE701230B
:10468000BAE700BFA08601007F841E00FF083D003E
:1046900040420F002DE9F743044699460C9E0F4611
:1046A0009046FFF7CBF894F83D30202B054603D019
:1046B000022003B0BDE8F08300903C491923012299
:1046C0002046FFF759FD0028F2D194F83C30012B29
:1046D000EED02068012384F83C300368D9075EBF20
:1046E000036843F001030360036823F4006303607D
:1046F000212384F83D30402384F83E300023236496
:104700000A9B6362BDF82C306385638D2385284B3B
:10471000E3624246CDE900654B4639462046FFF745
:10472000D7FD00282AD00120C3E7FFF7A7FD40B13D
:10473000236C042B01BF2268136843F400731360D9
:10474000F1E7636A27681A4612F8011B3961626251
:10475000628D218D013A92B262857A69481E80B2DB
:10476000520720850AD548B15A783A61023363620C
:10477000638D013B02399BB221856385238D2A46D7
:1047800031462046002BD0D1FFF77EFE0028CFD146
:104790002268136843F400731360202384F83D30CB
:1047A00084F83C0084F83E0083E700BF020010005C
:1047B0000000FFFF2DE9F043044687B09946109FA3
:1047C0000D469046FFF73AF894F83D30202B064608
:1047D00004D00225284607B0BDE8F08300907A494E
:1047E000192301222046FFF7C7FC0028F1D194F8D5
:1047F0003C30012BEDD02068012384F83C30036865
:10480000DB075EBF036843F001030360036823F422
:1048100000630360222384F83D30402384F83E3057
:10482000002323640E9B6362BDF83C306385638D77
:104830002385664BE3622946CDE900764B46424626
:104840002046FFF79FFD054608B10125C2E7228DEE
:104850002368B2B902905A6902929A690292029A46
:104860001A6842F400721A60DFF86481238D002B0D
:104870002CD1202284F83D2084F83C3084F83E304E
:10488000A8E7012A0AD11A6822F480621A6003900C
:104890005A6903929A690392039AE1E7022A0ED1B8
:1048A0001A6822F480621A601A6842F400621A6080
:1048B00004905A6904929B690493049BD4E7059081
:1048C0005A6905929B690593059BCDE7032B56D842
:1048D000012B15D1324639462046FFF7FFFD00284F
:1048E000B3D123681A69636A1A70636A0133636219
:1048F000238D013B2385638D013B9BB26385B5E727
:10490000022B00963B464FF000024146204619D14B
:10491000FFF732FC002898D123681A6842F400722D
:104920001A601A69636A1A70626A531C6362238D83
:10493000013B2385638D013B9BB2638523681B6923
:104940005370D2E7FFF718FC024600287FF47DAFD2
:104950002368196821F4806119601969636A197004
:10496000636A01336362238D013B2385638D013BC1
:104970009BB26385414600963B462046C8E73246D7
:1049800039462046FFF7AAFD00287FF45EAF236872
:104990001A69636A1A70628D616A013A92B24B1C9D
:1049A000628522686362238D5069013B9BB2400798
:1049B00023857FF55BAF032B02BF136823F480636D
:1049C000136013694B7090E7020010000000FFFFB6
:1049D0000400010010B590F83D30202BDCB216D158
:1049E000242380F83D3003681A6822F001021A601F
:1049F0005A6A22F010025A625A6A114359621A68BE
:104A000042F001021A6080F83D40002010BD0220F3
:104A1000FCE730B590F83D30202BDCB216D10268AF
:104A2000242380F83D30136823F001031360556A96
:104A30004FF6F0732B400B439BB25362136843F065
:104A40000103136080F83D40002030BD0220FCE7E8
:104A50000068D20184328318F0B5C7685D684C687D
:104A60000E6805F470455D60C56806F1010CC5F37C
:104A70000B45C7F30B472744654445EA07455D608E
:104A8000C768CD68C7F30A072F449D6805F47045D1
:104A90009D60D0F80CC08D68CCF30A0C01356544DC
:104AA00045EA07459D601D69D1F810C08F6925F062
:104AB00007051D61C3F810C091F8305045EA07653D
:104AC00091F8317045EA072591F8327045EA0745BB
:104AD0009D615D6925F0FF055D614D695D61DD6981
:104AE00025F4E06525F00705DD61D1E907573D4371
:104AF000DD61BCF1070F4D6A9D629CBF0D4D15F83D
:104B00000C70DD6A05F0E025DD6288BF01278D6A43
:104B1000C96AA41B7C437D43033444EA0544DC6238
:104B20001C6B6FF30A041C631963835843F0010381
:104B30008350F0BD8C33020838B5044600284ED0AF
:104B400090F8A13003F0FF021BB980F8A020FDF718
:104B5000EBF9022384F8A13023689A6922F07042AD
:104B60009A61D4E901200243E0689969024320690F
:104B700002430A439A61D4E9051242EA01429A606B
:104B8000D4E9071242EA0142DA60D4E9091242EAA2
:104B900001421A61D4E90B1242EA01425A61DA6A0F
:104BA00094F8350094F8361002F07F42DA62DD6A3C
:104BB00094F834202A4342EA002242EA0142DA62AF
:104BC0005A6B42F006025A639A6942F001029A61F6
:104BD00000200123C4F8A40084F8A13038BD0120CE
:104BE000FCE770477047036870B59E6B5D6B72079A
:104BF000044614D5690712D55A6B22F004025A6391
:104C00000422DA63D0F8A43043F00103C0F8A430E2
:104C1000002380F8A12080F8A030FFF7E2FFB20760
:104C200016D5AB0714D523685A6B22F002025A63DB
:104C30000222DA63D4F8A4301343C4F8A430042366
:104C400084F8A130002384F8A0302046FFF7C9FF84
:104C5000F00710D5E9070ED523685A6B22F0010240
:104C60005A630122DA63002384F8A12084F8A0307B
:104C70002046FCF7CFFC320711D52B070FD5236850
:104C80005A6B22F008025A630822DA63012384F87F
:104C9000A130002384F8A0302046FFF7A3FF70BDA9
:104CA0002DE9F04190F8A030012B06460F469446BE
:104CB0004FF002001FD04FF0010886F8A08086F860
:104CC000A10034240D4604FB02640FCD38340FC418
:104CD0000FCD0FC40FCD0FC42B6823603046624642
:104CE0003946FFF7B5FE33680020C3F8248086F804
:104CF000A18086F8A000BDE8F081000090F8A02017
:104D0000012A03464FF0020012D01A6883F8A1006E
:104D1000506B20F00100506306480164516B41F074
:104D2000010151630020012283F8A12083F8A00033
:104D3000704700BF0068014037B500230193184B4E
:104D4000184D1A6C42F080521A641B6C03F08053A9
:104D50000193019B144B01221A64FEF76FFD044678
:104D60006B68DA030BD5104B0E4D01225A64FEF727
:104D700065FD04466B689B030AD5002006E0FEF73C
:104D80005DFD001BB0F57A7FEAD9032003B030BD8A
:104D9000FEF754FD001BB0F57A7FEBD9F5E700BFB5
:104DA000003802400070004000000E422DE9F3413F
:104DB000044640B30368DE0710D423689D075BD424
:104DC0002368190700F19D8023685A0700F1BD8010
:104DD000A369002B40F0248100202CE08D4B9A68C1
:104DE00002F00C02042A07D09A6802F00C02082A8A
:104DF0000BD15B68590208D5864B1B689A03DCD53A
:104E00006368002BD9D1012015E06368814DB3F5AB
:104E1000803F13D12B6843F480332B60FEF70EFDE7
:104E20007C4E054633689B03C7D4FEF707FD401B45
:104E30006428F7D9032002B0BDE8F081B3F5A02FB4
:104E400004D12B6843F480232B60E3E72A6822F423
:104E500080322A602A6822F480222A60002BDDD169
:104E6000FEF7ECFC06462B689F03A6D5FEF7E6FC92
:104E7000801B6428F7D9DDE7664B9A6812F00C0FA7
:104E800007D09A6802F00C02082A11D15B685D0213
:104E90000ED4604A1368990702D5E368012BB2D19A
:104EA0001368216923F0F80343EAC103136087E71D
:104EB000E268594BB2B101221A60FEF7BFFC554DB2
:104EC00006462B689B0707D52B68226923F0F80359
:104ED00043EAC2032B6073E7FEF7B0FC801B022895
:104EE000EFD9A7E71A60FEF7A9FC4A4E05463368DA
:104EF0009F077FF565AFFEF7A1FC401B0228F6D99E
:104F000098E76269444B82B10122C3F8802EFEF714
:104F100095FC404E0546736F9B073FF555AFFEF776
:104F20008DFC401B0228F6D984E7C3F8802EFEF7DB
:104F300085FC384E0546736F9F077FF545AFFEF73A
:104F40007DFC401B0228F6D974E7324B1A6C12F034
:104F5000805228D101921A6C42F080521A641B6C64
:104F600003F080530193019B01272C4D2B68D8053A
:104F70001BD5A368274D012B27D12B6F43F00103CD
:104F80002B67FEF75BFC234E054641F28838336FF2
:104F90009A0739D5002F3FF41BAF1E4A136C23F03C
:104FA0008053136414E70027DFE72B6843F4807312
:104FB0002B60FEF743FC06462B68D905D9D4FEF7D3
:104FC0003DFC801B0228F7D934E7052B04D12B6F59
:104FD00043F004032B67D0E72A6F22F001022A670F
:104FE0002A6F22F004022A67002BCAD1FEF726FCA2
:104FF00041F2883806462B6F9B07CBD5FEF71EFC87
:10500000801B4045F7D915E7FEF718FC401B4045CB
:10501000BDD90FE700380240000047420070004051
:10502000374DAA6802F00C02082A3ED0022B354BFD
:105030004FF000021A662BD1FEF700FC06462B68E3
:1050400099011FD4D4E907321343626A43EA8213F9
:10505000E26A43EA0263A26A5208013A43EA02435F
:105060006B60284B264D01221A66FEF7E7FB0446CB
:105070002B689A013FF5B0AEFEF7E0FB001B02285B
:10508000F6D9D7E6FEF7DAFB801B0228D7D9D1E69E
:10509000FEF7D4FB04462B689B017FF59DAEFEF71F
:1050A000CDFB001B0228F6D9C4E6012B3FF4ABAEC2
:1050B0006B68E26903F4800191427FF4A4AE216A37
:1050C00003F03F028A427FF49EAE616A47F6C072E7
:1050D0001A40B2EB811F7FF496AEA26A520803F425
:1050E0004031013AB1EB024F7FF48DAEE26A03F03A
:1050F0007063B3EB026F14BF012000209BE600BF7A
:105100000038024000004742134908B58B6803F09D
:105110000C03042B1CD0082B1CD14A684B6849682F
:1051200013F4800314BF0D480D48C1F3881118BF54
:10513000002302F03F02A1FB0001FBF7F9F8064B48
:105140005B68C3F3014301335B00B0FBF3F008BDC0
:105150000248FCE70248FAE70038024000127A00F1
:105160000024F4002DE9F0410D46044610B9012059
:10517000BDE8F081434B1A6802F00F028A4228D33F
:1051800021688F072DD4C80740D43E4B1A6802F01F
:105190000F02AA4265D8226851076BD4130707D5BE
:1051A000394A2169936823F4604343EAC103936059
:1051B000FFF7AAFF344B354A9B68C3F30313D35C54
:1051C000D840334B1860334B1868FDF72BF800209C
:1051D000CEE7CAB21A701B6803F00F038B42C6D128
:1051E000CEE7294B11F0040F1EBF9A6842F4E0523B
:1051F0009A600E0742BF9A6842F460429A609A68C9
:10520000A06822F0F00202439A60BCE762681E4B7D
:10521000012A1CD11B6813F4003FA8D01A4EB368B2
:1052200023F003031343B360FEF708FB41F2883811
:105230000746B368626803F00C03B3EB820FA4D097
:10524000FEF7FCFAC01B4045F3D9032090E7911EFE
:1052500001291B6802D813F0007FDEE713F0020F6C
:10526000DBE7EAB21A701B6803F00F03AB427FF46E
:105270007EAF90E70449E0688B6823F4E053034372
:105280008B608BE7003C0240003802407C33020810
:10529000740000207C000020044B054A9B68C3F387
:1052A0008223D35C034A1068D8407047003802401C
:1052B00074330208740000200F2303600B4B9A68BC
:1052C00002F0030242609A6802F0F00282609A687B
:1052D00002F4E052C2609B68DB0803F4E053036110
:1052E000034B1B6803F00F030B607047003802404C
:1052F000003C0240036813F0430FF7B5044640F04A
:105300008880236813F00C0F45D08C4B8C4D002205
:105310001A67FEF793FA06462B68990000F1CB80D6
:1053200021684A0715D5D4E90403D5F888201B065F
:1053300002F0E04243EA80131343C5F88830D5F801
:105340008C30226A23F4F853013A43EA0223C5F869
:105350008C300B0714D57A4AA369D2F888102069DB
:105360001B0701F0706143EA80130B43C2F88830D9
:10537000D2F88C30616A23F440330B43C2F88C308E
:105380006E4B6F4E01221A67FEF758FA05463368D6
:105390009F0040F197802368980634D5002301933D
:1053A000674B684D1A6C42F080521A641B6C03F014
:1053B00080530193019B2B6843F480732B60FEF7AD
:1053C0003DFA06462B68D80540F183805C4DA26A01
:1053D0002B6F13F4407340F08380A36A03F4407290
:1053E000B2F5407F564A40F09E80916823F07040AD
:1053F00021F4F81120F4407001439160116FC3F360
:105400000B030B4313672368DB0600F19080002039
:105410004FE04A4B4A4E00229A66FEF70FFA0546C5
:1054200033681F013FD42168C80741BFD4E9012375
:105430001B0743EA8213C6F884308A0715D5404A11
:10544000E368D2F8840065681B0600F0E04043EA98
:1054500085130343C2F88430D2F88C00E36920F04E
:105460001F00013B0343C2F88C304B060AD5E368AA
:1054700062681B0643EA8213A26843EA0273304A59
:10548000C2F884302D4B2E4E01229A66FEF7D6F9D3
:10549000054633681F013FF534AFFEF7CFF9401BD7
:1054A0000228F6D904E0FEF7C9F9401B0228B7D953
:1054B000032003B0F0BDFEF7C1F9801B02287FF680
:1054C0002BAFF5E7FEF7BAF9401B02287FF65FAF76
:1054D000EEE7FEF7B3F9801B02287FF673AFE7E72C
:1054E00002F4407293423FF478AF2B6F134A0121CC
:1054F000C2F8401E23F440730021C2F8401E2B67FF
:105500002B6FD9077FF569AFFEF798F941F288371D
:1055100006462B6F9A073FF560AFFEF78FF9801BA9
:10552000B842F6D9C4E7916821F4F81165E7064B53
:1055300094F82C20C3F8E02169E700BF000047423F
:1055400000380240007000400010474238B50D4658
:105550000446C8B190F82C3003F0FF021BB980F864
:105560002D20FCF7F3FD022384F82C30211D206848
:1055700000F008FD62682068294600F039FD01232B
:1055800084F82C30002038BD0120FCE770B590F87D
:105590002C30022B05460E46D8B212D000F0FB0488
:1055A000012C0FD1022385F82C30286800F056FD1D
:1055B0003368022B06BF052385F82C3085F82C4074
:1055C000002070BD0120FCE738B590F82C30022B8C
:1055D0000446D8B20DD094F82C30012BDDB209D19D
:1055E0000223206884F82C3000F05CFD84F82C50F5
:1055F000002038BD0120FCE72DE9F3471F4689460E
:1056000090460446FEF71AF90A9D3D442D1AFEF70E
:1056100015F9264B1E68C6F3CB366E4382460196BB
:105620002268936839EA03030CBF01230023434532
:1056300001D100202EE07B1CF3D0FEF7FFF8A0EB99
:105640000A00A84229D323685A6822F0E0025A606F
:105650006268B2F5827F0AD1A268B2F5004F02D02B
:10566000B2F5806F03D11A6822F040021A60A26A74
:10567000B2F5005F07D11A6822F400521A601A6866
:1056800042F400521A60012384F85130002384F858
:105690005030032002B0BDE8F087019B1BB1019B95
:1056A000013B0193BCE71D46BAE700BF7400002030
:1056B000F0B585B00B4600920E4617460221012236
:1056C0000446FFF799FF054628B1636D43F02003B8
:1056D0006365032515E0124B1868124BB0FBF3F01D
:1056E0004FF47A73584363680390B3F5827F0BD10C
:1056F000009733462A4680212046FFF77DFF002889
:10570000E3D1284605B0F0BD039B002BF9D0039BE5
:10571000013B039323689B681B06F5D4F1E700BFA8
:105720007400002000366E0137B50B464168B1F5B4
:10573000827F044608D0009201210022FFF75CFF1F
:10574000D0B9002003B030BD8168B1F5004F02D060
:10575000B1F5806F07D125682868B1F5806F20F01A
:105760004000286004D00092802100222046E5E716
:10577000009201210022F9E7636D43F02003636585
:105780000320DFE710B50446002855D0436A002BFC
:105790004ED14268B2F5827F00D0C3610023A3627C
:1057A00094F8513003F0FF0223B984F850202046CA
:1057B000FCF796FC2168A068A269022384F85130A6
:1057C0000B6823F040030B60636800F4044003F4AB
:1057D00082730343E06800F400600343206900F033
:1057E00002000343606900F00100034302F400700B
:1057F0000343E06900F038000343206A00F08000B2
:105800000343A06A00F4005003430B60636A120C68
:1058100003F0100302F004021A434A60CB6923F438
:105820000063CB6100200123606584F8513010BD16
:105830000023C0E90433B1E70120F8E72DE9F7437D
:1058400004461F460D469046FDF7F8FF94F8513088
:10585000012B8146D8B240F09F80002D74D0B8F162
:10586000000F71D094F85030012B00F09580032385
:1058700084F8513000236365C4E91033A4F83680FE
:10588000A363A387E387A368266884F85000B3F571
:10589000004F2563A4F8348007D1336823F0400318
:1058A0003360336843F4804333603368E2685B06F7
:1058B0005EBF336843F040033360B2F5006F636846
:1058C00045D113B1B8F1010F07D135F8023BF360B0
:1058D0002563E38E013B9BB2E386E38E9BB2D3B993
:1058E0004A4639462046FFF7E3FE002851D1A36817
:1058F00033B901932368DA6801929B680193019B95
:10590000012384F85130606D0023C01A84F85030B0
:1059100018BF012018E022689368980705D5236B0B
:1059200033F8021BD1602363D3E7FDF787FFA0EBB9
:105930000900B842D1D3791CCFD0012384F851306B
:10594000002384F85030032003B0BDE8F08313B186
:10595000B8F1010F08D12B783373236B0133236324
:10596000E38E013B9BB2E386E38E9BB2002BB7D064
:1059700023689A68920703D5226B12781A73ECE7B2
:10598000FDF75CFFA0EB0900B842EDD37B1CEBD028
:10599000D3E720236365AAE70220D5E72DE9F74383
:1059A00004460D4691461E46DDF82880FDF746FF69
:1059B00094F851306268012B0746D9B20AD0B2F58B
:1059C000827F40F0E580A368002B40F0E18004294D
:1059D00040F0DE80002D4BD0B9F1000F48D0002EF2
:1059E00046D094F85030012B00F0D280012384F887
:1059F000503094F85130C4F83890042B1CBF052364
:105A000084F8513000236365C4E910332368E687C6
:105A1000E6861968A687490658BF1968256358BFE6
:105A200041F04001A68658BF1960E168B1F5006FEA
:105A300055D10AB1012E07D135F8022BDA60E38E79
:105A40002563013B9BB2E3860125E38E9BB28BB9B4
:105A5000E38F9BB273B93A4641462046FFF728FED2
:105A6000002800F0818020236365002384F85030F3
:105A7000012031E021688B689A070DD5E38E9BB237
:105A800053B145B1236B33F8022BCA602363E38E15
:105A9000013B9BB2E38600258A6812F001020CD01C
:105AA000E38F9BB24BB1A36BC96823F8021BA363BE
:105AB000E38F013B9BB2E3871546FDF7BFFEC01B9A
:105AC0004045C2D3B8F1FF3FBFD0012384F8513025
:105AD000002384F85030032003B0BDE8F0830AB1FE
