:020000040800F2
:10000000000003205D060008D9230008DB23000858
:10001000DD230008DF230008E123000800000000C2
:10002000000000000000000000000000417F000808
:10003000E323000800000000D17F00085D7800087D
:10004000AD060008AD060008AD060008AD060008C4
:10005000AD060008AD060008AD060008AD060008B4
:10006000AD060008AD060008AD060008AD060008A4
:10007000AD060008AD060008AD060008AD06000894
:10008000AD060008AD060008AD060008AD06000884
:10009000AD060008AD060008AD060008AD06000874
:1000A000AD060008AD060008AD060008AD06000864
:1000B000AD060008AD060008AD060008AD06000854
:1000C000AD060008AD060008AD060008AD06000844
:1000D000AD060008AD060008AD060008AD06000834
:1000E000AD060008AD060008AD060008AD06000824
:1000F000AD060008AD060008AD060008AD06000814
:10010000AD060008AD060008AD060008AD06000803
:10011000AD060008AD060008E5230008AD0600089E
:10012000AD060008AD060008AD060008AD060008E3
:10013000AD060008AD060008AD060008AD060008D3
:10014000AD060008AD060008AD060008AD060008C3
:10015000AD060008AD060008AD060008AD060008B3
:10016000AD060008AD060008AD060008AD060008A3
:10017000AD060008AD060008AD060008000000004E
:10018000AD060008AD060008AD060008AD06000883
:10019000AD060008AD060008AD060008AD06000873
:0C01A000F1230008AD060008FD23000854
:1001B00010B5054C237833B9044B13B10448AFF3A1
:1001C00000800123237010BD800300200000000088
:1001D000F042020808B5034B1BB103490348AFF3D3
:1001E000008008BD0000000084030020F0420208E7
:1001F00001F0FF01102A2BDB10F0070F08D010F8D8
:10020000013B013A8B422DD010F0070F42B3F6D1DB
:10021000F0B441EA012141EA014122F007047FF0F4
:1002200000070023F0E80256083C85EA010586EA4B
:10023000010685FA47F5A3FA87F586FA47F6A5FA87
:1002400087F68EB9EED1F0BC01F0FF0102F0070293
:1002500032B110F8013B013A83EA010313B1F8D13E
:100260000020704701387047002D06BF354603381F
:10027000073815F0010F07D1013015F4807F02BF58
:10028000013015F4C03F0130F0BC0138704700BFA9
:100290007BB972B90029BEBF00204FF0004106E0D3
:1002A00008BF00281CBF6FF000414FF0FF3000F086
:1002B000D3B9ADF1080C6DE904CE002909DB002BA0
:1002C0001ADB00F04DF8DDF804E0DDE9022304B0AC
:1002D0007047404261EB4101002B1BDB00F040F80E
:1002E000DDF804E0DDE9022304B0404261EB4101A6
:1002F000524263EB43037047524263EB430300F007
:100300002FF8DDF804E0DDE9022304B0404261EBA0
:1003100041017047524263EB430300F021F8DDF8DE
:1003200004E0DDE9022304B0524263EB430370476B
:1003300053B94AB9002908BF00281CBF4FF0FF314C
:100340004FF0FF3000F088B9ADF1080C6DE904CE34
:1003500000F006F8DDF804E0DDE9022304B07047A0
:100360002DE9F047089D8E4604468846002B4AD169
:100370008A42174662D9B2FA82F64EB1C6F120031C
:1003800001FA06F820FA03F3B74043EA0808B4403C
:100390004FEA174E1FFA87FCB8FBFEF1230C0EFB49
:1003A000118843EA084301FB0CF29A4209D9FB1871
:1003B00001F1FF3080F0EA809A4240F2E780023992
:1003C0003B449A1AA3B2B2FBFEF00EFB102243EAA2
:1003D000024300FB0CFC9C4509D9FB1800F1FF32DD
:1003E00080F0D6809C4540F2D3803B44023840EAFE
:1003F0000140A3EB0C0300211DB1F3400022C5E92D
:100400000032BDE8F0878B4205D90DB1C5E9000186
:1004100000210846F5E7B3FA83F1002946D1734578
:1004200002D3824200F20581841A6EEB030201209E
:100430009046002DE5D0C5E90048E2E7002A00F02B
:100440009080B2FA82F6002E40F0A4808A1A030C43
:100450004FEA174E80B2BCB20121B2FBFEFC0EFB8C
:100460001C2243EA024304FB0CF29A4207D9FB1810
:100470000CF1FF3802D29A4200F2E080C4469B1A87
:10048000B3FBFEF20EFB123340EA034302FB04F41B
:100490009C4207D9FB1802F1FF3002D29C4200F2C5
:1004A000CA8002461B1B42EA0C40A5E7C1F12006A8
:1004B0008B4022FA06F71F430EFA01F420FA06F3E6
:1004C0002EFA06FE4FEA1749234300FA01F81FFAF5
:1004D00087FCBEFBF9F01C0C09FB10EE44EA0E444D
:1004E00000FB0CFEA64502FA01F209D93C1900F105
:1004F000FF3A80F09C80A64540F2998002383C4447
:10050000A4EB0E041FFA83FEB4FBF9F309FB1344BA
:100510004EEA044403FB0CFCA44508D93C1903F142
:10052000FF3E80F08280A4457FD9023B3C4443EAF1
:100530000040A4EB0C04A0FB02EC64457346E146CA
:1005400062D35FD05DB1B8EB030264EB090404FA37
:1005500006F622FA01F31E43CC40C5E900640021EF
:100560004FE7B1FBF2FC010C41EA0E4180B240EAD8
:1005700001423B4638463C46B846BE462026B1FBC3
:10058000F7F1A2EB080241EA0C4166E7014618E7E1
:1005900010462CE7C6F120022EFA02F3B740B14014
:1005A00020FA02F24FEA174E0A43B3FBFEF8BCB240
:1005B0000EFB1833110C41EA034108FB04F9B0406B
:1005C00089454FEA104380B23ED9791808F1FF3CC3
:1005D00001D289451FD8A1EB0901B1FBFEF909FB46
:1005E00004F80EFB191192B242EA0142424529D2A7
:1005F000BA1809F1FF31C4D24245C2D2A9F10201B1
:100600003A44BEE7F0459DD2BEEB02036CEB070C0B
:100610000138E14696E7A7EB09094944A8F1020C25
:10062000B1FBFEF909FB04F8DBE773467FE75046B0
:1006300066E70846FDE63B44023A33E7ACF1020CBC
:100640003B441CE749469CE7A1EB0901C446B1FBCA
:10065000FEF909FB04F8C4E7704700BFDFF834D0A7
:10066000002103E00C4B5B58435004310B480C4B0A
:1006700042189A42F6D30B4A02E0002342F8043BA8
:10068000094B9A42F9D304F00BFA23F0C3F801F0B6
:1006900061F870470000032030210B0800000020A3
:1006A0006401002080030020E83D0120FEE7704740
:1006B00008B500F0B9FDBDE8084000F03DBD00F010
:1006C000B5BD704710B50421044621F0B7FE2046A1
:1006D00010BD000038B50C4B0C4C18800C4B822020
:1006E00019806368984740F6110398420AD1094D72
:1006F00023682C60822098472B688220DB6898470B
:10070000002038BD0120FCE7A60300204C0000209B
:10071000A4030020A80300204FF4A071F020FFF7ED
:10072000D9BF0000F7B5394D2B6804461B698220FC
:100730009847208000284ED02B680DF106025B6997
:1007400001A982209847324B1B78002B4BD0BDF873
:10075000062040F674639A423FD9ADF80630BDF8E2
:1007600006209B1A9BB20A2B42D90B22B3FBF2F351
:10077000284A1288934201D9013A93B2BDF8042065
:10078000254840F6B8318A4234D8C2F571620E323B
:10079000016892B20F25B2FBF5F2204D2D88AA42D6
:1007A00084BF05F1FF35AAB28A4215468EB22AD916
:1007B000921B91B21A4E3768BB42BAB28CBF9A1ADA
:1007C000D21A92B211440529C4BF05603360036890
:1007D00063803368A38003B0F0BDB32A9CBFB4220A
:1007E000ADF80620BBE7BDF80630A3F5B473B9E752
:1007F0000023C3E7C2F56D62083292B20E2A016887
:10080000C8D800252A46891A89B2D3E7A803002050
:10081000C01F0020A4030020A0030020A603002086
:100820009C03002037B568460D461446FFF77AFF53
:10083000BDF8000030B1BDF802302B60BDF80430C7
:100840002360012003B030BD032821D8DFE800F089
:10085000020B12190F4B1A68B2FA82F252090421E4
:100860000D4804F0C7BD0B4B5A68B2FA82F2520928
:100870000821F5E7074B9A68B2FA82F25209102173
:10088000EEE7044BDA68B2FA82F252092021E7E778
:10089000704700BFAC03002000100240032821D89D
:1008A000DFE800F0020B12190F4B1A68003A18BF6C
:1008B000012204210D4804F09DBD0B4B5A68003AFB
:1008C00018BF01220821F5E7074B9A68003A18BFC4
:1008D00001221021EEE7044BDA68003A18BF01222A
:1008E0002021E7E7704700BFAC0300200010024062
:1008F00003280DD8DFE800F00206080A04210548A5
:1009000004F07DBD0821FAE71021F8E72021F6E781
:10091000704700BF0010024008B5032811D8DFE877
:1009200000F0020A0C0E0421074804F05DFD431E8E
:100930005842584108BD0821F6E71021F4E720216C
:10094000F2E70020F3E700BF0010024070B5084D49
:1009500000240126E0B2FFF7DFFF18B12B68012B5E
:1009600018BF2E600134052C05F10405F2D170BDCD
:10097000AC030020012380F8781080F879307047AC
:100980007047002070470000034B4164003918BFD6
:1009900001211970704700BFA73001207047002067
:1009A0007047836B0BB10846184770474FF6FF70CE
:1009B0007047406803689B691847704770477047E5
:1009C0007047704710B5044600F046FD23680349A0
:1009D000D3F890302046BDE810401847000000D002
:1009E00008B503680446D3F8843098472368204646
:1009F000DB6F984700F0ECF8236820465B6F984760
:100A0000292001F081F900F0E3F8236820465B6FAC
:100A10009847F8E710B504460AF08AF8236820469C
:100A2000D3F8BC30BDE81040184700F0F9BC00F026
:100A3000FDBC00F02FBD00F0CFBC00F03FBD00F0CA
:100A400047BD00F0D3BC09F0A1BA10B5842104461B
:100A500021F0F4FC204610BD10B590F8341090F849
:100A600078400C4B8C421A7809D03AB90A4A0B49A3
:100A70001488088810800C8001221A7010BD002A8A
:100A8000FCD0054A05491488088810800C80002293
:100A9000F3E700BFA03001209C3001209E300120F0
:100AA00070B50D46194635B9094B0A4A0A4840F255
:100AB000FF2122F0FFFBC0E90F52084B003A18BF9C
:100AC00001221A700368BDE87040D3F890301847CF
:100AD00068430208A0430208EE430208A630012042
:100AE00008B5094B1B888B4203D8084B1B889342DF
:100AF00005D9074B074A0848A32122F0DBFB074B27
:100B00001980074B1A8008BD9C3001209E300120BF
:100B10003344020896440208EE430208A230012042
:100B2000A4300120034690F87A0018B15868036891
:100B30001B68184770470000012108B500220846CD
:100B400006F016FF0A4B186028B90A4B0A4A2821FA
:100B50000A4822F0AFFB00220421012006F0A7FF83
:100B6000074B186018B9074B034A2C21F0E708BD62
:100B7000C0030020D944020822450208514502085A
:100B8000BC0300209C450208024B4FF0FF3118685F
:100B900006F038BFC0030020014B186806F05EBFA6
:100BA000C0030020024B0021186806F02BBF00BFD5
:100BB000C0030020FFF7F0BF03480449006800238A
:100BC0001A4606F0AFBF00BFBC030020040000209F
:100BD00013B5084C00231A4601A9206806F0D3FF7C
:100BE00020684FF0FF33002201A906F0CCFF02B0CD
:100BF00010BD00BFBC03002003685B6C18470120D8
:100C0000704703689B6A1847FEE740F2EF30704771
:100C1000054B0360054B4FF08062C3F88820BFF39B
:100C20004F8FBFF36F8F70479852020800E100E0CA
:100C300010B504464FF45A61FFF7EAFF204621F051
:100C4000FDFB204610BD000082B0002301930E4B37
:100C50001A6B42F400021A631A6B02F4000201924A
:100C6000019A1A6942F400021A611A6922F4000218
:100C70001A61064B064A1A61064A5A61064B4FF042
:100C800080629A6002B0704700380240AC210020B8
:100C9000E90E0008090C000800E100E008B50A2888
:100CA00009D8DFE800F006100E0808080810101038
:100CB0001000022008BD054B054A0648902122F08D
:100CC000F9FA0020F6E70120F4E700BFDE4502084C
:100CD000F94502084446020838B50C46887FFFF7FC
:100CE000DDFFA58AE28A164B2169586342EA054274
:100CF0005A64628BD963521B1A642568082D0ED181
:100D00009A611A615862207F0E4A42EA0062DA61F3
:100D1000E2681A620C4A5961D9601A6038BD002233
:100D2000D8611A61E1680A0A480902F4784200F4BD
:100D3000FC600243C1F3C4010A439A63034AECE72F
:100D400000B002400900010001230200012303005A
:100D500008B50B280BD8DFE800F00612100A0A0AC3
:100D60000A0808080808022008BD0520FCE7054B12
:100D7000054A06486F2122F09DFA0020F4E7012081
:100D8000F2E700BFDE4502088D460208444602082D
:100D90002DE9F04191F81D800C464046FFF7D8FF41
:100DA000A77F05463846FFF7D3FF06463846FFF7CC
:100DB00075FFA18A628B444B521A1A649A61228B86
:100DC000521A1A61E28A586342EA01425A6421695E
:100DD0006268D963DA602068802828D0227F0FD823
:100DE000202867D0402865D004281AD0364B45EA21
:100DF000026545F40035B845DD6161D0334A44E011
:100E0000B0F5807F04D0B0F5007FEFD1304800E02E
:100E1000304840EA0262DA61E2681A625E62596151
:100E200032E045EA026242F40032DA61F6E7A06895
:100E3000021DDA62227F45EA026545F40035DD6174
:100E40005E625961017841B1012921D0224B234AC8
:100E500023484FF48D7122F02DFADA69418822F48B
:100E60007F42013922F0100242EA0122DA610121B7
:100E7000154BDA6942F02002DA61DA699206FCD495
:100E800010229A600029B9D0164A1A60BDE8F08194
:100E9000B2F1FF01DA69408822F47F4200F1FF30AD
:100EA00022F0100242EA002242F0100218BF012193
:100EB000DA61DDE745EA0262034B42F40032B4E74F
:100EC00042F20132E1E700BF00B00240012301001D
:100ED000090002000A000200D7460208F146020893
:100EE0004446020801230200024B1B68586803684D
:100EF0005B691847A830012070B5044625460A4BA7
:100F00000C30002660602672667245F8203B602235
:100F1000294609F063FF04F55A63EE6024359D42CB
:100F2000FBD1204670BD00BF98520208034B1A68DF
:100F3000D207FCD423229A60704700BF00B0024061
:100F40007047000030B50F4C2568ED07FCD4232511
:100F50000904A56041F001010225FF2B656361646E
:100F6000E0630AD00849656241EA0363E361074B25
:100F700022626061E060236030BDE561039BA36392
:100F8000034BF8E700B00240090001000100020035
:100F90000100030030B50E4C2568ED07FCD4232575
:100FA0001204A56042F001020225FF2B6563626412
:100FB000E063E16008D01B0643F00213E361054BD8
:100FC00065626061236030BD034BE3610123F9E793
:100FD00000B0024001000200020002FF30B50B4CDD
:100FE0002568ED07FCD4232512041B06A56043F4F5
:100FF0000033022542F0010265636264E063E16050
:10100000E361034B65626061236030BD00B0024064
:1010100001000200012070474020704700EB811062
:101020000830704700EB811008307047012070478E
:101030004FF4286070474FF4286303FB0100083029
:1010400070474FF4286303FB01000830704701200C
:1010500070471020704700EB01100830704700EB1C
:10106000011008307047084601F080BF10B5034BEF
:101070000360044608F0DFFC204610BD5053020810
:1010800010B50446FFF7F2FF2046482121F0D6F9BB
:10109000204610BD10B5034B0360044608F0CBFC9E
:1010A000204610BD1C53020810B50446FFF7F2FF9E
:1010B000204640F6882121F0C1F9204610BD0000ED
:1010C00010B5034B0360044608F0B5FC204610BD84
:1010D000E852020810B50446FFF7F2FF2046182137
:1010E00021F0ACF9204610BD10B5084B0360044652
:1010F00000F6B420FFF7BAFF04F12C00FFF7CAFF97
:1011000004F11400FFF7DCFF204610BD84530208F1
:1011100008B50248FFF7E8FF08BD00BF9C12002099
:1011200010B50446FFF7E0FF204640F65C4121F091
:1011300085F9204610BD00002DE9F34101F0D4F9F6
:10114000054601F0D5F900240146234628462246EB
:10115000009412F0C1F8274B274A1A60204602F08B
:1011600027FD264D264B274A27489A6012F01CF887
:101170002B68BFF35B8FDB0735D4284621F060F97D
:1011800088B3224C224B236004F5306604F114002E
:1011900004F12C0804F6B4276060C4F80880E76006
:1011A000266108F049FC1B4B6361404608F044FC93
:1011B000194BE362384608F03FFC184BC4F8B43AC8
:1011C00004F6FC2003F056F9224604F6FC213046D2
:1011D00002F0A6FD304601F0C9FE114822F088F861
:1011E000284621F039F90F4802B0BDE8F041FFF779
:1011F000E9BB00BF0C3101204804002098120020F8
:10120000680400204C040020080000209C120020EC
:1012100084530208E85202081C5302085053020883
:1012200011110008C4030020704700000148FFF7B7
:10123000D7BB00BFC403002070B5264E264C274DF7
:10124000274B23603046FFF757FE284617F04AF930
:1012500024480FF037FD244B2448DC6000224FF473
:101260008071C3E9121222491A86C3E91A12214970
:1012700083F85820C3E91E011F49C3F880101F4995
:101280001F480B60F021C3E90422C3E90622C3E929
:101290000822C3E90A22C3E90E22C3E91022C3E9E6
:1012A0001422C3E917225A6683F870205A67C3E9EB
:1012B000016501801348018013484FF4A07101803B
:1012C0001248018012490A70012283F83420114A21
:1012D0001A6070BDF40400209412002068040020FD
:1012E000584302084C040020C40300200000010100
:1012F00001000001000450001A001400A830012071
:101300009C300120A23001209E300120A430012019
:10131000A0300120AC5102080148FFF779BC00BFA2
:10132000F40400200020704781807047C18070471E
:10133000018170474181704770477047704770471F
:10134000704710B4C4880368121B84885B6D091B46
:1013500012B25DF8044B09B218474FF6FF73838150
:101360004FF0FF3303621368C361106070470020C1
:1013700070478B88838001207047704780F8261063
:10138000704790F82600704710B50022B1F9084068
:10139000B1F90A10028042808480C18010BD002211
:1013A000028042808280C28070470177704780ED62
:1013B000080A704780F82410704780F8251070479D
:1013C00001207047983070478C30704784307047E8
:1013D0007047704770470000034B902283F85A23F0
:1013E00083F85823704700BF00E100E0094A0A492A
:1013F000D3680A48C3F30A03013B9BB20B8011690F
:10140000C1F30A01013901801364536B43F00103F6
:101410005363704700680140FA1E0020F81E002048
:10142000014BD3F8AC00704700680140024B012229
:10143000C3F8AC105A6270470068014010B52C2107
:10144000044620F0FBFF204610BD10B5BC21044629
:1014500020F0F4FF204610BD70B5044608F0EBFD07
:1014600023689D6E0EF0C6F901462046A847236802
:10147000054AD3F88C502046AC460023BDE87040A6
:10148000A2F51631604700BF00B004D008F0BABD25
:1014900008F0C4BD08F080BD08F0EFBE90F825202C
:1014A00012B103685B691847704790F825201AB19C
:1014B00090F8242002B1186070470000034B4FF0F1
:1014C00080629A604FF080729A60704700E100E09D
:1014D000084B4FF08062C3F88820BFF34F8FBFF3F3
:1014E0006F8F4FF08072C3F88820BFF34F8FBFF328
:1014F0006F8F704700E100E070B50023124E8380CB
:10150000124B0360336893F8582005460AB1D86C33
:1015100000B998680368DB6A98473368B0FA80F4CA
:10152000D86C640930B10368DB6A9847002808BFAB
:1015300044F001042CB9064B064A07482C2121F03F
:10154000B9FE284670BD00BFA8300120985302089C
:101550002F4702088D470208C647020870B5254E7E
:101560003568BFF35B8F15F0010540D1304620F0A0
:1015700067FF00283BD0204C204B256104F134004C
:10158000C4E90035C4E90255E584A562A5850FF0DC
:101590007EFE04F158000BF0D7F8194BA3652046E6
:1015A000184B40F8843BFFF7A7FF174BC4F8843073
:1015B0002433C4F88C304FF4C803C4E92835002321
:1015C000C4F8AC30C4F8B030C4F8B430C4F8B830A3
:1015D0000E480F4BC4F89050C4F89C50C4F8A85063
:1015E000C4F8983021F084FE304620F035FF0248E0
:1015F00070BD00BFFC1E0020001F0020D45B02084D
:10160000B853020830540208885B0208D51300085A
:10161000685B020838B5184C23685BB3174B184A4F
:101620001B6C11888B4216D1164B198804F0CCFC28
:10163000236893F86A200025013283F86A2083F832
:101640007C50FFF7B9FA206809F072FA2846BDE825
:101650003840FFF7F9B804F0B7FC24682368204647
:101660001B6A9847012384F87C300020BDE838408D
:10167000FFF714B938BD00BFA83001200068014051
:10168000FA1E0020F81E002007B5064BADF8060034
:101690001B68054801220DF1060105F081FA03B02F
:1016A0005DF804FB0C0000204820002008B56420F1
:1016B00006F052F9FBE7000030B595B0102200218A
:1016C0000AA821F0FEFF1422002103A821F0F9FF4F
:1016D00000241E4B01941A6C42F080521A641B6C59
:1016E00003F080530193019B194B02941A6842F452
:1016F00040421A601B6803F4404302930122029B9C
:101700004FF48033CDE9082302254FF480030821EC
:10171000CDE90E534FF4B473CDE9101308A8042398
:101720001393129504F0A8FC04F06CFC0F23CDE990
:1017300003354FF4A0504FF48053CDE90603052143
:1017400003A8059404F074FE15B030BD00380240C3
:10175000007000402DE980489BB003F0AFF9FFF71F
:10176000ABFF142200210DA821F0ABFF0024C94BD0
:1017700000941A6BC848C94DDFF8588342F0100234
:101780001A631A6B02F010020092009A01941A6B0D
:1017900042F020021A631A6B02F020020192019AB1
:1017A00002941A6B42F080021A631A6B02F08002F4
:1017B0000292029A03941A6B42F004021A631A6BA3
:1017C00002F004020392039A04941A6B42F001029D
:1017D0001A631A6B02F001020492049A05941A6BC0
:1017E00042F002021A631A6B02F002020592059A95
:1017F00006941A6B42F040021A631A6B02F0400220
:101800000692069A07941A6B42F008021A631B6B41
:1018100003F00803224607933C21079B03F0EAFDEF
:101820009F480122022103F0E5FD22469C48042145
:1018300003F0E0FD22469B484FF4405103F0DAFDEF
:1018400001263C23CDE90D3693480F9403230DA9BF
:101850000227109303F0E4FC91480DA9CDE90D7621
:10186000CDE90F4403F0DCFC04238D480DA9CDE93C
:101870000D36CDE90F4703F0D3FC20238A480F969D
:101880000DA9CDE90D3403F0CBFC0DA94FF4405365
:101890008448CDE90D36CDE90F4703F0C1FC8348FC
:1018A000834B036003F0B2FBDFF82CE2814B2C6228
:1018B000C5E900E328464FF48043C5E90434C5E98F
:1018C0000244C5E9064403F0A3FF1021284604F0B2
:1018D000E7F921462846784D04F001FA4FF4827367
:1018E000C5E900834FF400791823C5E9069328461B
:1018F0000A23C5E90244C5E90444C5E90844AC62C9
:10190000EB6205F0F1F88F232246394664488DF8E2
:1019100024308DF8344003F06DFD32464FF47A7375
:1019200009A9284605F03CF94FF47A7332460DA90F
:10193000284605F0E1FA3246394659485F4D03F032
:1019400059FD9DF83430D32B04BF5D4B1E705D4BA9
:101950000126C5E900364FF0100A40230024C5E9EE
:1019600004A34FF4C073C5E906344FF40063C5E91E
:1019700008344FF4005302274FF0040B4FF00308D4
:10198000AB620DA907232846CDE90D73CDE90FB34E
:101990004FF00809C5E9024BCDE91187139704F010
:1019A00087FF4FF6FF7209A92846CDE90A960894E9
:1019B00009960C9404F09CFF304603F0ABF84FF608
:1019C000FF7209A92846CDE90979CDE90B6404F035
:1019D0008FFF4FF6FF7209A92846CDE90989CDE9A5
:1019E0000BB404F085FF4FF40C730893089B0C9321
:1019F0004FF6FF7209A92846CDE909B90B9604F004
:101A000077FF40F26A51284604F090FF34222146C5
:101A10000DEB020021F055FE2B4D2C4B2C61C5E93E
:101A200000340923C5E905361D23C5E9073840F20E
:101A30000D1240F24313C5E9092340F2171140F299
:101A400047132846C5E90B13C5E90244AC8685F85F
:101A5000364004F0D7F9FF21F022CDE912144FF4FB
:101A6000806005214FF4A073CDE91401CDE90E2467
:101A70000DA9CDE9164228462246CDE91037144D6E
:101A800018930D94ADF864408DF8664004F06EFA3A
:101A900024E000BF0038024000100240582100201E
:101AA00000080240000C024000000240EC2100202F
:101AB00000300240A086010048200020CC1F0020FA
:101AC000C01F0020400100A0B0200020006801409D
:101AD000BC1F002000500140005C00403F4B2B60C9
:101AE0001B6898472B683E4DDB6898473D4B28465E
:101AF000C5E90034C5E90274C5E90A47C5E90C44E3
:101B000003F094FA3146284603F046FB364D374F32
:101B1000524621460DA821F0D4FD4FF48033C5E98B
:101B200000732846324BAB62AC602C612C7685F892
:101B30002040EC62EC60EE6185F830406E6102F0AE
:101B4000FDFF0DA92846CDE90D66CDF83C8003F0D8
:101B50006FF92848284B294D036004F05DFE1C22D4
:101B600021460DA8CDE9094421F0ABFD4FF0804C92
:101B70005323C5E900C3284640F2E733C5E90334DF
:101B8000AC60AC6105F030FC09A92846CDE90944F8
:101B900005F08CFD602322460DA92846CDE90D34C1
:101BA0000F94119405F07CFC284600F031FBFEF701
:101BB0007FFDFEF77CFD05F05FFE114A11482146CE
:101BC00005F086FE104B114A18602146104805F0BA
:101BD0007FFE104B186005F061FEFEE71400002048
:101BE000AC21002000B00240F42100200020014080
:101BF0000100000FA0200020000806500020002057
:101C000098540208AD160008C81F0020745402083A
:101C1000BF060008C41F0020704770477FB5094BFE
:101C20008DF817201B6802930DF117020123009213
:101C300001930A460146044803F092FE07B05DF89E
:101C400004FB00BF10000020582100207FB50023B6
:101C50008DF81730084B1B6802930A4601230DF1DB
:101C60001701009101930146044803F009FF9DF814
:101C7000170007B05DF804FB100000205821002079
:101C80001FB5084C24680092CDE901340A460123AF
:101C90000146054803F0F4FE003818BF012004B0E7
:101CA00010BD00BF100000205821002002F032BFFC
:101CB00010B5064C00222046042103F09BFB204671
:101CC0000122BDE81040042103F094BB000802404B
:101CD00038B50B4D044601220A484FF4005103F079
:101CE00089FB00220421284603F084FB2046FFF7ED
:101CF000CBFC28460122BDE83840042103F07ABB22
:101D000000080240000C024038B50B4D044600228A
:101D10000A484FF4005103F06DFB002204212846CD
:101D200003F068FB2046FFF7AFFC28460122BDE820
:101D30003840042103F05EBB00080240000C024062
:101D4000F7B5144E144F05460C46304600220421C8
:101D500003F050FB00224FF40051384603F04AFBD9
:101D60002846FFF791FC0D4B0D481B68224601A940
:101D700005F0C2F8384601224FF40051019C03F0EF
:101D800039FB30460122042103F034FB204603B026
:101D9000F0BD00BF00080240000C02400C00002013
:101DA0004820002002F0B6BE0268034B9A4201D1DF
:101DB00002F09EBE704700BF001000407047000058
:101DC00082B00E4B00220092596C41F4804159645C
:101DD000596C01F48041009100990192196C41F015
:101DE000805119641B6C03F080530193019B0F21F8
:101DF0006FF0010002B003F0C9B800BF0038024024
:101E000010B5044688B01422002103A821F059FC23
:101E10002268124B9A421ED103F58C3300210191A6
:101E20005A6C0F4842F480725A645A6C02F4807201
:101E30000192019A02911A6B42F001021A631B6B24
:101E400003F001030293029B0222032303A9CDE9BD
:101E5000032303F0E5F908B010BD00BF00200140E6
:101E6000000002400268094B9A4282B00BD1002365
:101E70000193074B1A6B42F480521A631B6B03F4F5
:101E800080530193019B02B0704700BF00300240B5
:101E90000038024007B50F4B02689A4216D1002263
:101EA000A3F5F0430192196B41F4000119631B6B18
:101EB00003F40003019305215A20019B03F066F807
:101EC0005A2003B05DF804EB03F092B803B05DF85C
:101ED00004FB00BF00B002402DE9F043044689B086
:101EE0001422002103A821F0ECFB2268244B9A4223
:101EF00043D1244C244800250095236B43F0040370
:101F00002363236B03F004030093009B0195236B71
:101F100043F001032363236B03F001030193019B4F
:101F20004FF012094FF400734FF001080327042605
:101F300003A9CDE90339CDE90587079603F070F9C8
:101F40004FF480731148079603A9CDE90339CDE911
:101F5000058703F065F90295236C43F400032364BD
:101F6000236C03F400030293029B236A43F40003EF
:101F70002362236A23F40003236209B0BDE8F083DF
:101F8000005C0040003802400008024000000240AF
:101F9000F0B599B004461422002107A821F091FB66
:101FA00030220DEB0200002121F08BFB22685E4BFA
:101FB0009A4240F0B78008230C93C0231093042367
:101FC00012930CA84FF40033159304F0F9FA08B1FA
:101FD000FFF7F4FE554B5648002400945A6C42F02B
:101FE00080625A645A6C02F080620092009A0194F6
:101FF0001A6B42F020021A631A6B02F0200201925F
:10200000019A02941A6B42F001021A631A6B02F0F1
:1020100001020292029A03941A6B42F002021A63BE
:102020001A6B02F002020392039A04941A6B42F0B4
:1020300040021A631A6B02F040020492049A05945B
:102040001A6B42F004021A631A6B02F00402059242
:10205000059A06941A6B42F008021A631B6B03F090
:102060000803069302250E26069B0B964FF4806309
:1020700007A9CDE90735CDE9094503F0D1F841F6C7
:1020800058032C480B9607A9CDE907350927CDE958
:10209000094503F0C5F8032327480B9707A9CDE9A5
:1020A0000735CDE9094503F0BBF84FF470632248CA
:1020B0000B9607A9CDE90735CDE9094503F0B0F83E
:1020C0004FF40C631D480B9607A9CDE90735CDE900
:1020D000094503F0A5F8C02319480B9607A9CDE9D7
:1020E0000735CDE9094503F09BF8082315480B9601
:1020F00007A9CDE90735CDE9094503F091F84FF47B
:10210000A0530E480B9707A9CDE90735CDE909453E
:1021100003F086F858202246052102F037FF5820A8
:1021200002F066FF19B0F0BD0068014000380240BF
:102130000014024000000240000402400018024067
:1021400000080240000C02400268094B9A4282B02B
:102150000BD100230193074B5A6B42F040025A63A4
:102160005B6B03F040030193019B02B0704700BF1B
:10217000000806500038024010B5044688B014220A
:10218000002103A821F09DFA2268144B9A4223D122
:1021900003F56843002101915A6C114842F4801202
:1021A0005A645A6C02F480120192019A02911A6BDD
:1021B00042F020021A631B6B03F020030293029B80
:1021C0004FF4607202230321CDE903230523CDE9F7
:1021D000061303A903F024F808B010BD0050014015
:1021E000001402400368B3F1804F82B00BD100238A
:1021F0000193064B1A6C42F001021A641B6C03F047
:1022000001030193019B02B0704700BF00380240F8
:1022100010B5044686B01422002101A821F051FA1D
:102220002368B3F1804F14D1002300930A4B0B486D
:102230001A6B42F001021A631B6B03F00103009357
:10224000009B0222012301A9CDE90132059302F08E
:10225000E7FF06B010BD00BF00380240000002409A
:102260002DE9F04186B0002303932B4B1C68002C12
:102270004FD14FF00108C3F80080284B00949A6BAF
:10228000274842EA08029A639B6B03EA080300931B
:10229000022703260C25009B01A94FF63F03CDE939
:1022A0000137CDE9046502F0BBFF1E48059501A981
:1022B000CDE90187CDE9034602F0B2FF48F23313BE
:1022C0001948059501A9CDE90137CDE9034602F08A
:1022D000A7FF4FF683731548059501A9CDE901378E
:1022E000CDE9034602F09CFF4CF2037310480595BC
:1022F00001A9CDE90137CDE9034602F091FF602342
:102300000C48059501A9CDE90137CDE9034602F056
:1023100087FF06B0BDE8F0813C2200200038024073
:102320000014024000080240001802400010024061
:10233000000C02400004024070B588B000230293F4
:10234000204B1A6C42F010021A641B6C03F010034D
:102350000293054601A903A8029B04F013F9069B0A
:102360004BBB04F0FFF8184E184B336040F2E733D4
:10237000F360174BB0FBF3F3013B7360304600236F
:102380003361B360B36105F003F8044680B93046A9
:1023900004F0D8FE044658B9362002F029FE0F2D6D
:1023A0000DD822462946362002F0F0FD094B1D606B
:1023B000204608B070BD04F0D5F84000D3E70124F2
:1023C000F6E700BF00380240402200200010004025
:1023D00040420F007C0000207047FEE7FEE7FEE76A
:1023E000FEE77047014804F0EBBE00BF402200202A
:1023F000014803F05EBD00BFB0200020014802F09C
:1024000041BE00BFAC2100200120704708B521F07B
:10241000FBF9162303604FF0FF3008BD08B521F02B
:10242000F3F916230360FEE770B50D4614460E4619
:10243000731B9C4201DC204670BDAFF3008006F8A0
:10244000010BF5E770B50D4614460E46731B9C4212
:1024500001DC204670BD16F8010BAFF30080F5E7F4
:102460004FF0FF3070474FF400534B60002070472F
:1024700001207047002070470A4A116808B50346DA
:1024800009B9094911601068694603448B4206D9AD
:1024900021F0BAF90C2303604FF0FF3008BD136040
:1024A000FCE700BF88220020E83D0120704708B506
:1024B000042910D8DFE801F003070B0B0B0001F033
:1024C000C3FB006808BD01F0BFFB4068FAE701F0FC
:1024D000BBFB8068F6E70020F4E710B50421044652
:1024E0001FF0ACFF204610BD00487047D0540208D2
:1024F0000A20704713B5002451B1036801948DF888
:10250000034001AA9C680DF10303A04702B010BD6F
:102510000846FBE7C0897047008A7047C08870474B
:1025200080887047807A00F07F007047807AC00909
:1025300070470020704700009FED010A704700BF00
:102540000000000070477047704770477047704741
:1025500030B5036885B06D460181D3F884300146FB
:1025600004462846984795E807003C3484E807006D
:1025700005B030BD30B5036885B06D464181D3F8F4
:102580008430014604462846984795E807003C34C5
:1025900084E8070005B030BD0022028042808280BE
:1025A000C280704780F83610704770B503680446E3
:1025B0001B6B154698472368294620465B6EBDE88D
:1025C0007040184700207047806C70477047704714
:1025D0007047704730B4C26844685510034604EB36
:1025E0006200D20748BF62599B6830BC48BFD358CD
:1025F00018470346406830B19A681AB9D86800F0A5
:10260000010070470120704710B5082104461FF0F3
:1026100015FF204610BD10B54C2104461FF00EFFDB
:10262000204610BD10B5102104461FF007FF2046BC
:1026300010BD10B54FF4947104461FF0FFFE204604
:1026400010BD08B5FEF72AFF08BD0000036870B58D
:102650005E6B124B1B6804468DB22BB9104B114AAE
:102660006C21114820F026FE1049828D0988914284
:1026700003D80F4B0B4A6D21F3E713F812200D4BD3
:102680001B6853F8220003681B6B9847291A3346CE
:10269000204609B2BDE87040184700BF0031012054
:1026A0003D4802087F480208BA4802080431012068
:1026B00001490208083101206C30884208B505D173
:1026C0000DF098F8BDE8084000F070BC08BD00228D
:1026D0004FF0FF31C0E900218260704770B5036898
:1026E00004461B6B154698472368294620465B6BBA
:1026F000BDE87040184700000022C0E90122C0E98F
:102700000322C0E90522C0E907224FF480728284C7
:10271000014A0260704700BFA05502082DE9F04F42
:10272000044689B0264600250FF068F8784BE5632B
:1027300046F8403B29462622304620F0C2FF30466C
:10274000FFF7DAFF04F16C09724B2364FF27294677
:10275000262284F86670A566484620F0B2FF4846F7
:10276000FFF7CAFF01234FF6FF7A04F1A00884F8AF
:102770009030694BE36626222946C4F8945084F8C9
:102780009850A4F89AA0A4F89CA084F89EA0404673
:10279000ADF818A020F095FF4046FFF7ADFF5F4B66
:1027A000C4F8A030BDF81830A4F8C63084F8C8705A
:1027B00006A904F1CC0740460AF02FFB2946262241
:1027C000384620F07EFF3846FFF796FF544ADFF880
:1027D00078B1A4F8F8A04FF47F03C4E94624C4F804
:1027E0000031504A504BC4F8CC304FF0FF33C4E9AD
:1027F0004335C4E9482529462A46C4F8FC50A4F8C4
:102800000451C4F80851C4F814513046C4F8F4B067
:10281000FFF764FFF0213046FEF78AFD4FF4A07108
:102820003046FEF787FD04F1040A4FF07F42A266AE
:102830003146504607F014F9DF2221214846FFF7C0
:102840004DFF06AA05A94846ADF81450ADF818503A
:102850000AF0AAF904F58C72C4F89420494650464F
:1028600007F0FEF829466FF013024046FFF736FFE7
:10287000052206A94046ADF818200AF0CEFA4146D6
:10288000504607F0EDF8792267213846FFF726FF1A
:102890004FF0FF33C4F8FC30D4F8CC30A4F800512A
:1028A0006D46D3F8843039462846984795E80700A6
:1028B00004F5847383E807001C4B1B682BB91C4B81
:1028C0001C4A60211C4820F0F5FC1C4B1B88022B85
:1028D00003D81B4B174A6121F4E71A4B02211868F1
:1028E00001F0A2F9C4F8140138460AF0DFF8032316
:1028F00006A93846ADF81C30CDF818B00AF0F6F845
:102900005046394607F0ACF8204609B0BDE8F08FD4
:10291000C0560208085D0208705D0208E45D020806
:10292000A8560208B92600081856020800310120EE
:102930003D4802083F490208BA4802080431012014
:10294000014902080C3101200856020870477047FF
:1029500000F598730868496803C37047704770476B
:102960004160704770477047064BC0F84C310023F8
:10297000C0F8503100F5A273C0F84801C0F84031EA
:10298000704700BFD92B00080123037270477047BE
:102990007047704710B4C26841685410034601EB99
:1029A0006200D20748BF0A599B685DF8044B48BFD4
:1029B000D35818470346406830B19A681AB9D868A6
:1029C00000F0010070470120704710B50C2104464B
:1029D0001FF034FD204610BD10B5102104461FF035
:1029E0002DFD204610BD10B54FF4AE7104461FF00A
:1029F00025FD204610BD10B5402104461FF01EFDE8
:102A0000204610BD10B5402104461FF017FD20469A
:102A100010BD10B50CF0EEFE0368BDE81040DB6B96
:102A200018470000054B1B7801462BB1406818B1D0
:102A300003680C315B6E1847704700BFA730012058
:102A4000054B1B7801462BB1406818B103680C3167
:102A50005B6E1847704700BFA7300120037A70B53E
:102A60000546BBB940680368DB69984704463CB932
:102A70006868036805F10C011B6EBDE870401847DB
:102A8000A1886B8FC91A236820461B6B09B298472F
:102A9000A469ECE770BD037A70B50546BBB9406820
:102AA0000368DB69984704463CB96868036805F128
:102AB0000C011B6EBDE870401847A1886B8FC91AC6
:102AC000236820461B6B09B29847A469ECE770BDE8
:102AD00010B50446D0F8400158B10368DB68984748
:102AE00038B1D4F8400103689B6898470023C4F8C4
:102AF000403110BD70B5044690F8390094F8383074
:102B00000130C0B2984284F8390005D901232372FC
:102B1000002384F8393070BDB4F93A2000210FF059
:102B20001FF8C30706D500284FF6FF73C8BF01235F
:102B3000184400B2238AC01AA08760680368DB6962
:102B4000984705462DB960680368BDE870405B6929
:102B50001847A988A38F19442B6828461B6B09B214
:102B60009847AD69EEE770B5044690F8390094F8DF
:102B700038300130C0B2984284F8390005D90123B9
:102B80002372002384F8393070BDB4F93A20002153
:102B90000EF0E6FFC30706D500284FF6FF73C8BF47
:102BA0000123184400B2238AC01AA0876068036812
:102BB000DB69984705462DB960680368BDE8704039
:102BC0005B691847A988A38F19442B6828461B6B9B
:102BD00009B29847AD69EEE72DE9F14FD0E9556AA2
:102BE0000746B06803681B6A9847EF2805D8444B2E
:102BF000444AA321444820F05DFB706803681B6AC7
:102C000098470F2803D8414B3E4AA421F2E7F068C9
:102C100003681B6A98470B2803D83D4B394AA52106
:102C2000E8E70CF0E7FDDFF8F09004300CF007FE69
:102C3000D9F8000010B10368DB689847D9F80000A4
:102C400010B103681B689847DFF8D080D8F80000FF
:102C500010B103685B699847D7F83C0110B103686D
:102C60005B689847D8F8000010B103681B68984764
:102C7000D7F83C0110B103689B689847F068036877
:102C800000215B6A98474FF0000B224BC0F804B05C
:102C9000044680F808B00360B068036859465B6A70
:102CA0009847054601F050FC7068036859465B6A16
:102CB00098472946064601F027FC331DC7F83C61BA
:102CC000C9F80040C8F80050CAF800302B68C6F8B0
:102CD00008A02846DB68EE639847336830461B68D7
:102CE0009847214628460EF035FF236820461B6989
:102CF000984723685B69204601B0BDE8F04F18474C
:102D00008A490208184A0208F24A0208394B0208A6
:102D1000DC4B020860570208F0300120EC30012043
:102D20002DE9F0411D460368BDF918701B6B044680
:102D3000164698472368314620465B6B98472368C0
:102D4000294620469B6B9847236839462046DB6B13
:102D5000BDE8F041184700002DE9F74FD0E9556A6A
:102D60000746B06803681B6A9847B0F5286F05D21C
:102D7000534B544AA321544820F09CFA70680368CE
:102D80001B6A98470F2803D8504B4E4AA421F2E7FC
:102D9000F06803681B6A98473F2803D84C4B494AA0
:102DA000A521E8E70CF026FDDFF8349104300CF0A3
:102DB00046FDD9F8000010B10368DB689847D9F8E0
:102DC000000010B103681B689847DFF81881D8F835
:102DD000000010B103685B699847D7F83C0110B157
:102DE00003685B689847D8F8000010B103681B6857
:102DF0009847D7F83C0110B103689B689847F06882
:102E0000036800215B6A984705460022314B426007
:102E1000027245F80C3B0446284609F03DFD142398
:102E200023872D4B1B780022A287002B35D101234D
:102E30002372B068036800215B6A9847054600F07A
:102E4000DDFF7068036800215B6A984729460646E3
:102E500000F08CFF331DC7F83C61C9F80040C8F88A
:102E60000050CAF800302B68C6F808A02846DB6876
:102E7000EE639847336830461B68984721462846DA
:102E80000EF068FE236820461B69984723685B693B
:102E9000204603B0BDE8F04F1847104BDFF848B0AC
:102EA000B3F900300093BBF9003011462846FFF714
:102EB00037FF284609F06BFCBBF800306387B8E7A2
:102EC0008A4902087F4C0208F24A0208394B02087C
:102ED000DC4B0208A8570208A73001209E300120D1
:102EE000F0300120EC3001209C300120044B1B68A5
:102EF00093F858200AB1D86C00B99868704700BFA1
:102F0000A8300120F8B5174604460E460CF034FDF3
:102F1000124B1C60124B2360124B0025C4E9513543
:102F2000114BC4E953551868036801219B68C4E933
:102F30004F55C4E955769847284600F039FEFFF70B
:102F4000D5FF17F078F9FFF7D1FF17F0EFF9FFF78A
:102F5000CDFF17F0F7F92046F8BD00BFFC30012087
:102F60000C570208F4560208A8300120064BC0F89E
:102F70004C310023C0F8503100F5A273C0F848016D
:102F8000C0F84031704700BFD92B0008064BC0F88D
:102F90004C310023C0F8503100F5A273C0F848014D
:102FA000C0F84031704700BF95310008064BC0F8AB
:102FB0004C310023C0F8503100F5A273C0F848012D
:102FC000C0F84031704700BF592D0008064BC0F8CB
:102FD0004C310023C0F8503100F5A273C0F848010D
:102FE000C0F84031704700BF59300008F7B50546BA
:102FF0000026154B4660067245F80C3B04462846F1
:103000000F4609F049FC114B84F838701B7884F89E
:103010003960A68723B901232372204603B0F0BD8F
:103020000B4B0C4FB3F900300093B7F90030324628
:1030300031462846FFF774FE284609F0A8FB3B8876
:103040005B426387E9E700BF84570208A73001208D
:103050009E3001209C3001202DE9F047D0E9556ACF
:103060000746B06803681B6A9847B0F5947F05D29D
:10307000414B424AA321424820F01CF97068036882
:103080001B6A98470F2803D83E4B3C4AA421F2E71D
:10309000F06803681B6A98473F2803D83A4B374AC1
:1030A000A521E8E70CF0A6FBDFF8E09004300CF077
:1030B000C6FBD9F8000010B10368DB689847D9F85F
:1030C000000010B103681B689847DFF8C480D8F887
:1030D000000010B103685B699847D7F83C0110B154
:1030E00003685B689847D8F8000010B103681B6854
:1030F0009847D7F83C0110B103689B689847F0687F
:10310000036800215B6A984714210446FFF76EFFAD
:10311000B068036800215B6A9847054600F0E0FD4F
:103120007068036800215B6A98472946064600F0EC
:10313000B5FD331DC7F83C61C9F80040C8F8005020
:10314000CAF800302B68C6F808A02846DB68EE6392
:103150009847336830461B689847214628460EF04A
:10316000F9FC236820461B699847236820465B6961
:10317000BDE8F047184700BF8A4902086A4D0208B7
:10318000F24A0208394B0208DC4B0208F0300120F9
:10319000EC3001202DE9F047D0E9556A0746B068C8
:1031A00003681B6A9847B0F5286F05D2414B424A25
:1031B000A321424820F07EF8706803681B6A984794
:1031C0000F2803D83E4B3C4AA421F2E7F06803687D
:1031D0001B6A98473F2803D83A4B374AA521E8E7AE
:1031E0000CF008FBDFF8E09004300CF028FBD9F875
:1031F000000010B10368DB689847D9F8000010B1EF
:1032000003681B689847DFF8C480D8F8000010B145
:1032100003685B699847D7F83C0110B103685B68A5
:103220009847D8F8000010B103681B689847D7F892
:103230003C0110B103689B689847F068036800215F
:103240005B6A984714210446FFF7D0FEB068036814
:1032500000215B6A9847054600F0D0FD706803685E
:1032600000215B6A98472946064600F07FFD331D22
:10327000C7F83C61C9F80040C8F80050CAF80030EF
:103280002B68C6F808A02846DB68EE6398473368C9
:1032900030461B689847214628460EF05BFC2368A1
:1032A00020461B699847236820465B69BDE8F047C4
:1032B000184700BF8A490208534E0208F24A020822
:1032C000394B0208DC4B0208F0300120EC300120C1
:1032D00070477047704730B4C26844685510034661
:1032E00004EB6200D20748BF62599B6830BC48BFFC
:1032F000D35818470346406830B19A681AB9D8685D
:1033000000F0010070470120704710B510210446FD
:103310001FF094F8204610BD10B54FF4E07104463C
:103320001FF08CF8204610BD00F5AE70884208B53D
:1033300005D10CF05FFABDE80840FFF747BE08BDB5
:1033400038B5262204460D46002120F0BAF9204661
:10335000FFF7D2F9064B23602B88E384FF23204636
:1033600084F82830294609F058FD204638BD00BFB2
:10337000E45D020810B526220446002120F0A1F9E0
:103380002046FFF7B9F90A4BA3624FF6FF73A385F6
:103390004FF47F020023C4E90C32064A22602387DF
:1033A0004FF0FF32C4E91023E363A364204610BD4D
:1033B00008560208185602082DE9F04F04468BB053
:1033C000264600250EF01AFA984BE56346F8403B76
:1033D00026222946304620F074F93046FFF78CF952
:1033E000934B236404F16C0BFF234FF6FF7784F8B3
:1033F000663004F1980A08A95846A56604F1C40984
:10340000ADF82070FFF79CFF08A95046ADF820707A
:1034100004F58878FFF794FF4846FFF7ABFF404676
:10342000FFF7A8FF04F5AE7326222946184601933C
:1034300020F047F90198FFF75FF94FF0010384F896
:1034400080317C4BC4F85C317B4BA4F88A71C4E9B1
:103450006C347A4BA4F88C712A46C4E96E35304638
:1034600084F88E712946C4F8845184F88851FFF796
:1034700035F93046F021FDF75BFF30464FF4A0717F
:10348000FDF758FF271D4FF07F43A36631463846AE
:1034900006F0E6FA6FF0130258462946FFF71EF9C8
:1034A0000623584608A9ADF8203009F0B6FC594665
:1034B000384606F0D5FA40F2131250466921FFF75C
:1034C0000DF94FF00303504608A9ADF8203009F07C
:1034D000A4FC5146384606F0C3FA2A461B2148464A
:1034E000FFF7FCF84FF0FF33C4F8F430D4F8C430E1
:1034F000A4F8F85002AED3F88430DFF860B1494642
:103500003046984796E8070004F5807383E8070083
:10351000DBF8003004F5C87A2BB9494B494A6021E1
:1035200049481FF0C7FE494B1B88022B03D8484B64
:10353000444A6121F4E7474B0221186800F074FB0C
:10354000454A0346082150460FF020FEC4F80CA15E
:10355000484609F0ABFADFF808A1CDF820A04FF0FB
:10356000030208A94846ADF8242009F0BFFA4946ED
:10357000384606F075FA2A46A5214046FFF7AEF810
:10358000D4F81031A4F844514FF0FF323046D3F84C
:103590008430C4F840214146984796E8070004F576
:1035A000A67383E80700DBF8003004F5D076002B23
:1035B000B3D0264A1388012BB9D9264B01211868AC
:1035C00000F032FB244A0346082130460FF0DEFDAE
:1035D0004046C4F8586109F069FA08A94046CDF898
:1035E00020A0ADF8245009F081FA4146384606F093
:1035F00037FA01984FF49172CF21FFF76FF8082343
:103600000198ADF81C3008AA07A9ADF8203009F0E0
:10361000CBFA04F5D87338460199C4F8843106F022
:103620001FFA20460BB0BDE8F08F00BFE457020838
:10363000085D0208705D0208CC57020829330008B3
:103640003D4802083F490208BA48020804310120F7
:10365000014902080C3101203E4F020800310120CF
:1036600008560208406A7047806A704770478A8827
:103670000B8810B5D20A4C88C1699BB251F8220060
:1036800043EA0443184410BD10B50446BAB1107B98
:1036900068B1537BD27A1B0203F4E0631A43236AB6
:1036A00003EB82031A888A4202D193F9020010BD0B
:1036B00005D8013880B204330028F3D1F7E70020A1
:1036C000F5E710B52C2104461EF0B8FE204610BDCB
:1036D00030B58BB00446BDF860500895BDF85C501D
:1036E00007959DF8505006959DF84C5005959DF80E
:1036F000485004959DF8445003959DF8405002951C
:103700009DF83C500195BDF8385000950DF07CFEB9
:10371000064B2360159BE361169B2362199B636232
:103720001A9BA36220460BB030BD00BF1858020898
:1037300070477047704730B4C268446855100346FC
:1037400004EB6200D20748BF62599B6830BC48BF97
:10375000D35818470346406830B19A681AB9D868F8
:1037600000F0010070470120704710B51021044699
:103770001EF064FE204610BD10B5F02104461EF078
:103780005DFE204610BD6C30884208B505D10CF0B6
:1037900031F8BDE80840FFF7F9BB08BDF8B5194B93
:1037A000018F1B888B4206462AD9174B1B682BB901
:1037B000164B174A17486C211FF07CFD13F8112097
:1037C000154B1B6853F82250144B186800F02CFA64
:1037D0002B6807469B6B284698472B6804469B6CD2
:1037E0003946284698472B6814FB00F45B6A394633
:1037F00028469847A4B223181BB2A6F84630F8BD55
:103800000023FAE704310120003101203D4802087D
:103810007F480208BA480208083101200C31012013
:103820002DE9F74304460DF0E9FF454B2360454B76
:10383000002504F16C06C4E910354FF48078FF23AD
:10384000A4F8648084F86630C4E91255C4E91455BC
:10385000C4E91655E5632566A566304609F01EFCE9
:1038600004F1B4074FF6FF73374AA4F8D880C4F8C0
:10387000B420A4F8DA3084F8DC3001A93846C4E971
:103880002E55C4E93055C4E93255C4E93455ADF874
:10389000043009F0C2FA2D4BC4E938342C4B04F142
:1038A00040082A46C4E93A3529464046FEF716FF45
:1038B0004046F021FDF73CFD40464FF4A071FDF776
:1038C00039FD04F104094FF07F43A36641464846A1
:1038D00006F0C6F83046ED222121FEF7FFFE01AAD0
:1038E00069463046ADF80050ADF8045009F05CF977
:1038F0000623A4F8A4303046FFF750FF4FF0FF3303
:10390000C4E92A3304F1E003C4F894303146484650
:1039100006F0A6F86FF0130229463846FEF7DEFEE1
:10392000072301A93846ADF8043009F076FA484675
:10393000394606F095F8204603B0BDE8F08300BF95
:1039400098580208085D0208E45D020880580208E1
:10395000873700087047000030B5174D2C6814F009
:1039600001048FB0BFF35B8F22D128461EF068FDA3
:10397000F0B13F230993114B0893114B11491248A1
:103980000A94CDE9064301220423CDE903320A2338
:10399000009315220C23CDE90B44CDE90144059495
:1039A000FFF796FE09481FF0A3FC28461EF054FDC1
:1039B00005480FB030BD00BF8C220020946E020875
:1039C000A06E0208B46C020890220020553900084D
:1039D0007047000030B5174D2C6814F001048FB00B
:1039E000BFF35B8F22D128461EF02AFDF0B13F23A2
:1039F0000993114B0893114B114912480A94CDE9D0
:103A0000064301220423CDE90332142300930C2240
:103A10001823CDE90B44CDE901440594FFF758FE86
:103A200009481FF065FC28461EF016FD05480FB03A
:103A300030BD00BFBC220020986E0208A46E0208B0
:103A4000DC6D0208C0220020D13900087047000058
:103A500030B5164D2C6814F001048FB0BFF35B8FA6
:103A600020D128461EF0ECFCE0B13F230993104B17
:103A70000893104B104911480A940122CDE90643DE
:103A80000423CDE9033228230093CDE90B44CDE98B
:103A900001440594FFF71CFE09481FF029FC284645
:103AA0001EF0DAFC05480FB030BD00BFEC2200204C
:103AB0009C6E0208A86E0208846E0208F0220020A4
:103AC0004D3A000800207047002070470EB403B53F
:103AD00003AB002153F8042B01930CF013FF02B049
:103AE0005DF804EB03B070470CB407B504AB53F8B2
:103AF000042B01930CF006FF03B05DF804EB02B059
:103B000070470000436C10B5044673B3038F2BB9A4
:103B1000184B194AC52119481FF0CCFBC38E00EB86
:103B200043035B8C0BB30EF088FD238F012B03D86E
:103B3000134B144ACB21EEE7E28E531C9BB2092BA8
:103B4000194688BFA3F10A0104EB410140F63F107A
:103B5000498C814209D10A2B04EB420228BF002381
:103B600004EB4303508C588451842046BDE8104038
:103B70000EF066BC414F02084A4F0208F54F02089A
:103B80003F5002084D5002080EF021BC10B586B01F
:103B900002AC84E806001A460AAB05930193099B20
:103BA00000932146089B0BF0C3F906B010BD00003E
:103BB00038B518BB124B13481C681349B4B12268BE
:103BC00022440260626822440A60A26814440F4BD7
:103BD00000221A8000F038F8054600F033F80C4B4C
:103BE0001C600C4B1D600C4B188007E00B4B0360F6
:103BF0000B4B0B600B4B1C68002CE8D138BD00BF91
:103C000028230020202300201C2300202423002020
:103C1000003101200831012004310120C86E020862
:103C2000AC6E0208086F0208044B1B6853F82100B1
:103C3000034B1B6803EB4000704700BF1C230020B0
:103C40002023002007207047004870472C230020C5
:103C500010B5FFF7BFFE044C2060FFF7F9FE60606F
:103C6000FFF77AFEA06010BD2C23002010B50024C1
:103C700004600C6014601C6010BD70477047704792
:103C800004387047704710B5102104461EF0D6FB6B
:103C9000204610BDA0F10400F5E70000002282607C
:103CA000024A026018324260C1607047CC58020874
:103CB0007047000010B5034B03600446FEF788FC14
:103CC000204610BDFC58020810B50446FFF7F2FF6D
:103CD00020464FF494711EF0B1FB204610BD000049
:103CE00010B50446FEF71AFD014B2360204610BDB7
:103CF000FC580208FEF76DBC704710B54FF4AE716A
:103D000004461EF09BFB204610BD10B50446D0F8BB
:103D1000580100F0B3FB2046BDE810400BF0ECBDAD
:103D200010B50446FFF7EEF8014B2360204610BDA6
:103D300030590208704704387047704710B5102199
:103D400004461EF07BFB204610BDA0F10400F5E701
:103D5000C06800F0B9B8A0F10400FFF7F9BFC0686F
:103D600000F0AABAA0F10400FFF7F9BF00228260B8
:103D7000024A026020324260C160704784590208E2
:103D800070470000164B70B50546036040F62C24C2
:103D900040F6A816B44205D02B5928191B6898473D
:103DA0002C3CF7E72B5928191B682C3C9847B4F595
:103DB000D26FF7D12B5928191B682C3C9847B4F5C2
:103DC000487FF7D12B5928191B682C3C9847B4F52C
:103DD000CA7FF7D12846FFF77CFA284670BD00BF9E
:103DE000BC59020810B50446FFF7CCFF20464FF43B
:103DF00028611EF023FB204610BD00002DE9F34191
:103E00000546FFF7D9FA2E4B2B6005F5E07405F552
:103E100053764FF6FF77204601A92C34ADF8047095
:103E2000FFF78EFAB442F6D105F2BC664FF6FF7783
:103E3000204601A92C34ADF80470FFF781FAB44292
:103E4000F6D105F6D4164FF6FF7804F584772046B0
:103E500001A92C34ADF80480FFF772FABC42F6D108
:103E6000A642F2D134464FF6FF7705F65826204693
:103E700001A92C34ADF80470FFF762FAB442F6D110
:103E8000104B062218689B88C5F8580A0A21A3809F
:103E900028460023C5F8642A032285F85E3AC5F84F
:103EA000603AC5F8682AC5F86C1AC5F8703AC5F8C2
:103EB000743AC5F8782A85F87C3A02B0BDE8F081FA
:103EC000BC5902080843020808B5B0F99C30B0F9A3
:103ED0009E201944D229A8BFD22121EAE17109B25A
:103EE0009830FDF72EFA08BDB1F90400B1F9083099
:103EF00030B5B2F904400344A34215DBB2F90830EF
:103F00002344834210DBB1F90640B1F90A30B2F91B
:103F100006502344AB4207DBB2F90A002844A04212
:103F2000B4BF0020012030BD0020FCE707B50548E4
:103F300001A902F089FC18B9019803B05DF804FBEF
:103F40002A20FAE7A02000202DE9F04105460023B1
:103F50002C2005F2713600FB03F4375D97B904F5A8
:103F600053762E4430462C4412B209B2FEF7B6FB0B
:103F7000012384F87133D4F84C3330465B69BDE8D3
:103F8000F04118470133142BE5D1BDE8F081000062
:103F90002DE9F74F0446054600F5C67806464FF072
:103FA000000996F8E5314BB1B6F9C621B6F9CA3128
:103FB000043A5B42934213DD86F8E5912C36464580
:103FC000EFD104F55373DFF8C0A2009304F5E07657
:103FD0004FF4847996F82530002B6ED000271EE030
:103FE000D6F8C031B6F9C4119B6D06F5E0773846B6
:103FF00012B29847D6F8C03138465B699847DDE77A
:10400000022A0CBF0A33053339E008F10108B8F180
:10401000060F03F12C0306D10137032F4DD009FB06
:1040200007434FF0000893F8E126002AEDD003F291
:10403000BC6B5A46314620460193FFF755FF019B62
:104040000028E2D009FB07F32C2101FB0838A0442B
:10405000002286F8252088F8E126336830465B691F
:104060009847D8F8BC3607F22C575B6958469847F2
:1040700034F81720D4F8743A042AC1D11433814A91
:10408000C4F8743A102104F5C8700FF07FF804F1F9
:10409000C4000CF061FDD4F8743ADAF800209342C1
:1040A0000BDD784ACAF80030102104F5D0700FF00B
:1040B0006DF804F588700CF04FFD009B2C369E4285
:1040C00088D1D4F8703AD4F86C2A01339342C4F8FA
:1040D000703AC0F2BB800027C4F8707AE6194FF03E
:1040E000060996F8E136E3B194F85E3AB6F9C016DF
:1040F000B6F9C226032B06D8DFE803F002ABAFB354
:10410000D4F8683A1944D6F8BC3606F2BC689B6D00
:10411000404612B209B29847D6F8BC3640465B69B1
:104120009847B9F1010906F12C06DAD107F5847731
:10413000B7F5467FD2D1D4F8603AD4F8642A013377
:104140009342C4F8603A08DB94F85E3AC4F8609A87
:10415000013303F0030384F85E3A2046FFF7E6FEDE
:104160000323B0FBF3F303EB4303C61A2046FFF728
:10417000DDFE0623B0FBF3F202FB13004FF4847361
:104180005E432C2303FB0066264496F8E136C3B158
:104190002046FFF7CBFE1423B0FBF3F202FB130023
:1041A00078B9B6F9C416B6F9C206B6F9C626B6F994
:1041B000C03601EBD171024403EB61012046FFF7E9
:1041C000C3FE04F55C7704F1980800264FF02C0933
:1041D00095F87133BBB3B5F952B30BF10A0BBBF5CC
:1041E000A07F05F5537AC8BF85F8716342465146F2
:1041F0002046FFF779FED5F84C33B0B350465B69E3
:1042000085F871639847D4F8780A00280EDD0138E4
:10421000C4F8780A09FB00F0231800F6D41083F8DC
:10422000F969D3F8D43920445B699847D4F8783ACF
:104230004BB994F87C3A33B9012384F87C3A0BF0FB
:10424000D9FAFEF7C3FE2C35BD42C1D103B0BDE89B
:10425000F08FD4F8683A1A4455E7D4F8683AC91A86
:1042600051E7D4F8683AD21A4DE750469B6DB5F93C
:1042700050130FFA8BF29847D5F84C3350465B69D0
:104280009847E0E71F5102083823002010B5094C79
:104290000021204603F0C8F923684FF4FA72322057
:1042A0005A6300F037FC20460021BDE8104003F0BF
:1042B000FBB900BF0020002070B5002304462C226B
:1042C00000F2E51102FB03F5485D40BB05F5E07621
:1042D0002544B4F89E20B5F8CA31B4F89C10D21A1F
:1042E000B4F9A03003EBD37301EB6301B5F9C83126
:1042F00003EBD3732644A1EB6301304612B209B23B
:10430000FEF7ECF9012385F8E531D5F8C0313046E8
:104310005B6998472046BDE87040FFF7B7BF01339F
:10432000092BCFD170BD00002DE9F04F044685B0B8
:10433000FEF7D0FF1E2704F658234FF000094FF078
:10434000010B3AB2009209EB04060F2504F10408B0
:10435000D6F8BC261988019306F2BC6A126EADF835
:104360000C10504603A9904729B2009A50462335B5
:10437000FEF7B4F9ADB286F8E1B65146404605F015
:104380006FFBE12D019B06F12C06E1D109F5847943
:104390001937B9F5467F03F10203BFB2D1D104F555
:1043A000E07504F553764FF0010900272B68284685
:1043B0001B6EADF80C9003A9984785F82570294627
:1043C00040462C3505F04CFBB542EFD104F2BC66FB
:1043D0004FF0010900272B6828461B6EADF80C90A2
:1043E00003A9984785F82570294640462C3505F0E5
:1043F00037FBAE42EFD104F6D4150A264FF003097D
:1044000001272B6828461B6EADF80C9003A998472E
:1044100031B228464FF496722336FEF75FF9B6B2F2
:1044200085F825702946404605F01AFB732E05F1E4
:104430002C05E6D1D4F8743A0C4A102104F5C87062
:104440000EF0A4FE0A4B094A1B68102104F5D07037
:104450000EF09CFE04F1C4000CF07EFB04F58870A5
:1044600005B0BDE8F04F0CF077BB00BF1F5102084C
:1044700038230020002202607047000038B505464E
:10448000174800F001FC16480A2100F07BFC60B9D7
:10449000134800F0CAFC05281ED9102834BF00219B
:1044A0000321286803689B6898470E4C0E482368D0
:1044B000002BC8BF03F1FF334FF02001C8BF2360BA
:1044C00000F092FF38B923682BB928680368DB68CD
:1044D00098471423236038BD6FF00201E1E700BF65
:1044E000F42100203C2300200000024070470438E3
:1044F0007047704710B5102104461DF09FFF2046FD
:1045000010BDA0F10400F5E700228260024A0260BB
:1045100018324260C1607047F059020870470000CD
:1045200010B5034B03600446FFF703F9204610BDA6
:10453000205A020810B50446FFF7F2FF2046F0218A
:104540001DF07CFF204610BD10B50446FFF768F94A
:10455000014B2360204610BD205A0208FFF7EAB83D
:10456000F02070474FF4A07070472920FDF7CCBBB6
:104570002820FDF7C9BB08B5FDF79AFBCA20FDF757
:10458000C3FBC320FDF7A4FB0820FDF7A1FB5020CF
:10459000FDF79EFBCF20FDF7B7FB0020FDF798FB52
:1045A000C120FDF795FB3020FDF792FBED20FDF7D4
:1045B000ABFB6420FDF78CFB0320FDF789FB122089
:1045C000FDF786FB8120FDF783FBE820FDF79CFBD0
:1045D0008520FDF77DFB0020FDF77AFB7820FDF7B5
:1045E00077FBCB20FDF790FB3920FDF771FB2C20EA
:1045F000FDF76EFB0020FDF76BFB3420FDF768FB39
:104600000220FDF765FBF720FDF77EFB2020FDF77C
:104610005FFBEA20FDF778FB0020FDF759FB002047
:10462000FDF756FBB120FDF76FFB0020FDF750FBB7
:104630001B20FDF74DFBB620FDF766FB0A20FDF7BA
:1046400047FBA220FDF744FBC020FDF75DFB1020D7
:10465000FDF73EFBC120FDF757FB1020FDF738FBAF
:10466000C520FDF751FB4520FDF732FB1520FDF776
:104670002FFBC720FDF748FB9020FDF729FB3620D4
:10468000FDF742FBC820FDF723FBF220FDF73CFBC2
:104690000020FDF71DFBB020FDF736FBC220FDF723
:1046A00017FBB620FDF730FB0A20FDF711FBA72012
:1046B000FDF70EFB2720FDF70BFB0420FDF708FBA1
:1046C0002A20FDF721FB0020FDF702FB0020FDF76B
:1046D000FFFA0020FDF7FCFAEF20FDF7F9FA2B2096
:1046E000FDF712FB0020FDF7F3FA0020FDF7F0FACA
:1046F0000120FDF7EDFA3F20FDF7EAFAF620FDF77D
:1047000003FB0120FDF7E4FA0020FDF7E1FA0620A3
:10471000FDF7DEFA2C20FDF7F7FAC820FDF742FB83
:104720002620FDF7F1FA0120FDF7D2FAE020FDF78F
:10473000EBFA0F20FDF7CCFA2920FDF7C9FA242067
:10474000FDF7C6FA0C20FDF7C3FA0E20FDF7C0FAFC
:104750000920FDF7BDFA4E20FDF7BAFA7820FDF7E3
:10476000B7FA3C20FDF7B4FA0920FDF7B1FA13209F
:10477000FDF7AEFA0520FDF7ABFA1720FDF7A8FA12
:104780001120FDF7A5FA0020FDF7A2FAE120FDF7C0
:10479000BBFA0020FDF79CFA1620FDF799FA1B20C2
:1047A000FDF796FA0420FDF793FA1120FDF790FA31
:1047B0000720FDF78DFA3120FDF78AFA3320FDF747
:1047C00087FA4220FDF784FA0520FDF781FA0C20D4
:1047D000FDF77EFA0A20FDF77BFA2820FDF778FA2C
:1047E0002F20FDF775FA0F20FDF772FA1120FDF763
:1047F0008BFAC820FDF7D6FA2920FDF785FABDE827
:1048000008402C20FDF780BA08B5FDF751FA0321C6
:10481000D320FDF795FA80B208BD10B5C4B20222CC
:1048200003212046FDF7FAF90A20FDF73FFA20465A
:1048300000220321FDF7F2F9BDE810400220FDF748
:1048400035BA38B50446E4B2FDF7E6F90021204652
:10485000FDF7FCF9012105462046FDF7F7F940EA8E
:10486000052080B238BD10B5C4B240212046FDF706
:10487000EDF9030607D54C212046FDF7E7F900388E
:1048800018BF012010BD01224B212046FDF7C6F9BB
:10489000204600224B21FDF7C1F90020F2E773B555
:1048A0000423C4B20E461546D7210DEB0302204661
:1048B000FDF7E6F9019B1BBA1A0DC3F30B233280F7
:1048C00020462B8001224B21FDF7A8F900224B2125
:1048D0002046FDF7A3F902B070BD000010B50A4AEA
:1048E0001378984204460DD0517888420AD00BB113
:1048F00041B90123D454FDF78FF92046BDE810409B
:10490000FFF78BBF10BD00BF4023002010B5C4B21D
:1049100009212046FDF79AF940F00102D2B2204663
:104920000921BDE81040FDF779B910B5C4B20921DD
:104930002046FDF78BF9092100F0FE022046BDE874
:104940001040FDF76BB938B5C4B20D4620460A21B8
:10495000FDF77CF940EA0502D2B220460A21BDE803
:104960003840FDF75BB910B50446FDF756F920460F
:104970001F21FFF7E8FF2046BDE81040FFF7C6BF44
:1049800038B5C4B20D4620460A21FDF75FF920EA8A
:104990000502D2B220460A21BDE83840FDF73EB9F3
:1049A00010B50446FFF7C1FF20461F21BDE81040A7
:1049B000FFF7E6BF10B5C0B20C460B21FDF746F974
:1049C000204010BD1F21FFF7F5BF0A46C0B20B21E2
:1049D000FDF724B91F21FFF7F8BF38B5C4B20D4663
:1049E00020461721FDF732F920EA0502D2B220460F
:1049F0001721BDE83840FDF711B970B5C4B20646BD
:104A000004212046FDF722F9042100F0FB020546AF
:104A10002046FDF703F93046F021FFF7DEFF05F0F1
:104A2000F80220460421FDF7F9F84922202120460A
:104A3000FDF7F4F80220FDF739F920460122212183
:104A4000FDF7ECF820469A224121FDF7E7F82046D1
:104A500001224A21FDF7E2F8204601224B21FDF711
:104A6000DDF8204600224B21FDF7D8F82046012230
:104A70005621FDF7D3F8204601225821FDF7CEF844
:104A8000204601224021FDF7C9F82046FF220B21D4
:104A9000FDF7C4F8BDE870400220FDF707B900003B
:104AA000054BD3F8882042F47002C3F888204FF0F9
:104AB00000629A60704700BF00ED00E008B50B4B44
:104AC0001A6842F400721A601A6842F480621A602E
:104AD0001A6842F480721A60032000F045FA002040
:104AE000FDF72AFCFDF76CF9002008BD003C0240F0
:104AF000034A044B11681B780B441360704700BFD6
:104B00004423002078000020014B1868704700BF44
:104B10004423002038B50446FFF7F6FF631C1CBF92
:104B2000054B1B78054618BFE418FFF7EDFF431B44
:104B3000A342FAD338BD00BF7800002038B5044640
:104B4000002800F09B80056C25B9FDF759F96564D4
:104B500084F83C50236CDB0600F18E80236C23F438
:104B6000885323F0020343F002032364444B5A6842
:104B700022F440325A605A6861680A435A602368D6
:104B800021695A6822F480725A605A6842EA012206
:104B90005A605A68A16822F040725A605A680A4303
:104BA0005A609A68E16822F400629A609A680A433F
:104BB0009A603449A26A8A4252D0996821F07061A1
:104BC000996099680A439A609A68E16A22F04052B3
:104BD0009A609A680A439A609A6822F002029A6080
:104BE0009A68217E42EA41029A6094F82020002AC5
:104BF0003ED05A68616A42F400625A605A6822F4F0
:104C000060425A605A68013942EA41325A60DA6AAF
:104C1000E16922F47002DA62DA6A013942EA015289
:104C2000DA629A6822F400729A609A6894F83010F6
:104C300042EA41229A609A68616922F480629A602D
:104C40009A68002042EA81229A606064236C23F013
:104C5000030343F001032364002384F83C3038BD90
:104C60009A6822F070629A609A6822F04052B2E725
:104C70005A6822F40062C9E70120EDE70120EEE75F
:104C8000002301400100000F82B00023019390F83F
:104C90003C30012B69D0012380F83C3003689A68CE
:104CA000D2070BD59A68D1071AD4036C43F01003CE
:104CB0000364436C43F0010343644CE09A682C495D
:104CC00042F001029A602B4A1268B2FBF1F202EB49
:104CD00042020192019A002AE4D0019A013AF8E7CF
:104CE000026C22F4E06222F0010242F4807202645B
:104CF0005A68520541BF026C22F4405242F480527D
:104D00000264026C12F480521CBF426C22F0060254
:104D10004264002280F83C206FF022021A60164A9A
:104D2000516811F01F0F15491CD18B4207D001F5B6
:104D300080718B420CD1526812F01F0F0BD19A6810
:104D400012F0405F07D19A6842F080429A6002E018
:104D50000B498B4202D0002002B07047526812F01B
:104D6000100FEBE78B42F6D1E9E70220F4E700BF32
:104D700040420F0074000020002301400020014049
:104D80000022014003689A68520570B504460D463A
:104D90000BD59B68DE0508D5036C43F02003036444
:104DA000002380F83C30012070BDFFF7ADFE0646C1
:104DB00023681A6891070CD56FF012021A60226CF2
:104DC00042F4007222649A6812F0405F17D000200B
:104DD000EAE7681CEDD065B923681B6813F002038D
:104DE000E6D1226C84F83C3042F0040222640320B5
:104DF000DAE7FFF789FE801BA842EDD8D8E7227ECC
:104E0000002AE4D1DA6A12F4700F02D09B685A05C6
:104E1000DDD4236C23F480732364236CDB04D6D4A9
:104E2000236C43F001032364D1E70368D86C704717
:104E3000F7B50023019390F83C30012B054600F0B4
:104E40008680012380F83C3008682B688E6809282A
:104E500084B233D904EB4402DF681E3A4FF0070CEA
:104E60000CFA02FC27EA0C07DF60DF6806FA02F2A0
:104E70003A43DA604968062901EB81022DD8596B63
:104E8000053A1F26964021EA06015963596B04FA38
:104E900002F20A435A632F4A93420AD1122837D1A9
:104EA0002D4B5A6822F400025A605A6842F480027C
:104EB0005A60002085F83C0003B0F0BD1A6900EB91
:104EC000400C072707FA0CF722EA07021A611A6951
:104ED00006FA0CF616431E61CCE70C294FF01F01B1
:104EE0000BD81E6B233A914026EA01011963196B16
:104EF00004FA02F20A431A63CDE7DE6A413A9140AE
:104F000026EA0101D962D96A94400C43DC62C2E707
:104F1000124B984201D01128CBD10F4B5A6822F482
:104F200080025A605A6842F400025A600B4B984261
:104F3000BFD10B4B0B4A1B68B3FBF2F30A2253435E
:104F40000193019B002BB4D0019B013BF8E70220A9
:104F5000B2E700BF00200140002301401200001012
:104F60007400002040420F000749CA6822F4E06242
:104F70000302120403F4E063120C134343F0BF6313
:104F800043F40033CB60704700ED00E0164B30B5C2
:104F9000DC68C4F30224C4F10703251D042B28BFD9
:104FA0000423062D4FF0FF358CBF033C002405FA87
:104FB00003F321EA0303A54022EA0502A3400028E7
:104FC00043EA0203ACBF00F16040084A4FEA031312
:104FD000B8BF00F00F00DBB2AABF00F56140135468
:104FE00080F8003330BD00BF00ED00E014ED00E0BC
:104FF000002807DB044A4109012300F01F00834019
:1050000042F82130704700BF00E100E010B50446CF
:1050100050B1437903F0FF0213B90271FCF722FF8C
:1050200001236371002010BD0120FCE710B5044688
:1050300020B390F8393003F0FF021BB980F8382014
:10504000FCF728FF022384F83930236861681A6866
:1050500022F440320A431A605A6BA16822F0070218
:105060000A435A631A6CE1686FF30D020A431A642B
:1050700000200123E06384F8393010BD0120FCE7F3
:1050800070477047036870B55E681D68F207044694
:1050900014D5E90512D51A6822F480721A60C26B21
:1050A00042F00102C26301229A60042380F8393081
:1050B000002380F83830436903B19847B20616D50B
:1050C000AB0414D523681A6822F400521A60202217
:1050D0009A60E36B43F00203E363042384F83930FE
:1050E000002384F8383063690BB1204698473007B5
:1050F00016D5290514D523681A6822F400621A60AF
:1051000008229A60E36B43F00403E363042384F80A
:105110003930002384F8383063690BB12046984752
:1051200072070BD56B0509D523681A6822F48062D3
:105130001A6004229A602046FFF7A2FFB00714D538
:10514000A90512D523681A6822F400721A60022297
:105150009A60E36BE363012384F83930002384F819
:10516000383023690BB120469847F20613D5EB047B
:1051700011D523681A6822F480521A6010229A60AE
:10518000E36BE363012384F83930002384F838307B
:105190002046FFF776FF70BDF0B590F83820012A61
:1051A00003464FF002002BD0012283F8382083F809
:1051B000390003EB0112D2E90740556A174F44EA60
:1051C0000040093C012C9CBF05F07F4210434FEA90
:1051D00001161A6888BF40EA056091B9516A3940E2
:1051E00001435162012C9969916103D8596A21F0F8
:1051F0007F4191620122002083F8392083F8380032
:10520000F0BDD16939400143D1619919012C8969F7
:1052100011619CBF25F07F451562EBE7F0FFFC00B4
:105220002DE9F74FDFF8BC916C4A00230D6801248B
:105230009C4004EA0506AC4340F0B7804D68032764
:1052400005F003044FEA430807FA08FC671E012F24
:105250006FEA0C0C34D8876807EA0C0ECF6807FA9F
:1052600008F747EA0E078760476827EA060EC5F386
:1052700000179F4047EA0E074760C76807EA0C0E11
:105280008F6807FA08F747EA0E07022CC76019D1A2
:105290004FEAD30A00EB8A0A03F0070BDAF8207012
:1052A0004FEA8B0B4FF00F0E0EFA0BFE27EA0E0E95
:1052B0000F6907FA0BF747EA0E07CAF8207001E0FA
:1052C000032CDAD1076804FA08F407EA0C073C4318
:1052D00015F4403F046068D000240194D9F844409C
:1052E00044F48044C9F84440D9F8444023F003070B
:1052F00007F1804704F4804407F59C37019403F0DC
:10530000030C019CD7F808E04FEA8C0C0F2404FA38
:105310000CF42EEA040E324CA0424DD004F5806409
:10532000A0424BD004F58064A04249D004F58064CB
:10533000A04247D004F58064A04245D004F58064C3
:10534000A04243D004F58064A04241D004F58064BB
:10535000A0423FD004F58064A0423DD004F58064B3
:10536000A04214BF0A24092404FA0CF444EA0E04EF
:10537000BC609468F74315F4801F0CBF3C40344375
:105380009460D46815F4001F0CBF3C403443D460D3
:10539000546815F4003F0CBF3C403443546014681B
:1053A000ED0354BF3C40344314600133102B7FF4B1
:1053B0003DAF03B0BDE8F08F0024D5E70124D3E76B
:1053C0000224D1E70324CFE70424CDE70524CBE76B
:1053D0000624C9E70724C7E70824C5E7003C0140C5
:1053E00000000240003802400369194214BF012046
:1053F000002070470AB1816170470904FBE74369E7
:1054000001EA030221EA030141EA02418161704796
:1054100001684B6913F480634FF0000210D06FF401
:1054200080634B612023026380F83D3080F83E208A
:10543000036C80F83C2043F00403036401207047B0
:10544000184670472DE9F84606460F4691461D4618
:105450004FEA114A3368BAF1010F0CBF5C699C69CD
:1054600027EA0404A4B2B4FA84F46409A14501D083
:10547000002025E06A1CEED0FFF746FB089BC01A0F
:10548000A84201D8002DE5D13368BAF1010F0CBF55
:105490005B699B6927EA03039BB2B3FA83F35B0959
:1054A0009945D7D100232022336386F83D2086F822
:1054B0003E30326C86F83C3042F0200232640120EB
:1054C000BDE8F8862DE9F04104460F461646984699
:1054D0002568686927EA000080B2C0B16B695A0587
:1054E00017D52B6843F400732B606FF480636B61F6
:1054F00020220023236384F83D2084F83E30236C6F
:1055000043F004032364002384F83C300120BDE809
:10551000F081731CDDD0FFF7F7FAA0EB0800B04272
:1055200001D8002ED4D123685A6927EA020292B228
:10553000002ACDD000232022236384F83D2084F864
:105540003E30236C1343DDE770B504460D46164626
:1055500023685B691B0601D500201EE02046FFF78B
:1055600057FFC8B96A1CF3D0FFF7CEFA801BA842D8
:1055700001D8002DECD123685B6913F08003E7D1DB
:105580002022236384F83D2084F83E30226C84F886
:105590003C3042F020022264012070BD2DE9F0432E
:1055A0001546026885B0DDE90C789946136843F426
:1055B000807313600E463B46CDF8008000224FF00A
:1055C00001110446FFF73EFF236838B11B68DB0575
:1055D00002D54FF400732364032620E006F0FE0694
:1055E0001E611A4943463A462046FFF76BFFA8B9A9
:1055F000236803905A6903929B6903934246394694
:105600002046039BFFF7A0FF064660B1236C042BE6
:1056100001BF2268136843F400731360012630460B
:1056200005B0BDE8F083B9F1010F236802D1EDB2F6
:105630001D61F4E72A0A1A61394642462046FFF7FF
:1056400083FF0028E2D12368F1E700BF02000100D8
:105650002DE9FF479A46036815461A6842F48062AE
:105660001A601A68DDE90C7842F480721A600E46FE
:105670003B46CDF8008000224FF001110446FFF7B1
:10568000E1FE236838B11B68DB0544BF4FF40073AB
:105690002364032021E05FFA86F906F0FE061E610E
:1056A0002B4943463A462046FFF70CFFA0B9236832
:1056B00003905A6903929B690393424639462046F8
:1056C000039BFFF741FF58B1236C042B01BF2268F5
:1056D000136843F400731360012004B0BDE8F08741
:1056E000BAF1010F23681AD1EDB242461D61394665
:1056F0002046FFF729FF02460028E5D121680B6804
:1057000043F480730B602046CDF800803B464FF099
:105710000111FFF797FE226860B11368B4E72A0A07
:105720001A61394642462046FFF70EFF0028CBD1CA
:105730002368D9E749F001031361054943463A4616
:105740002046FFF7BFFE003818BF0120C5E700BFA5
:105750000200010070B504460D46164623685B69D9
:105760005B0701D500201EE02046FFF751FEC8B9B7
:105770006A1CF3D0FFF7C8F9801BA84201D8002D9E
:10578000ECD123685B6913F00403E7D12022236383
:1057900084F83D2084F83E30226C84F83C3042F09E
:1057A00020022264012070BD70B504460D461646E5
:1057B00021684B6913F0400301D0002011E04A69D1
:1057C000D2060FD56FF010024A612022236384F8BD
:1057D0003D2084F83E30236C2364002384F83C3061
:1057E000012070BDFFF790F9801BA84201D8002D61
:1057F000DED123685B6913F04003D9D120222363F3
:1058000084F83D2084F83E30236C1343E4E7000025
:1058100070B5044608B9012070BD90F83D3003F022
:10582000FF021BB980F83C20FCF756FB242384F8C8
:105830003D3023681A6822F001021A601A6842F4A7
:1058400000421A601A6822F400421A6000F08AFED0
:105850003F4B65689D4294BF3E4B3F4B98428CBF87
:1058600000230123002BD6D12268394E51683B4BCF
:10587000B0FBF3F321F03F011943B542516088BFFB
:105880004FF49676116A88BF734321F03F0184BFBD
:105890004FF47A76B3FBF6F301330B431362D1690D
:1058A000431E2B4821F44F41854221F0FF0132D89D
:1058B0006D0040F6FC70B3FBF5F30133034242D0B8
:1058C000C3F30B031943D161D4E9073011680343D3
:1058D00021F0C0010B4313609168D4E9030321F464
:1058E0000341034321F0FF010B439360D4E90530EA
:1058F000D168034321F0FF010B43D360136843F0E9
:105900000103136000202023206484F83D302063CD
:1059100084F83E0080E7A06850B905EB4505B3FB6D
:10592000F5F30133C3F30B037BB143F40043C9E741
:1059300019206843B3FBF0F30133C3F30B0323B126
:1059400043F44043BEE70423BCE70123BAE700BFAA
:10595000A08601007F841E00FF083D0040420F002A
:105960002DE9F743044699460C9E0F469046FFF7F3
:10597000CBF894F83D30202B054603D0022003B02D
:10598000BDE8F08300903C49192301222046FFF72F
:1059900059FD0028F2D194F83C30012BEED020685C
:1059A000012384F83C300368D9075EBF036843F0E5
:1059B00001030360036823F400630360212384F878
:1059C0003D30402384F83E30002323640A9B636209
:1059D000BDF82C306385638D2385284BE3624246F6
:1059E000CDE900654B4639462046FFF7D7FD002834
:1059F0002AD00120C3E7FFF7A7FD40B1236C042B99
:105A000001BF2268136843F400731360F1E7636A0F
:105A100027681A4612F8011B39616262628D218D76
:105A2000013A92B262857A69481E80B25207208597
:105A30000AD548B15A783A6102336362638D013BFB
:105A400002399BB221856385238D2A463146204643
:105A5000002BD0D1FFF77EFE0028CFD1226813683B
:105A600043F400731360202384F83D3084F83C0035
:105A700084F83E0083E700BF020010000000FFFF33
:105A80002DE9F043044687B09946109F0D46904695
:105A9000FFF73AF894F83D30202B064604D0022553
:105AA000284607B0BDE8F08300907A491923012207
:105AB0002046FFF7C7FC0028F1D194F83C30012BB9
:105AC000EDD02068012384F83C300368DB075EBF1B
:105AD000036843F001030360036823F40063036079
