:020000040800F2
:10000000000003205D060008092300080B230008F8
:100010000D2300080F230008112300080000000032
:10002000000000000000000000000000E16D00087A
:100030001323000800000000716E0008016700082B
:10004000AD060008AD060008AD060008AD060008C4
:10005000AD060008AD060008AD060008AD060008B4
:10006000AD060008AD060008AD060008AD060008A4
:10007000AD060008AD060008AD060008AD06000894
:10008000AD060008AD060008AD060008AD06000884
:10009000AD060008AD060008AD060008AD06000874
:1000A000AD060008AD060008AD060008AD06000864
:1000B000AD060008AD060008AD060008AD06000854
:1000C000AD060008AD060008AD060008AD06000844
:1000D000AD060008AD060008AD060008AD06000834
:1000E000AD060008AD060008AD060008AD06000824
:1000F000AD060008AD060008AD060008AD06000814
:10010000AD060008AD060008AD060008AD06000803
:10011000AD060008AD06000815230008AD0600086E
:10012000AD060008AD060008AD060008AD060008E3
:10013000AD060008AD060008AD060008AD060008D3
:10014000AD060008AD060008AD060008AD060008C3
:10015000AD060008AD060008AD060008AD060008B3
:10016000AD060008AD060008AD060008AD060008A3
:10017000AD060008AD060008AD060008000000004E
:10018000AD060008AD060008AD060008AD06000883
:10019000AD060008AD060008AD060008AD06000873
:0C01A00021230008AD0600082D230008F4
:1001B00010B5054C237833B9044B13B10448AFF3A1
:1001C00000800123237010BD800300200000000088
:1001D0008031020808B5034B1BB103490348AFF354
:1001E000008008BD00000000840300208031020868
:1001F00001F0FF01102A2BDB10F0070F08D010F8D8
:10020000013B013A8B422DD010F0070F42B3F6D1DB
:10021000F0B441EA012141EA014122F007047FF0F4
:1002200000070023F0E80256083C85EA010586EA4B
:10023000010685FA47F5A3FA87F586FA47F6A5FA87
:1002400087F68EB9EED1F0BC01F0FF0102F0070293
:1002500032B110F8013B013A83EA010313B1F8D13E
:100260000020704701387047002D06BF354603381F
:10027000073815F0010F07D1013015F4807F02BF58
:10028000013015F4C03F0130F0BC0138704700BFA9
:100290007BB972B90029BEBF00204FF0004106E0D3
:1002A00008BF00281CBF6FF000414FF0FF3000F086
:1002B000D3B9ADF1080C6DE904CE002909DB002BA0
:1002C0001ADB00F04DF8DDF804E0DDE9022304B0AC
:1002D0007047404261EB4101002B1BDB00F040F80E
:1002E000DDF804E0DDE9022304B0404261EB4101A6
:1002F000524263EB43037047524263EB430300F007
:100300002FF8DDF804E0DDE9022304B0404261EBA0
:1003100041017047524263EB430300F021F8DDF8DE
:1003200004E0DDE9022304B0524263EB430370476B
:1003300053B94AB9002908BF00281CBF4FF0FF314C
:100340004FF0FF3000F088B9ADF1080C6DE904CE34
:1003500000F006F8DDF804E0DDE9022304B07047A0
:100360002DE9F047089D8E4604468846002B4AD169
:100370008A42174662D9B2FA82F64EB1C6F120031C
:1003800001FA06F820FA03F3B74043EA0808B4403C
:100390004FEA174E1FFA87FCB8FBFEF1230C0EFB49
:1003A000118843EA084301FB0CF29A4209D9FB1871
:1003B00001F1FF3080F0EA809A4240F2E780023992
:1003C0003B449A1AA3B2B2FBFEF00EFB102243EAA2
:1003D000024300FB0CFC9C4509D9FB1800F1FF32DD
:1003E00080F0D6809C4540F2D3803B44023840EAFE
:1003F0000140A3EB0C0300211DB1F3400022C5E92D
:100400000032BDE8F0878B4205D90DB1C5E9000186
:1004100000210846F5E7B3FA83F1002946D1734578
:1004200002D3824200F20581841A6EEB030201209E
:100430009046002DE5D0C5E90048E2E7002A00F02B
:100440009080B2FA82F6002E40F0A4808A1A030C43
:100450004FEA174E80B2BCB20121B2FBFEFC0EFB8C
:100460001C2243EA024304FB0CF29A4207D9FB1810
:100470000CF1FF3802D29A4200F2E080C4469B1A87
:10048000B3FBFEF20EFB123340EA034302FB04F41B
:100490009C4207D9FB1802F1FF3002D29C4200F2C5
:1004A000CA8002461B1B42EA0C40A5E7C1F12006A8
:1004B0008B4022FA06F71F430EFA01F420FA06F3E6
:1004C0002EFA06FE4FEA1749234300FA01F81FFAF5
:1004D00087FCBEFBF9F01C0C09FB10EE44EA0E444D
:1004E00000FB0CFEA64502FA01F209D93C1900F105
:1004F000FF3A80F09C80A64540F2998002383C4447
:10050000A4EB0E041FFA83FEB4FBF9F309FB1344BA
:100510004EEA044403FB0CFCA44508D93C1903F142
:10052000FF3E80F08280A4457FD9023B3C4443EAF1
:100530000040A4EB0C04A0FB02EC64457346E146CA
:1005400062D35FD05DB1B8EB030264EB090404FA37
:1005500006F622FA01F31E43CC40C5E900640021EF
:100560004FE7B1FBF2FC010C41EA0E4180B240EAD8
:1005700001423B4638463C46B846BE462026B1FBC3
:10058000F7F1A2EB080241EA0C4166E7014618E7E1
:1005900010462CE7C6F120022EFA02F3B740B14014
:1005A00020FA02F24FEA174E0A43B3FBFEF8BCB240
:1005B0000EFB1833110C41EA034108FB04F9B0406B
:1005C00089454FEA104380B23ED9791808F1FF3CC3
:1005D00001D289451FD8A1EB0901B1FBFEF909FB46
:1005E00004F80EFB191192B242EA0142424529D2A7
:1005F000BA1809F1FF31C4D24245C2D2A9F10201B1
:100600003A44BEE7F0459DD2BEEB02036CEB070C0B
:100610000138E14696E7A7EB09094944A8F1020C25
:10062000B1FBFEF909FB04F8DBE773467FE75046B0
:1006300066E70846FDE63B44023A33E7ACF1020CBC
:100640003B441CE749469CE7A1EB0901C446B1FBCA
:10065000FEF909FB04F8C4E7704700BFDFF834D0A7
:10066000002103E00C4B5B58435004310B480C4B0A
:1006700042189A42F6D30B4A02E0002342F8043BA8
:10068000094B9A42F9D303F0B3FB22F00BF801F0C7
:1006900061F870470000032010EB03080000002001
:1006A0006401002080030020D8380120FEE7704755
:1006B00008B500F0B9FDBDE8084000F03DBD00F010
:1006C000B5BD704710B50421044620F0FFFD20465B
:1006D00010BD000038B50C4B0C4C18800C4B822020
:1006E00019806368984740F6110398420AD1094D72
:1006F00023682C60822098472B688220DB6898470B
:10070000002038BD0120FCE7A60300204C0000209B
:10071000A4030020A80300204FF4A071F020FFF7ED
:10072000D9BF0000F7B5394D2B6804461B698220FC
:100730009847208000284ED02B680DF106025B6997
:1007400001A982209847324B1B78002B4BD0BDF873
:10075000062040F674639A423FD9ADF80630BDF8E2
:1007600006209B1A9BB20A2B42D90B22B3FBF2F351
:10077000284A1288934201D9013A93B2BDF8042065
:10078000254840F6B8318A4234D8C2F571620E323B
:10079000016892B20F25B2FBF5F2204D2D88AA42D6
:1007A00084BF05F1FF35AAB28A4215468EB22AD916
:1007B000921B91B21A4E3768BB42BAB28CBF9A1ADA
:1007C000D21A92B211440529C4BF05603360036890
:1007D00063803368A38003B0F0BDB32A9CBFB4220A
:1007E000ADF80620BBE7BDF80630A3F5B473B9E752
:1007F0000023C3E7C2F56D62083292B20E2A016887
:10080000C8D800252A46891A89B2D3E7A803002050
:10081000FC1A0020A4030020A0030020A60300204F
:100820009C03002037B568460D461446FFF77AFF53
:10083000BDF8000030B1BDF802302B60BDF80430C7
:100840002360012003B030BD032821D8DFE800F089
:10085000020B12190F4B1A68B2FA82F252090421E4
:100860000D4803F06FBF0B4B5A68B2FA82F252097F
:100870000821F5E7074B9A68B2FA82F25209102173
:10088000EEE7044BDA68B2FA82F252092021E7E778
:10089000704700BFAC03002000100240032821D89D
:1008A000DFE800F0020B12190F4B1A68003A18BF6C
:1008B000012204210D4803F045BF0B4B5A68003A52
:1008C00018BF01220821F5E7074B9A68003A18BFC4
:1008D00001221021EEE7044BDA68003A18BF01222A
:1008E0002021E7E7704700BFAC0300200010024062
:1008F00003280DD8DFE800F00206080A04210548A5
:1009000003F025BF0821FAE71021F8E72021F6E7D8
:10091000704700BF0010024008B5032811D8DFE877
:1009200000F0020A0C0E0421074803F005FF431EE5
:100930005842584108BD0821F6E71021F4E720216C
:10094000F2E70020F3E700BF0010024070B5084D49
:1009500000240126E0B2FFF7DFFF18B12B68012B5E
:1009600018BF2E600134052C05F10405F2D170BDCD
:10097000AC030020012380F8781080F879307047AC
:100980007047002070470000034B4164003918BFD6
:1009900001211970704700BF972B0120704700207C
:1009A0007047836B0BB10846184770474FF6FF70CE
:1009B0007047406803689B691847704770477047E5
:1009C0007047704710B5044600F046FD23680349A0
:1009D000D3F890302046BDE810401847000000D002
:1009E00008B503680446D3F8843098472368204646
:1009F000DB6F984700F0ECF8236820465B6F984760
:100A0000292001F057F900F0E3F8236820465B6FD6
:100A10009847F8E710B5044608F0DAFF2368204647
:100A2000D3F8BC30BDE81040184700F0F9BC00F026
:100A3000FDBC00F02FBD00F0CFBC00F03FBD00F0CA
:100A400047BD00F0D3BC08F0F1B910B584210446CD
:100A500020F03CFC204610BD10B590F8341090F802
:100A600078400C4B8C421A7809D03AB90A4A0B49A3
:100A70001488088810800C8001221A7010BD002A8A
:100A8000FCD0054A05491488088810800C80002293
:100A9000F3E700BF902B01208C2B01208E2B01202F
:100AA00070B50D46194635B9094B0A4A0A4840F255
:100AB000FF2121F047FBC0E90F52084B003A18BF55
:100AC00001221A700368BDE87040D3F890301847CF
:100AD000F8310208303202087E320208962B0120DB
:100AE00008B5094B1B888B4203D8084B1B889342DF
:100AF00005D9074B074A0848A32121F023FB074BE0
:100B00001980074B1A8008BD8C2B01208E2B0120E9
:100B1000C3320208263302087E320208922B0120DB
:100B2000942B0120034690F87A0018B158680368A6
:100B30001B68184770470000012108B500220846CD
:100B400005F068FE0A4B186028B90A4B0A4A2821AA
:100B50000A4821F0F7FA00220421012005F0F9FEED
:100B6000074B186018B9074B034A2C21F0E708BD62
:100B7000C003002069330208B2330208E1330208DF
:100B8000BC0300202C340208024B4FF0FF311868E0
:100B900005F08ABEC0030020014B186805F0B0BE06
:100BA000C0030020024B0021186805F07DBE00BF85
:100BB000C0030020FFF7F0BF03480449006800238A
:100BC0001A4605F001BF00BFBC030020040000204E
:100BD00013B5084C00231A4601A9206805F025FF2B
:100BE00020684FF0FF33002201A905F01EFF02B07C
:100BF00010BD00BFBC03002003685B6C18470120D8
:100C0000704703689B6A1847FEE740F2EF30704771
:100C1000054B0360054B4FF08062C3F88820BFF39B
:100C20004F8FBFF36F8F7047543F020800E100E021
:100C300010B504464FF45A61FFF7EAFF204620F052
:100C400045FB204610BD000082B0002301930E4BEF
:100C50001A6B42F400021A631A6B02F4000201924A
:100C6000019A1A6942F400021A611A6922F4000218
:100C70001A61064B064A1A61064A5A61064B4FF042
:100C800080629A6002B0704700380240A01C0020C9
:100C9000E90E0008090C000800E100E008B50A2888
:100CA00009D8DFE800F006100E0808080810101038
:100CB0001000022008BD054B054A0648902121F08E
:100CC00041FA0020F6E70120F4E700BF6E34020885
:100CD00089340208D434020838B50C46887FFFF7FF
:100CE000DDFFA58AE28A164B2169586342EA054274
:100CF0005A64628BD963521B1A642568082D0ED181
:100D00009A611A615862207F0E4A42EA0062DA61F3
:100D1000E2681A620C4A5961D9601A6038BD002233
:100D2000D8611A61E1680A0A480902F4784200F4BD
:100D3000FC600243C1F3C4010A439A63034AECE72F
:100D400000B002400900010001230200012303005A
:100D500008B50B280BD8DFE800F00612100A0A0AC3
:100D60000A0808080808022008BD0520FCE7054B12
:100D7000054A06486F2121F0E5F90020F4E701203B
:100D8000F2E700BF6E3402081D350208D4340208B1
:100D90002DE9F04191F81D800C464046FFF7D8FF41
:100DA000A77F05463846FFF7D3FF06463846FFF7CC
:100DB00075FFA18A628B444B521A1A649A61228B86
:100DC000521A1A61E28A586342EA01425A6421695E
:100DD0006268D963DA602068802828D0227F0FD823
:100DE000202867D0402865D004281AD0364B45EA21
:100DF000026545F40035B845DD6161D0334A44E011
:100E0000B0F5807F04D0B0F5007FEFD1304800E02E
:100E1000304840EA0262DA61E2681A625E62596151
:100E200032E045EA026242F40032DA61F6E7A06895
:100E3000021DDA62227F45EA026545F40035DD6174
:100E40005E625961017841B1012921D0224B234AC8
:100E500023484FF48D7121F075F9DA69418822F445
:100E60007F42013922F0100242EA0122DA610121B7
:100E7000154BDA6942F02002DA61DA699206FCD495
:100E800010229A600029B9D0164A1A60BDE8F08194
:100E9000B2F1FF01DA69408822F47F4200F1FF30AD
:100EA00022F0100242EA002242F0100218BF012193
:100EB000DA61DDE745EA0262034B42F40032B4E74F
:100EC00042F20132E1E700BF00B00240012301001D
:100ED000090002000A000200673502088135020895
:100EE000D434020801230200024B1B6858680368CF
:100EF0005B691847982B012070B5044625460A4BBC
:100F00000C30002660602672667245F8203B602235
:100F1000294608F0B3FE04F55A63EE6024359D427D
:100F2000FBD1204670BD00BF543F0208034B1A6836
:100F3000D207FCD423229A60704700BF00B0024061
:100F40007047000030B50F4C2568ED07FCD4232511
:100F50000904A56041F001010225FF2B656361646E
:100F6000E0630AD00849656241EA0363E361074B25
:100F700022626061E060236030BDE561039BA36392
:100F8000034BF8E700B00240090001000100020035
:100F90000100030030B50E4C2568ED07FCD4232575
:100FA0001204A56042F001020225FF2B6563626412
:100FB000E063E16008D01B0643F00213E361054BD8
:100FC00065626061236030BD034BE3610123F9E793
:100FD00000B0024001000200020002FF30B50B4CDD
:100FE0002568ED07FCD4232512041B06A56043F4F5
:100FF0000033022542F0010265636264E063E16050
:10100000E361034B65626061236030BD00B0024064
:1010100001000200012070474020704700EB811062
:101020000830704700EB811008307047012070478E
:1010300040F2BC50704740F2BC5303FB0100083043
:10104000704740F2BC5303FB010008307047012099
:1010500070471020704700EB01100830704700EB1C
:10106000011008307047084601F09ABC10B5034BD8
:101070000360044607F02FFC204610BD0C40020818
:1010800010B50446FFF7F2FF2046482120F01EF974
:10109000204610BD10B5034B0360044607F01BFC4F
:1010A000204610BDD83F020810B50446FFF7F2FFF6
:1010B000204640F2C45120F009F9204610BD00003E
:1010C00010B5034B0360044607F005FC204610BD35
:1010D000A43F020810B50446FFF7F2FF204618218E
:1010E00020F0F4F8204610BD10B5084B036004460C
:1010F00000F5BE60FFF7BAFF04F12C00FFF7CAFF4E
:1011000004F11400FFF7DCFF204610BD4040020848
:1011100008B50248FFF7E8FF08BD00BF9C12002099
:1011200010B50446FFF7E0FF20464FF4F36120F0CE
:10113000CDF8204610BD00002DE9F34101F06CF917
:10114000054601F06DF90024014623462846224653
:10115000009411F009F8274B274A1A60204602F044
:101160005FF8264D264B274A27489A6010F064FF07
:101170002B68BFF35B8FDB0735D4284620F0A8F837
:1011800088B3224C224B236004F23C6604F1140025
:1011900004F12C0804F5BE676060C4F80880E760BD
:1011A000266107F099FB1B4B6361404607F094FBF7
:1011B000194BE362384607F08FFB184BC4F8F03543
:1011C00004F5C76002F0F7FA224604F5C76130461D
:1011D00002F0A0F8304601F0E3FB114820F0D0FF08
:1011E000284620F081F80F4802B0BDE8F041FFF733
:1011F000E9BB00BFFC2B012048040020981200200E
:10120000680400204C040020080000209C120020EC
:1012100040400208A43F0208D83F02080C400208E0
:1012200011110008C4030020704700000148FFF7B7
:10123000D7BB00BFC403002070B5264E264C274DF7
:10124000274B23603046FFF757FE284616F092F8EA
:1012500024480EF07FFC244B2448DC6000224FF42D
:101260008071C3E9121222491A86C3E91A12214970
:1012700083F85820C3E91E011F49C3F880101F4995
:101280001F480B60F021C3E90422C3E90622C3E929
:101290000822C3E90A22C3E90E22C3E91022C3E9E6
:1012A0001422C3E917225A6683F870205A67C3E9EB
:1012B000016501801348018013484FF4A07101803B
:1012C0001248018012490A70012283F83420114A21
:1012D0001A6070BDF40400209412002068040020FD
:1012E000E83102084C040020C40300200000010182
:1012F00001000001000450001A001400982B012086
:101300008C2B0120922B01208E2B0120942B01206D
:10131000902B0120683E02080148FFF779BC00BF0E
:10132000F40400200020704781807047C18070471E
:10133000018170474181704770477047704770471F
:10134000704710B4C4880368121B84885B6D091B46
:1013500012B25DF8044B09B218474FF6FF73838150
:101360004FF0FF3303621368C361106070470020C1
:1013700070478B88838001207047704780F8261063
:10138000704790F82600704710B50022B1F9084068
:10139000B1F90A10028042808480C18010BD002211
:1013A000028042808280C28070470177704780ED62
:1013B000080A704780F82410704780F8251070479D
:1013C00001207047983070478C30704784307047E8
:1013D0007047704770470000034B902283F85A23F0
:1013E00083F85823704700BF00E100E0094A0A492A
:1013F000D3680A48C3F30A03013B9BB20B8011690F
:10140000C1F30A01013901801364536B43F00103F6
:101410005363704700680140361A0020341A0020D8
:10142000014BD3F8AC00704700680140024B012229
:10143000C3F8AC105A6270470068014010B52C2107
:1014400004461FF043FF204610BD10B5BC210446E2
:101450001FF03CFF204610BD70B5044607F03BFD71
:1014600023689D6E0DF00EF901462046A8472368BB
:10147000054AD3F88C502046AC460023BDE87040A6
:10148000A2F51631604700BF00B004D007F00ABDD6
:1014900007F014BD07F0D0BC07F03FBE90F8252040
:1014A00012B103685B691847704790F825201AB19C
:1014B00090F8242002B1186070470000034B4FF0F1
:1014C00080629A604FF080729A60704700E100E09D
:1014D000084B4FF08062C3F88820BFF34F8FBFF3F3
:1014E0006F8F4FF08072C3F88820BFF34F8FBFF328
:1014F0006F8F704700E100E070B50023124E8380CB
:10150000124B0360336893F8582005460AB1D86C33
:1015100000B998680368DB6A98473368B0FA80F4CA
:10152000D86C640930B10368DB6A9847002808BFAB
:1015300044F001042CB9064B064A07482C2120F040
:1015400001FE284670BD00BF982B012054400208C0
:10155000BF3502081D3602085636020870B5254E02
:101560003568BFF35B8F15F0010540D130461FF0A1
:10157000AFFE00283BD0204C204B256104F1340005
:10158000C4E90035C4E90255E584A562A5850EF0DD
:10159000C6FD04F158000AF027F8194BA365204650
:1015A000184B40F8843BFFF7A7FF174BC4F8843073
:1015B0002433C4F88C304FF4C803C4E92835002321
:1015C000C4F8AC30C4F8B030C4F8B430C4F8B830A3
:1015D0000E480F4BC4F89050C4F89C50C4F8A85063
:1015E000C4F8983020F0CCFD30461FF07DFE024854
:1015F00070BD00BF381A00203C1A00207447020852
:1016000074400208EC40020828470208D51300087D
:101610000847020838B5184C23685BB3174B184AC3
:101620001B6C11888B4216D1164B198803F074FE7F
:10163000236893F86A200025013283F86A2083F832
:101640007C50FFF7B9FA206808F0C2F92846BDE8D7
:101650003840FFF7F9B803F05FFE2468236820469E
:101660001B6A9847012384F87C300020BDE838408D
:10167000FFF714B938BD00BF982B01200068014066
:10168000361A0020341A002007B5064BADF80600C4
:101690001B68054801220DF1060104F0F5FB03B0BB
:1016A0005DF804FB0C0000203C1B002008B5642002
:1016B00005F0A4F8FBE7000030B595B0102200213A
:1016C0000AA820F046FF1422002103A820F041FFC1
:1016D00000241E4B01941A6C42F080521A641B6C59
:1016E00003F080530193019B194B02941A6842F452
:1016F00040421A601B6803F4404302930122029B9C
:101700004FF48033CDE9082302254FF480030821EC
:10171000CDE90E534FF4B473CDE9101308A8042398
:101720001393129503F050FE03F014FE0F23CDE93E
:1017300003354FF4A0504FF48053CDE90603052143
:1017400003A8059404F01CF815B030BD0038024021
:10175000007000402DE980489BB002F057FBFFF776
:10176000ABFF142200210DA820F0F3FE0024C94B8A
:1017700000941A6BC848C94D42F010021A631A6BE4
:1017800002F010020092009A01941A6B42F02002BB
:101790001A631A6B02F020020192019A02941A6BEA
:1017A00042F080021A631A6B02F080020292029ADF
:1017B00003941A6B42F004021A631A6B02F00402DB
:1017C0000392039A04941A6B42F001021A631A6B93
:1017D00002F001020492049A05941A6B42F002028C
:1017E0001A631A6B02F002020592059A06941A6BAC
:1017F00042F040021A631A6B02F040020692069A07
:1018000007941A6B42F008021A631B6B03F008037B
:10181000224607933C21079B02F094FFA048012237
:10182000022102F08FFF22469D48042102F08AFF28
:1018300022469C484FF4405102F084FF01263C238D
:10184000CDE90D3694480F9403230DA90227109378
:1018500002F08EFE92480DA9CDE90D76CDE90F4438
:1018600002F086FE04238E480DA9CDE90D36CDE9A0
:101870000F4702F07DFE20238B480F960DA9CDE97E
:101880000D3402F075FE0DA94FF440538548CDE9A3
:101890000D36CDE90F4702F06BFE8448844B0360A0
:1018A00002F05CFDDFF82CC2824B2C62C5E900C35C
:1018B00028464FF48043C5E90434C5E90244C5E92C
:1018C000064403F04DF91021284603F091FB214610
:1018D000284603F0ACFB784DDFF8FCE1AC624FF436
:1018E0008273C5E900E34FF400781823C5E9068345
:1018F00028460A23C5E90244C5E90444C5E9084469
:10190000EB6204F065FA8F232246394664488DF86D
:1019100024308DF8344002F015FF32464FF47A73CC
:1019200009A9284604F0B0FA4FF47A7332460DA99B
:10193000284604F055FC3246394659485F4D02F0BE
:1019400001FF9DF83430D32B04BF5D4B1E705D4BFF
:101950000126C5E900364FF0100A40230024C5E9EE
:1019600004A34FF4C073C5E906344FF40063C5E91E
:1019700008344FF4005302274FF0040B4FF00308D4
:10198000AB620DA907232846CDE90D73CDE90FB34E
:101990004FF00809C5E9024BCDE91187139704F010
:1019A000FBF84FF6FF7209A92846CDE90A9608947C
:1019B00009960C9404F010F9304602F053FA4FF6F1
:1019C000FF7209A92846CDE90979CDE90B6404F035
:1019D00003F94FF6FF7209A92846CDE90989CDE937
:1019E0000BB404F0F9F84FF40C730893089B0C93B4
:1019F0004FF6FF7209A92846CDE909B90B9604F004
:101A0000EBF840F26A51284604F004F934222146EA
:101A10000DEB020020F09DFD2B4D2C4B2C61C5E9F8
:101A200000340923C5E905361D23C5E9073840F20E
:101A30000D1240F24313C5E9092340F2171140F299
:101A400047132846C5E90B13C5E90244AC8685F85F
:101A5000364003F07FFBFF21F022CDE912144FF452
:101A6000806005214FF4A073CDE91401CDE90E2467
:101A70000DA9CDE9164228462246CDE91037144D6E
:101A800018930D94ADF864408DF8664003F016FC91
:101A900024E000BF00380240001002404C1C00202F
:101AA00000080240000C024000000240E01C002040
:101AB00000300240A08601003C1B0020081B0020D3
:101AC000FC1A0020400100A0A41B00200068014077
:101AD000F81A0020005C0040005001402B4B2B60A6
:101AE0001B6898472B682A4DDB689847294B284686
:101AF000C5E90034C5E90274C5E90A47C5E90C44E3
:101B000002F03CFC3146284602F0EEFC224D234F09
:101B1000524621460DA820F01CFD4FF48033C5E944
:101B2000007328461E4BAB62AC602C612C7685F8A6
:101B30002040EC62EC60EE6185F830406E6102F0AE
:101B4000A5F90DA92846CDE90D66CDF83C8002F037
:101B500017FB1448144B036004F006F8FEF7A8FDC9
:101B6000FEF7A5FD04F0DAFD104A1148214604F005
:101B700001FE104B104A18602146104804F0FAFD8F
:101B80000F4B186004F0DCFDFEE700BF14000020DE
:101B9000A01C002000B00240E81C002000200140F2
:101BA0000100000F941B0020000806505441020859
:101BB000AD160008041B002030410208BF060008D3
:101BC000001B0020704770477FB5094B8DF8172028
:101BD0001B6802930DF117020123009201930A463C
:101BE0000146044803F064F807B05DF804FB00BF49
:101BF000100000204C1C00207FB500238DF817300A
:101C0000084B1B6802930A4601230DF1170100914E
:101C100001930146044803F0DBF89DF8170007B074
:101C20005DF804FB100000204C1C00201FB5084C80
:101C300024680092CDE901340A4601230146054893
:101C400003F0C6F8003818BF012004B010BD00BF73
:101C5000100000204C1C002002F004B910B5064C06
:101C600000222046042102F06DFD20460122BDE83D
:101C70001040042102F066BD0008024038B50B4D4B
:101C8000044601220A484FF4005102F05BFD002295
:101C90000421284602F056FD2046FFF7F5FC2846B1
:101CA0000122BDE83840042102F04CBD000802408A
:101CB000000C024038B50B4D044600220A484FF490
:101CC000005102F03FFD00220421284602F03AFDB7
:101CD0002046FFF7D9FC28460122BDE83840042100
:101CE00002F030BD00080240000C0240F7B5144E6F
:101CF000144F05460C4630460022042102F022FD16
:101D000000224FF40051384602F01CFD2846FFF730
:101D1000BBFC0D4B0D481B68224601A904F060FA7C
:101D2000384601224FF40051019C02F00BFD304671
:101D30000122042102F006FD204603B0F0BD00BFE1
:101D400000080240000C02400C0000203C1B002058
:101D500002F088B80268034B9A4201D102F070B8D1
:101D6000704700BF001000407047000082B00E4B6B
:101D700000220092596C41F480415964596C01F47D
:101D80008041009100990192196C41F080511964D1
:101D90001B6C03F080530193019B0F216FF0010036
:101DA00002B002F09BBA00BF0038024010B50446F2
:101DB00088B01422002103A820F0CBFB2268124B2C
:101DC0009A421ED103F58C33002101915A6C0F48C1
:101DD00042F480725A645A6C02F480720192019A41
:101DE00002911A6B42F001021A631B6B03F00103AC
:101DF0000293029B0222032303A9CDE9032302F0ED
:101E0000B7FB08B010BD00BF002001400000024039
:101E10000268094B9A4282B00BD100230193074B11
:101E20001A6B42F480521A631B6B03F480530193C4
:101E3000019B02B0704700BF0030024000380240F2
:101E400007B50F4B02689A4216D10022A3F5F04362
:101E50000192196B41F4000119631B6B03F4000339
:101E6000019305215A20019B02F038FA5A2003B051
:101E70005DF804EB02F064BA03B05DF804FB00BF48
:101E800000B002402DE9F043044689B0142200213D
:101E900003A820F05EFB2268244B9A4243D1244CD5
:101EA000244800250095236B43F004032363236B30
:101EB00003F004030093009B0195236B43F001039F
:101EC0002363236B03F001030193019B4FF012097D
:101ED0004FF400734FF001080327042603A9CDE94E
:101EE0000339CDE90587079602F042FB4FF4807372
:101EF0001148079603A9CDE90339CDE9058702F01A
:101F000037FB0295236C43F400032364236C03F432
:101F100000030293029B236A43F400032362236AB3
:101F200023F40003236209B0BDE8F083005C0040A5
:101F3000003802400008024000000240F0B599B0AD
:101F400004461422002107A820F003FB30220DEBE9
:101F50000200002120F0FDFA22685E4B9A4240F018
:101F6000B78008230C93C0231093042312930CA86A
:101F70004FF40033159303F0CBFC08B1FFF7F4FEE8
:101F8000554B5648002400945A6C42F080625A64C3
:101F90005A6C02F080620092009A01941A6B42F02F
:101FA00020021A631A6B02F020020192019A029435
:101FB0001A6B42F001021A631A6B02F001020292DC
:101FC000029A03941A6B42F002021A631A6B02F02F
:101FD00002020392039A04941A6B42F040021A63BD
:101FE0001A6B02F040020492049A05941A6B42F0B4
:101FF00004021A631A6B02F004020592059A069411
:102000001A6B42F008021A631B6B03F00803069375
:1020100002250E26069B0B964FF4806307A9CDE997
:102020000735CDE9094502F0A3FA41F658032C48DB
:102030000B9607A9CDE907350927CDE9094502F037
:1020400097FA032327480B9707A9CDE90735CDE970
:10205000094502F08DFA4FF4706322480B9607A9E8
:10206000CDE90735CDE9094502F082FA4FF40C635A
:102070001D480B9607A9CDE90735CDE9094502F0C2
:1020800077FAC02319480B9607A9CDE90735CDE9A2
:10209000094502F06DFA082315480B9607A9CDE90A
:1020A0000735CDE9094502F063FA4FF4A0530E4815
:1020B0000B9707A9CDE90735CDE9094502F058FA94
:1020C00058202246052102F009F9582002F038F97B
:1020D00019B0F0BD00680140003802400014024011
:1020E00000000240000402400018024000080240C4
:1020F000000C02400268094B9A4282B00BD10023C7
:102100000193074B5A6B42F040025A635B6B03F03A
:1021100040030193019B02B0704700BF00080650C6
:102120000038024010B5044688B01422002103A8EC
:1021300020F00FFA2268144B9A4223D103F568432A
:10214000002101915A6C114842F480125A645A6C71
:1021500002F480120192019A02911A6B42F020025D
:102160001A631B6B03F020030293029B4FF460720F
:1021700002230321CDE903230523CDE9061303A997
:1021800002F0F6F908B010BD005001400014024002
:102190002DE9F04186B0002303932B4B1C68002CE3
:1021A0004FD14FF00108C3F80080284B00949A6B80
:1021B000274842EA08029A639B6B03EA08030093EC
:1021C000022703260C25009B01A94FF63F03CDE90A
:1021D0000137CDE9046502F0CBF91E48059501A948
:1021E000CDE90187CDE9034602F0C2F948F2331385
:1021F0001948059501A9CDE90137CDE9034602F05B
:10220000B7F94FF683731548059501A9CDE9013754
:10221000CDE9034602F0ACF94CF203731048059582
:1022200001A9CDE90137CDE9034602F0A1F9602308
:102230000C48059501A9CDE90137CDE9034602F027
:1022400097F906B0BDE8F081301D0020003802404B
:102250000014024000080240001802400010024032
:10226000000C02400004024070B588B000230293C5
:10227000204B1A6C42F010021A641B6C03F010031E
:102280000293054601A903A8029B03F023FB069BCA
:102290004BBB03F00FFB184E184B336040F2E73393
:1022A000F360174BB0FBF3F3013B73603046002340
:1022B0003361B360B36104F05DF9044680B9304620
:1022C00004F032F8044658B9362002F039F80F2DE0
:1022D0000DD822462946362002F000F8094B1D6031
:1022E000204608B070BD03F0E5FA4000D3E70124B2
:1022F000F6E700BF00380240341D00200010004007
:1023000040420F007C0000207047FEE7FEE7FEE73A
:10231000FEE77047014804F045B800BF341D0020B7
:10232000014802F06EBF00BFA41B0020014802F06C
:1023300051B800BFA01C00200120704708B520F054
:10234000ABF9162303604FF0FF3008BD08B520F04D
:10235000A3F916230360FEE770B50D4614460E463A
:10236000731B9C4201DC204670BDAFF3008006F871
:10237000010BF5E770B50D4614460E46731B9C42E3
:1023800001DC204670BD16F8010BAFF30080F5E7C5
:102390004FF0FF3070474FF400534B600020704700
:1023A00001207047002070470A4A116808B50346AB
:1023B00009B9094911601068694603448B4206D97E
:1023C00020F06AF90C2303604FF0FF3008BD136062
:1023D000FCE700BF7C1D0020D8380120704708B5FD
:1023E000042910D8DFE801F00B03070B0B0000F005
:1023F00063FF406808BD00F05FFF8068FAE700F007
:102400005BFF0068F6E70020F4E710B504210446FE
:102410001EF05CFF204610BD004870478C4102084A
:102420000720704713B5002451B1036801948DF85B
:10243000034001AA9C680DF10303A04702B010BD40
:102440000846FBE7C0897047008A7047C08870471C
:1024500080887047807A00F07F007047807AC009DA
:1024600070470020704700009FED010A704700BFD1
:1024700000000000704710B5082104461EF026FF3A
:10248000204610BD7047704700F59873086849688A
:1024900003C370477047704741607047704770478B
:1024A000064BC0F84C310023C0F8503100F5A27340
:1024B000C0F84801C0F84031704700BF3926000815
:1024C0000123037270477047704710B4C2684168B7
:1024D0005410034601EB6200D20748BF0A599B68BB
:1024E0005DF8044B48BFD35818470346406830B1E5
:1024F0009A681AB9D86800F0010070470120704747
:1025000010B50C2104461EF0E1FE204610BD10B5AA
:10251000102104461EF0DAFE204610BD10B54FF41F
:10252000AE7104461EF0D2FE204610BD10B540210B
:1025300004461EF0CBFE204610BD10B50CF0A2F8EC
:102540000368BDE81040DB6B18470000054B1B78A3
:1025500001462BB1406818B103680C315B6E184717
:10256000704700BF972B0120037A70B50546BBB9B1
:1025700040680368DB69984704463CB968680368AB
:1025800005F10C011B6EBDE870401847A1886B8FE8
:10259000C91A236820461B6B09B29847A469ECE767
:1025A00070BD10B50446D0F8400158B10368DB682F
:1025B000984738B1D4F8400103689B6898470023D6
:1025C000C4F8403110BD70B5044690F8390094F855
:1025D00038300130C0B2984284F8390005D901235F
:1025E0002372002384F8393070BDB4F93A200021F9
:1025F0000EF0FEF9C30706D500284FF6FF73C8BFDB
:102600000123184400B2238AC01AA08760680368B7
:10261000DB69984705462DB960680368BDE87040DE
:102620005B691847A988A38F19442B6828461B6B40
:1026300009B29847AD69EEE72DE9F14FD0E9556A47
:102640000746B06803681B6A9847C32805D8444BFF
:10265000444AA32144481FF075FD706803681B6A53
:1026600098470F2803D8414B3E4AA421F2E7F0686F
:1026700003681B6A98470B2803D83D4B394AA521AC
:10268000E8E70BF0FFFFDFF8F09004300CF01FF8E4
:10269000D9F8000010B10368DB689847D9F800004A
:1026A00010B103681B689847DFF8D080D8F80000A5
:1026B00010B103685B699847D7F83C0110B1036813
:1026C0005B689847D8F8000010B103681B6898470A
:1026D000D7F83C0110B103689B689847F06803681D
:1026E00000215B6A98474FF0000B224BC0F804B002
:1026F000044680F808B00360B068036859465B6A16
:102700009847054601F0C8F87068036859465B6A47
:1027100098472946064601F09FF8331DC7F83C61EB
:10272000C9F80040C8F80050CAF800302B68C6F855
:1027300008A02846DB68EE639847336830461B687C
:102740009847214628460EF04DF9236820461B691C
:10275000984723685B69204601B0BDE8F04F1847F1
:10276000CD3602085B370208353802087C3802088B
:102770001F3902089C420208E02B0120DC2B0120BB
:102780002DE9F14FD0E9556A0746B06803681B6A26
:10279000984740F2BB53984205D8564B564AA3215E
:1027A00056481FF0CFFC706803681B6A98470F28D3
:1027B00003D8534B504AA421F2E7F06803681B6A20
:1027C00098473F2803D84F4B4B4AA521E8E70BF029
:1027D00059FFDFF8449104300BF079FFD9F800007D
:1027E00010B10368DB689847D9F8000010B103689E
:1027F0001B689847DFF82481D8F8000010B10368FF
:102800005B699847D7F83C0110B103685B6898474B
:10281000D8F8000010B103681B689847D7F83C014E
:1028200010B103689B689847F068036800215B6AF1
:10283000984705460023344A4360037245F80C2B41
:102840000446284608F078FF142222872F4A12787F
:102850000023A387002A35D101232372B0680368BF
:1028600000215B6A9847054600F0D4FD7068036854
:1028700000215B6A98472946064600F079FD331D22
:10288000C7F83C61C9F80040C8F80050CAF80030E9
:102890002B68C6F808A02846DB68EE6398473368C3
:1028A00030461B689847214628460EF09BF823685F
:1028B00020461B69984723685B69204601B0BDE844
:1028C000F04F18471249134AB1F900B0E16823618B
:1028D00028468B6BB2F900109847E3685946DB6BCA
:1028E00028469847284608F0A2FE0A4A13885B4209
:1028F0006387B3E7CD360208C239020835380208CB
:102900007C3802081F390208C0420208972B0120B8
:102910008E2B01208C2B0120E02B0120DC2B0120B1
:10292000044B1B6893F858200AB1D86C00B998681A
:10293000704700BF982B0120F8B5174604460E4695
:102940000BF062FF124B1C60124B2360124B0025F0
:10295000C4E95135114BC4E9535518680368012186
:102960009B68C4E94F55C4E955769847284600F05E
:1029700057FCFFF7D5FF16F0A6FBFFF7D1FF16F0C7
:102980001DFCFFF7CDFF16F025FC2046F8BD00BF6B
:10299000EC2B01204842020830420208982B01200B
:1029A000064BC0F84C310023C0F8503100F5A2733B
:1029B000C0F84801C0F84031704700BF3926000810
:1029C000064BC0F84C310023C0F8503100F5A2731B
:1029D000C0F84801C0F84031704700BF81270008A7
:1029E0007047704770477047704730B5036885B0CF
:1029F0006D460181D3F88430014604462846984745
:102A000095E807003C3484E8070005B030BD30B5D8
:102A1000036885B06D464181D3F884300146044691
:102A20002846984795E807003C3484E8070005B03D
:102A300030BD0022028042808280C280704780F8D0
:102A40003610704770B5036804461B6B15469847EF
:102A50002368294620465B6EBDE870401847002079
:102A60007047806C704770477047704710B54C21B5
:102A700004461EF02BFC204610BD10B5FC21044678
:102A80001EF024FC204610BD08B5FEF707FD08BD6A
:102A9000036870B55E6B124B1B6804468DB22BB990
:102AA000104B114A6C2111481FF04CFB1049828DCC
:102AB0000988914203D80F4B0B4A6D21F3E713F8B5
:102AC00012200D4B1B6853F8220003681B6B9847BC
:102AD000291A3346204609B2BDE87040184700BFA6
:102AE000F02B0120AD3A0208EF3A02082A3B020817
:102AF000F42B0120713B0208F82B012000224FF03B
:102B0000FF31C0E900218260704770B50368044658
:102B10001B6B154698472368294620465B6BBDE82A
:102B20007040184770B504461D46BDF91060FFF7A8
:102B3000ECFF2368294620469B6B98472368314663
:102B40002046DB6BBDE87040184700000022C0E95A
:102B50000122C0E90322C0E90522C0E907224FF49F
:102B600080728284014A0260704700BFE44202081A
:102B70002DE9F047044688B0A04600250DF086FDFB
:102B80005E4BE56348F8403B2946262240461FF04D
:102B9000E0FC4046FFF7DAFF04F16C07584B236472
:102BA000FF26262229464FF6FF7984F86660A5663F
:102BB0003846ADF818901FF0CCFC3846FFF7C6FF3A
:102BC000504BE366BDF81830A4F8923084F8946056
:102BD00006A904F19806384609F067F82946262226
:102BE00030461FF0B6FC3046FFF7B0FF4FF47F03CE
:102BF000C4F8CC30444BC4F898304FF0FF33C4E9EC
:102C00003635DFF82CA1A4F8C4904FF4A0732A46FF
:102C1000C4F8C850A4F8D050C4F8D450C4F8E05058
:102C20002946C4F8C0A040460093F023FFF77AFF7E
:102C300004F104094FF07F43A3664146484605F07E
:102C40005FFE40F2131269213846FFF75EFF04234E
:102C500006A93846ADF8183009F027F83946484635
:102C600005F04EFE1D232A46294600933046F023E8
:102C7000FFF758FF254BC4F8C830D4F89830A4F8B3
:102C8000CC5002AD2846D3F884303146984795E8B9
:102C9000070004F1D40383E807001D4B1B6804F10F
:102CA000E4052BB91B4B1C4A60211C481FF04AFA53
:102CB0001B4B1B88022B03D81A4B174A6121F4E7E0
:102CC000194B0221186800F0E7FA184A03460C2154
:102CD00028460FF0A3F9012306A93046C4F8E050B6
:102CE000ADF81C30CDF818A008F050FE484631462B
:102CF00005F006FE204608B0BDE8F087DC43020878
:102D0000A8480208104902084C4302082200FFFFAD
:102D1000F02B0120AD3A0208AF3B02082A3B020823
:102D2000F42B0120713B0208FC2B0120FA3B020826
:102D300020420208406A7047806A704770478A885C
:102D40000B8810B5D20A4C88C1699BB251F8220099
:102D500043EA0443184410BD10B50446BAB1107BD1
:102D600068B1537BD27A1B0203F4E0631A43236AEF
:102D700003EB82031A888A4202D193F9020010BD44
:102D800005D8013880B204330028F3D1F7E70020DA
:102D9000F5E710B52C2104461EF098FA204610BD28
:102DA00030B58BB00446BDF860500895BDF85C5056
:102DB00007959DF8505006959DF84C5005959DF847
:102DC000485004959DF8445003959DF84050029555
:102DD0009DF83C500195BDF8385000950DF05CFA17
:102DE000064B2360159BE361169B2362199B63626C
:102DF0001A9BA36220460BB030BD00BF10440208EE
:102E000070477047704730B4C26844685510034635
:102E100004EB6200D20748BF62599B6830BC48BFD0
:102E2000D35818470346406830B19A681AB9D86831
:102E300000F0010070470120704710B510210446D2
:102E40001EF044FA204610BD10B5C42104461EF001
:102E50003DFA204610BD6C30884208B505D10BF014
:102E600011FCBDE80840FFF7ABBD08BDF8B5194B34
:102E7000018F1B888B4206462AD9174B1B682BB93A
:102E8000164B174A17486C211FF05CF913F81120F4
:102E9000154B1B6853F82250144B186800F0FCF9CE
:102EA0002B6807469B6B284698472B6804469B6C0B
:102EB0003946284698472B6814FB00F45B6A39466C
:102EC00028469847A4B223181BB2A6F84630F8BD8E
:102ED0000023FAE7F42B0120F02B0120AD3A020881
:102EE000EF3A02082A3B0208F82B0120FC2B0120B4
:102EF0002DE9F34104460DF0C9FB2F4B23602F4B06
:102F00000025C4E910354FF4807304F16C06A4F871
:102F10006430FF2384F86630C4E91255C4E91455BF
:102F2000C4E91655E5632566A566304608F0FEFF40
:102F3000234BC4E92D34234B04F140072A46C4E94E
:102F40002F3529463846FFF7E0FD3846F021FEF7D9
:102F5000EFF938464FF4A071FEF7ECF904F10408DC
:102F60004FF07F43A3663946404605F0C9FC294629
:102F70003046D222FFF7C9FD01AA69460123304637
:102F8000ADF80430ADF8005008F05DFD0323A4F85F
:102F9000A4303046FFF76AFF4FF0FF33C4E92A330D
:102FA00004F1B4034046C4F89430314605F0A8FC5F
:102FB000204602B0BDE8F08190440208A84802080B
:102FC00078440208572E00087047000030B5164DAF
:102FD0002C6814F001048FB0BFF35B8F20D128461A
:102FE0001EF076F9E0B13F230993104B0893104B84
:102FF000104911480A940122CDE906430423CDE982
:1030000003320A230093CDE90B44CDE90144059432
:10301000FFF7C6FE09481FF0B3F828461EF064F912
:1030200005480FB030BD00BF801D0020145D0208B0
:10303000605D0208505B0208841D0020C92F000853
:103040007047000030B5174D2C6814F001048FB0A4
:10305000BFF35B8F22D128461EF03AF9F0B13F232F
:103060000993114B0893114B07930123CDE90543B5
:1030700004930423CDE9024314230D4900931E2237
:103080001823CDE90B440B480A940194FFF788FEFE
:1030900009481FF075F828461EF026F905480FB0BC
:1030A00030BD00BFB01D0020185D0208645D02083D
:1030B000605B0208B41D002041300008704700002A
:1030C00030B5164D2C6814F001048FB0BFF35B8F40
:1030D00020D128461EF0FCF8E0B13F230993104BA5
:1030E0000893104B104911480A940122CDE9064378
:1030F0000423CDE9033228230093CDE90B44CDE925
:1031000001440594FFF74CFE09481FF039F82846A2
:103110001EF0EAF805480FB030BD00BFE01D0020EA
:103120005C5D0208685D0208045D0208E41D002081
:10313000BD30000800207047002070470EB403B572
:1031400003AB002153F8042B01930CF023FB02B0D6
:103150005DF804EB03B070470CB407B504AB53F84B
:10316000042B01930CF016FB03B05DF804EB02B0E6
:1031700070470000436C10B5044673B3038F2BB93E
:10318000184B194AC52119481EF0DCFFC38E00EB0D
:1031900043035B8C0BB30EF098F9238F012B03D8FC
:1031A000134B144ACB21EEE7E28E531C9BB2092B42
:1031B000194688BFA3F10A0104EB410140F63F1014
:1031C000498C814209D10A2B04EB420228BF00231B
:1031D00004EB4303508C588451842046BDE81040D2
:1031E0000EF076B8FD3B0208063C0208B13C02082E
:1031F000FB3C0208093D02080EF031B810B586B05C
:1032000002AC84E806001A460AAB05930193099BB9
:1032100000932146089B0AF0D3FD06B010BD0000C4
:1032200038B518BB124B13481C681349B4B1226857
:1032300022440260626822440A60A26814440F4B70
:1032400000221A8000F038F8054600F033F80C4BE5
:103250001C600C4B1D600C4B188007E00B4B03608F
:103260000B4B0B600B4B1C68002CE8D138BD00BF2A
:103270001C1E0020141E0020101E0020181E0020FE
:10328000F02B0120F82B0120F42B01207C5D02089B
:103290006C5D0208B85D0208044B1B6853F82100FE
:1032A000034B1B6803EB4000704700BF101E00205B
:1032B000141E00200420704700487047201E002084
:1032C00010B5FFF7BFFE044C2060FFF7F9FE606009
:1032D000FFF77CFEA06010BD201E002010B500246A
:1032E00004600C6014601C6010BD704710B54FF492
:1032F000AE7104461DF0EAFF204610BD10B504462D
:10330000D0F8580100F05AFA2046BDE810400BF002
:103310003BBA000010B50446FFF70EFB014B2360DB
:10332000204610BDC44402087047043870477047F7
:1033300010B5102104461DF0C9FF204610BDA0F1B4
:103340000400F5E7C06800F0ABB8A0F10400FFF797
:10335000F9BFC06800F0B2B8A0F10400FFF7F9BFF0
:10336000C06800F0BBB8A0F10400FFF7F9BF00008F
:1033700000228260024A026024324260C1607047CB
:10338000184502087047000038B50D4B036005462C
:1033900040F27454B4F5177F05D02B5928191B68D7
:1033A00098472C3CF6E72B5928191B682C3C98476A
:1033B000D02CF8D12846FFF757FB284638BD00BF70
:1033C0005845020810B50446FFF7DEFF204640F2DC
:1033D000BC511DF07BFF204610BD0000002310B53E
:1033E000C0E90133C0E90333C0E90733C0E905335D
:1033F0004FF480738384064B03600B88C384FF23E0
:10340000044680F8283008F050FC204610BD00BF6C
:10341000104902082DE9F34105462C46FFF7A8FBA9
:103420001D4B44F8FC3B05F522764FF6FF7720460E
:1034300001A92C34ADF80470FFF7D0FFB442F6D1E7
:1034400005F5B4664FF6FF7804F58477204601A9A8
:103450002C34ADF80480FFF7C1FFBC42F6D1A64280
:10346000F2D10E4B062218689B88C5F8A005B380E0
:10347000C5F8AC2503220023C5F8B02528460A224A
:1034800085F8A635C5F8A835C5F8B425C5F8B8350A
:1034900002B0BDE8F08100BF58450208983102082B
:1034A00008B5B0F97430B0F9722003EBD373A1EB17
:1034B000630109B26C30FDF744FF08BD10B50B463F
:1034C0000446054A1821E4300EF0A8FD04F19800E6
:1034D000BDE810400CF088BADB3D020870B5034629
:1034E00000222C2100F2211001FB02F4055D2DBB0E
:1034F00004F1FC051C44B3F87220B4F80611521A0A
:10350000B3F974101D4401EBD170B3F87010B4F925
:10351000043101EB600103EBD373A1EB6301284697
:1035200012B209B2FFF7F1FA012384F82131D4F87D
:10353000FC3028465B69BDE8704018470132092A13
:10354000D2D170BDB1F90400B1F9083030B5B2F98B
:1035500004400344A34215DBB2F9083023448342FC
:1035600010DBB1F90640B1F90A30B2F90650234434
:10357000AB4207DBB2F90A002844A042B4BF0020E6
:10358000012030BD0020FCE72DE9F74F044600F58F
:10359000C67705464FF0000895F821314BB1B5F9D3
:1035A0000221B5F90631043A5B42934215DD85F8F4
:1035B00021812C35BD42EFD104F5227304F1FC0AC0
:1035C00000934FF484774FF000084FF02C0B9AF8DB
:1035D0002530002B3DD0002517E0D5F8FC30B5F99B
:1035E00000119B6D05F1FC06304612B29847D5F8E4
:1035F000FC3030465B699847DBE70136062E03F165
:103600002C0305D10135032D23D007FB05430026EC
:1036100093F8AD22002AF0D003F522794A465146AC
:1036200020460193FFF78EFF019B0028E5D07D43E4
:103630000BFB065525448AF8258085F8AD82DAF81B
:10364000003050465B699847D5F8883248465B6938
:103650009847009B0AF12C0A9A45B8D1D4F8B8359E
:10366000D4F8B42501339342C4F8B8353FDB0026C3
:10367000C4F8B865A519062795F8AD32E3B194F8FA
:10368000A635B5F98C12B5F98E22032B06D8DFE8E2
:1036900003F002313539D4F8B0351944D5F8883201
:1036A00005F522789B6D404612B209B29847D5F8CD
:1036B000883240465B699847013F05F12C05DBD114
:1036C00006F58476B6F5467FD4D1D4F8A835D4F87B
:1036D000AC2501339342C4F8A83508DB94F8A6352D
:1036E000C4F8A875013303F0030384F8A63503B0CA
:1036F000BDE8F08FD4F8B0351A44CFE7D4F8B03530
:10370000C91ACBE7D4F8B035D21AC7E72DE9F04F84
:1037100085B00446FFF7A9F904F1FC0504F522760B
:103720004FF0020800272B6828461B6EADF80C806E
:1037300003A904F10409984785F8257029464846ED
:103740002C3505F0DDF8B542EDD100254FF4847B32
:1037500004F5B46305EB850202EB82021E3212B25D
:1037600000920BFB05470F264FF0010AD7F888227D
:1037700033F81510019307F52278126EADF80C108E
:10378000404603A9904731B2009A40462336FFF7DE
:10379000BCF9B6B287F8ADA24146484605F0B0F88C
:1037A000E12E019B07F12C07E0D10135032DD1D18A
:1037B00005B0BDE8F08F00220260704738B50446BE
:1037C000194800F009FC18480A2100F083FC98B958
:1037D000154800F0D2FC05462068BE2140F6FF7374
:1037E0006943B1FBF3F103681E319B689847206879
:1037F00003682946DB6898470C4D0D482B68002B61
:10380000C8BF03F1FF334FF02001C8BF2B6000F0A9
:1038100093FF38B92B682BB9206803681B69984758
:103820000A232B6038BD00BFE81C00202C1E00209E
:103830000000024070477047704770470438704777
:10384000704710B5102104461DF040FD204610BD04
:10385000A0F10400F5E7000000228260024A026045
:1038600018324260C16070478C4502087047000002
:1038700010B5034B03600446FFF7C3FA204610BDA2
:10388000C045020810B50446FFF7F2FF2046C421E8
:103890001DF01CFD204610BD10B50446FFF728FBA7
:1038A000014B2360204610BDC0450208FFF7AABAAD
:1038B000F02070474FF4A07070472920FEF7FAB946
:1038C0002820FEF7F7B908B5FEF7C8F9CA20FEF7B9
:1038D000F1F9C320FEF7D2F90820FEF7CFF9502006
:1038E000FEF7CCF9CF20FEF7E5F90020FEF7C6F988
:1038F000C120FEF7C3F93020FEF7C0F9ED20FEF736
:10390000D9F96420FEF7BAF90320FEF7B7F91220BF
:10391000FEF7B4F98120FEF7B1F9E820FEF7CAF905
:103920008520FEF7ABF90020FEF7A8F97820FEF716
:10393000A5F9CB20FEF7BEF93920FEF79FF92C2020
:10394000FEF79CF90020FEF799F93420FEF796F96E
:103950000220FEF793F9F720FEF7ACF92020FEF7DE
:103960008DF9EA20FEF7A6F90020FEF787F900207E
:10397000FEF784F9B120FEF79DF90020FEF77EF9ED
:103980001B20FEF77BF9B620FEF794F90A20FEF71C
:1039900075F9A220FEF772F9C020FEF78BF910200E
:1039A000FEF76CF9C120FEF785F91020FEF766F9E5
:1039B000C520FEF77FF94520FEF760F91520FEF7D8
:1039C0005DF9C720FEF776F99020FEF757F936200B
:1039D000FEF770F9C820FEF751F9F220FEF76AF9F8
:1039E0000020FEF74BF9B020FEF764F9C220FEF785
:1039F00045F9B620FEF75EF90A20FEF73FF9A72049
:103A0000FEF73CF92720FEF739F90420FEF736F9D6
:103A10002A20FEF74FF90020FEF730F90020FEF7CC
:103A20002DF90020FEF72AF9EF20FEF727F92B20C9
:103A3000FEF740F90020FEF721F90020FEF71EF9FD
:103A40000120FEF71BF93F20FEF718F9F620FEF7DC
:103A500031F90120FEF712F90020FEF70FF90620D8
:103A6000FEF70CF92C20FEF725F9C820FEF770F9B7
:103A70002620FEF71FF90120FEF700F9E020FEF7EF
:103A800019F90F20FEF7FAF82920FEF7F7F824209D
:103A9000FEF7F4F80C20FEF7F1F80E20FEF7EEF832
:103AA0000920FEF7EBF84E20FEF7E8F87820FEF745
:103AB000E5F83C20FEF7E2F80920FEF7DFF81320D6
:103AC000FEF7DCF80520FEF7D9F81720FEF7D6F848
:103AD0001120FEF7D3F80020FEF7D0F8E120FEF722
:103AE000E9F80020FEF7CAF81620FEF7C7F81B20F9
:103AF000FEF7C4F80420FEF7C1F81120FEF7BEF867
:103B00000720FEF7BBF83120FEF7B8F83320FEF7A8
:103B1000B5F84220FEF7B2F80520FEF7AFF80C200A
:103B2000FEF7ACF80A20FEF7A9F82820FEF7A6F861
:103B30002F20FEF7A3F80F20FEF7A0F81120FEF7C4
:103B4000B9F8C820FEF704F92920FEF7B3F8BDE85C
:103B500008402C20FEF7AEB808B5FEF77FF8032129
:103B6000D320FEF7C3F880B208BD10B5C4B202225C
:103B700003212046FEF728F80A20FEF76DF82046BC
:103B800000220321FEF720F8BDE810400220FEF7D6
:103B900063B838B50446E4B2FEF714F800212046B5
:103BA000FEF72AF8012105462046FEF725F840EAEF
:103BB000052080B238BD10B5C4B240212046FEF7C2
:103BC0001BF8030607D54C212046FEF715F80038F0
:103BD00018BF012010BD01224B212046FDF7F4FF44
:103BE000204600224B21FDF7EFFF0020F2E773B5DE
:103BF0000423C4B20E461546D7210DEB030220461E
:103C0000FEF714F8019B1BBA1A0DC3F30B23328085
:103C100020462B8001224B21FDF7D6FF00224B21AD
:103C20002046FDF7D1FF02B070BD000010B50A4A72
:103C30001378984204460DD0517888420AD00BB1CF
:103C400041B90123D454FDF7BDFF2046BDE8104023
:103C5000FFF78BBF10BD00BF301E002010B5C4B2EF
:103C600009212046FDF7C8FF40F00102D2B22046EC
:103C70000921BDE81040FDF7A7BF10B5C4B2092166
:103C80002046FDF7B9FF092100F0FE022046BDE8FD
:103C90001040FDF799BF38B5C4B20D4620460A2141
:103CA000FDF7AAFF40EA0502D2B220460A21BDE88C
:103CB0003840FDF789BF10B50446FDF784FF204664
:103CC0001F21FFF7E8FF2046BDE81040FFF7C6BF01
:103CD00038B5C4B20D4620460A21FDF78DFF20EA13
:103CE0000502D2B220460A21BDE83840FDF76CBF7C
:103CF00010B50446FFF7C1FF20461F21BDE8104064
:103D0000FFF7E6BF10B5C0B20C460B21FDF774FFFC
:103D1000204010BD1F21FFF7F5BF0A46C0B20B219E
:103D2000FDF752BF1F21FFF7F8BF38B5C4B20D46EB
:103D300020461721FDF760FF20EA0502D2B2204697
:103D40001721BDE83840FDF73FBF70B5C4B2064645
:103D500004212046FDF750FF042100F0FB02054638
:103D60002046FDF731FF3046F021FFF7DEFF05F07A
:103D7000F80220460421FDF727FF49222021204692
:103D8000FDF722FF0220FDF767FF204601222121D7
:103D9000FDF71AFF20469A224121FDF715FF204624
:103DA00001224A21FDF710FF204601224B21FDF799
:103DB0000BFF204600224B21FDF706FF2046012283
:103DC0005621FDF701FF204601225821FDF7FCFE98
:103DD000204601224021FDF7F7FE2046FF220B215D
:103DE000FDF7F2FEBDE870400220FDF735BF000090
:103DF000054BD3F8882042F47002C3F888204FF0B6
:103E000000629A60704700BF00ED00E008B50B4B00
:103E10001A6842F400721A601A6842F480621A60EA
:103E20001A6842F480721A60032000F045FA0020FC
:103E3000FEF71AFAFDF79AFF002008BD003C024089
:103E4000034A044B11681B780B441360704700BF92
:103E5000341E002078000020014B1868704700BF16
:103E6000341E002038B50446FFF7F6FF631C1CBF64
:103E7000054B1B78054618BFE418FFF7EDFF431B01
:103E8000A342FAD338BD00BF7800002038B50446FD
:103E9000002800F09B80056C25B9FDF787FF65645D
:103EA00084F83C50236CDB0600F18E80236C23F4F5
:103EB000885323F0020343F002032364444B5A68FF
:103EC00022F440325A605A6861680A435A60236893
:103ED00021695A6822F480725A605A6842EA0122C3
:103EE0005A605A68A16822F040725A605A680A43C0
:103EF0005A609A68E16822F400629A609A680A43FC
:103F00009A603449A26A8A4252D0996821F070615D
:103F1000996099680A439A609A68E16A22F040526F
:103F20009A609A680A439A609A6822F002029A603C
:103F30009A68217E42EA41029A6094F82020002A81
:103F40003ED05A68616A42F400625A605A6822F4AC
:103F500060425A605A68013942EA41325A60DA6A6C
:103F6000E16922F47002DA62DA6A013942EA015246
:103F7000DA629A6822F400729A609A6894F83010B3
:103F800042EA41229A609A68616922F480629A60EA
:103F90009A68002042EA81229A606064236C23F0D0
:103FA000030343F001032364002384F83C3038BD4D
:103FB0009A6822F070629A609A6822F04052B2E7E2
:103FC0005A6822F40062C9E70120EDE70120EEE71C
:103FD000002301400100000F82B00023019390F8FC
:103FE0003C30012B69D0012380F83C3003689A688B
:103FF000D2070BD59A68D1071AD4036C43F010038B
:104000000364436C43F0010343644CE09A682C4919
:1040100042F001029A602B4A1268B2FBF1F202EB05
:1040200042020192019A002AE4D0019A013AF8E78B
:10403000026C22F4E06222F0010242F48072026417
:104040005A68520541BF026C22F4405242F4805239
:104050000264026C12F480521CBF426C22F0060211
:104060004264002280F83C206FF022021A60164A57
:10407000516811F01F0F15491CD18B4207D001F573
:1040800080718B420CD1526812F01F0F0BD19A68CD
:1040900012F0405F07D19A6842F080429A6002E0D5
:1040A0000B498B4202D0002002B07047526812F0D8
:1040B000100FEBE78B42F6D1E9E70220F4E700BFEF
:1040C00040420F0074000020002301400020014006
:1040D0000022014003689A68520570B504460D46F7
:1040E0000BD59B68DE0508D5036C43F02003036401
:1040F000002380F83C30012070BDFFF7ADFE06467E
:1041000023681A6891070CD56FF012021A60226CAE
:1041100042F4007222649A6812F0405F17D00020C7
:10412000EAE7681CEDD065B923681B6813F0020349
:10413000E6D1226C84F83C3042F004022264032071
:10414000DAE7FFF789FE801BA842EDD8D8E7227E88
:10415000002AE4D1DA6A12F4700F02D09B685A0583
:10416000DDD4236C23F480732364236CDB04D6D466
:10417000236C43F001032364D1E70368D86C7047D4
:10418000F7B50023019390F83C30012B054600F071
:104190008680012380F83C3008682B688E680928E7
:1041A00084B233D904EB4402DF681E3A4FF0070CA7
:1041B0000CFA02FC27EA0C07DF60DF6806FA02F25D
:1041C0003A43DA604968062901EB81022DD8596B20
:1041D000053A1F26964021EA06015963596B04FAF5
:1041E00002F20A435A632F4A93420AD1122837D166
:1041F0002D4B5A6822F400025A605A6842F4800239
:104200005A60002085F83C0003B0F0BD1A6900EB4D
:10421000400C072707FA0CF722EA07021A611A690D
:1042200006FA0CF616431E61CCE70C294FF01F016D
:104230000BD81E6B233A914026EA01011963196BD2
:1042400004FA02F20A431A63CDE7DE6A413A91406A
:1042500026EA0101D962D96A94400C43DC62C2E7C4
:10426000124B984201D01128CBD10F4B5A6822F43F
:1042700080025A605A6842F400025A600B4B98421E
:10428000BFD10B4B0B4A1B68B3FBF2F30A2253431B
:104290000193019B002BB4D0019B013BF8E7022066
:1042A000B2E700BF002001400023014012000010CF
:1042B0007400002040420F000749CA6822F4E062FF
:1042C0000302120403F4E063120C134343F0BF63D0
:1042D00043F40033CB60704700ED00E0164B30B57F
:1042E000DC68C4F30224C4F10703251D042B28BF96
:1042F0000423062D4FF0FF358CBF033C002405FA44
:1043000003F321EA0303A54022EA0502A3400028A3
:1043100043EA0203ACBF00F16040084A4FEA0313CE
:10432000B8BF00F00F00DBB2AABF00F56140135424
:1043300080F8003330BD00BF00ED00E014ED00E078
:10434000002807DB044A4109012300F01F008340D5
:1043500042F82130704700BF00E100E010B504468C
:1043600050B1437903F0FF0213B90271FDF750FD1C
:1043700001236371002010BD0120FCE710B5044645
:1043800020B390F8393003F0FF021BB980F83820D1
:10439000FDF756FD022384F83930236861681A68F6
:1043A00022F440320A431A605A6BA16822F00702D5
:1043B0000A435A631A6CE1686FF30D020A431A64E8
:1043C00000200123E06384F8393010BD0120FCE7B0
:1043D00070477047036870B55E681D68F207044651
:1043E00014D5E90512D51A6822F480721A60C26BDE
:1043F00042F00102C26301229A60042380F839303E
:10440000002380F83830436903B19847B20616D5C7
:10441000AB0414D523681A6822F400521A602022D3
:104420009A60E36B43F00203E363042384F83930BA
:10443000002384F8383063690BB120469847300771
:1044400016D5290514D523681A6822F400621A606B
:1044500008229A60E36B43F00403E363042384F8C7
:104460003930002384F8383063690BB1204698470F
:1044700072070BD56B0509D523681A6822F4806290
:104480001A6004229A602046FFF7A2FFB00714D5F5
:10449000A90512D523681A6822F400721A60022254
:1044A0009A60E36BE363012384F83930002384F8D6
:1044B000383023690BB120469847F20613D5EB0438
:1044C00011D523681A6822F480521A6010229A606B
:1044D000E36BE363012384F83930002384F8383038
:1044E0002046FFF776FF70BDF0B590F83820012A1E
:1044F00003464FF002002BD0012283F8382083F8C6
:10450000390003EB0112D2E90740556A174F44EA1C
:104510000040093C012C9CBF05F07F4210434FEA4C
:1045200001161A6888BF40EA056091B9516A39409E
:1045300001435162012C9969916103D8596A21F0B4
:104540007F4191620122002083F8392083F83800EE
:10455000F0BDD16939400143D1619919012C8969B4
:1045600011619CBF25F07F451562EBE7F0FFFC0071
:104570002DE9F74FDFF8BC916C4A00230D68012448
:104580009C4004EA0506AC4340F0B7804D68032721
:1045900005F003044FEA430807FA08FC671E012FE1
:1045A0006FEA0C0C34D8876807EA0C0ECF6807FA5C
:1045B00008F747EA0E078760476827EA060EC5F343
:1045C00000179F4047EA0E074760C76807EA0C0ECE
:1045D0008F6807FA08F747EA0E07022CC76019D15F
:1045E0004FEAD30A00EB8A0A03F0070BDAF82070CF
:1045F0004FEA8B0B4FF00F0E0EFA0BFE27EA0E0E52
:104600000F6907FA0BF747EA0E07CAF8207001E0B6
:10461000032CDAD1076804FA08F407EA0C073C43D4
:1046200015F4403F046068D000240194D9F8444058
:1046300044F48044C9F84440D9F8444023F00307C7
:1046400007F1804704F4804407F59C37019403F098
:10465000030C019CD7F808E04FEA8C0C0F2404FAF5
:104660000CF42EEA040E324CA0424DD004F58064C6
:10467000A0424BD004F58064A04249D004F5806488
:10468000A04247D004F58064A04245D004F5806480
:10469000A04243D004F58064A04241D004F5806478
:1046A000A0423FD004F58064A0423DD004F5806470
:1046B000A04214BF0A24092404FA0CF444EA0E04AC
:1046C000BC609468F74315F4801F0CBF3C40344332
:1046D0009460D46815F4001F0CBF3C403443D46090
:1046E000546815F4003F0CBF3C40344354601468D8
:1046F000ED0354BF3C40344314600133102B7FF46E
:104700003DAF03B0BDE8F08F0024D5E70124D3E727
:104710000224D1E70324CFE70424CDE70524CBE727
:104720000624C9E70724C7E70824C5E7003C014081
:1047300000000240003802400369194214BF012002
:10474000002070470AB1816170470904FBE74369A3
:1047500001EA030221EA030141EA02418161704753
:1047600001684B6913F480634FF0000210D06FF4BE
:1047700080634B612023026380F83D3080F83E2047
:10478000036C80F83C2043F004030364012070476D
:10479000184670472DE9F84606460F4691461D46D5
:1047A0004FEA114A3368BAF1010F0CBF5C699C698A
:1047B00027EA0404A4B2B4FA84F46409A14501D040
:1047C000002025E06A1CEED0FFF746FB089BC01ACC
:1047D000A84201D8002DE5D13368BAF1010F0CBF12
:1047E0005B699B6927EA03039BB2B3FA83F35B0916
:1047F0009945D7D100232022336386F83D2086F8DF
:104800003E30326C86F83C3042F0200232640120A7
:10481000BDE8F8862DE9F04104460F461646984655
:104820002568686927EA000080B2C0B16B695A0543
:1048300017D52B6843F400732B606FF480636B61B2
:1048400020220023236384F83D2084F83E30236C2B
:1048500043F004032364002384F83C300120BDE8C6
:10486000F081731CDDD0FFF7F7FAA0EB0800B0422F
:1048700001D8002ED4D123685A6927EA020292B2E5
:10488000002ACDD000232022236384F83D2084F821
:104890003E30236C1343DDE770B504460D461646E3
:1048A00023685B691B0601D500201EE02046FFF748
:1048B00057FFC8B96A1CF3D0FFF7CEFA801BA84295
:1048C00001D8002DECD123685B6913F08003E7D198
:1048D0002022236384F83D2084F83E30226C84F843
:1048E0003C3042F020022264012070BD2DE9F043EB
:1048F0001546026885B0DDE90C789946136843F4E3
:10490000807313600E463B46CDF8008000224FF0C6
:1049100001110446FFF73EFF236838B11B68DB0531
:1049200002D54FF400732364032620E006F0FE0650
:104930001E611A4943463A462046FFF76BFFA8B965
:10494000236803905A6903929B6903934246394650
:104950002046039BFFF7A0FF064660B1236C042BA3
:1049600001BF2268136843F40073136001263046C8
:1049700005B0BDE8F083B9F1010F236802D1EDB2B3
:104980001D61F4E72A0A1A61394642462046FFF7BC
:1049900083FF0028E2D12368F1E700BF0200010095
:1049A0002DE9FF479A46036815461A6842F480626B
:1049B0001A601A68DDE90C7842F480721A600E46BB
:1049C0003B46CDF8008000224FF001110446FFF76E
:1049D000E1FE236838B11B68DB0544BF4FF4007368
:1049E0002364032021E05FFA86F906F0FE061E61CB
:1049F0002B4943463A462046FFF70CFFA0B92368EF
:104A000003905A6903929B690393424639462046B4
:104A1000039BFFF741FF58B1236C042B01BF2268B1
:104A2000136843F400731360012004B0BDE8F087FD
:104A3000BAF1010F23681AD1EDB242461D61394621
:104A40002046FFF729FF02460028E5D121680B68C0
:104A500043F480730B602046CDF800803B464FF056
:104A60000111FFF797FE226860B11368B4E72A0AC4
:104A70001A61394642462046FFF70EFF0028CBD187
:104A80002368D9E749F001031361054943463A46D3
:104A90002046FFF7BFFE003818BF0120C5E700BF62
:104AA0000200010070B504460D46164623685B6996
:104AB0005B0701D500201EE02046FFF751FEC8B974
:104AC0006A1CF3D0FFF7C8F9801BA84201D8002D5B
:104AD000ECD123685B6913F00403E7D12022236340
:104AE00084F83D2084F83E30226C84F83C3042F05B
:104AF00020022264012070BD70B504460D461646A2
:104B000021684B6913F0400301D0002011E04A698D
:104B1000D2060FD56FF010024A612022236384F879
:104B20003D2084F83E30236C2364002384F83C301D
:104B3000012070BDFFF790F9801BA84201D8002D1D
:104B4000DED123685B6913F04003D9D120222363AF
:104B500084F83D2084F83E30236C1343E4E70000E2
:104B600070B5044608B9012070BD90F83D3003F0DF
:104B7000FF021BB980F83C20FDF784F9242384F858
:104B80003D3023681A6822F001021A601A6842F464
:104B900000421A601A6822F400421A6000F08AFE8D
:104BA0003F4B65689D4294BF3E4B3F4B98428CBF44
:104BB00000230123002BD6D12268394E51683B4B8C
:104BC000B0FBF3F321F03F011943B542516088BFB8
:104BD0004FF49676116A88BF734321F03F0184BF7A
:104BE0004FF47A76B3FBF6F301330B431362D169CA
:104BF000431E2B4821F44F41854221F0FF0132D85A
:104C00006D0040F6FC70B3FBF5F30133034242D074
:104C1000C3F30B031943D161D4E90730116803438F
:104C200021F0C0010B4313609168D4E9030321F420
:104C30000341034321F0FF010B439360D4E90530A6
:104C4000D168034321F0FF010B43D360136843F0A5
:104C50000103136000202023206484F83D3020638A
:104C600084F83E0080E7A06850B905EB4505B3FB2A
:104C7000F5F30133C3F30B037BB143F40043C9E7FE
:104C800019206843B3FBF0F30133C3F30B0323B1E3
:104C900043F44043BEE70423BCE70123BAE700BF67
:104CA000A08601007F841E00FF083D0040420F00E7
:104CB0002DE9F743044699460C9E0F469046FFF7B0
:104CC000CBF894F83D30202B054603D0022003B0EA
:104CD000BDE8F08300903C49192301222046FFF7EC
:104CE00059FD0028F2D194F83C30012BEED0206819
:104CF000012384F83C300368D9075EBF036843F0A2
:104D000001030360036823F400630360212384F834
:104D10003D30402384F83E30002323640A9B6362C5
:104D2000BDF82C306385638D2385284BE3624246B2
:104D3000CDE900654B4639462046FFF7D7FD0028F0
:104D40002AD00120C3E7FFF7A7FD40B1236C042B55
:104D500001BF2268136843F400731360F1E7636ACC
:104D600027681A4612F8011B39616262628D218D33
:104D7000013A92B262857A69481E80B25207208554
:104D80000AD548B15A783A6102336362638D013BB8
:104D900002399BB221856385238D2A463146204600
:104DA000002BD0D1FFF77EFE0028CFD122681368F8
:104DB00043F400731360202384F83D3084F83C00F2
:104DC00084F83E0083E700BF020010000000FFFFF0
:104DD0002DE9F043044687B09946109F0D46904652
:104DE000FFF73AF894F83D30202B064604D0022510
:104DF000284607B0BDE8F08300907A4919230122C4
:104E00002046FFF7C7FC0028F1D194F83C30012B75
:104E1000EDD02068012384F83C300368DB075EBFD7
:104E2000036843F001030360036823F40063036035
:104E3000222384F83D30402384F83E30002323644D
:104E40000E9B6362BDF83C306385638D2385664BA2
:104E5000E3622946CDE900764B4642462046FFF7FD
:104E60009FFD054608B10125C2E7228D2368B2B92E
:104E700002905A6902929A690292029A1A6842F45E
:104E800000721A60DFF86481238D002B2CD1202260
:104E900084F83D2084F83C3084F83E30A8E7012AAD
:104EA0000AD11A6822F480621A6003905A69039248
:104EB0009A690392039AE1E7022A0ED11A6822F452
:104EC00080621A601A6842F400621A6004905A699B
:104ED00004929B690493049BD4E705905A69059258
:104EE0009B690593059BCDE7032B56D8012B15D164
:104EF000324639462046FFF7FFFD0028B3D123682C
:104F00001A69636A1A70636A01336362238D013B15
:104F10002385638D013B9BB26385B5E7022B009629
:104F20003B464FF000024146204619D1FFF732FCC4
:104F3000002898D123681A6842F400721A601A692E
:104F4000636A1A70626A531C6362238D013B238576
:104F5000638D013B9BB2638523681B695370D2E765
:104F6000FFF718FC024600287FF47DAF236819681C
:104F700021F4806119601969636A1970636A0133E9
:104F80006362238D013B2385638D013B9BB2638567
:104F9000414600963B462046C8E732463946204601
:104FA000FFF7AAFD00287FF45EAF23681A69636AE1
:104FB0001A70628D616A013A92B24B1C6285226856
:104FC0006362238D5069013B9BB2400723857FF5C7
:104FD0005BAF032B02BF136823F480631360136974
:104FE0004B7090E7020010000000FFFF040001007A
:104FF00010B590F83D30202BDCB216D1242380F878
:105000003D3003681A6822F001021A605A6A22F0E1
:1050100010025A625A6A114359621A6842F0010238
:105020001A6080F83D40002010BD0220FCE730B53A
:1050300090F83D30202BDCB216D10268242380F892
:105040003D30136823F001031360556A4FF6F07387
:105050002B400B439BB25362136843F00103136070
:1050600080F83D40002030BD0220FCE70068D201FE
:1050700084328318F0B5C7685D684C680E6805F423
:1050800070455D60C56806F1010CC5F30B45C7F3BB
:105090000B472744654445EA07455D60C768CD680E
:1050A000C7F30A072F449D6805F470459D60D0F84A
:1050B0000CC08D68CCF30A0C0135654445EA074500
:1050C0009D601D69D1F810C08F6925F007051D612D
:1050D000C3F810C091F8305045EA076591F8317077
:1050E00045EA072591F8327045EA07459D615D69FB
:1050F00025F0FF055D614D695D61DD6925F4E065C1
:1051000025F00705DD61D1E907573D43DD61BCF1BD
:10511000070F4D6A9D629CBF0D4D15F80C70DD6A3E
:1051200005F0E025DD6288BF01278D6AC96AA41BEE
:105130007C437D43033444EA0544DC621C6B6FF31B
:105140000A041C631963835843F001038350F0BDC4
:105150000446020838B5044600284ED090F8A13025
:1051600003F0FF021BB980F8A020FCF7E7FE022342
:1051700084F8A13023689A6922F070429A61D4E9D8
:1051800001200243E06899690243206902430A430F
:105190009A61D4E9051242EA01429A60D4E9071201
:1051A00042EA0142DA60D4E9091242EA01421A6194
:1051B000D4E90B1242EA01425A61DA6A94F83500E6
:1051C00094F8361002F07F42DA62DD6A94F83420F7
:1051D0002A4342EA002242EA0142DA625A6B42F072
:1051E00006025A639A6942F001029A610020012383
:1051F000C4F8A40084F8A13038BD0120FCE7704752
:105200007047036870B59E6B5D6B7207044614D5DA
:10521000690712D55A6B22F004025A630422DA633A
:10522000D0F8A43043F00103C0F8A430002380F884
:10523000A12080F8A030FFF7E2FFB20716D5AB0738
:1052400014D523685A6B22F002025A630222DA63F1
:10525000D4F8A4301343C4F8A430042384F8A13054
:10526000002384F8A0302046FFF7C9FFF00710D5CF
:10527000E9070ED523685A6B22F001025A63012216
:10528000DA63002384F8A12084F8A0302046FCF7DC
:10529000C1F9320711D52B070FD523685A6B22F0BD
:1052A00008025A630822DA63012384F8A13000233C
:1052B00084F8A0302046FFF7A3FF70BD2DE9F04130
:1052C00090F8A030012B06460F4694464FF002009E
:1052D0001FD04FF0010886F8A08086F8A100342482
:1052E0000D4604FB02640FCD38340FC40FCD0FC43C
:1052F0000FCD0FC42B682360304662463946FFF756
:10530000B5FE33680020C3F8248086F8A18086F8B3
:10531000A000BDE8F081000090F8A020012A03461B
:105320004FF0020012D01A6883F8A100506B20F0F1
:105330000100506306480164516B41F00101516363
:105340000020012283F8A12083F8A000704700BF4D
:105350000068014037B500230193184B184D1A6CB3
:1053600042F080521A641B6C03F080530193019B3E
:10537000144B01221A64FEF76FFD04466B68DA03D2
:105380000BD5104B0E4D01225A64FEF765FD044605
:105390006B689B030AD5002006E0FEF75DFD001B4D
:1053A000B0F57A7FEAD9032003B030BDFEF754FD93
:1053B000001BB0F57A7FEBD9F5E700BF003802405B
:1053C0000070004000000E422DE9F341044640B356
:1053D0000368DE0710D423689D075BD42368190790
:1053E00000F19D8023685A0700F1BD80A369002B5E
:1053F00040F0248100202CE08D4B9A6802F00C02D2
:10540000042A07D09A6802F00C02082A0BD15B68C4
:10541000590208D5864B1B689A03DCD56368002BBC
:10542000D9D1012015E06368814DB3F5803F13D1D8
:105430002B6843F480332B60FEF70EFD7C4E05464F
:1054400033689B03C7D4FEF707FD401B6428F7D9D8
:10545000032002B0BDE8F081B3F5A02F04D12B6882
:1054600043F480232B60E3E72A6822F480322A6029
:105470002A6822F480222A60002BDDD1FEF7ECFCA2
:1054800006462B689F03A6D5FEF7E6FC801B642822
:10549000F7D9DDE7664B9A6812F00C0F07D09A68CF
:1054A00002F00C02082A11D15B685D020ED4604A3A
:1054B0001368990702D5E368012BB2D113682169FB
:1054C00023F0F80343EAC103136087E7E268594B0E
:1054D000B2B101221A60FEF7BFFC554D06462B689B
:1054E0009B0707D52B68226923F0F80343EAC20320
:1054F0002B6073E7FEF7B0FC801B0228EFD9A7E70B
:105500001A60FEF7A9FC4A4E054633689F077FF5EF
:1055100065AFFEF7A1FC401B0228F6D998E7626947
:10552000444B82B10122C3F8802EFEF795FC404E19
:105530000546736F9B073FF555AFFEF78DFC401B8B
:105540000228F6D984E7C3F8802EFEF785FC384E92
:105550000546736F9F077FF545AFFEF77DFC401B47
:105560000228F6D974E7324B1A6C12F0805228D117
:1055700001921A6C42F080521A641B6C03F0805343
:105580000193019B01272C4D2B68D8051BD5A368DF
:10559000274D012B27D12B6F43F001032B67FEF71B
:1055A0005BFC234E054641F28838336F9A0739D5A4
:1055B000002F3FF41BAF1E4A136C23F0805313647B
:1055C00014E70027DFE72B6843F480732B60FEF7B6
:1055D00043FC06462B68D905D9D4FEF73DFC801B59
:1055E0000228F7D934E7052B04D12B6F43F00403CD
:1055F0002B67D0E72A6F22F001022A672A6F22F078
:1056000004022A67002BCAD1FEF726FC41F2883833
:1056100006462B6F9B07CBD5FEF71EFC801B404533
:10562000F7D915E7FEF718FC401B4045BDD90FE739
:10563000003802400000474200700040374DAA6821
:1056400002F00C02082A3ED0022B354B4FF000022C
:105650001A662BD1FEF700FC06462B6899011FD471
:10566000D4E907321343626A43EA8213E26A43EAE7
:105670000263A26A5208013A43EA02436B60284B74
:10568000264D01221A66FEF7E7FB04462B689A01B5
:105690003FF5B0AEFEF7E0FB001B0228F6D9D7E6D7
:1056A000FEF7DAFB801B0228D7D9D1E6FEF7D4FB40
:1056B00004462B689B017FF59DAEFEF7CDFB001BDA
:1056C0000228F6D9C4E6012B3FF4ABAE6B68E26961
:1056D00003F4800191427FF4A4AE216A03F03F02FB
:1056E0008A427FF49EAE616A47F6C0721A40B2EBFE
:1056F000811F7FF496AEA26A520803F44031013A4A
:10570000B1EB024F7FF48DAEE26A03F07063B3EB4E
:10571000026F14BF012000209BE600BF003802404A
:1057200000004742134908B58B6803F00C03042BB3
:105730001CD0082B1CD14A684B68496813F48003BD
:1057400014BF0D480D48C1F3881118BF002302F0A3
:105750003F02A1FB0001FAF7EBFD064B5B68C3F3C8
:10576000014301335B00B0FBF3F008BD0248FCE7E6
:105770000248FAE70038024000127A000024F400E0
:105780002DE9F0410D46044610B90120BDE8F08135
:10579000434B1A6802F00F028A4228D321688F0710
:1057A0002DD4C80740D43E4B1A6802F00F02AA421B
:1057B00065D8226851076BD4130707D5394A216988
:1057C000936823F4604343EAC1039360FFF7AAFFA1
:1057D000344B354A9B68C3F30313D35CD840334B37
:1057E0001860334B1868FCF73FFD0020CEE7CAB2C3
:1057F0001A701B6803F00F038B42C6D1CEE7294B0A
:1058000011F0040F1EBF9A6842F4E0529A600E072E
:1058100042BF9A6842F460429A609A68A06822F097
:10582000F00202439A60BCE762681E4B012A1CD159
:105830001B6813F4003FA8D01A4EB36823F003038B
:105840001343B360FEF708FB41F288380746B3689C
:10585000626803F00C03B3EB820FA4D0FEF7FCFAEE
:10586000C01B4045F3D9032090E7911E01291B6816
:1058700002D813F0007FDEE713F0020FDBE7EAB295
:105880001A701B6803F00F03AB427FF47EAF90E702
:105890000449E0688B6823F4E05303438B608BE793
:1058A000003C024000380240F44502087400002029
:1058B0007C000020044B054A9B68C3F38223D35C21
:1058C000034A1068D840704700380240EC4502088F
:1058D000740000200F2303600B4B9A6802F0030250
:1058E00042609A6802F0F00282609A6802F4E05224
:1058F000C2609B68DB0803F4E0530361034B1B6841
:1059000003F00F030B60704700380240003C024078
:10591000036813F0430FF7B5044640F0888023680E
:1059200013F00C0F45D08C4B8C4D00221A67FEF7FC
:1059300093FA06462B68990000F1CB8021684A074C
:1059400015D5D4E90403D5F888201B0602F0E042FF
:1059500043EA80131343C5F88830D5F88C30226AA7
:1059600023F4F853013A43EA0223C5F88C300B07BD
:1059700014D57A4AA369D2F8881020691B0701F070
:10598000706143EA80130B43C2F88830D2F88C3040
:10599000616A23F440330B43C2F88C306E4B6F4E78
:1059A00001221A67FEF758FA054633689F0040F156
:1059B00097802368980634D500230193674B684D80
:1059C0001A6C42F080521A641B6C03F080530193EE
:1059D000019B2B6843F480732B60FEF73DFA06466B
:1059E0002B68D80540F183805C4DA26A2B6F13F4BD
:1059F000407340F08380A36A03F44072B2F5407FA5
:105A0000564A40F09E80916823F0704021F4F811CE
:105A100020F4407001439160116FC3F30B030B43FB
:105A200013672368DB0600F1908000204FE04A4BAB
:105A30004A4E00229A66FEF70FFA054633681F01A8
:105A40003FD42168C80741BFD4E901231B0743EABB
:105A50008213C6F884308A0715D5404AE368D2F825
:105A6000840065681B0600F0E04043EA85130343A9
:105A7000C2F88430D2F88C00E36920F01F00013BAB
:105A80000343C2F88C304B060AD5E36862681B06F4
:105A900043EA8213A26843EA0273304AC2F88430B0
:105AA0002D4B2E4E01229A66FEF7D6F90546336835
:105AB0001F013FF534AFFEF7CFF9401B0228F6D99E
:105AC00004E0FEF7C9F9401B0228B7D9032003B050
:105AD000F0BDFEF7C1F9801B02287FF62BAFF5E77A
