:020000040800F2
:10000000000003205D060008D9230008DB23000858
:10001000DD230008DF230008E123000800000000C2
:100020000000000000000000000000004180000807
:10003000E323000800000000D18000086579000873
:10004000AD060008AD060008AD060008AD060008C4
:10005000AD060008AD060008AD060008AD060008B4
:10006000AD060008AD060008AD060008AD060008A4
:10007000AD060008AD060008AD060008AD06000894
:10008000AD060008AD060008AD060008AD06000884
:10009000AD060008AD060008AD060008AD06000874
:1000A000AD060008AD060008AD060008AD06000864
:1000B000AD060008AD060008AD060008AD06000854
:1000C000AD060008AD060008AD060008AD06000844
:1000D000AD060008AD060008AD060008AD06000834
:1000E000AD060008AD060008AD060008AD06000824
:1000F000AD060008AD060008AD060008AD06000814
:10010000AD060008AD060008AD060008AD06000803
:10011000AD060008AD060008E5230008AD0600089E
:10012000AD060008AD060008AD060008AD060008E3
:10013000AD060008AD060008AD060008AD060008D3
:10014000AD060008AD060008AD060008AD060008C3
:10015000AD060008AD060008AD060008AD060008B3
:10016000AD060008AD060008AD060008AD060008A3
:10017000AD060008AD060008AD060008000000004E
:10018000AD060008AD060008AD060008AD06000883
:10019000AD060008AD060008AD060008AD06000873
:0C01A000F1230008AD060008FD23000854
:1001B00010B5054C237833B9044B13B10448AFF3A1
:1001C00000800123237010BD800300200000000088
:1001D000F043020808B5034B1BB103490348AFF3D2
:1001E000008008BD0000000084030020F0430208E6
:1001F00001F0FF01102A2BDB10F0070F08D010F8D8
:10020000013B013A8B422DD010F0070F42B3F6D1DB
:10021000F0B441EA012141EA014122F007047FF0F4
:1002200000070023F0E80256083C85EA010586EA4B
:10023000010685FA47F5A3FA87F586FA47F6A5FA87
:1002400087F68EB9EED1F0BC01F0FF0102F0070293
:1002500032B110F8013B013A83EA010313B1F8D13E
:100260000020704701387047002D06BF354603381F
:10027000073815F0010F07D1013015F4807F02BF58
:10028000013015F4C03F0130F0BC0138704700BFA9
:100290007BB972B90029BEBF00204FF0004106E0D3
:1002A00008BF00281CBF6FF000414FF0FF3000F086
:1002B000D3B9ADF1080C6DE904CE002909DB002BA0
:1002C0001ADB00F04DF8DDF804E0DDE9022304B0AC
:1002D0007047404261EB4101002B1BDB00F040F80E
:1002E000DDF804E0DDE9022304B0404261EB4101A6
:1002F000524263EB43037047524263EB430300F007
:100300002FF8DDF804E0DDE9022304B0404261EBA0
:1003100041017047524263EB430300F021F8DDF8DE
:1003200004E0DDE9022304B0524263EB430370476B
:1003300053B94AB9002908BF00281CBF4FF0FF314C
:100340004FF0FF3000F088B9ADF1080C6DE904CE34
:1003500000F006F8DDF804E0DDE9022304B07047A0
:100360002DE9F047089D8E4604468846002B4AD169
:100370008A42174662D9B2FA82F64EB1C6F120031C
:1003800001FA06F820FA03F3B74043EA0808B4403C
:100390004FEA174E1FFA87FCB8FBFEF1230C0EFB49
:1003A000118843EA084301FB0CF29A4209D9FB1871
:1003B00001F1FF3080F0EA809A4240F2E780023992
:1003C0003B449A1AA3B2B2FBFEF00EFB102243EAA2
:1003D000024300FB0CFC9C4509D9FB1800F1FF32DD
:1003E00080F0D6809C4540F2D3803B44023840EAFE
:1003F0000140A3EB0C0300211DB1F3400022C5E92D
:100400000032BDE8F0878B4205D90DB1C5E9000186
:1004100000210846F5E7B3FA83F1002946D1734578
:1004200002D3824200F20581841A6EEB030201209E
:100430009046002DE5D0C5E90048E2E7002A00F02B
:100440009080B2FA82F6002E40F0A4808A1A030C43
:100450004FEA174E80B2BCB20121B2FBFEFC0EFB8C
:100460001C2243EA024304FB0CF29A4207D9FB1810
:100470000CF1FF3802D29A4200F2E080C4469B1A87
:10048000B3FBFEF20EFB123340EA034302FB04F41B
:100490009C4207D9FB1802F1FF3002D29C4200F2C5
:1004A000CA8002461B1B42EA0C40A5E7C1F12006A8
:1004B0008B4022FA06F71F430EFA01F420FA06F3E6
:1004C0002EFA06FE4FEA1749234300FA01F81FFAF5
:1004D00087FCBEFBF9F01C0C09FB10EE44EA0E444D
:1004E00000FB0CFEA64502FA01F209D93C1900F105
:1004F000FF3A80F09C80A64540F2998002383C4447
:10050000A4EB0E041FFA83FEB4FBF9F309FB1344BA
:100510004EEA044403FB0CFCA44508D93C1903F142
:10052000FF3E80F08280A4457FD9023B3C4443EAF1
:100530000040A4EB0C04A0FB02EC64457346E146CA
:1005400062D35FD05DB1B8EB030264EB090404FA37
:1005500006F622FA01F31E43CC40C5E900640021EF
:100560004FE7B1FBF2FC010C41EA0E4180B240EAD8
:1005700001423B4638463C46B846BE462026B1FBC3
:10058000F7F1A2EB080241EA0C4166E7014618E7E1
:1005900010462CE7C6F120022EFA02F3B740B14014
:1005A00020FA02F24FEA174E0A43B3FBFEF8BCB240
:1005B0000EFB1833110C41EA034108FB04F9B0406B
:1005C00089454FEA104380B23ED9791808F1FF3CC3
:1005D00001D289451FD8A1EB0901B1FBFEF909FB46
:1005E00004F80EFB191192B242EA0142424529D2A7
:1005F000BA1809F1FF31C4D24245C2D2A9F10201B1
:100600003A44BEE7F0459DD2BEEB02036CEB070C0B
:100610000138E14696E7A7EB09094944A8F1020C25
:10062000B1FBFEF909FB04F8DBE773467FE75046B0
:1006300066E70846FDE63B44023A33E7ACF1020CBC
:100640003B441CE749469CE7A1EB0901C446B1FBCA
:10065000FEF909FB04F8C4E7704700BFDFF834D0A7
:10066000002103E00C4B5B58435004310B480C4B0A
:1006700042189A42F6D30B4A02E0002342F8043BA8
:10068000094B9A42F9D304F08FFA23F043F901F0B1
:1006900061F8704700000320C8FB0A080000002032
:1006A0006401002080030020F03D0120FEE7704738
:1006B00008B500F0B9FDBDE8084000F03DBD00F010
:1006C000B5BD704710B50421044621F037FF204620
:1006D00010BD000038B50C4B0C4C18800C4B822020
:1006E00019806368984740F6110398420AD1094D72
:1006F00023682C60822098472B688220DB6898470B
:10070000002038BD0120FCE7A60300204C0000209B
:10071000A4030020A80300204FF4A071F020FFF7ED
:10072000D9BF0000F7B5394D2B6804461B698220FC
:100730009847208000284ED02B680DF106025B6997
:1007400001A982209847324B1B78002B4BD0BDF873
:10075000062040F674639A423FD9ADF80630BDF8E2
:1007600006209B1A9BB20A2B42D90B22B3FBF2F351
:10077000284A1288934201D9013A93B2BDF8042065
:10078000254840F6B8318A4234D8C2F571620E323B
:10079000016892B20F25B2FBF5F2204D2D88AA42D6
:1007A00084BF05F1FF35AAB28A4215468EB22AD916
:1007B000921B91B21A4E3768BB42BAB28CBF9A1ADA
:1007C000D21A92B211440529C4BF05603360036890
:1007D00063803368A38003B0F0BDB32A9CBFB4220A
:1007E000ADF80620BBE7BDF80630A3F5B473B9E752
:1007F0000023C3E7C2F56D62083292B20E2A016887
:10080000C8D800252A46891A89B2D3E7A803002050
:10081000CC1F0020A4030020A0030020A60300207A
:100820009C03002037B568460D461446FFF77AFF53
:10083000BDF8000030B1BDF802302B60BDF80430C7
:100840002360012003B030BD032821D8DFE800F089
:10085000020B12190F4B1A68B2FA82F252090421E4
:100860000D4804F04BBE0B4B5A68B2FA82F25209A3
:100870000821F5E7074B9A68B2FA82F25209102173
:10088000EEE7044BDA68B2FA82F252092021E7E778
:10089000704700BFAC03002000100240032821D89D
:1008A000DFE800F0020B12190F4B1A68003A18BF6C
:1008B000012204210D4804F021BE0B4B5A68003A76
:1008C00018BF01220821F5E7074B9A68003A18BFC4
:1008D00001221021EEE7044BDA68003A18BF01222A
:1008E0002021E7E7704700BFAC0300200010024062
:1008F00003280DD8DFE800F00206080A04210548A5
:1009000004F001BE0821FAE71021F8E72021F6E7FC
:10091000704700BF0010024008B5032811D8DFE877
:1009200000F0020A0C0E0421074804F0E1FD431E0A
:100930005842584108BD0821F6E71021F4E720216C
:10094000F2E70020F3E700BF0010024070B5084D49
:1009500000240126E0B2FFF7DFFF18B12B68012B5E
:1009600018BF2E600134052C05F10405F2D170BDCD
:10097000AC030020012380F8781080F879307047AC
:100980007047002070470000034B4164003918BFD6
:1009900001211970704700BFAF300120704700205F
:1009A0007047836B0BB10846184770474FF6FF70CE
:1009B0007047406803689B691847704770477047E5
:1009C0007047704710B5044600F046FD23680349A0
:1009D000D3F890302046BDE810401847000000D002
:1009E00008B503680446D3F8843098472368204646
:1009F000DB6F984700F0ECF8236820465B6F984760
:100A0000292001F081F900F0E3F8236820465B6FAC
:100A10009847F8E710B504460AF00AF9236820461B
:100A2000D3F8BC30BDE81040184700F0F9BC00F026
:100A3000FDBC00F02FBD00F0CFBC00F03FBD00F0CA
:100A400047BD00F0D3BC09F021BB10B5842104469A
:100A500021F074FD204610BD10B590F8341090F8C8
:100A600078400C4B8C421A7809D03AB90A4A0B49A3
:100A70001488088810800C8001221A7010BD002A8A
:100A8000FCD0054A05491488088810800C80002293
:100A9000F3E700BFA8300120A4300120A6300120D8
:100AA00070B50D46194635B9094B0A4A0A4840F255
:100AB000FF2122F07FFCC0E90F52084B003A18BF1B
:100AC00001221A700368BDE87040D3F890301847CF
:100AD00068440208A0440208EE440208AE30012037
:100AE00008B5094B1B888B4203D8084B1B889342DF
:100AF00005D9074B074A0848A32122F05BFC074BA6
:100B00001980074B1A8008BDA4300120A6300120AF
:100B10003345020896450208EE440208AA30012037
:100B2000AC300120034690F87A0018B15868036889
:100B30001B68184770470000012108B500220846CD
:100B400006F09AFF0A4B186028B90A4B0A4A282176
:100B50000A4822F02FFC00220421012007F02BF884
:100B6000074B186018B9074B034A2C21F0E708BD62
:100B7000C0030020D9450208224602085146020857
:100B8000BC0300209C460208024B4FF0FF3118685E
:100B900006F0BCBFC0030020014B186806F0E2BF9E
:100BA000C0030020024B0021186806F0AFBF00BF51
:100BB000C0030020FFF7F0BF03480449006800238A
:100BC0001A4607F033B800BFBC0300200400002021
:100BD00013B5084C00231A4601A9206807F057F8FE
:100BE00020684FF0FF33002201A907F050F802B04F
:100BF00010BD00BFBC03002003685B6C18470120D8
:100C0000704703689B6A1847FEE740F2EF30704771
:100C1000054B0360054B4FF08062C3F88820BFF39B
:100C20004F8FBFF36F8F70479853020800E100E0C9
:100C300010B504464FF45A61FFF7EAFF204621F051
:100C40007DFC204610BD000082B0002301930E4BB6
:100C50001A6B42F400021A631A6B02F4000201924A
:100C6000019A1A6942F400021A611A6922F4000218
:100C70001A61064B064A1A61064A5A61064B4FF042
:100C800080629A6002B0704700380240B8210020AC
:100C9000E90E0008090C000800E100E008B50A2888
:100CA00009D8DFE800F006100E0808080810101038
:100CB0001000022008BD054B054A0648902122F08D
:100CC00079FB0020F6E70120F4E700BFDE460208CA
:100CD000F94602084447020838B50C46887FFFF7FA
:100CE000DDFFA58AE28A164B2169586342EA054274
:100CF0005A64628BD963521B1A642568082D0ED181
:100D00009A611A615862207F0E4A42EA0062DA61F3
:100D1000E2681A620C4A5961D9601A6038BD002233
:100D2000D8611A61E1680A0A480902F4784200F4BD
:100D3000FC600243C1F3C4010A439A63034AECE72F
:100D400000B002400900010001230200012303005A
:100D500008B50B280BD8DFE800F00612100A0A0AC3
:100D60000A0808080808022008BD0520FCE7054B12
:100D7000054A06486F2122F01DFB0020F4E7012000
:100D8000F2E700BFDE4602088D470208444702082A
:100D90002DE9F04191F81D800C464046FFF7D8FF41
:100DA000A77F05463846FFF7D3FF06463846FFF7CC
:100DB00075FFA18A628B444B521A1A649A61228B86
:100DC000521A1A61E28A586342EA01425A6421695E
:100DD0006268D963DA602068802828D0227F0FD823
:100DE000202867D0402865D004281AD0364B45EA21
:100DF000026545F40035B845DD6161D0334A44E011
:100E0000B0F5807F04D0B0F5007FEFD1304800E02E
:100E1000304840EA0262DA61E2681A625E62596151
:100E200032E045EA026242F40032DA61F6E7A06895
:100E3000021DDA62227F45EA026545F40035DD6174
:100E40005E625961017841B1012921D0224B234AC8
:100E500023484FF48D7122F0ADFADA69418822F40B
:100E60007F42013922F0100242EA0122DA610121B7
:100E7000154BDA6942F02002DA61DA699206FCD495
:100E800010229A600029B9D0164A1A60BDE8F08194
:100E9000B2F1FF01DA69408822F47F4200F1FF30AD
:100EA00022F0100242EA002242F0100218BF012193
:100EB000DA61DDE745EA0262034B42F40032B4E74F
:100EC00042F20132E1E700BF00B00240012301001D
:100ED000090002000A000200D7470208F147020891
:100EE0004447020801230200024B1B68586803684C
:100EF0005B691847B030012070B5044625460A4B9F
:100F00000C30002660602672667245F8203B602235
:100F1000294609F0E3FF04F55A63EE6024359D424B
:100F2000FBD1204670BD00BF98530208034B1A68DE
:100F3000D207FCD423229A60704700BF00B0024061
:100F40007047000030B50F4C2568ED07FCD4232511
:100F50000904A56041F001010225FF2B656361646E
:100F6000E0630AD00849656241EA0363E361074B25
:100F700022626061E060236030BDE561039BA36392
:100F8000034BF8E700B00240090001000100020035
:100F90000100030030B50E4C2568ED07FCD4232575
:100FA0001204A56042F001020225FF2B6563626412
:100FB000E063E16008D01B0643F00213E361054BD8
:100FC00065626061236030BD034BE3610123F9E793
:100FD00000B0024001000200020002FF30B50B4CDD
:100FE0002568ED07FCD4232512041B06A56043F4F5
:100FF0000033022542F0010265636264E063E16050
:10100000E361034B65626061236030BD00B0024064
:1010100001000200012070474020704700EB811062
:101020000830704700EB811008307047012070478E
:1010300040F68420704740F6842303FB010008300B
:10104000704740F6842303FB0100083070470120FD
:1010500070471020704700EB01100830704700EB1C
:10106000011008307047084601F08CBF10B5034BE3
:101070000360044608F05FFD204610BD505402088E
:1010800010B50446FFF7F2FF2046482121F056FA3A
:10109000204610BD10B5034B0360044608F04BFD1D
:1010A000204610BD1C54020810B50446FFF7F2FF9D
:1010B000204640F68C2121F041FA204610BD000068
:1010C00010B5034B0360044608F035FD204610BD03
:1010D000E853020810B50446FFF7F2FF2046182136
:1010E00021F02CFA204610BD10B5084B03600446D1
:1010F00000F6B820FFF7BAFF04F12C00FFF7CAFF93
:1011000004F11400FFF7DCFF204610BD84540208F0
:1011100008B50248FFF7E8FF08BD00BF9C12002099
:1011200010B50446FFF7E0FF204640F6684121F085
:1011300005FA204610BD00002DE9F34101F0D4F975
:10114000054601F0D5F900240146234628462246EB
:10115000009412F041F9274B274A1A60204602F00A
:1011600033FD264D264B274A27489A6012F09CF8FB
:101170002B68BFF35B8FDB0735D4284621F0E0F9FD
:1011800088B3224C224B236004F6083604F1140085
:1011900004F12C0804F6B8276060C4F80880E76002
:1011A000266108F0C9FC1B4B6361404608F0C4FC93
:1011B000194BE362384608F0BFFC184BC4F8B83A44
:1011C00004F5306003F0E0F9224604F53061304662
:1011D00002F0CEFD304601F0D5FE114822F008F9AC
:1011E000284621F0B9F90F4802B0BDE8F041FFF7F9
:1011F000E9BB00BF143101204804002098120020F0
:10120000680400204C040020080000209C120020EC
:1012100084540208E85302081C540208505402087F
:1012200011110008C4030020704700000148FFF7B7
:10123000D7BB00BFC403002070B5264E264C274DF7
:10124000274B23603046FFF757FE284617F0CAF9B0
:1012500024480FF0B7FD244B2448DC6000224FF4F3
:101260008071C3E9121222491A86C3E91A12214970
:1012700083F85820C3E91E011F49C3F880101F4995
:101280001F480B60F021C3E90422C3E90622C3E929
:101290000822C3E90A22C3E90E22C3E91022C3E9E6
:1012A0001422C3E917225A6683F870205A67C3E9EB
:1012B000016501801348018013484FF4A07101803B
:1012C0001248018012490A70012283F83420114A21
:1012D0001A6070BDF40400209412002068040020FD
:1012E000584402084C040020C403002000000101FF
:1012F00001000001000450001A001400B030012069
:10130000A4300120AA300120A6300120AC300120F9
:10131000A8300120AC5202080148FFF779BC00BF99
:10132000F40400200020704781807047C18070471E
:10133000018170474181704770477047704770471F
:10134000704710B4C4880368121B84885B6D091B46
:1013500012B25DF8044B09B218474FF6FF73838150
:101360004FF0FF3303621368C361106070470020C1
:1013700070478B88838001207047704780F8261063
:10138000704790F82600704710B50022B1F9084068
:10139000B1F90A10028042808480C18010BD002211
:1013A000028042808280C28070470177704780ED62
:1013B000080A704780F82410704780F8251070479D
:1013C00001207047983070478C30704784307047E8
:1013D0007047704770470000034B902283F85A23F0
:1013E00083F85823704700BF00E100E0094A0A492A
:1013F000D3680A48C3F30A03013B9BB20B8011690F
:10140000C1F30A01013901801364536B43F00103F6
:101410005363704700680140061F0020041F00202E
:10142000014BD3F8AC00704700680140024B012229
:10143000C3F8AC105A6270470068014010B52C2107
:10144000044621F07BF8204610BD10B5BC210446AF
:1014500021F074F8204610BD70B5044608F06BFE0C
:1014600023689D6E0EF046FA01462046A847236881
:10147000054AD3F88C502046AC460023BDE87040A6
:10148000A2F51631604700BF00B004D008F03ABEA4
:1014900008F044BE08F000BE08F06FBF90F82520A9
:1014A00012B103685B691847704790F825201AB19C
:1014B00090F8242002B1186070470000034B4FF0F1
:1014C00080629A604FF080729A60704700E100E09D
:1014D000084B4FF08062C3F88820BFF34F8FBFF3F3
:1014E0006F8F4FF08072C3F88820BFF34F8FBFF328
:1014F0006F8F704700E100E070B50023124E8380CB
:10150000124B0360336893F8582005460AB1D86C33
:1015100000B998680368DB6A98473368B0FA80F4CA
:10152000D86C640930B10368DB6A9847002808BFAB
:1015300044F001042CB9064B064A07482C2121F03F
:1015400039FF284670BD00BFB03001209854020812
:101550002F4802088D480208C648020870B5254E7B
:101560003568BFF35B8F15F0010540D1304620F0A0
:10157000E7FF00283BD0204C204B256104F13400CC
:10158000C4E90035C4E90255E584A562A5850FF0DC
:10159000FEFE04F158000BF057F9194BA3652046E5
:1015A000184B40F8843BFFF7A7FF174BC4F8843073
:1015B0002433C4F88C304FF4C803C4E92835002321
:1015C000C4F8AC30C4F8B030C4F8B430C4F8B830A3
:1015D0000E480F4BC4F89050C4F89C50C4F8A85063
:1015E000C4F8983021F004FF304620F0B5FF0248DF
:1015F00070BD00BF081F00200C1F0020D45C020833
:10160000B854020830550208885C0208D513000857
:10161000685C020838B5184C23685BB3174B184A4E
:101620001B6C11888B4216D1164B198804F050FDA3
:10163000236893F86A200025013283F86A2083F832
:101640007C50FFF7B9FA206809F0F2FA2846BDE8A5
:101650003840FFF7F9B804F03BFD246823682046C2
:101660001B6A9847012384F87C300020BDE838408D
:10167000FFF714B938BD00BFB03001200068014049
:10168000061F0020041F002007B5064BADF806001A
:101690001B68054801220DF1060105F005FB03B0AA
:1016A0005DF804FB0C0000205420002008B56420E5
:1016B00006F0D6F9FBE7000030B595B01022002106
:1016C0000AA822F07EF81422002103A822F079F85B
:1016D00000241E4B01941A6C42F080521A641B6C59
:1016E00003F080530193019B194B02941A6842F452
:1016F00040421A601B6803F4404302930122029B9C
:101700004FF48033CDE9082302254FF480030821EC
:10171000CDE90E534FF4B473CDE9101308A8042398
:101720001393129504F02CFD04F0F0FC0F23CDE987
:1017300003354FF4A0504FF48053CDE90603052143
:1017400003A8059404F0F8FE15B030BD003802403F
:10175000007000402DE980489BB003F033FAFFF79A
:10176000ABFF142200210DA822F02BF80024C94B56
:1017700000941A6BC848C94DDFF8588342F0100234
:101780001A631A6B02F010020092009A01941A6B0D
:1017900042F020021A631A6B02F020020192019AB1
:1017A00002941A6B42F080021A631A6B02F08002F4
:1017B0000292029A03941A6B42F004021A631A6BA3
:1017C00002F004020392039A04941A6B42F001029D
:1017D0001A631A6B02F001020492049A05941A6BC0
:1017E00042F002021A631A6B02F002020592059A95
:1017F00006941A6B42F040021A631A6B02F0400220
:101800000692069A07941A6B42F008021A631B6B41
:1018100003F00803224607933C21079B03F06EFE6A
:101820009F480122022103F069FE22469C480421C0
:1018300003F064FE22469B484FF4405103F05EFEE5
:1018400001263C23CDE90D3693480F9403230DA9BF
:101850000227109303F068FD91480DA9CDE90D769C
:10186000CDE90F4403F060FD04238D480DA9CDE9B7
:101870000D36CDE90F4703F057FD20238A480F9618
:101880000DA9CDE90D3403F04FFD0DA94FF44053E0
:101890008448CDE90D36CDE90F4703F045FD834877
:1018A000834B036003F036FCDFF82CE2814B2C62A3
:1018B000C5E900E328464FF48043C5E90434C5E98F
:1018C0000244C5E9064404F027F81021284604F034
:1018D0006BFA21462846784D04F085FA4FF482735E
:1018E000C5E900834FF400791823C5E9069328461B
:1018F0000A23C5E90244C5E90444C5E90844AC62C9
:10190000EB6205F075F98F232246394664488DF85D
:1019100024308DF8344003F0F1FD32464FF47A73F1
:1019200009A9284605F0C0F94FF47A7332460DA98B
:10193000284605F065FB3246394659485F4D03F0AD
:10194000DDFD9DF83430D32B04BF5D4B1E705D4B25
:101950000126C5E900364FF0100A40230024C5E9EE
:1019600004A34FF4C073C5E906344FF40063C5E91E
:1019700008344FF4005302274FF0040B4FF00308D4
:10198000AB620DA907232846CDE90D73CDE90FB34E
:101990004FF00809C5E9024BCDE91187139705F00F
:1019A0000BF84FF6FF7209A92846CDE90A9608946C
:1019B00009960C9405F020F8304603F02FF94FF605
:1019C000FF7209A92846CDE90979CDE90B6405F034
:1019D00013F84FF6FF7209A92846CDE90989CDE928
:1019E0000BB405F009F84FF40C730893089B0C93A3
:1019F0004FF6FF7209A92846CDE909B90B9604F004
:101A0000FBFF40F26A51284605F014F834222146C3
:101A10000DEB020021F0D5FE2B4D2C4B2C61C5E9BE
:101A200000340923C5E905361D23C5E9073840F20E
:101A30000D1240F24313C5E9092340F2171140F299
:101A400047132846C5E90B13C5E90244AC8685F85F
:101A5000364004F05BFAFF21F022CDE912144FF476
:101A6000806005214FF4A073CDE91401CDE90E2467
:101A70000DA9CDE9164228462246CDE91037144D6E
:101A800018930D94ADF864408DF8664004F0F2FAB6
:101A900024E000BF00380240001002406421002012
:101AA00000080240000C024000000240F821002023
:101AB00000300240A086010054200020D81F0020E2
:101AC000CC1F0020400100A0BC2000200068014085
:101AD000C81F002000500140005C00403F4B2B60BD
:101AE0001B6898472B683E4DDB6898473D4B28465E
:101AF000C5E90034C5E90274C5E90A47C5E90C44E3
:101B000003F018FB3146284603F0CAFB364D374F29
:101B1000524621460DA821F054FE4FF48033C5E90A
:101B200000732846324BAB62AC602C612C7685F892
:101B30002040EC62EC60EE6185F830406E6103F0AD
:101B400081F80DA92846CDE90D66CDF83C8003F05B
:101B5000F3F92848284B294D036004F0E1FE1C22CC
:101B600021460DA8CDE9094421F02BFE4FF0804C11
:101B70005323C5E900C3284640F2E733C5E90334DF
:101B8000AC60AC6105F0B4FC09A92846CDE9094474
:101B900005F010FE602322460DA92846CDE90D343C
:101BA0000F94119405F000FD284600F031FBFEF77C
:101BB0007FFDFEF77CFD05F0E3FE114A114821464A
:101BC00005F00AFF104B114A18602146104805F035
:101BD00003FF104B186005F0E5FEFEE7140000203F
:101BE000B821002000B00240002200200020014067
:101BF0000100000FAC200020000806500C2000203F
:101C000098550208AD160008D41F0020745502082C
:101C1000BF060008D01F0020704770477FB5094BF2
:101C20008DF817201B6802930DF117020123009213
:101C300001930A460146044803F016FF07B05DF819
:101C400004FB00BF10000020642100207FB50023AA
:101C50008DF81730084B1B6802930A4601230DF1DB
:101C60001701009101930146044803F08DFF9DF890
:101C7000170007B05DF804FB10000020642100206D
:101C80001FB5084C24680092CDE901340A460123AF
:101C90000146054803F078FF003818BF012004B062
:101CA00010BD00BF100000206421002002F0B6BF6C
:101CB00010B5064C00222046042103F01FFC2046EC
:101CC0000122BDE81040042103F018BC00080240C6
:101CD00038B50B4D044601220A484FF4005103F079
:101CE0000DFC00220421284603F008FC2046FFF7E3
:101CF000CBFC28460122BDE83840042103F0FEBB9E
:101D000000080240000C024038B50B4D044600228A
:101D10000A484FF4005103F0F1FB00220421284649
:101D200003F0ECFB2046FFF7AFFC28460122BDE89C
:101D30003840042103F0E2BB00080240000C0240DE
:101D4000F7B5144E144F05460C46304600220421C8
:101D500003F0D4FB00224FF40051384603F0CEFBD1
:101D60002846FFF791FC0D4B0D481B68224601A940
:101D700005F046F9384601224FF40051019C03F06A
:101D8000BDFB30460122042103F0B8FB204603B01E
:101D9000F0BD00BF00080240000C02400C00002013
:101DA0005420002002F03ABF0268034B9A4201D14E
:101DB00002F022BF704700BF0010004070470000D3
:101DC00082B00E4B00220092596C41F4804159645C
:101DD000596C01F48041009100990192196C41F015
:101DE000805119641B6C03F080530193019B0F21F8
:101DF0006FF0010002B003F04DB900BF003802409F
:101E000010B5044688B01422002103A821F0D9FCA3
:101E10002268124B9A421ED103F58C3300210191A6
:101E20005A6C0F4842F480725A645A6C02F4807201
:101E30000192019A02911A6B42F001021A631B6B24
:101E400003F001030293029B0222032303A9CDE9BD
:101E5000032303F069FA08B010BD00BF0020014061
:101E6000000002400268094B9A4282B00BD1002365
:101E70000193074B1A6B42F480521A631B6B03F4F5
:101E800080530193019B02B0704700BF00300240B5
:101E90000038024007B50F4B02689A4216D1002263
:101EA000A3F5F0430192196B41F4000119631B6B18
:101EB00003F40003019305215A20019B03F0EAF883
:101EC0005A2003B05DF804EB03F016B903B05DF8D7
:101ED00004FB00BF00B002402DE9F043044689B086
:101EE0001422002103A821F06CFC2268244B9A42A2
:101EF00043D1244C244800250095236B43F0040370
:101F00002363236B03F004030093009B0195236B71
:101F100043F001032363236B03F001030193019B4F
:101F20004FF012094FF400734FF001080327042605
:101F300003A9CDE90339CDE90587079603F0F4F944
:101F40004FF480731148079603A9CDE90339CDE911
:101F5000058703F0E9F90295236C43F40003236439
:101F6000236C03F400030293029B236A43F40003EF
:101F70002362236A23F40003236209B0BDE8F083DF
:101F8000005C0040003802400008024000000240AF
:101F9000F0B599B004461422002107A821F011FCE5
:101FA00030220DEB0200002121F00BFC22685E4B79
:101FB0009A4240F0B78008230C93C0231093042367
:101FC00012930CA84FF40033159304F07DFB08B175
:101FD000FFF7F4FE554B5648002400945A6C42F02B
:101FE00080625A645A6C02F080620092009A0194F6
:101FF0001A6B42F020021A631A6B02F0200201925F
:10200000019A02941A6B42F001021A631A6B02F0F1
:1020100001020292029A03941A6B42F002021A63BE
:102020001A6B02F002020392039A04941A6B42F0B4
:1020300040021A631A6B02F040020492049A05945B
:102040001A6B42F004021A631A6B02F00402059242
:10205000059A06941A6B42F008021A631B6B03F090
:102060000803069302250E26069B0B964FF4806309
:1020700007A9CDE90735CDE9094503F055F941F642
:1020800058032C480B9607A9CDE907350927CDE958
:10209000094503F049F9032327480B9707A9CDE920
:1020A0000735CDE9094503F03FF94FF47063224845
:1020B0000B9607A9CDE90735CDE9094503F034F9B9
:1020C0004FF40C631D480B9607A9CDE90735CDE900
:1020D000094503F029F9C02319480B9607A9CDE952
:1020E0000735CDE9094503F01FF9082315480B967C
:1020F00007A9CDE90735CDE9094503F015F94FF4F6
:10210000A0530E480B9707A9CDE90735CDE909453E
:1021100003F00AF958202246052102F0BBFF58209F
:1021200002F0EAFF19B0F0BD00680140003802403B
:102130000014024000000240000402400018024067
:1021400000080240000C02400268094B9A4282B02B
:102150000BD100230193074B5A6B42F040025A63A4
:102160005B6B03F040030193019B02B0704700BF1B
:10217000000806500038024010B5044688B014220A
:10218000002103A821F01DFB2268144B9A4223D1A1
:1021900003F56843002101915A6C114842F4801202
:1021A0005A645A6C02F480120192019A02911A6BDD
:1021B00042F020021A631B6B03F020030293029B80
:1021C0004FF4607202230321CDE903230523CDE9F7
:1021D000061303A903F0A8F808B010BD0050014091
:1021E000001402400368B3F1804F82B00BD100238A
:1021F0000193064B1A6C42F001021A641B6C03F047
:1022000001030193019B02B0704700BF00380240F8
:1022100010B5044686B01422002101A821F0D1FA9D
:102220002368B3F1804F14D1002300930A4B0B486D
:102230001A6B42F001021A631B6B03F00103009357
:10224000009B0222012301A9CDE90132059303F08D
:102250006BF806B010BD00BF00380240000002401D
:102260002DE9F04186B0002303932B4B1C68002C12
:102270004FD14FF00108C3F80080284B00949A6BAF
:10228000274842EA08029A639B6B03EA080300931B
:10229000022703260C25009B01A94FF63F03CDE939
:1022A0000137CDE9046503F03FF81E48059501A903
:1022B000CDE90187CDE9034603F036F848F2331340
:1022C0001948059501A9CDE90137CDE9034603F089
:1022D0002BF84FF683731548059501A9CDE9013711
:1022E000CDE9034603F020F84CF20373104805953E
:1022F00001A9CDE90137CDE9034603F015F86023C4
:102300000C48059501A9CDE90137CDE9034603F055
:102310000BF806B0BDE8F0814822002000380240EA
:102320000014024000080240001802400010024061
:10233000000C02400004024070B588B000230293F4
:10234000204B1A6C42F010021A641B6C03F010034D
:102350000293054601A903A8029B04F097F9069B86
:102360004BBB04F083F9184E184B336040F2E7334F
:10237000F360174BB0FBF3F3013B7360304600236F
:102380003361B360B36105F087F8044680B9304625
:1023900004F05CFF044658B9362002F0ADFE0F2D64
:1023A0000DD822462946362002F074FE094B1D60E6
:1023B000204608B070BD04F059F94000D3E701246D
:1023C000F6E700BF003802404C2200200010004019
:1023D00040420F007C0000207047FEE7FEE7FEE76A
:1023E000FEE77047014804F06FBF00BF4C22002099
:1023F000014803F0E2BD00BFBC200020014802F00C
:10240000C5BE00BFB82100200120704708B521F0EB
:102410007BFA162303604FF0FF3008BD08B521F0AA
:1024200073FA16230360FEE770B50D4614460E4698
:10243000731B9C4201DC204670BDAFF3008006F8A0
:10244000010BF5E770B50D4614460E46731B9C4212
:1024500001DC204670BD16F8010BAFF30080F5E7F4
:102460004FF0FF3070474FF400534B60002070472F
:1024700001207047002070470A4A116808B50346DA
:1024800009B9094911601068694603448B4206D9AD
:1024900021F03AFA0C2303604FF0FF3008BD1360BF
:1024A000FCE700BF94220020F03D0120704708B5F2
:1024B000042910D8DFE801F003070B0B0B0001F033
:1024C000CFFB006808BD01F0CBFB4068FAE701F0E4
:1024D000C7FB8068F6E70020F4E710B50421044646
:1024E00020F02CF8204610BD00487047D055020857
:1024F0000A20704713B5002451B1036801948DF888
:10250000034001AA9C680DF10303A04702B010BD6F
:102510000846FBE7C0897047008A7047C08870474B
:1025200080887047807A00F07F007047807AC00909
:1025300070470020704700009FED010A704700BF00
:102540000000000070477047704770477047704741
:1025500030B5036885B06D460181D3F884300146FB
:1025600004462846984795E807003C3484E807006D
:1025700005B030BD30B5036885B06D464181D3F8F4
:102580008430014604462846984795E807003C34C5
:1025900084E8070005B030BD0022028042808280BE
:1025A000C280704780F83610704770B503680446E3
:1025B0001B6B154698472368294620465B6EBDE88D
:1025C0007040184700207047806C70477047704714
:1025D0007047704730B4C26844685510034604EB36
:1025E0006200D20748BF62599B6830BC48BFD358CD
:1025F00018470346406830B19A681AB9D86800F0A5
:10260000010070470120704710B5082104461FF0F3
:1026100095FF204610BD10B54C2104461FF08EFFDB
:10262000204610BD10B5102104461FF087FF20463C
:1026300010BD10B54FF49C7104461FF07FFF20467B
:1026400010BD08B5FEF72AFF08BD0000036870B58D
:102650005E6B124B1B6804468DB22BB9104B114AAE
:102660006C21114820F0A6FE1049828D0988914204
:1026700003D80F4B0B4A6D21F3E713F812200D4BD3
:102680001B6853F8220003681B6B9847291A3346CE
:10269000204609B2BDE87040184700BF083101204C
:1026A0003D4902087F490208BA4902080C3101205D
:1026B000014A0208103101206C30884208B505D16A
:1026C0000DF018F9BDE8084000F07CBC08BD002200
:1026D0004FF0FF31C0E900218260704770B5036898
:1026E00004461B6B154698472368294620465B6BBA
:1026F000BDE87040184700000022C0E90122C0E98F
:102700000322C0E90522C0E907224FF480728284C7
:10271000014A0260704700BFA05602082DE9F04F41
:10272000044689B0264600250FF0E8F87C4BE563A7
:1027300046F8403B29462622304621F042F83046F2
:10274000FFF7DAFF04F16C09764B2364FF27294673
:10275000262284F86670A566484621F032F848467D
:10276000FFF7CAFF01234FF6FF7A04F1A00884F8AF
:1027700090306D4BE36626222946C4F8945084F8C5
:102780009850A4F89AA0A4F89CA084F89EA0404673
:10279000ADF818A021F015F84046FFF7ADFF634BE8
:1027A000C4F8A030BDF81830A4F8C63084F8C8705A
:1027B00006A904F1CC0740460AF0AFFB29462622C1
:1027C000384620F0FEFF3846FFF796FF584ADFF8FC
:1027D0008CB1A4F8F8A04FF47F03C4E94A24C4F8EC
:1027E0000031544A544BC4F8CC304FF0FF33C4E9A5
:1027F0004335C4E94C2529462A46C4F8FC50A4F8C0
:102800000451C4F80851C4F814513046C4F8F4B067
:10281000FFF764FFF0213046FEF78AFD4FF4A07108
:102820003046FEF787FD04F1040A4FF07F42A266AE
:102830003146504607F094F9DF2221214846FFF740
:102840004DFF06AA05A94846ADF81450ADF818503A
:102850000AF02AFA04F59472C4F8942049465046C6
:1028600007F07EF929466FF013024046FFF736FF66
:10287000052206A94046ADF818200AF04EFB414655
:10288000504607F06DF9792267213846FFF726FF99
:102890004FF0FF33C4F8FC30D4F8CC30A4F800512A
:1028A0006D462846D3F884303946984795E80700A6
:1028B00004F5847383E80700204B1B6804F58C75CE
:1028C0002BB91F4B1F4A60211F4820F073FD1F4B7F
:1028D0001B88022B03D81E4B1A4A6121F4E71D4BBB
:1028E0000221186801F0ACF91B4A0346082128466A
:1028F00010F0CCFC3846C4F814510AF057F9032301
:1029000006A93846ADF81C30CDF818B00AF06EF9BB
:102910005046394607F024F9204609B0BDE8F08F4B
:10292000C0570208085E0208705E0208E45E0208F2
:10293000A8570208B92600081857020808310120D4
:102940003D4902083F4A0208BA4902080C310120F9
:10295000014A0208143101208A4A02080857020875
:102960007047704700F598730868496803C370475B
:10297000704770474160704770477047064BC0F81A
:102980004C310023C0F8503100F5A273C0F8480163
:10299000C0F84031704700BFED2B000801230372DF
:1029A000704770477047704710B4C2684168541050
:1029B000034601EB6200D20748BF0A599B685DF8E5
:1029C000044B48BFD35818470346406830B19A6853
:1029D0001AB9D86800F0010070470120704710B59F
:1029E0000C2104461FF0AAFD204610BD10B5102191
:1029F00004461FF0A3FD204610BD10B54FF4AE7184
:102A000004461FF09BFD204610BD10B54021044632
:102A10001FF094FD204610BD10B5402104461FF064
:102A20008DFD204610BD10B50CF064FF0368BDE8B5
:102A30001040DB6B18470000054B1B7801462BB19B
:102A4000406818B103680C315B6E1847704700BFCF
:102A5000AF300120054B1B7801462BB1406818B1FF
:102A600003680C315B6E1847704700BFAF30012020
:102A7000037A70B50546BBB940680368DB699847BF
:102A800004463CB96868036805F10C011B6EBDE89B
:102A900070401847A1886B8FC91A236820461B6BAA
:102AA00009B29847A469ECE770BD037A70B5054692
:102AB000BBB940680368DB69984704463CB968685D
:102AC000036805F10C011B6EBDE870401847A18832
:102AD0006B8FC91A236820461B6B09B29847A469FB
:102AE000ECE770BD10B50446D0F8400158B103685A
:102AF000DB68984738B1D4F8400103689B68984771
:102B00000023C4F8403110BD70B5044690F8390078
:102B100094F838300130C0B2984284F8390005D9B1
:102B200001232372002384F8393070BDB4F93A20B0
:102B300000210FF095F8C30706D500284FF6FF7364
:102B4000C8BF0123184400B2238AC01AA087606856
:102B50000368DB69984705462DB960680368BDE8DE
:102B600070405B691847A988A38F19442B682846D1
:102B70001B6B09B29847AD69EEE770B5044690F853
:102B8000390094F838300130C0B2984284F83900E6
:102B900005D901232372002384F8393070BDB4F9BC
:102BA0003A2000210FF05CF8C30706D500284FF645
:102BB000FF73C8BF0123184400B2238AC01AA0873C
:102BC00060680368DB69984705462DB9606803684B
:102BD000BDE870405B691847A988A38F19442B682A
:102BE00028461B6B09B29847AD69EEE72DE9F14F16
:102BF000D0E9556A0746B06803681B6A9847EF2812
:102C000005D8444B444AA321444820F0D3FB7068C4
:102C100003681B6A98470F2803D8414B3E4AA421FA
:102C2000F2E7F06803681B6A98470B2803D83D4B0E
:102C3000394AA521E8E70CF05DFEDFF8F09004309A
:102C40000CF07DFED9F8000010B10368DB689847EE
:102C5000D9F8000010B103681B689847DFF8D080EE
:102C6000D8F8000010B103685B699847D7F83C01B9
:102C700010B103685B689847D8F8000010B103688A
:102C80001B689847D7F83C0110B103689B689847C8
:102C9000F068036800215B6A98474FF0000B224BF5
:102CA000C0F804B0044680F808B00360B068036858
:102CB00059465B6A9847054601F0CAFC706803688C
:102CC00059465B6A98472946064601F0A1FC331D28
:102CD000C7F83C61C9F80040C8F80050CAF8003095
:102CE0002B68C6F808A02846DB68EE63984733686F
:102CF00030461B689847214628460EF0ABFF2368F4
:102D000020461B69984723685B69204601B0BDE8EF
:102D1000F04F18478D4A02081B4B0208F54B02087A
:102D20003C4C0208DF4C020860580208F8300120D1
:102D3000F43001202DE9F0411D460368BDF91870FB
:102D40001B6B0446164698472368314620465B6B4A
:102D500098472368294620469B6B98472368394645
:102D60002046DB6BBDE8F041184700002DE9F74F26
:102D7000D0E9556A0746B06803681B6A984740F671
:102D80008323984205D8544B544AA321544820F039
:102D900011FB706803681B6A98470F2803D8514BD2
:102DA0004E4AA421F2E7F06803681B6A98473F285F
:102DB00003D84D4B494AA521E8E70CF09BFDDFF80D
:102DC000389104300CF0BBFDD9F8000010B1036855
:102DD000DB689847D9F8000010B103681B68984772
:102DE000DFF81881D8F8000010B103685B699847D4
:102DF000D7F83C0110B103685B689847D8F8000029
:102E000010B103681B689847D7F83C0110B10368FC
:102E10009B689847F068036800215B6A98470546FD
:102E20000022324B4260027245F80C3B04462846B1
:102E300009F0B2FD142323872D4B1B780022A287B3
:102E4000002B35D101232372B068036800215B6A2F
:102E50009847054600F0FEFF7068036800215B6A32
:102E600098472946064600F0ADFF331DC7F83C6180
:102E7000C9F80040C8F80050CAF800302B68C6F8FE
:102E800008A02846DB68EE639847336830461B6825
:102E90009847214628460EF0DDFE236820461B6930
:102EA000984723685B69204603B0BDE8F04F184798
:102EB000104BDFF84CB0B3F900300093BBF9003091
:102EC00011462846FFF736FF284609F0E0FCBBF81C
:102ED00000306387B8E700BF8D4A0208824D0208C0
:102EE000F54B02083C4C0208DF4C0208A8580208C7
:102EF000AF300120A6300120F8300120F43001204D
:102F0000A4300120044B1B6893F858200AB1D86CF8
:102F100000B99868704700BFB0300120F8B5174677
:102F200004460E460CF0A8FD124B1C60124B2360A9
:102F3000124B0025C4E95135114BC4E953551868AB
:102F4000036801219B68C4E94F55C4E95576984749
:102F5000284600F039FEFFF7D5FF17F0ECF9FFF730
:102F6000D1FF17F063FAFFF7CDFF17F06BFA204699
:102F7000F8BD00BF043101200C580208F4570208C4
:102F8000B0300120064BC0F84C310023C0F850315E
:102F900000F5A273C0F84801C0F84031704700BF87
:102FA000ED2B0008064BC0F84C310023C0F850311F
:102FB00000F5A273C0F84801C0F84031704700BF67
:102FC000AD310008064BC0F84C310023C0F8503139
:102FD00000F5A273C0F84801C0F84031704700BF47
:102FE0006D2D0008064BC0F84C310023C0F850315D
:102FF00000F5A273C0F84801C0F84031704700BF27
:1030000071300008F7B505460026154B466006727C
:1030100045F80C3B044628460F4609F0BDFC114B11
:1030200084F838701B7884F83960A68723B90123A7
:103030002372204603B0F0BD0B4B0C4FB3F90030A8
:103040000093B7F90030324631462846FFF772FE4A
:10305000284609F01CFC3B885B426387E9E700BF18
:1030600084580208AF300120A6300120A43001208E
:103070002DE9F047D0E9556A0746B06803681B6A36
:103080009847B0F59C7F05D2414B424AA321424864
:1030900020F090F9706803681B6A98470F2803D8DE
:1030A0003E4B3C4AA421F2E7F06803681B6A98474C
:1030B0003F2803D83A4B374AA521E8E70CF01AFC21
:1030C000DFF8E09004300CF03AFCD9F8000010B1C1
:1030D0000368DB689847D9F8000010B103681B68E3
:1030E0009847DFF8C480D8F8000010B103685B6926
:1030F0009847D7F83C0110B103685B689847D8F847
:10310000000010B103681B689847D7F83C0110B164
:1031100003689B689847F068036800215B6A9847DA
:1031200014210446FFF76EFFB068036800215B6A54
:103130009847054600F0EAFD7068036800215B6A65
:1031400098472946064600F0BFFD331DC7F83C618D
:10315000C9F80040C8F80050CAF800302B68C6F81B
:1031600008A02846DB68EE639847336830461B6842
:103170009847214628460EF06DFD236820461B69BE
:103180009847236820465B69BDE8F047184700BFB1
:103190008D4A02086D4E0208F54B02083C4C0208AD
:1031A000DF4C0208F8300120F43001202DE9F0470F
:1031B000D0E9556A0746B06803681B6A984740F62D
:1031C0008323984205D8414B414AA321414820F02E
:1031D000F1F8706803681B6A98470F2803D83E4BC4
:1031E0003B4AA421F2E7F06803681B6A98473F282E
:1031F00003D83A4B364AA521E8E70CF07BFBDFF811
:10320000E09004300CF09BFBD9F8000010B103688B
:10321000DB689847D9F8000010B103681B6898472D
:10322000DFF8C080D8F8000010B103685B699847E8
:10323000D7F83C0110B103685B689847D8F80000E4
:1032400010B103681B689847D7F83C0110B10368B8
:103250009B689847F068036800215B6A98471421CF
:103260000446FFF7CFFEB068036800215B6A984709
:10327000054600F0EFFD7068036800215B6A98471F
:103280002946064600F09EFD331DC7F83C61C9F88B
:103290000040C8F80050CAF800302B68C6F808A0F3
:1032A0002846DB68EE639847336830461B689847CA
:1032B000214628460EF0CEFC236820461B6998471D
:1032C000236820465B69BDE8F04718478D4A02082D
:1032D000564F0208F54B02083C4C0208DF4C02082E
:1032E000F8300120F430012070477047704730B447
:1032F000C26844685510034604EB6200D20748BF19
:1033000062599B6830BC48BFD35818470346406891
:1033100030B19A681AB9D86800F0010070470120EE
:10332000704710B5102104461FF008F9204610BD63
:1033300010B54FF4E07104461FF000F9204610BDAF
:1033400000F5AE70884208B505D10CF0D3FABDE89F
:103350000840FFF747BE08BD38B5262204460D4693
:10336000002120F02EFA2046FFF7C6F9064B236015
:103370002B88E384FF23204684F82830294609F06F
:10338000CCFD204638BD00BFE45E020810B5262201
:103390000446002120F015FA2046FFF7ADF90A4B4C
:1033A000A3624FF6FF73A3854FF47F020023C4E9A5
:1033B0000C32064A226023874FF0FF32C4E9102303
:1033C000E363A364204610BD08570208185702089B
:1033D0002DE9F04F04468BB0264600250EF08EFAFC
:1033E000984BE56346F8403B26222946304620F0BC
:1033F000E8F93046FFF780F9934B236404F16C0B36
:10340000FF234FF6FF7784F8663004F1980A08A985
:103410005846A56604F1C409ADF82070FFF79CFF7B
:1034200008A95046ADF8207004F58878FFF794FF9E
:103430004846FFF7ABFF4046FFF7A8FF04F5AE7321
:10344000262229461846019320F0BBF90198FFF780
:1034500053F94FF0010384F880317C4BC4F85C31A0
:103460007B4BA4F88A71C4E96C347A4BA4F88C7154
:103470002A46C4E96E35304684F88E712946C4F870
:10348000845184F88851FFF729F93046F021FDF77F
:103490004FFF30464FF4A071FDF74CFF271D4FF052
:1034A0007F43A3663146384606F05AFB6FF013029D
:1034B00058462946FFF712F90623584608A9ADF8E1
:1034C000203009F02AFD5946384606F049FB40F203
:1034D000131250466921FFF701F94FF003035046DC
:1034E00008A9ADF8203009F018FD5146384606F01D
:1034F00037FB2A461B214846FFF7F0F84FF0FF3311
:10350000C4F8F430D4F8C430A4F8F85002AED3F8BC
:103510008430DFF860B149463046984796E80700A6
:1035200004F5807383E80700DBF8003004F5C87AFF
:103530002BB9494B494A602149481FF03BFF494B91
:103540001B88022B03D8484B444A6121F4E7474BC0
:103550000221186800F074FB454A034608215046D2
:103560000FF094FEC4F80CA1484609F01FFBDFF8E9
:1035700008A1CDF820A04FF0030208A94846ADF8F5
:10358000242009F033FB4946384606F0E9FA2A467A
:10359000A5214046FFF7A2F8D4F81031A4F8445111
:1035A0004FF0FF323046D3F88430C4F84021414612
:1035B000984796E8070004F5A67383E80700DBF850
:1035C000003004F5D076002BB3D0264A1388012BA7
:1035D000B9D9264B0121186800F032FB244A034672
:1035E000082130460FF052FE4046C4F8586109F0F9
:1035F000DDFA08A94046CDF820A0ADF8245009F026
:10360000F5FA4146384606F0ABFA01984FF491724C
:10361000CF21FFF763F808230198ADF81C3008AA02
:1036200007A9ADF8203009F03FFB04F5D873384600
:103630000199C4F8843106F093FA20460BB0BDE836
:10364000F08F00BFE4580208085E0208705E0208AE
:10365000CC580208413300083D4902083F4A02089D
:10366000BA4902080C310120014A02081431012034
:103670008A4A02080831012008570208406A704748
:10368000806A704770478A880B8810B5D20A4C88C8
:10369000C1699BB251F8220043EA0443184410BDAB
:1036A00010B50446BAB1107B68B1537BD27A1B02C5
:1036B00003F4E0631A43236A03EB82031A888A4205
:1036C00002D193F9020010BD05D8013880B204334D
:1036D0000028F3D1F7E70020F5E710B52C210446C8
:1036E0001EF02CFF204610BD30B58BB00446BDF84F
:1036F00060500895BDF85C5007959DF850500695B0
:103700009DF84C5005959DF8485004959DF84450FF
:1037100003959DF8405002959DF83C500195BDF8E9
:10372000385000950DF0F0FE064B2360159BE361C9
:10373000169B2362199B63621A9BA36220460BB0FF
:1037400030BD00BF1859020870477047704730B449
:10375000C26844685510034604EB6200D20748BFB4
:1037600062599B6830BC48BFD3581847034640682D
:1037700030B19A681AB9D86800F00100704701208A
:10378000704710B5102104461EF0D8FE204610BD2B
:1037900010B5F02104461EF0D1FE204610BD6C305D
:1037A000884208B505D10CF0A5F8BDE80840FFF740
:1037B000F9BB08BDF8B5194B018F1B888B42064633
:1037C0002AD9174B1B682BB9164B174A17486C217F
:1037D0001FF0F0FD13F81120154B1B6853F8225011
:1037E000144B186800F02CFA2B6807469B6B284690
:1037F00098472B6804469B6C3946284698472B68A7
:1038000014FB00F45B6A394628469847A4B2231893
:103810001BB2A6F84630F8BD0023FAE70C310120B0
:10382000083101203D4902087F490208BA490208CF
:1038300010310120143101202DE9F74304460EF028
:103840005DF8454B2360454B002504F16C06C4E947
:1038500010354FF48078FF23A4F8648084F8663034
:10386000C4E91255C4E91455C4E91655E563256643
:10387000A566304609F092FC04F1B4074FF6FF73D9
:10388000374AA4F8D880C4F8B420A4F8DA3084F811
:10389000DC3001A93846C4E92E55C4E93055C4E9E5
:1038A0003255C4E93455ADF8043009F036FB2D4BE0
:1038B000C4E938342C4B04F140082A46C4E93A35AF
:1038C00029464046FEF70AFF4046F021FDF730FD4D
:1038D00040464FF4A071FDF72DFD04F104094FF0AF
:1038E0007F43A3664146484606F03AF93046ED224A
:1038F0002121FEF7F3FE01AA69463046ADF80050DB
:10390000ADF8045009F0D0F90623A4F8A4303046ED
:10391000FFF750FF4FF0FF33C4E92A3304F1E0030F
:10392000C4F894303146484606F01AF96FF0130295
:1039300029463846FEF7D2FE072301A93846ADF8DE
:10394000043009F0EAFA4846394606F009F92046FB
:1039500003B0BDE8F08300BF98590208085E020872
:10396000E45E0208805902089F3700087047000093
:1039700030B5174D2C6814F001048FB0BFF35B8F86
:1039800022D128461EF0DCFDF0B13F230993114BF4
:103990000893114B114912480A94CDE906430122BC
:1039A0000423CDE903320A23009315220C23CDE929
:1039B0000B44CDE901440594FFF796FE09481FF03A
:1039C00017FD28461EF0C8FD05480FB030BD00BFEA
:1039D00098220020946F0208A06F0208B46D0208BC
:1039E0009C2200206D3900087047000030B5174D4B
:1039F0002C6814F001048FB0BFF35B8F22D12846EE
:103A00001EF09EFDF0B13F230993114B0893114B1B
:103A1000114912480A94CDE9064301220423CDE955
:103A20000332142300930C221823CDE90B44CDE973
:103A300001440594FFF758FE09481FF0D9FC2846B9
:103A40001EF08AFD05480FB030BD00BFC82200201F
:103A5000986F0208A46F0208DC6E0208CC220020D6
:103A6000E93900087047000030B5164D2C6814F095
:103A700001048FB0BFF35B8F20D128461EF060FD9C
:103A8000E0B13F230993104B0893104B10491148A4
:103A90000A940122CDE906430423CDE90332282309
:103AA0000093CDE90B44CDE901440594FFF71CFEDA
:103AB00009481FF09DFC28461EF04EFD05480FB03A
:103AC00030BD00BFF82200209C6F0208A86F0208DA
:103AD000846F0208FC220020653A0008002070472D
:103AE000002070470EB403B503AB002153F8042B3C
:103AF00001930CF087FF02B05DF804EB03B0704750
:103B00000CB407B504AB53F8042B01930CF07AFF07
:103B100003B05DF804EB02B070470000436C10B5D1
:103B2000044673B3038F2BB9184B194AC5211948A2
:103B30001FF040FCC38E00EB43035B8C0BB30EF015
:103B4000FCFD238F012B03D8134B144ACB21EEE746
:103B5000E28E531C9BB2092B194688BFA3F10A01C0
:103B600004EB410140F63F10498C814209D10A2BF8
:103B700004EB420228BF002304EB4303508C58841B
:103B800051842046BDE810400EF0DABC41500208D6
:103B90004A500208F55002083F5102084D510208F0
:103BA0000EF095BC10B586B002AC84E806001A464B
:103BB0000AAB05930193099B00932146089B0BF0E8
:103BC00037FA06B010BD000038B518BB124B1348C9
:103BD0001C681349B4B1226822440260626822441E
:103BE0000A60A26814440F4B00221A8000F038F8D3
:103BF000054600F033F80C4B1C600C4B1D600C4B61
:103C0000188007E00B4B03600B4B0B600B4B1C68E1
:103C1000002CE8D138BD00BF342300202C23002025
:103C200028230020302300200831012010310120FA
:103C30000C310120C86F0208AC6F0208087002083E
:103C4000044B1B6853F82100034B1B6803EB400037
:103C5000704700BF282300202C2300200720704736
:103C6000004870473823002010B5FFF7BFFE044C12
:103C70002060FFF7F9FE6060FFF77AFEA06010BDDC
:103C80003823002010B5002404600C6014601C6010
:103C900010BD70477047704704387047704710B5C3
:103CA000102104461EF04AFC204610BDA0F104007D
:103CB000F5E710B504460BF01DFED0F85C11E06886
:103CC000BDE8104000F02EB800228260024A026077
:103CD00018324260C1607047CC590208704700003A
:103CE00010B5034B03600446FEF772FC204610BD7E
:103CF000FC59020810B50446FFF7F2FF20464FF4C6
:103D00009C711EF01BFC204610BD000010B504463F
:103D1000FEF704FD014B2360204610BDFC5902084C
:103D2000FEF757BC10B50B460446064A102100F5B5
:103D30008C700FF0ABFA04F1CC00BDE810400CF031
:103D40008BBF00BF1F520208704710B54FF4B0710F
:103D500004461EF0F3FB204610BD10B50446D0F813
:103D6000580100F015FC2046BDE810400BF044BEA1
:103D700010B50446FFF7D2F8034B23600023C4F8C4
:103D80005C31204610BD00BF305A0208704704382D
:103D90007047704710B5102104461EF0CFFB204637
:103DA00010BDA0F10400F5E7C06800F0BDB8A0F1B7
:103DB0000400FFF7F9BFC06800F030B9A0F10400BB
:103DC000FFF7F9BF00228260024A0260203242609F
:103DD000C1607047845A020870470000164B70B5E6
:103DE0000546036040F62C2440F6A816B44205D0E0
:103DF0002B5928191B6898472C3CF7E72B59281991
:103E00001B682C3C9847B4F5D26FF7D12B59281971
:103E10001B682C3C9847B4F5487FF7D12B592819DB
:103E20001B682C3C9847B4F5CA7FF7D12846FFF7AA
:103E30005CFA284670BD00BFBC5A020810B50446A3
:103E4000FFF7CCFF204640F684211EF077FB20468A
:103E500010BD00002DE9F3410546FFF7B9FA304BDC
:103E60002B6005F5E07405F553764FF6FF77204695
:103E700001A92C34ADF80470FFF76EFAB442F6D104
:103E800005F2BC664FF6FF77204601A92C34ADF849
:103E90000470FFF761FAB442F6D105F6D4164FF676
:103EA000FF7804F58477204601A92C34ADF804800E
:103EB000FFF752FABC42F6D1A642F2D134464FF691
:103EC000FF7705F65826204601A92C34ADF804707A
:103ED000FFF742FAB442F6D1124B18689B88C5F836
:103EE000580A0622A380002385F85E3AC5F8603A96
:103EF000C5F8642A0A210322C5F8703AC5F8743A55
:103F000085F87C3A28461223C5F8682AC5F86C1A49
:103F1000C5F8782AC5F8803A02B0BDE8F08100BF44
:103F2000BC5A02080844020808B5B0F99C30B0F940
:103F30009E201944D229A8BFD22121EAE17109B2F9
:103F40009830FDF7FEF908BDB1F90400B1F9083069
:103F500030B5B2F904400344A34215DBB2F908308E
:103F60002344834210DBB1F90640B1F90A30B2F9BB
:103F700006502344AB4207DBB2F90A002844A042B2
:103F8000B4BF0020012030BD0020FCE707B5054884
:103F900001A902F0DDFC18B9019803B05DF804FB3B
:103FA0002A20FAE7AC2000202DE9F0410546002345
:103FB0002C2005F2713600FB03F4375D97B904F548
:103FC00053762E4430462C4412B209B2FEF786FBDB
:103FD000012384F87133D4F84C3330465B69BDE873
:103FE000F04118470133142BE5D1BDE8F081000002
:103FF00010B5094C0021204603F09AFB23684FF4CA
:10400000FA7232205A6300F009FE20460021BDE812
:10401000104003F0CDBB00BF0C20002070B5002382
:1040200004462C2200F2E51102FB03F5485D40BB7B
:1040300005F5E0762544B4F89E20B5F8CA31B4F809
:104040009C10D21AB4F9A03003EBD37301EB6301D7
:10405000B5F9C83103EBD3732644A1EB63013046B5
:1040600012B209B2FEF73AFB012385F8E531D5F823
:10407000C03130465B6998472046BDE87040FFF785
:10408000B7BF0133092BCFD170BD2DE9F04F0446E6
:1040900085B000F658291E274FF000084FF0010B9D
:1040A0003BB2019304EB08060F25D6F8BC36B9F8ED
:1040B00000201B6EADF80C2006F2BC6A03A9504626
:1040C000984729B2019A5046FEF708FBD6F8BC364D
:1040D00086F8E1B623355B695046ADB29847E12DCD
:1040E00006F12C06E1D108F584781937B8F5467F3A
:1040F00009F10209BFB2D3D11223C4F8803AD4F82F
:104100006C3A022BC4BF03F1FF33C4F86C3A05B01C
:10411000BDE8F08F2DE9F74F0446054600F5C67857
:1041200006464FF0000996F8E5314BB1B6F9C621C5
:10413000B6F9CA31043A5B42934213DD86F8E59141
:104140002C364645EFD104F55373DFF8ECA200930B
:1041500004F5E0764FF4847996F82530002B73D07F
:1041600000271EE0D6F8C031B6F9C4119B6D06F5E4
:10417000E077384612B29847D6F8C03138465B69C6
:104180009847DDE7022A0CBF0A3305333EE008F109
:104190000108B8F1060F03F12C0306D10137032FF4
:1041A00052D009FB07434FF0000893F8E126002A9C
:1041B000EDD003F2BC6B5A46314620460193FFF71F
:1041C000C3FE019B0028E2D009FB07F32C2101FB71
:1041D0000838A044D4F8803A002286F82520013B14
:1041E00088F8E126C4F8803A336830465B6998471E
:1041F000D8F8BC3607F22C575B695846984734F814
:104200001720D4F8743A042ABCD11433894AC4F86C
:10421000743A102104F5C8700FF038F804F1C400A6
:104220000CF01AFDD4F8743ADAF8002093420BDD52
:10423000804ACAF80030102104F5D0700FF026F83B
:1042400004F588700CF008FD009B2C369E4283D14B
:10425000D4F8803A13B92046FFF717FFD4F8703A24
:10426000D4F86C2A01339342C4F8703AC0F2C68085
:104270000027C4F8707AE6194FF0000996F8E13685
:10428000E3B194F85E3AB6F9C016B6F9C226032B2C
:1042900006D8DFE803F002B6BABED4F8683A19448B
:1042A000D6F8BC3606F2BC689B6D404612B209B225
:1042B0009847D6F8BC3640465B69984709F1010932
:1042C000B9F1060F06F12C06D8D107F58477B7F5BA
:1042D000467FD0D1D4F8603AD4F8642A01339342AF
:1042E000C4F8603A09DB0023C4F8603A94F85E3AF7
:1042F000013303F0030384F85E3A2046FFF746FEDD
:104300000323B0FBF3F303EB4303C61A2046FFF786
:104310003DFE0623B0FBF3F202FB13004FF484735F
:104320005E432C2303FB0066264496F8E136C3B1B6
:104330002046FFF72BFE1423B0FBF3F202FB130021
:1043400078B9B6F9C416B6F9C206B6F9C626B6F9F2
:10435000C03601EBD171024403EB61012046FFF747
:1043600023FE04F55C7704F1980800264FF02C0931
:1043700095F87133002B3ED0B5F952B30BF10A0B0F
:10438000BBF5A07F05F5537AC8BF85F87163424637
:1043900051462046FFF7D8FDD5F84C3300283CD0D5
:1043A00050465B6985F871639847D4F8780A00280D
:1043B0000EDD0138C4F8780A09FB00F0231800F676
:1043C000D41083F8F969D3F8D43920445B6998474D
:1043D000D4F8783A7BB994F87C3A63B9012384F82D
:1043E0007C3A0BF087FAD4F8743AC0F85C310BF0E1
:1043F00081FAFEF7F7FD2C35BD42B9D103B0BDE817
:10440000F08FD4F8683A1A444AE7D4F8683AC91ADF
:1044100046E7D4F8683AD21A42E750469B6DB5F9A0
:1044200050130FFA8BF29847D5F84C3350465B691E
:104430009847E0E71F520208442300202DE9F04F7F
:10444000044685B0FEF752FF1E2704F658234FF0AE
:1044500000094FF0010B3AB2009209EB04060F2558
:1044600004F10408D6F8BC261988019306F2BC6A48
:10447000126EADF80C10504603A9904729B2009A6D
:1044800050462335FEF72AF9ADB286F8E1B651461B
:10449000404605F065FBE12D019B06F12C06E1D1BC
:1044A00009F584791937B9F5467F03F10203BFB2E4
:1044B000D1D104F5E07504F553764FF001090027DA
:1044C0002B6828461B6EADF80C9003A9984785F819
:1044D0002570294640462C3505F042FBB542EFD108
:1044E00004F2BC664FF0010900272B6828461B6EBA
:1044F000ADF80C9003A9984785F8257029464046E9
:104500002C3505F02DFBAE42EFD104F6D4150A266A
:104510004FF0030901272B6828461B6EADF80C905D
:1045200003A9984731B228464FF496722336FEF716
:10453000D5F8B6B285F825702946404605F010FB3F
:10454000732E05F12C05E6D1D4F8743A0C4A1021EB
:1045500004F5C8700EF09AFE0A4B094A1B68102138
:1045600004F5D0700EF092FE04F1C4000CF074FB60
:1045700004F5887005B0BDE8F04F0CF06DBB00BFCE
:104580001F520208442300200022C0E90022704785
:1045900010B50446154800F0FBFB14480A2100F052
:1045A00075FC60B9114800F0C4FC05281BD910281F
:1045B00034BF00210321206803689B689847636823
:1045C0000B48002BC4BF03F1FF336360202100F0D0
:1045D0008FFF38B963682BB920680368DB68984798
:1045E0001423636010BD6FF00201E4E70022002095
:1045F00000000240704704387047704710B5102122
:1046000004461DF09BFF204610BDA0F10400F5E715
:1046100000228260024A026018324260C160704724
:10462000F05A02087047000010B5034B03600446BF
:10463000FFF78BF8204610BD205B020810B504463A
:10464000FFF7F2FF2046F0211DF078FF204610BD55
:1046500010B50446FFF7F0F8014B2360204610BD6B
:10466000205B0208FFF772B8F02070474FF4A0708B
:1046700070472920FDF748BB2820FDF745BB08B54A
:10468000FDF716FBCA20FDF73FFBC320FDF720FB1B
:104690000820FDF71DFB5020FDF71AFBCF20FDF78A
:1046A00033FB0020FDF714FBC120FDF711FB302088
:1046B000FDF70EFBED20FDF727FB6420FDF708FB5F
:1046C0000320FDF705FB1220FDF702FB8120FDF71B
:1046D000FFFAE820FDF718FB8520FDF7F9FA002026
:1046E000FDF7F6FA7820FDF7F3FACB20FDF70CFB87
:1046F0003920FDF7EDFA2C20FDF7EAFA0020FDF74E
:10470000E7FA3420FDF7E4FA0220FDF7E1FAF7209A
:10471000FDF7FAFA2020FDF7DBFAEA20FDF7F4FABC
:104720000020FDF7D5FA0020FDF7D2FAB120FDF701
:10473000EBFA0020FDF7CCFA1B20FDF7C9FAB620F2
:10474000FDF7E2FA0A20FDF7C3FAA220FDF7C0FA4E
:10475000C020FDF7D9FA1020FDF7BAFAC120FDF705
:10476000D3FA1020FDF7B4FAC520FDF7CDFA4520A5
:10477000FDF7AEFA1520FDF7ABFAC720FDF7C4FA36
:104780009020FDF7A5FA3620FDF7BEFAC820FDF708
:104790009FFAF220FDF7B8FA0020FDF799FAB02051
:1047A000FDF7B2FAC220FDF793FAB620FDF7ACFA96
:1047B0000A20FDF78DFAA720FDF78AFA2720FDF7DA
:1047C00087FA0420FDF784FA2A20FDF79DFA0020DD
:1047D000FDF77EFA0020FDF77BFA0020FDF778FA5E
:1047E000EF20FDF775FA2B20FDF78EFA0020FDF77C
:1047F0006FFA0020FDF76CFA0120FDF769FA3F20FF
:10480000FDF766FAF620FDF77FFA0120FDF760FA62
:104810000020FDF75DFA0620FDF75AFA2C20FDF77F
:1048200073FAC820FDF7BEFA2620FDF76DFA0120C5
:10483000FDF74EFAE020FDF767FA0F20FDF748FA82
:104840002920FDF745FA2420FDF742FA0C20FDF758
:104850003FFA0E20FDF73CFA0920FDF739FA4E2009
:10486000FDF736FA7820FDF733FA3C20FDF730FAF1
:104870000920FDF72DFA1320FDF72AFA0520FDF790
:1048800027FA1720FDF724FA1120FDF721FA00205E
:10489000FDF71EFAE120FDF737FA0020FDF718FAC0
:1048A0001620FDF715FA1B20FDF712FA0420FDF77C
:1048B0000FFA1120FDF70CFA0720FDF709FA312055
:1048C000FDF706FA3320FDF703FA4220FDF700FA60
:1048D0000520FDF7FDF90C20FDF7FAF90A20FDF798
:1048E000F7F92820FDF7F4F92F20FDF7F1F90F2053
:1048F000FDF7EEF91120FDF707FAC820FDF752FA8F
:104900002920FDF701FABDE808402C20FDF7FCB98D
:1049100008B5FDF7CDF90321D320FDF711FA80B2D8
:1049200008BD10B5C4B2022203212046FDF776F976
:104930000A20FDF7BBF9204600220321FDF76EF99E
:10494000BDE810400220FDF7B1B938B50446E4B225
:10495000FDF762F900212046FDF778F901210546AF
:104960002046FDF773F940EA052080B238BD10B546
:10497000C4B240212046FDF769F9030607D54C2152
:104980002046FDF763F9003818BF012010BD012251
:104990004B212046FDF742F9204600224B21FDF72E
:1049A0003DF90020F2E773B50423C4B20E46154664
:1049B000D7210DEB03022046FDF762F9019B1BBADC
:1049C0001A0DC3F30B23328020462B8001224B218A
:1049D000FDF724F900224B212046FDF71FF902B014
:1049E00070BD000010B50A4A1378984204460DD0F5
:1049F000517888420AD00BB141B90123D454FDF754
:104A00000BF92046BDE81040FFF78BBF10BD00BF7B
:104A10004823002010B5C4B209212046FDF716F93D
:104A200040F00102D2B220460921BDE81040FDF756
:104A3000F5B810B5C4B209212046FDF707F90921E0
:104A400000F0FE022046BDE81040FDF7E7B838B59B
:104A5000C4B20D4620460A21FDF7F8F840EA0502E7
:104A6000D2B220460A21BDE83840FDF7D7B810B5CC
:104A70000446FDF7D2F820461F21FFF7E8FF204645
:104A8000BDE81040FFF7C6BF38B5C4B20D4620469A
:104A90000A21FDF7DBF820EA0502D2B220460A21FE
:104AA000BDE83840FDF7BAB810B50446FFF7C1FFBE
:104AB00020461F21BDE81040FFF7E6BF10B5C0B289
:104AC0000C460B21FDF7C2F8204010BD1F21FFF757
:104AD000F5BF0A46C0B20B21FDF7A0B81F21FFF7B2
:104AE000F8BF38B5C4B20D4620461721FDF7AEF821
:104AF00020EA0502D2B220461721BDE83840FDF772
:104B00008DB870B5C4B2064604212046FDF79EF864
:104B1000042100F0FB0205462046FDF77FF83046F1
:104B2000F021FFF7DEFF05F0F80220460421FDF733
:104B300075F8492220212046FDF770F80220FDF784
:104B4000B5F8204601222121FDF768F820469A2277
:104B50004121FDF763F8204601224A21FDF75EF866
:104B6000204601224B21FDF759F8204600224B2117
:104B7000FDF754F8204601225621FDF74FF8204654
:104B800001225821FDF74AF8204601224021FDF775
:104B900045F82046FF220B21FDF740F8BDE87040A4
:104BA0000220FDF783B80000054BD3F8882042F4BB
:104BB0007002C3F888204FF000629A60704700BF0F
:104BC00000ED00E008B50B4B1A6842F400721A6061
:104BD0001A6842F480621A601A6842F480721A609D
:104BE000032000F045FA0020FDF7A6FBFDF7E8F8EA
:104BF000002008BD003C0240034A044B11681B78AA
:104C00000B441360704700BF4C2300207800002045
:104C1000014B1868704700BF4C23002038B504468C
:104C2000FFF7F6FF631C1CBF054B1B78054618BF3A
:104C3000E418FFF7EDFF431BA342FAD338BD00BFD2
:104C40007800002038B50446002800F09B80056CF1
:104C500025B9FDF7D5F8656484F83C50236CDB0674
:104C600000F18E80236C23F4885323F0020343F079
:104C700002032364444B5A6822F440325A605A6853
:104C800061680A435A60236821695A6822F4807275
:104C90005A605A6842EA01225A605A68A16822F0B2
:104CA00040725A605A680A435A609A68E16822F46E
:104CB00000629A609A680A439A603449A26A8A42FA
:104CC00052D0996821F07061996099680A439A609E
:104CD0009A68E16A22F040529A609A680A439A60A0
:104CE0009A6822F002029A609A68217E42EA4102A2
:104CF0009A6094F82020002A3ED05A68616A42F4F3
:104D000000625A605A6822F460425A605A68013957
:104D100042EA41325A60DA6AE16922F47002DA62E8
:104D2000DA6A013942EA0152DA629A6822F40072C0
:104D30009A609A6894F8301042EA41229A609A6820
:104D4000616922F480629A609A68002042EA8122B6
:104D50009A606064236C23F0030343F0010323642F
:104D6000002384F83C3038BD9A6822F070629A6063
:104D70009A6822F04052B2E75A6822F40062C9E70A
:104D80000120EDE70120EEE7002301400100000FC4
:104D900082B00023019390F83C30012B69D00123AD
:104DA00080F83C3003689A68D2070BD59A68D1071F
:104DB0001AD4036C43F010030364436C43F0010303
:104DC00043644CE09A682C4942F001029A602B4AF5
:104DD0001268B2FBF1F202EB42020192019A002A40
:104DE000E4D0019A013AF8E7026C22F4E06222F082
:104DF000010242F4807202645A68520541BF026C9B
:104E000022F4405242F480520264026C12F4805246
:104E10001CBF426C22F006024264002280F83C2053
:104E20006FF022021A60164A516811F01F0F1549DF
:104E30001CD18B4207D001F580718B420CD1526896
:104E400012F01F0F0BD19A6812F0405F07D19A68D9
:104E500042F080429A6002E00B498B4202D000206F
:104E600002B07047526812F0100FEBE78B42F6D198
:104E7000E9E70220F4E700BF40420F007400002081
:104E800000230140002001400022014003689A688D
:104E9000520570B504460D460BD59B68DE0508D556
:104EA000036C43F020030364002380F83C300120AE
:104EB00070BDFFF7ADFE064623681A6891070CD552
:104EC0006FF012021A60226C42F4007222649A6837
:104ED00012F0405F17D00020EAE7681CEDD065B9FA
:104EE00023681B6813F00203E6D1226C84F83C307F
:104EF00042F0040222640320DAE7FFF789FE801BF8
:104F0000A842EDD8D8E7227E002AE4D1DA6A12F46A
:104F1000700F02D09B685A05DDD4236C23F4807394
:104F20002364236CDB04D6D4236C43F00103236495
:104F3000D1E70368D86C7047F7B50023019390F868
:104F40003C30012B054600F08680012380F83C3080
:104F500008682B688E68092884B233D904EB4402B0
:104F6000DF681E3A4FF0070C0CFA02FC27EA0C0728
:104F7000DF60DF6806FA02F23A43DA604968062920
:104F800001EB81022DD8596B053A1F26964021EA84
:104F900006015963596B04FA02F20A435A632F4A15
:104FA00093420AD1122837D12D4B5A6822F40002BD
:104FB0005A605A6842F480025A60002085F83C002A
:104FC00003B0F0BD1A6900EB400C072707FA0CF795
:104FD00022EA07021A611A6906FA0CF616431E61E4
:104FE000CCE70C294FF01F010BD81E6B233A9140E0
:104FF00026EA01011963196B04FA02F20A431A63E3
:10500000CDE7DE6A413A914026EA0101D962D96AC8
:1050100094400C43DC62C2E7124B984201D0112845
:10502000CBD10F4B5A6822F480025A605A6842F47E
:1050300000025A600B4B9842BFD10B4B0B4A1B68C6
:10504000B3FBF2F30A2253430193019B002BB4D02C
:10505000019B013BF8E70220B2E700BF00200140BE
:1050600000230140120000107400002040420F0095
:105070000749CA6822F4E0620302120403F4E06301
:10508000120C134343F0BF6343F40033CB6070470B
:1050900000ED00E0164B30B5DC68C4F30224C4F127
:1050A0000703251D042B28BF0423062D4FF0FF35D1
:1050B0008CBF033C002405FA03F321EA0303A54057
:1050C00022EA0502A340002843EA0203ACBF00F134
:1050D0006040084A4FEA0313B8BF00F00F00DBB28C
:1050E000AABF00F56140135480F8003330BD00BF03
:1050F00000ED00E014ED00E0002807DB044A410960
:10510000012300F01F00834042F82130704700BFA8
:1051100000E100E010B5044650B1437903F0FF020E
:1051200013B90271FCF79EFE01236371002010BDCC
:105130000120FCE710B5044620B390F8393003F0A5
:10514000FF021BB980F83820FCF7A4FE022384F884
:105150003930236861681A6822F440320A431A60C1
:105160005A6BA16822F007020A435A631A6CE1687D
:105170006FF30D020A431A6400200123E06384F8F0
:10518000393010BD0120FCE770477047036870B5E7
:105190005E681D68F207044614D5E90512D51A6841
:1051A00022F480721A60C26B42F00102C2630122D3
:1051B0009A60042380F83930002380F8383043693E
:1051C00003B19847B20616D5AB0414D523681A6804
:1051D00022F400521A6020229A60E36B43F002032B
:1051E000E363042384F83930002384F8383063699A
:1051F0000BB120469847300716D5290514D52368EA
:105200001A6822F400621A6008229A60E36B43F085
:105210000403E363042384F83930002384F838302E
:1052200063690BB12046984772070BD56B0509D50A
:1052300023681A6822F480621A6004229A60204669
:10524000FFF7A2FFB00714D5A90512D523681A6885
:1052500022F400721A6002229A60E36BE363012376
:1052600084F83930002384F8383023690BB12046A4
:105270009847F20613D5EB0411D523681A6822F477
:1052800080521A6010229A60E36BE363012384F872
:105290003930002384F838302046FFF776FF70BDA0
:1052A000F0B590F83820012A03464FF002002BD0C9
:1052B000012283F8382083F8390003EB0112D2E988
:1052C0000740556A174F44EA0040093C012C9CBF37
:1052D00005F07F4210434FEA01161A6888BF40EA82
:1052E000056091B9516A394001435162012C9969B5
:1052F000916103D8596A21F07F4191620122002017
:1053000083F8392083F83800F0BDD1693940014372
:10531000D1619919012C896911619CBF25F07F45E4
:105320001562EBE7F0FFFC002DE9F74FDFF8BC91C9
:105330006C4A00230D6801249C4004EA0506AC4336
:1053400040F0B7804D68032705F003044FEA430897
:1053500007FA08FC671E012F6FEA0C0C34D8876827
:1053600007EA0C0ECF6807FA08F747EA0E078760CE
:10537000476827EA060EC5F300179F4047EA0E0765
:105380004760C76807EA0C0E8F6807FA08F747EA14
:105390000E07022CC76019D14FEAD30A00EB8A0A24
:1053A00003F0070BDAF820704FEA8B0B4FF00F0E6B
:1053B0000EFA0BFE27EA0E0E0F6907FA0BF747EA03
:1053C0000E07CAF8207001E0032CDAD1076804FA4E
:1053D00008F407EA0C073C4315F4403F046068D02A
:1053E00000240194D9F8444044F48044C9F844406E
:1053F000D9F8444023F0030707F1804704F48044C0
:1054000007F59C37019403F0030C019CD7F808E0E2
:105410004FEA8C0C0F2404FA0CF42EEA040E324CE2
:10542000A0424DD004F58064A0424BD004F58064C6
:10543000A04249D004F58064A04247D004F58064BE
:10544000A04245D004F58064A04243D004F58064B6
:10545000A04241D004F58064A0423FD004F58064AE
:10546000A0423DD004F58064A04214BF0A24092460
:1054700004FA0CF444EA0E04BC609468F74315F493
:10548000801F0CBF3C4034439460D46815F4001F67
:105490000CBF3C403443D460546815F4003F0CBF4B
:1054A0003C40344354601468ED0354BF3C403443E3
:1054B00014600133102B7FF43DAF03B0BDE8F08FD3
:1054C0000024D5E70124D3E70224D1E70324CFE762
:1054D0000424CDE70524CBE70624C9E70724C7E762
:1054E0000824C5E7003C01400000024000380240AB
:1054F0000369194214BF0120002070470AB181617D
:1055000070470904FBE7436901EA030221EA03014A
:1055100041EA02418161704701684B6913F480637D
:105520004FF0000210D06FF480634B6120230263C0
:1055300080F83D3080F83E20036C80F83C2043F03A
:105540000403036401207047184670472DE9F846AC
:1055500006460F4691461D464FEA114A3368BAF196
:10556000010F0CBF5C699C6927EA0404A4B2B4FA79
:1055700084F46409A14501D0002025E06A1CEED026
:10558000FFF746FB089BC01AA84201D8002DE5D1C1
:105590003368BAF1010F0CBF5B699B6927EA03030B
:1055A0009BB2B3FA83F35B099945D7D1002320223C
:1055B000336386F83D2086F83E30326C86F83C3006
:1055C00042F0200232640120BDE8F8862DE9F04166
:1055D00004460F46164698462568686927EA000083
:1055E00080B2C0B16B695A0517D52B6843F40073BC
:1055F0002B606FF480636B6120220023236384F8A7
:105600003D2084F83E30236C43F0040323640023E0
:1056100084F83C300120BDE8F081731CDDD0FFF739
:10562000F7FAA0EB0800B04201D8002ED4D12368CD
:105630005A6927EA020292B2002ACDD00023202222
:10564000236384F83D2084F83E30236C1343DDE768
:1056500070B504460D46164623685B691B0601D5E6
:1056600000201EE02046FFF757FFC8B96A1CF3D0A0
:10567000FFF7CEFA801BA84201D8002DECD1236899
:105680005B6913F08003E7D12022236384F83D2077
:1056900084F83E30226C84F83C3042F020022264D0
:1056A000012070BD2DE9F0431546026885B0DDE9A3
:1056B0000C789946136843F4807313600E463B469A
:1056C000CDF8008000224FF001110446FFF73EFFA5
:1056D000236838B11B68DB0502D54FF400732364DF
:1056E000032620E006F0FE061E611A4943463A46AC
:1056F0002046FFF76BFFA8B9236803905A6903920D
:105700009B690393424639462046039BFFF7A0FF5F
:10571000064660B1236C042B01BF2268136843F472
:10572000007313600126304605B0BDE8F083B9F17F
:10573000010F236802D1EDB21D61F4E72A0A1A6154
:10574000394642462046FFF783FF0028E2D123680E
:10575000F1E700BF020001002DE9FF479A46036808
:1057600015461A6842F480621A601A68DDE90C78FE
:1057700042F480721A600E463B46CDF8008000224B
:105780004FF001110446FFF7E1FE236838B11B68B2
:10579000DB0544BF4FF400732364032021E05FFA6C
:1057A00086F906F0FE061E612B4943463A4620461E
:1057B000FFF70CFFA0B9236803905A6903929B6915
:1057C0000393424639462046039BFFF741FF58B1F9
:1057D000236C042B01BF2268136843F40073136029
:1057E000012004B0BDE8F087BAF1010F23681AD197
:1057F000EDB242461D6139462046FFF729FF0246B9
:105800000028E5D121680B6843F480730B602046C3
:10581000CDF800803B464FF00111FFF797FE22685C
:1058200060B11368B4E72A0A1A6139464246204635
:10583000FFF70EFF0028CBD12368D9E749F0010319
:105840001361054943463A462046FFF7BFFE00383C
:1058500018BF0120C5E700BF0200010070B5044673
:105860000D46164623685B695B0701D500201EE0E4
:105870002046FFF751FEC8B96A1CF3D0FFF7C8F9FC
:10588000801BA84201D8002DECD123685B6913F07E
:105890000403E7D12022236384F83D2084F83E30BE
:1058A000226C84F83C3042F020022264012070BD5A
:1058B00070B504460D46164621684B6913F0400347
:1058C00001D0002011E04A69D2060FD56FF0100216
:1058D0004A612022236384F83D2084F83E30236C03
:1058E0002364002384F83C30012070BDFFF790F959
:1058F000801BA84201D8002DDED123685B6913F01C
:105900004003D9D12022236384F83D2084F83E301F
:10591000236C1343E4E7000070B5044608B9012086
:1059200070BD90F83D3003F0FF021BB980F83C20B9
:10593000FCF7D2FA242384F83D3023681A6822F059
:1059400001021A601A6842F400421A601A6822F4CE
:1059500000421A6000F08AFE3F4B65689D4294BF8A
:105960003E4B3F4B98428CBF00230123002BD6D1E6
:105970002268394E51683B4BB0FBF3F321F03F01F5
:105980001943B542516088BF4FF49676116A88BFBB
:10599000734321F03F0184BF4FF47A76B3FBF6F3F3
:1059A00001330B431362D169431E2B4821F44F414D
:1059B000854221F0FF0132D86D0040F6FC70B3FB48
:1059C000F5F30133034242D0C3F30B031943D16112
:1059D000D4E907301168034321F0C0010B43136081
:1059E0009168D4E9030321F40341034321F0FF014B
:1059F0000B439360D4E90530D168034321F0FF01E4
:105A00000B43D360136843F001031360002020238D
:105A1000206484F83D30206384F83E0080E7A0686D
:105A200050B905EB4505B3FBF5F30133C3F30B03A5
:105A30007BB143F40043C9E719206843B3FBF0F39B
:105A40000133C3F30B0323B143F44043BEE7042304
:105A5000BCE70123BAE700BFA08601007F841E00D7
:105A6000FF083D0040420F002DE9F74304469946E8
:105A70000C9E0F469046FFF7CBF894F83D30202B54
:105A8000054603D0022003B0BDE8F08300903C49F6
:105A9000192301222046FFF759FD0028F2D194F87E
:105AA0003C30012BEED02068012384F83C300368A1
:105AB000D9075EBF036843F001030360036823F462
:105AC00000630360212384F83D30402384F83E3096
:105AD000002323640A9B6362BDF82C306385638DC9
