:020000040800F2
:100000000000032069870008733500087535000873
:1000100077350008793500087B35000800000000BE
:10002000000000000000000000000000717F0008D8
:100030007D350008000000000180000821790008DB
:10004000B9870008B9870008B9870008B987000890
:10005000B9870008B9870008B9870008B987000880
:10006000B9870008B9870008B9870008B987000870
:10007000B9870008B9870008B9870008B987000860
:10008000B9870008B9870008B9870008B987000850
:10009000B9870008B9870008B9870008B987000840
:1000A000B9870008B9870008B9870008B987000830
:1000B000B9870008B9870008B9870008B987000820
:1000C000B9870008B9870008B9870008B987000810
:1000D000B9870008B9870008B9870008B987000800
:1000E000B9870008B9870008B9870008B9870008F0
:1000F000B9870008B9870008B9870008B9870008E0
:10010000B9870008B9870008B9870008B9870008CF
:10011000B9870008B987000881350008B987000849
:10012000B9870008B9870008B9870008B9870008AF
:10013000B9870008B9870008B9870008B98700089F
:10014000B9870008B9870008B9870008B98700088F
:10015000B9870008B9870008B9870008B98700087F
:10016000B9870008B9870008B9870008B98700086F
:10017000B9870008B9870008B987000800000000A7
:10018000B9870008B9870008B9870008B98700084F
:10019000B9870008B9870008B9870008B98700083F
:0C01A0008D350008B9870008993500086B
:1001B00010B5054C237833B9044B13B10448AFF3A1
:1001C00000800123237010BD800300200000000088
:1001D0007828020808B5034B1BB103490348AFF365
:1001E000008008BD00000000840300207828020879
:1001F00081F0004102E000BF83F0004330B54FEAD8
:1002000041044FEA430594EA050F08BF90EA020F44
:100210001FBF54EA000C55EA020C7FEA645C7FEAD7
:10022000655C00F0E2804FEA5454D4EB5555B8BFFA
:100230006D420CDD2C4480EA020281EA030382EA6B
:10024000000083EA010180EA020281EA0303362DFD
:1002500088BF30BD11F0004F4FEA01314FF4801CD0
:100260004CEA113102D0404261EB410113F0004FE2
:100270004FEA03334CEA133302D0524263EB430399
:1002800094EA050F00F0A780A4F10104D5F1200E37
:100290000DDB02FA0EFC22FA05F2801841F1000192
:1002A00003FA0EF2801843FA05F359410EE0A5F166
:1002B00020050EF1200E012A03FA0EFC28BF4CF097
:1002C000020C43FA05F3C01851EBE37101F000454D
:1002D00007D54FF0000EDCF1000C7EEB00006EEB5A
:1002E0000101B1F5801F1BD3B1F5001F0CD34908E4
:1002F0005FEA30004FEA3C0C04F101044FEA44523B
:1003000012F5800F80F09A80BCF1004F08BF5FEAC1
:10031000500C50F1000041EB045141EA050130BDA1
:100320005FEA4C0C404141EB010111F4801FA4F144
:100330000104E9D191F0000F04BF01460020B1FA99
:1003400081F308BF2033A3F10B03B3F120020CDAD1
:100350000C3208DD02F1140CC2F10C0201FA0CF0AF
:1003600021FA02F10CE002F11402D8BFC2F1200C14
:1003700001FA02F120FA0CFCDCBF41EA0C019040CA
:10038000E41AA2BF01EB0451294330BD6FEA040413
:100390001F3C1CDA0C340EDC04F11404C4F12002FE
:1003A00020FA04F001FA02F340EA030021FA04F310
:1003B00045EA030130BDC4F10C04C4F1200220FA67
:1003C00002F001FA04F340EA0300294630BD21FAA5
:1003D00004F0294630BD94F0000F83F4801306BF6B
:1003E00081F480110134013D4EE77FEA645C18BF5F
:1003F0007FEA655C29D094EA050F08BF90EA020FF6
:1004000005D054EA000C04BF1946104630BD91EAED
:10041000030F1EBF0021002030BD5FEA545C05D1F0
:100420004000494128BF41F0004130BD14F580042F
:100430003CBF01F5801130BD01F0004545F0FE41A3
:1004400041F470014FF0000030BD7FEA645C1ABFD8
:10045000194610467FEA655C1CBF0B46024650EA0F
:10046000013406BF52EA033591EA030F41F400213B
:1004700030BD00BF90F0000F04BF0021704730B5C1
:100480004FF4806404F132044FF000054FF0000196
:1004900050E700BF90F0000F04BF0021704730B557
:1004A0004FF4806404F1320410F0004548BF40422C
:1004B0004FF000013EE700BF42004FEAE2014FEA81
:1004C00031014FEA02701FBF12F07F4393F07F4F5C
:1004D00081F06051704732F07F4208BF704793F05F
:1004E0007F4F04BF41F40021704730B54FF4607472
:1004F00001F0004521F000411CE700BF50EA010275
:1005000008BF704730B54FF000050AE050EA01021D
:1005100008BF704730B511F0004502D5404261EB8D
:1005200041014FF4806404F132045FEA915C3FF4CE
:10053000D8AE4FF003025FEADC0C18BF03325FEA6B
:10054000DC0C18BF033202EBDC02C2F1200300FA1C
:1005500003FC20FA02F001FA03FE40EA0E0021FA41
:1005600002F11444BDE600BF70B54FF0FF0C4CF42F
:10057000E06C1CEA11541DBF1CEA135594EA0C0FE1
:1005800095EA0C0F00F0DEF82C4481EA030621EA1C
:100590004C5123EA4C5350EA013518BF52EA033557
:1005A00041F4801143F4801338D0A0FB02CE4FF009
:1005B0000005E1FB02E506F00042E0FB03E54FF039
:1005C0000006E1FB03569CF0000F18BF4EF0010E31
:1005D000A4F1FF04B6F5007F64F5407404D25FEA2D
:1005E0004E0E6D4146EB060642EAC62141EA5551E0
:1005F0004FEAC52040EA5E504FEACE2EB4F1FD0C22
:1006000088BFBCF5E06F1ED8BEF1004F08BF5FEA9F
:10061000500E50F1000041EB045170BD06F0004651
:1006200046EA010140EA020081EA0301B4EB5C04FE
:10063000C2BFD4EB0C0541EA045170BD41F48011F6
:100640004FF0000E013C00F3AB8014F1360FDEBF1B
:10065000002001F0004170BDC4F10004203C35DAF7
:100660000C341BDC04F11404C4F1200500FA05F37A
:1006700020FA04F001FA05F240EA020001F000421B
:1006800021F0004110EBD37021FA04F642EB060191
:100690005EEA430E08BF20EAD37070BDC4F10C04BB
:1006A000C4F1200500FA04F320FA05F001FA04F27F
:1006B00040EA020001F0004110EBD37041F100016B
:1006C0005EEA430E08BF20EAD37070BDC4F1200576
:1006D00000FA05F24EEA020E20FA04F301FA05F2DE
:1006E00043EA020321FA04F001F0004121FA04F286
:1006F00020EA020000EBD3705EEA430E08BF20EA56
:10070000D37070BD94F0000F0FD101F0004640008F
:1007100041EB010111F4801F08BF013CF7D041EA11
:10072000060195F0000F18BF704703F00046520015
:1007300043EB030313F4801F08BF013DF7D043EAE6
:100740000603704794EA0C0F0CEA135518BF95EA9C
:100750000C0F0CD050EA410618BF52EA4306D1D123
:1007600081EA030101F000414FF0000070BD50EA42
:10077000410606BF1046194652EA430619D094EACC
:100780000C0F02D150EA013613D195EA0C0F05D1B6
:1007900052EA03361CBF104619460AD181EA03010A
:1007A00001F0004141F0FE4141F470014FF00000C2
:1007B00070BD41F0FE4141F4780170BD70B54FF05D
:1007C000FF0C4CF4E06C1CEA11541DBF1CEA1355DD
:1007D00094EA0C0F95EA0C0F00F0A7F8A4EB0504BF
:1007E00081EA030E52EA03354FEA013100F08880B6
:1007F0004FEA03334FF0805545EA131343EA12637F
:100800004FEA022245EA111545EA10654FEA002633
:100810000EF000419D4208BF964244F1FD0404F5EC
:10082000407402D25B084FEA3202B61A65EB030548
:100830005B084FEA32024FF480104FF4002CB6EB05
:10084000020E75EB030E22BFB61A754640EA0C0085
:100850005B084FEA3202B6EB020E75EB030E22BFC5
:10086000B61A754640EA5C005B084FEA3202B6EB06
:10087000020E75EB030E22BFB61A754640EA9C00C5
:100880005B084FEA3202B6EB020E75EB030E22BF95
:10089000B61A754640EADC0055EA060E18D04FEA53
:1008A000051545EA16754FEA06164FEAC30343EAF3
:1008B00052734FEAC2025FEA1C1CC0D111F4801FC0
:1008C0000BD141EA00014FF000004FF0004CB6E7B9
:1008D00011F4801F04BF01430020B4F1FD0C88BF58
:1008E000BCF5E06F3FF6AFAEB5EB030C04BFB6EB63
:1008F000020C5FEA500C50F1000041EB045170BD56
:100900000EF0004E4EEA113114EB5C04C2BFD4EB82
:100910000C0541EA045170BD41F480114FF0000E06
:10092000013C90E645EA060E8DE60CEA135594EA82
:100930000C0F08BF95EA0C0F3FF43BAF94EA0C0F85
:100940000AD150EA01347FF434AF95EA0C0F7FF4FA
:1009500025AF104619462CE795EA0C0F06D152EA4E
:1009600003353FF4FDAE1046194622E750EA410632
:1009700018BF52EA43067FF4C5AE50EA41047FF443
:100980000DAF52EA43057FF4EBAE12E74FEA4102A6
:10099000B2F1E04324BFB3F5001CDCF1FE5C0DD9DD
:1009A00001F0004C4FEAC0024CEA5070B2F1004F27
:1009B00040EB830008BF20F00100704711F0804F2A
:1009C00021D113F13872BCBF01F00040704741F4EF
:1009D00080114FEA5252C2F11802C2F1200C10FAF3
:1009E0000CF320FA02F018BF40F001004FEAC123D7
:1009F0004FEAD32303FA0CFC40EA0C0023FA02F37B
:100A00004FEA4303CCE77FEA625307D150EA013350
:100A10001EBF4FF0FE4040F44000704701F0004020
:100A200040F0FE4040F40000704700BF7BB972B94F
:100A30000029BEBF00204FF0004106E008BF00289B
:100A40001CBF6FF000414FF0FF3000F0BDB9ADF1B9
:100A5000080C6DE904CE002909DB002B1ADB00F03D
:100A60004DF8DDF804E0DDE9022304B070474042B0
:100A700061EB4101002B1BDB00F040F8DDF804E0E6
:100A8000DDE9022304B0404261EB4101524263EBD5
:100A900043037047524263EB430300F02FF8DDF845
:100AA00004E0DDE9022304B0404261EB41017047FC
:100AB000524263EB430300F021F8DDF804E0DDE986
:100AC000022304B0524263EB4303704753B94AB95F
:100AD000002908BF00281CBF4FF0FF314FF0FF3046
:100AE00000F072B9ADF1080C6DE904CE00F006F823
:100AF000DDF804E0DDE9022304B070472DE9F0479A
:100B0000089E04468846002B4BD18A42154667D979
:100B1000B2FA82F24AB1C2F1200701FA02F320FAD6
:100B200007F7954047EA030894404FEA154E230C17
:100B3000B8FBFEF71FFA85FC0EFB178843EA084353
:100B400007FB0CF1994209D9EB1807F1FF3080F04F
:100B50001B81994240F21881023F2B445B1AA4B2D8
:100B6000B3FBFEF00EFB103344EA034400FB0CFC25
:100B7000A44509D92C1900F1FF3380F00781A44561
:100B800040F2048102382C4440EA0740A4EB0C04F4
:100B900000271EB1D4400023C6E900433946BDE812
:100BA000F0878B4209D9002E00F0EB800027C6E9C0
:100BB000000138463946BDE8F087B3FA83F7002FC5
:100BC00047D18B4202D3824200F2FA80841A61EB51
:100BD000030301209846002EE0D0C6E90048DDE777
:100BE00002B9FFDEB2FA82F2002A40F08F80491B80
:100BF0004FEA154E1FFA85F80127B1FBFEFC230CC6
:100C00000EFB1C1143EA014308FB0CF1994207D982
:100C1000EB180CF1FF3002D2994200F2CD808446ED
:100C2000591AA3B2B1FBFEF00EFB101443EA0444C0
:100C300008FB00F8A04507D92C1900F1FF3302D2B8
:100C4000A04500F2B6801846A4EB080440EA0C4028
:100C50009FE7C7F1200CBB4022FA0CFE4EEA030EC0
:100C600001FA07F420FA0CF521FA0CF34FEA1E48BA
:100C70002543B3FBF8F92C0C08FB19331FFA8EFA45
:100C800044EA034309FB0AF49C4202FA07F200FA21
:100C900007F10BD91EEB030309F1FF3080F08780C9
:100CA0009C4240F28480A9F1020973441B1BADB23F
:100CB000B3FBF8F008FB103345EA034400FB0AFAE3
:100CC000A24508D91EEB040400F1FF336BD2A24504
:100CD00069D90238744440EA0940A0FB0289A4EBB8
:100CE0000A044C45C2464B4654D351D0002E69D01D
:100CF000B1EB0A0564EB030404FA0CFCFD40FC4074
:100D00004CEA0505C6E90054002747E7C2F1200375
:100D100020FA03F7954001FA02F021FA03F34FEAB3
:100D2000154E3843010CB3FBFEF71FFA85F80EFB96
:100D3000173341EA034107FB08F38B4204FA02F43C
:100D400007D9691807F1FF3C2FD28B422DD9023FFA
:100D50002944CB1A81B2B3FBFEF00EFB103341EAFB
:100D6000034100FB08F38B4207D9691800F1FF3CEF
:100D700017D28B4215D902382944C91A40EA0747CD
:100D80003BE73746304609E70746E7E61846FBE605
:100D90004145ABD2B8EB020A69EB0E0201381346AB
:100DA000A4E76046E9E7184695E76746D1E781463C
:100DB0007CE702382C4447E7ACF1020C2B442FE7C8
:100DC000384608E73746E9E6704700BF00000000F4
:100DD00001F0FF01102A2BDB10F0070F08D010F8EC
:100DE000013B013A8B422DD010F0070F42B3F6D1F0
:100DF000F0B441EA012141EA014122F007047FF009
:100E000000070023F0E80256083C85EA010586EA5F
:100E1000010685FA47F5A3FA87F586FA47F6A5FA9B
:100E200087F68EB9EED1F0BC01F0FF0102F00702A7
:100E300032B110F8013B013A83EA010313B1F8D152
:100E40000020704701387047002D06BF3546033833
:100E5000073815F0010F07D1013015F4807F02BF6C
:100E6000013015F4C03F0130F0BC0138704700BFBD
:100E7000704770477047704710B5034B03600446D6
:100E800000F0EAF8204610BDD828020810B5044644
:100E9000FFF7F2FF20464FF48E711FF07DFC2046D5
:100EA00010BD000010B5044600F010F9014B23609E
:100EB000204610BDD828020800F0CFB8704704388B
:100EC0007047704710B5102104461FF065FC20469E
:100ED00010BDA0F10400F5E710B500228260044ABD
:100EE000C16002F1080420320460426010BD00BFFE
:100EF00004290208704704387047704710B5102164
:100F000004461FF049FC204610BDA0F10400F5E79F
:100F100010B500228260044AC16002F10804203248
:100F20000460426010BD00BF2C2902087047000019
:100F300010B5034B0360044600F07AF9204610BD5B
:100F40005C29020810B50446FFF7F2FF2046C421D1
:100F50001FF022FC204610BD10B5044600F0E4F955
:100F6000014B2360204610BD5C29020800F061B9E6
:100F70000022026070477047704700F59873086858
:100F8000496803C37047704700F046BB10B54FF483
:100F9000AE7104461FF000FC204610BD10B504469B
:100FA000D0F85801FFF7E7FF2046BDE810400DF0EC
:100FB000BBB910B50446D0F8400158B10368DB68EE
:100FC000984738B1D4F8400103689B6898470023DC
:100FD000C4F8403110BD000010B5044600F0E0FA3E
:100FE000014B2360204610BD9029020890F825206F
:100FF00012B103685B691847704700207047818011
:101000007047C180704701817047418170477047C8
:101010007047704770477047C38810B4D21A8388EE
:101020005DF8044BC91A036812B25B6D09B2184728
:101030004FF6FF7383814FF0FF3303621368C36180
:101040001060704790F825201AB190F8242002B162
:1010500018607047704770477047704710B54FF47D
:101060008E7104461FF098FB204610BD70B50368D2
:1010700004461B6B154698472368294620465B6B40
:10108000BDE8704018470000002310B58380C3807E
:10109000038143818381C38103824382C0E9053395
:1010A000C3610384438480F82430012380F8253011
:1010B000054B03600B88C384FF23044680F8283067
:1010C0000AF0F3FB204610BDE03D02082DE9F04F89
:1010D000044685B026460FF0A1F804AD0022524B1D
:1010E000E2634FF6FF7B46F8403B012325F804BD41
:1010F00084F865304D4B236404F16C0AFF2384F8B7
:101100006630A4F84420A4F84620A4F84820A4F8A7
:101110004A20A4F84C20A4F84E20A4F85020A4F8AB
:101120005220C4E91522E265A4F86020A4F86220E8
:1011300084F86420A26604F1980929465046019279
:1011400004F1C408FFF7A0FF2946484604F1F00760
:10115000ADF80CB0FFF798FF29464046ADF80CB04B
:10116000FFF792FF29463846ADF80CB0FFF78CFF29
:10117000019A30461146FFF779FF3046F021FFF71C
:1011800042FF30464FF4A071FFF73FFF04F1040B1C
:101190004FF07F43A3663146584607F047FB40F2C5
:1011A000131250465A21FFF761FF04232946504687
:1011B000ADF80C300AF079FB5146584607F036FB83
:1011C000902248466421FFF751FF052329464846EF
:1011D000ADF80C300AF069FB4946584607F026FB8B
:1011E0005F2240466421FFF741FF03232946404622
:1011F000ADF80C300AF059FB4146584607F016FB93
:101200002A2238466421FFF731FF06232946384653
:10121000ADF80C300AF049FB5846394607F006FB9A
:10122000204605B0BDE8F08FE4290208783D0208A9
:1012300070477047704730B4C56844686A10034609
:10124000ED0704EB02009B6848BFA25830BC48BFC2
:10125000D358184743682BB183682BB9C06800F096
:1012600001007047184670470120704710B51021E3
:1012700004461FF091FA204610BD10B5C421044663
:101280001FF08AFA204610BD6C30884208B505D19F
:101290000CF0C8FFBDE8084000F0CEB908BD000062
:1012A000F8B51A4B018F1B888B42064629D9184B7B
:1012B0001B682BB9174B184A18486C2120F0F8FA14
:1012C00013F81120164B1B6853F82250154B186861
:1012D00000F09EFD2B6807469B6B284698472B68BD
:1012E00004469B6C3946284698472B6814FB00F44B
:1012F0005B6A394628469847A4B22044A6F84600BF
:10130000F8BD0023A0F84630FAE700BF882401208A
:1013100084240120282A0208E02A02086A2A0208F6
:101320008C240120902401202DE9F7430446264611
:101330000EF074FF0025364BE56346F8403B354B15
:10134000236404F16C074FF00108FF2384F8663032
:10135000A4F84450A4F84650A4F84850A4F84A50C1
:10136000A4F84C50A4F84E50A4F85050A4F8525091
:10137000C4E91555E565A4F86050A4F8625084F8F6
:10138000645084F86580A56638460AF0CFFB224B8E
:10139000C4E92D34214B2946C4E92F353046FFF7E7
:1013A0002EFE29463046FFF72CFE3046F021FFF78F
:1013B0002AFE30464FF4A071FFF727FE04F104091E
:1013C0004FF07F43A3663146484607F02FFA02AA42
:1013D0004FF45203236722F8048D69463846ADF86E
:1013E00000500AF09CF93846A4F8A480FFF758FF93
:1013F0004FF0FF33C4E92A3304F1B4034846C4F87C
:101400009430394607F012FA204603B0BDE8F08365
:10141000B42A0208783D0208182A02088912000836
:1014200070477047704741607047704701230372EF
:10143000704770477047704710B4C46841686210C5
:101440000346E40701EB02009B6848BF8A585DF839
:10145000044B48BFD358184743682BB183682BB956
:10146000C06800F0010070471846704701207047BF
:1014700010B50C2104461FF08FF9204610BD10B5A1
:101480004FF4AE7104461FF087F9204610BD10B529
:10149000102104461FF080F9204610BD10B54021F0
:1014A00004461FF079F9204610BD10B50CF0BAFEC5
:1014B0000368BDE81040DB6B184770B5044690F830
:1014C000390094F838300130C0B2984284F83900BD
:1014D00005D901232372002384F8393070BDB4F993
:1014E0003A2000210FF04CF883B213F0010206D02D
:1014F0004FF6FF710028D8BF0A46981800B2238A19
:10150000C01AA08760680368DB69984705464DB13B
:10151000A988A38F19442B6828461B6B09B29847EA
:10152000AD69F4E760680368BDE870405B6918471F
:10153000054B1B783BB143682BB11A6800F10C01D5
:10154000526E1846104770472924012070B5037A5F
:101550000546BBB940680368DB69984704464CB14F
:10156000A1886B8FC91A236820461B6B09B2984764
:10157000A469F4E76868036805F10C011B6EBDE817
:101580007040184770BD0000044B1B6893F858204A
:101590000AB1D86C00B99868704700BF2C240120AC
:1015A000F8B5044617460E460CF0FEFE164BC4F87E
:1015B00054711C60154B2360154BC4F84431154B16
:1015C000C4F8586100251868C4F83C51C4F840516B
:1015D000C4F84851C4F84C51C4F850510368012173
:1015E0009B689847284600F0D9FBFFF7CDFF16F01F
:1015F000ACFFFFF7C9FF17F023F8FFF7C5FF17F09F
:101600002BF82046F8BD00BF802401203C2B0208A7
:10161000242B02082C240120064BC0F84C31002357
:10162000C0F8503100F5A273C0F84801C0F840314D
:10163000704700BF99170008064BC0F84C310023D3
:10164000C0F8503100F5A273C0F84801C0F840312D
:10165000704700BF691900082DE9F04707469068F8
:10166000DDF820A0994603681B6A8846154698470E
:10167000C32805D8424B434AA321434820F018F918
:10168000686803681B6A98470F2803D83F4B3D4A98
:10169000A421F2E7E86803681B6A98470B2803D87F
:1016A0003B4B384AA521E8E70CF0BCFD04300CF0B8
:1016B000DEFDD9F8000010B10368DB689847D9F85F
:1016C000000010B103681B689847386810B10368C0
:1016D0005B699847D8F8000010B103685B689847C9
:1016E000386810B103681B689847D8F8000010B13B
:1016F00003689B689847E868036800215B6A98471D
:10170000044620B1002343600372224B0360A868A3
:10171000036800215B6A9847064608B1FFF71CFC86
:101720006868036800215B6A9847054610B1314636
:10173000FFF7EEFBC9F80040C8F800503E60E5B185
:101740002B1DCAF80030C5F808A03368F563304691
:10175000DB6898472B6828461B6898472146304627
:101760000EF008FF236820461B699847236820462F
:101770005B6998472846BDE8F0872B46E1E700BF44
:10178000D02B0208E52D02085E2C02089F2C0208CF
:10179000422D0208902B020807B5D0F8583100936B
:1017A000D0F85421044B00F59E710448FFF754FF14
:1017B00003B05DF804FB00BF7424012070240120F5
:1017C0002DE9F74F07469068994603681B6A8846DB
:1017D00015469847B0F58E7F05D25A4B5A4AA32139
:1017E0005A4820F065F8686803681B6A98470F2814
:1017F00003D8574B544AA421F2E7E86803681B6AF0
:1018000098473F2803D8534B4F4AA521E8E70CF0EF
:1018100009FD04300CF02BFDD9F8000010B103686D
:10182000DB689847D9F8000010B103681B68984737
:10183000386810B103685B699847D8F8000010B1A8
:1018400003685B689847386810B103681B6898475D
:10185000D8F8000010B103689B689847E8680368EF
:1018600000215B6A98470446B0B106464FF0000B72
:10187000394BC0F804B080F808B046F80C3B30464D
:1018800009F0EEFE14232387344BA4F83CB01B78F8
:10189000002B38D101232372A868036800215B6AFA
:1018A0009847064608B1FFF7FDFA6868036800210B
:1018B0005B6A9847054610B13146FFF70DFBC9F842
:1018C0000040C8F800503E60002D38D02B1D0C9A07
:1018D0001360AA603368F5633046DB6898472B686D
:1018E00028461B689847214630460EF043FE236881
:1018F00020461B699847236820465B69984728461D
:1019000003B0BDE8F08F164AE068DFF858A0B2F9DE
:101910000020C4F810B0836BBAF900100192304671
:101920009847E168019ACB6B30461146984730469C
:1019300009F011FEBAF800305B426387ACE72B4632
:10194000C5E700BFD02B0208E92E02085E2C020872
:101950009F2C0208422D0208B42B020829240120E2
:10196000202401201E24012007B5D0F8583100930F
:10197000D0F85421044B00F59E710448FFF720FF76
:1019800003B05DF804FB00BF742401207024012023
:1019900013B5002249B102AB019203F8052D02688C
:1019A000946801AAA04702B010BD0846FBE7C089B1
:1019B0007047008A7047C088704780887047807A77
:1019C00000F07F007047807AC009704700207047A0
:1019D0009FED010A704700BF00000000406A704799
:1019E000806A7047704710B58A880B884C88C16937
:1019F000D20A43EA044351F82200184410BD10B53E
:101A0000C2B1137BB3B1547BD27A240204F4E064F4
:101A10001443026A98B202EB840213888B4202D10B
:101A200092F9020010BD05D8013880B204320028B6
:101A3000F3D1F7E70020F5E710B52C2104461EF09E
:101A4000ABFE204610BD000030B58BB00446BDF89B
:101A500060500895BDF85C5007959DF8505006956C
:101A60009DF84C5005959DF8485004959DF84450BC
:101A700003959DF8405002959DF83C500195BDF8A6
:101A8000385000950EF0D0F9064B2360159BE361AA
:101A9000169B2362199B63621A9BA36220460BB0BC
:101AA00030BD00BF1030020830B5174D2C78BFF3A1
:101AB0005B8F14F001048FB022D128461EF043FE44
:101AC000F0B13F230993114B0893114B11490A942C
:101AD0000122CDE906430423CDE903320A23009312
:101AE000CDE90B440594CDE901440B48FFF7ACFF69
:101AF00028461EF034FE094A094907481EF047FEF1
:101B000005480FB030BD00BF9C030020F44C020814
:101B1000F04C02080C4C0208A0030020000000203A
:101B2000E5190008704710B5082104461EF034FE80
:101B3000204610BD10B5002404600C6014601C60C9
:101B400010BD000030B5174D2C78BFF35B8F14F03B
:101B500001048FB022D128461EF0F5FDF0B13F23DD
:101B60000993114B0893114B11490A940122CDE9B5
:101B700006430423CDE9033228230093CDE90B4427
:101B80000594CDE901440B48FFF75EFF28461EF09F
:101B9000E6FD094A094907481EF0F9FD05480FB05E
:101BA00030BD00BFCC030020EC4C0208104D0208F1
:101BB000344C0208D003002000000020E519000882
:101BC00030B5184D2C78BFF35B8F14F001048FB043
:101BD00024D128461EF0B7FD00B33F230993124BD2
:101BE0000893124B07930123CDE905430493042383
:101BF000CDE9024314230C220D490093CDE90B4497
:101C000018230A9401940B48FFF71EFF28461EF084
:101C1000A6FD094A094907481EF0B9FD05480FB05D
:101C200030BD00BFFC030020F84C0208144D020830
:101C3000444C02080004002000000020E5190008C0
:101C4000704710B5042104461EF0A6FD204610BDC5
:101C500008B503290FD8DFE801F00A02060A00F0F0
:101C600015F8406808BD00F011F88068FAE700F048
:101C70000DF80068F6E70020F4E700000048704720
:101C800094300208072070470220704700487047D0
:101C90002C04002010B5FFF793FF044C2060FFF7E1
:101CA00051FF6060FFF700FFA06010BD2C04002012
:101CB00000207047002070470EB403B503AB00212D
:101CC00053F8042B01930DF035FB02B05DF804EBE3
:101CD00003B070470CB407B504AB53F8042B019361
:101CE0000DF028FB03B05DF804EB02B07047000074
:101CF00010B5436C044673B3038F2BB9184B194AC4
:101D0000C52119481FF0D4FDC38E00EB43035B8C43
:101D10000BB30FF0A2F9238F012B03D8134B144AF6
:101D2000CB21EEE7E28E531C9BB2092B194688BFEC
:101D3000A3F10A0104EB410140F63F10498C8142B6
:101D400009D10A2B04EB420228BF002304EB430312
:101D5000508C588451842046BDE810400FF080B864
:101D6000203102084D320208293102086D31020883
:101D70007B3102080FF03BB810B586B002AC84E8A6
:101D800006001A460AAB05930193099B009321466E
:101D9000089B0BF0E5FD06B010BD000038B5D8B9C2
:101DA000114B12481B681249BBB11A689C681A444F
:101DB00002605A681A440A601C446CB10D4B002240
:101DC0001A80FFF763FF0546FFF75EFF0A4B1C60B2
:101DD0000A4B1D600A4B188038BD0A4B03600A4B42
:101DE0000B600A4B1C68E8E7380400203C04002024
:101DF0004004002044040020842401208C2401207D
:101E000088240120C8280408B8280408C428040825
:101E1000044B1B6853F82100034B1B6803EB400085
:101E2000704700BF400400203C040020012380F8DC
:101E3000781080F8793070477047002070470000B4
:101E40004164034B003118BF01211970704700BF76
:101E500029240120704700207047836B0BB108468E
:101E6000184770474FF6FF707047406803689B69DA
:101E70001847704770477047704700207047B1F9A6
:101E80000430838001207047704780F82610704727
:101E900090F82600704710B50022B1F90840B1F95A
:101EA0000A10028042808480C18010BD002202801E
:101EB00042808280C28070470177704780ED080AB7
:101EC000704780F82410704780F825107047012073
:101ED0007047983070478C307047843070470000EE
:101EE000034B902283F85A2383F85823704700BF8E
:101EF00000E100E0094A0A49D3680A48C3F30A032B
:101F0000013B9BB20B801169C1F30A0101390180C9
:101F10001364536B43F0010353637047006801403F
:101F20004E0400204C040020014B986A704700BF0B
:101F300084680140024B0122996243F8602C70478B
:101F4000846801407047704710B52C2104461EF08C
:101F500023FC204610BD10B5BC2104461EF01CFC1D
:101F6000204610BD10B531B90A4B0B4A0B4840F260
:101F7000FF211FF09DFCC0E90F120032084918BF75
:101F800001220A7002681946D2F89020BDE810407C
:101F9000104700BFF9340208EC3502083135020859
:101FA0002824012008B5094B1B888B4203D8084B15
:101FB0001B88934205D9074B074A0848A3211FF005
:101FC00077FC074B1980074B1A8008BD1E2401209F
:101FD0002024012096340208A93502083135020870
:101FE000242401202624012070B5044606F009FFB0
:101FF00023689D6E0CF016F901462046A847236819
:10200000054AD3F88C502046AC460023A2F5163181
:10201000BDE87040604700BF005802D006F0D8BE4F
:1020200006F0E2BE06F09EBE07F00DB810B50446FD
:1020300007F064FC23682046D3F8BC30BDE81040AC
:10204000184790F87A301BB1406803681B6818473E
:102050001846704710B590F8784090F834100C4B43
:102060008C421A7809D03AB90A4A0B491488088870
:1020700010800C8001221A7010BD002AFCD0054A85
:1020800005491488088810800C800022F3E700BFFF
:10209000222401201E24012020240120034B4FF084
:1020A00080629A604FF080729A60704700E100E0B1
:1020B000084B4FF08062C3F88820BFF34F8FBFF307
:1020C0006F8F4FF08072C3F88820BFF34F8FBFF33C
:1020D0006F8F704700E100E070B500238380114DE1
:1020E000114B03602A6892F85810064609B1D06C6B
:1020F00000B990680368DB6A98472B68B0FA80F4EF
:10210000D86C640928B10368DB6A9847002808BFC7
:1021100001242CB9054B064A06482C211FF0C8FBA8
:10212000304670BD2C24012000330208DC33020845
:10213000703502083A34020870B5284E3578BFF37E
:102140005B8F15F0010547D130461EF0FCFA0028E0
:1021500042D0234C234B256104F13400C4E90035FF
:10216000C4E90255E58425856585A5850DF09FFDAB
:1021700004F1580009F0CCF91B4BA36520461B4B1A
:1021800040F8843BFFF7A8FF194BC4F88430243390
:10219000C4F88C304FF4C803C4E928350023C4F8D0
:1021A000AC30C4F8B030C4F8B430C4F8B8303046FD
:1021B000104BC4F89050A4F89C5084F8A85084F8B0
:1021C000A95084F8AA50C4F898301EF0C8FA0A4AF8
:1021D0000A4920461EF0DBFA014870BD4804002081
:1021E00050040020443C02082033020898330208BF
:1021F000F83B0208D83B020800000020451F0008F9
:1022000038B5184C23685BB3174B184A1B6C118800
:102210008B4216D1164B198803F064FD236893F89E
:102220006A200025013283F86A2083F87C5000F090
:1022300083FA206807F062FB2846BDE8384000F0CA
:10224000BBBC03F04FFD2468236820461B6A9847F7
:10225000012384F87C300020BDE8384000F0D6BC73
:1022600038BD00BF2C240120006801404E0400202E
:102270004C04002003685B6C18470120704703681A
:102280009B6A1847FEE7000082B0002301930E4BC3
:102290001A6B42F400021A631A6B02F400020192F4
:1022A000019A1A6942F400021A611A6922F40002C2
:1022B0001A61064B064A1A61064A5A61064B4FF0EC
:1022C00080629A6002B070470038024040300120BE
:1022D000E52200088522000800E100E040F2EF302E
:1022E00070470000024B1B68586803685B69184719
:1022F0002C24012008B50B280BD8DFE800F01206CB
:10230000100A0A0A0A0808080808012008BD052062
:10231000FCE7054B054A06486F211FF0C9FA00206B
:10232000F4E70220F2E700BF54360208263702081D
:102330006F36020808B50A2809D8DFE800F0100651
:102340000E080808080606060600012008BD054B11
:10235000054A064890211FF0ABFA0020F6E702205C
:10236000F4E700BF54360208703702086F360208DF
:10237000F8B50C46487FFFF7BDFFA77F05463846F6
:10238000FFF7B8FF06463846FFF7D4FFA38A628BF3
:10239000D21A494B1A64A18A628B521A9A61A18A95
:1023A000228B521A1A615863A18AE28A42EA0142D8
:1023B0005A642269DA636268DA602268402A70D05F
:1023C00010D8042A3BD0202A6BD0237F45EA03652E
:1023D000394B45F40035DD61617FA27F914267D0C2
:1023E000364A4BE0B2F5807F1BD0B2F5007F23D098
:1023F000802AEAD1A068021DDA62227F45EA0265DE
:1024000045F40035DD615E6222695A610278EAB105
:10241000012A35D02A4B2B4A2B484FF48D711FF0DF
:1024200047FA217F294A42EA0162DA61E2681A62C8
:102430005E6222695A6120E0217F254AF3E7227F0C
:1024400045EA026545F40035DD61F1E7D969428866
:10245000501E21F47F4222F0100242EA0022DA618B
:102460000121154BDA6942F02002DA61DA6992063D
:10247000FCD410229A600029B2D0164A1A60F8BD26
:10248000DA694088217F22F47F4222F0100201386D
:1024900042F01002FF3942EA002218BF0121DA613E
:1024A000DFE7237F45EA036545F40035024BCBE7C0
:1024B00042F20132E2E700BF00B002400123010016
:1024C0003A360208E83602086F3602080A000200AF
:1024D000090002000123020010B5887F0C46FFF7B7
:1024E00029FF1C4B5863A18AE28A42EA01425A64DE
:1024F0002269DA63628BA18A521A1A642268082A56
:1025000016D1A18A628B521A9A61A18A628B521AE1
:102510001A615862217F104A42EA0162DA61E26878
:102520001A6222695A612269DA600C4A1A6010BD87
:102530000022D8611A61E1680A0A480902F4784267
:1025400000F4FC600243C1F3C4010A439A63044AE5
:10255000ECE700BF00B002400900010001230200C7
:1025600001230300054B0360054B4FF08062C3F865
:102570008820BFF34F8FBFF36F8F7047A0360208DC
:1025800000E100E010B50446FFF7ECFF20464FF4F1
:102590005A611EF001F9204610BD000070B50546D5
:1025A0002C460A4B0C30002668602E726E7244F87E
:1025B000203B6022214607F0F7FA05F55A63E660F2
:1025C0002434A342FBD1284670BD00BFA0360208C8
:1025D000034B1A68D207FCD423229A60704700BFCD
:1025E00000B002407047000030B50F4C2568ED0781
:1025F000FCD423250904A56041F001010225FF2B2D
:1026000065636164E0630AD00849656241EA036377
:10261000E361074B22626061E060236030BDE561E9
:10262000039BA363034BF8E700B0024009000100DD
:10263000010002000100030030B50E4C2568ED07D3
:10264000FCD423251204A56042F001020225FF2BD1
:1026500065636264E063E16008D01B0643F0021327
:10266000E361054B65626061236030BD034BE3614C
:102670000123F9E700B0024001000200020002FF5E
:1026800030B50B4C2568ED07FCD4232512041B063E
:10269000A56043F40033022542F0010265636264E1
:1026A000E063E160E361034B65626061236030BD1C
:1026B00000B0024001000200012108B500220846D6
:1026C00005F0BDF90A4B186028B90A4B0A4A2821BF
:1026D0000A481FF0EDF800220421012005F050FA0D
:1026E000074B186018B9074B034A2C21F0E708BDC7
:1026F00010050020BB3702086F38020804380208B2
:102700000C0500202D380208024B4FF0FF311868ED
:1027100005F0E0B910050020014B186805F006BA75
:1027200010050020024B0021186805F0D3B900BF46
:1027300010050020FFF7F0BF03480449006800239C
:102740001A4605F059BA00BF0C050020040000200D
:1027500013B5084C00231A4601A9206805F07EFA3B
:102760004FF0FF33002201A9206805F077FA02B08C
:1027700010BD00BF0C0500207047704770477047C0
:10278000012070474020704700EB811008307047EF
:1027900000EB811008307047012070474FF48E70B5
:1027A00070474FF48E7303FB0100083070474FF4FD
:1027B0008E7303FB01000830704701207047102022
:1027C000704700EB01100830704700EB0110083033
:1027D00070470846FEF720BF10B5034B0360044660
:1027E00006F00EF8204610BD1039020810B5044658
:1027F000FFF7F2FF204648211DF0CEFF204610BD16
:1028000010B5034B0360044605F0FAFF204610BDE7
:10281000DC38020810B50446FFF7F2FF20464FF4FB
:1028200092711DF0B9FF204610BD000010B5034B9A
:102830000360044605F0E4FF204610BDA8380208F6
:1028400010B50446FFF7F2FF204618211DF0A4FF43
:10285000204610BD10B5084B0360044600F5A87073
:10286000FFF7BAFF04F12C00FFF7CAFF04F11400D0
:10287000FFF7DCFF204610BD4439020810B50446BE
:10288000FFF7E8FF20464FF43E711DF085FF20461C
:1028900010BD00002DE9F341FFF7F0F90546FFF701
:1028A000F1F90024014623462846224600940EF002
:1028B000A7FE284B284A1A602046FFF76FFA274BDD
:1028C000274A284D9A6028480EF002FE2B78BFF365
:1028D0005B8FDB0738D428461DF035FF002833D046
:1028E000224C234B236004F5CE7604F1140004F14E
:1028F0002C0804F5A8776060C4F80880E7602661BA
:1029000005F080FF1B4B6361404605F07BFF1A4BCF
:10291000E362384605F076FF184BC4F8503104F5F1
:10292000CC70FEF725FB224604F5CC713046FEF74D
:1029300053FB3046FEF770FE28461DF010FF104A8C
:10294000104920461DF023FF0F4802B0BDE8F041BA
:1029500000F0FAB8902401205416002058160020E8
:102960001008002014050020080000201805002091
:1029700044390208A8380208DC3802081039020875
:102980000000002055280008D015002070470000E6
:10299000014800F0E7B800BFD015002010B50421B1
:1029A00004461DF0F9FE204610BD10B58C210446EA
:1029B0001DF0F2FE204610BD10B51C2104461DF08E
:1029C000EBFE204610BD10B5842104461DF0E4FE48
:1029D000204610BD2DE9F041454C464D464F474B32
:1029E00047492B60224628461DF0D1FE454EDFF8B0
:1029F00054813846FFF7D2FD2246434938461DF040
:102A0000C6FE304613F0F8FE2246404930461DF01F
:102A1000BEFE40460CF066FE22463D4940461DF093
:102A2000B6FE22463B493C481DF0B1FE3B483C49BE
:102A30008166002301220421C0E90176C560C0E956
:102A40000433C0E90633C0E90833038580F82A302F
:102A5000C3620386C0E90E33C0E9103380F8483002
:102A600080F8492080F84A3080F84B30C0E91333B1
:102A7000436580F85830C0E91733436680F86C30FE
:102A800080F86D3080F86E3080F86F3080F87D10FF
:102A90005021A0F87E101A21A0F880101421A0F86F
:102AA00082102049204D0860F02129801F4D80F8B8
:102AB000703029801E4D43674FF4A07129801D4D51
:102AC00080F8783029801C4980F879300B7080F8C4
:102AD0007C301A4B80F87A2080F87B2080F83420F4
:102AE000036022461649BDE8F0411DF050BE00BF0C
:102AF000000000202C08002030080020443A020882
:102B00007927000858160020652500087B27000853
:102B10007D270008411C000808000020D015002077
:102B2000010000012C2401201E2401202424012066
:102B300020240120262401202224012058390208C3
:102B40007F2700081008002010B50446FFF74CFA54
:102B500023680349D3F890302046BDE81040184759
:102B600000B004D008B503680446D3F88430984711
:102B700023682046DB6F9847FFF7EAFD236820466D
:102B80005B6F9847292000F099FCFFF7E1FD23686F
:102B900020465B6F9847F8E7FFF7C6B9FFF7CAB959
:102BA000FFF740BAFFF79CB9FFF778BAFFF780BA92
:102BB000FFF7A0B906F0D0B8032821D8DFE800F06D
:102BC000020B12190F4B1A68B2FA82F25209042151
:102BD0000D4802F045BA0B4B5A68B2FA82F252091C
:102BE0000821F5E7074B9A68B2FA82F252091021E0
:102BF000EEE7044BDA68B2FA82F252092021E7E7E5
:102C0000704700BFE416002000100240032821D8BE
:102C1000DFE800F0020B12190F4B1A68003218BFE0
:102C2000012204210D4802F01BBA0B4B5A680032F6
:102C300018BF01220821F5E7074B9A68003218BF38
:102C400001221021EEE7044BDA68003218BF01229E
:102C50002021E7E7704700BFE41600200010024083
:102C600003280DD8DFE800F00206080A0421054811
:102C700002F0FBB90821FAE71021F8E72021F6E776
:102C8000704700BF0010024008B5032811D8DFE8E4
:102C900000F0020A0C0E0421074802F0DBF9431E83
:102CA0005842584108BD0821F6E71021F4E72021D9
:102CB000F2E70020F3E700BF0010024070B5084DB6
:102CC00000240126E0B2FFF7DFFF28B155F82430D9
:102CD000012B18BF45F824600134052CF2D170BDDA
:102CE000E416002038B50C4B0C4C18800C4B82209D
:102CF00019806368984740F6110398420AD1094D3C
:102D000023682C60822098472B688220DB689847D4
:102D1000002038BD0120FCE7F4160020240000202C
:102D2000F6160020F81600204FF4A071F020FFF7EF
:102D3000D9BF0000F7B5394D2B6804461B698220C6
:102D4000984780B2208000285AD02B680DF10602E7
:102D50005B6901A982209847314B1B78002B57D023
:102D6000BDF8062040F674639A424BD9ADF80630A0
:102D7000BDF806209B1AADF80630BDF806200B23DF
:102D8000B2FBF3F232B1274B1B8893423CBF03F1F5
:102D9000FF3292B2BDF8043040F6B8318B4295BF95
:102DA000C3F57163C3F56D630E330833ADF80430BA
:102DB000BDF804100F23B1FBF3F131B11A4B1B889E
:102DC0008B423CBF03F1FF3189B2184E184D306879
:102DD0002F6883B2814288BFCB1AB8B298BF5B1A02
:102DE000BA428CBF101A801A9BB280B20344052BE2
:102DF000C8BF31603368C8BF2A6063802B68A38076
:102E000003B0F0BDB32A9CBFB422ADF80620AFE7F3
:102E1000BDF80630A3F5B473ADE700BFF816002087
:102E200008170020F6160020F4160020FC160020DB
:102E30000017002037B568460D461446FFF77AFFA5
:102E4000BDF8000030B1BDF802302B60BDF8043091
:102E50002360012003B030BD054BD3F8882042F435
:102E60007002C3F888204FF000629A60704700BF7C
:102E700000ED00E070B588B000230293204B1A6C7F
:102E800042F010021A641B6C03F010030293064612
:102E900001A903A8029B01F0D7F8069B4BBB01F0E8
:102EA000C3F8184C184B236040F2E733E360174B2C
:102EB000B0FBF3F001380023606020462361A3607B
:102EC000A36101F023FA054680B9204601F0DCF841
:102ED000054658B9362001F01DFF0F2E0DD82A46A1
:102EE0003146362001F0E2FE094B1E60284608B04C
:102EF00070BD01F099F84000D3E70125F6E700BF67
:102F000000380240942E01200010004040420F0083
:102F10001C00002007B5064B02A91B6821F8020D12
:102F20000122044802F0D3F903B05DF804FB00BFAE
:102F300014000020342F012008B5642004F073FD34
:102F4000FBE7000030B595B03022002108A81EF044
:102F50002AFD1422002103A81EF025FD00241E4B8B
:102F600001941A6C42F080521A641B6C03F0805377
:102F70000193019B194B02941A6842F440421A6073
:102F80001B6803F4404302930122029B4FF48033F9
:102F9000CDE9082302254FF480030821CDE90E5323
:102FA0004FF4B473CDE9101308A8042313931295BA
:102FB00000F0C2FD00F02EFD0F23CDE903354FF4E4
:102FC000A0504FF48053CDE90603052103A80594D2
:102FD00000F08CFF15B030BD00380240007000409A
:102FE00080B59AB002F09EFEFFF7ACFF14220021DC
:102FF0000DA81EF0D8FC0024C74B00941A6BC748DC
:10300000C74DDFF8588342F010021A631A6B02F0C2
:1030100010020092009A01941A6B42F020021A6387
:103020001A6B02F020020192019A02941A6B42F08C
:1030300080021A631A6B02F080020292029A0394D1
:103040001A6B42F004021A631A6B02F00402039234
:10305000039A04941A6B42F001021A631A6B02F08D
:1030600001020492049A05941A6B42F002021A6358
:103070001A6B02F002020592059A06941A6B42F04E
:1030800040021A631A6B02F040020692069A0794F5
:103090001A6B42F008021A631B6B03F00803224606
:1030A00007933C21079B01F0DBFF012202219D4891
:1030B00001F0D6FF224604219A4801F0D1FF2246B2
:1030C0004FF44051984801F0CBFF01263C23CDE955
:1030D0000D360DA903239148109302270F9401F098
:1030E000CBFE0DA98F48CDE90D76CDE90F4401F057
:1030F000C3FE04230DA98B48CDE90D36CDE90F475A
:1031000001F0BAFE0DA94FF440538748CDE90D36C2
:10311000CDE90F4701F0B0FE8448854B036002F013
:103120006FFFDFF83CE2834B2C62C5E900E32846E1
:103130004FF48043C5E90434C5E90244C5E90644B7
:1031400001F004FB1021284601F058FD21462846D5
:10315000794D01F075FD4FF48273C5E900834FF49A
:1031600000791823C5E9069328460A23C5E90244D5
:10317000C5E90444C5E90844AC62EB6202F048F8D2
:103180008F232246394667488DF824308DF8344025
:1031900001F066FF32464FF47A7309A9284602F01F
:1031A00096F84FF47A7332460DA9284602F041FA98
:1031B000324639465B48614D01F052FF9DF834308C
:1031C000D32B04BF5E4B1E705E4B0126C5E9003653
:1031D000102240230024C5E904234FF4C073C5E93D
:1031E00006344FF40063C5E908344FF40053022756
:1031F0004FF00409AB624FF0030A07230DA92846DC
:10320000CDE90D73CDE90F934FF00808C5E90249E8
:10321000CDE911A7139700F039FC4FF6FF7209A909
:10322000284608940996CDE90A860C9400F04EFCD5
:10323000304602F0A3FD4FF6FF7209A92846CDE9FA
:103240000978CDE90B6400F041FC4FF6FF7209A943
:103250002846CDE909A8CDE90B9400F037FC4FF4DE
:103260000C730893089B0C934FF6FF7209A928462C
:10327000CDE909980B9600F029FC40F26A512846E6
:1032800000F042FC34220DEB020021461EF08BFBC5
:103290002D4D2E4B2C61C5E900340923C5E90536B7
:1032A0001D23C5E9073A40F20D1140F24313C5E969
:1032B000091340F2171040F24713C5E90B03C5E9A3
:1032C0000244AC8685F83640284602F005FCFF2112
:1032D0004FF4806CF022CDE912140521CDE914C120
:1032E0004FF4A0730DA9CDE90E24CDE9164228466E
:1032F0002246174D1893CDE910370D94ADF8644070
:103300008DF8664002F0C5FC124B2B601B68984795
:103310002B68114DDB6825E00038024000100240A8
:10332000E02E012000080240000C02408C2F0120FA
:1033300000300240A0860100342F0120803001209F
:1033400008170020400100A0942F012000680140D0
:10335000041700204C0000204030012000500140A4
:10336000005C00409847134BC5E90A47C5E90C4487
:103370002846C5E90034C5E9027402F0FEF9314679
:10338000284602F0BBFA02F04CFE02F049FE04F0BF
:10339000D5FA094A0948214604F0FCFA084B094AC3
:1033A00018602146084804F0F5FA084B186004F04C
:1033B000D7FAFEE700B00240903A0208392F000821
:1033C000DC2E01206C3A0208316000083C300120FC
:1033D0007047704710B586B006AC074B04F8012D56
:1033E0001B68029301230A46CDE9004301460348C6
:1033F00001F05CFA06B010BD10000020E02E0120A4
:103400007FB506AA002302F8013D084B1B68029312
:103410000123CDE900230A460146054801F0DAFA06
:103420009DF8170007B05DF804FB00BF10000020F6
:10343000E02E01201FB5084C24680092CDE901342C
:103440000A4601230146054801F0C4FA003018BFBE
:10345000012004B010BD00BF10000020E02E0120AC
:1034600002F08CBC10B5064C00222046042101F06D
:10347000F7FD204601220421BDE8104001F0F0BD17
:103480000008024038B50B4C054601224FF40051AC
:10349000094801F0E5FD00220421204601F0E0FD8D
:1034A0002846FFF737FD204601220421BDE83840B9
:1034B00001F0D6BD00080240000C024038B50B4CAC
:1034C000054600224FF40051094801F0C9FD0022D1
:1034D0000421204601F0C4FD2846FFF71BFD2046CD
:1034E00001220421BDE8384001F0BABD00080240C5
:1034F000000C0240F7B5144C144D07460E4620460A
:103500000022042101F0ACFD00224FF400512846B6
:1035100001F0A6FD3846FFF7FDFC0D4B0D481B687A
:10352000324601A902F085F8284601224FF40051E5
:10353000019E01F095FD20460122042101F090FD3D
:10354000304603B0F0BD00BF00080240000C02404E
:1035500014000020342F012002F010BC0268034B3D
:103560009A4201D102F0F8BB704700BF0010004042
:1035700070477047FEE7FEE7FEE7FEE77047000092
:10358000014800F0BFBD00BF942E0120014802F0A9
:103590001FBB00BF942F0120014802F01EB900BFDD
:1035A0004030012082B00E4B00220092596C41F451
:1035B00080415964596C01F4804100910099019255
:1035C000196C41F0805119641B6C03F08053019316
:1035D000019B0F216FF0010002B001F067BB00BF3B
:1035E000003802400268094B9A4282B00BD1002396
:1035F0000193074B1A6B42F480521A631B6B03F45E
:1036000080530193019B02B0704700BF003002401D
:103610000038024007B50F4B02689A4216D10022CB
:10362000A3F5F0430192196B41F4000119631B6B80
:1036300003F40003019305215A20019B01F036FB9E
:103640005A2003B05DF804EB01F064BB03B05DF8F1
:1036500004FB00BF00B002402DE9F043044689B0EE
:103660001422002103A81EF09EF92268244B9A42DE
:1036700043D1244C244800250095236B43F00403D8
:103680002363236B03F004030093009B0195236BDA
:1036900043F001032363236B03F001030193019BB8
:1036A0004FF012094FF400734FF00108032704266E
:1036B00003A9CDE90339CDE90587079601F0DCFBC5
:1036C0004FF4807303A911480796CDE90339CDE97A
:1036D000058701F0D1FB0295236C43F400032364BA
:1036E000236C03F400030293029B236A43F4000358
:1036F0002362236A23F40003236209B0BDE8F08348
:10370000005C004000380240000802400000024017
:10371000F0B599B004461422002107A81EF043F921
:1037200030220DEB020000211EF03DF922685E4BB5
:103730009A4240F0B78008230C93C02310930423CF
:1037400012930CA84FF40033159302F02BFB08B131
:10375000FFF70EFF554B5648002400945A6C42F078
:1037600080625A645A6C02F080620092009A01945E
:103770001A6B42F020021A631A6B02F020020192C7
:10378000019A02941A6B42F001021A631A6B02F05A
:1037900001020292029A03941A6B42F002021A6327
:1037A0001A6B02F002020392039A04941A6B42F01D
:1037B00040021A631A6B02F040020492049A0594C4
:1037C0001A6B42F004021A631A6B02F004020592AB
:1037D000059A06941A6B42F008021A631B6B03F0F9
:1037E0000803069302250E26069B0B964FF4806372
:1037F00007A9CDE90735CDE9094501F03DFB41F6C3
:10380000580307A92B480B96CDE907350927CDE9C1
:10381000094501F031FB032307A927480B97CDE9A0
:103820000735CDE9094501F027FB4FF4706307A97F
:1038300021480B96CDE90735CDE9094501F01CFB80
:103840004FF40C6307A91D480B96CDE90735CDE968
:10385000094501F011FBC02307A919480B96CDE9D2
:103860000735CDE9094501F007FB082307A91548ED
:103870000B96CDE90735CDE9094501F0FDFA4FF486
:10388000A05307A90D480B97CDE90735CDE90945A8
:1038900001F0F2FA58202246052101F007FA5820DB
:1038A00001F038FA19B0F0BD00680140003802405C
:1038B00000140240000002400004024000180240D0
:1038C00000080240000C024010B5044688B01422E3
:1038D000002103A81EF067F82268144B9A4223D1F6
:1038E00003F56843002101915A6C114842F480129B
:1038F0005A645A6C02F480120192019A02911A6B76
:1039000042F020021A631B6B03F020030293029B18
:103910004FF4607202230321CDE903230523CDE98F
:10392000061303A901F0A8FA08B010BD0050014029
:10393000001402402DE9F04186B01422002101A8B4
:103940001EF031F82B4B1C68002C4FD14FF00108B2
:10395000C3F80080284B00949A6B284842EA08027A
:103960009A639B6B03EA08030093022703260C2546
:10397000009B01A94FF63F03CDE90137CDE904656E
:1039800001F07AFA01A91E480595CDE90187CDE934
:10399000034601F071FA48F2331301A9194805955D
:1039A000CDE90137CDE9034601F066FA4FF683739E
:1039B00001A915480595CDE90137CDE9034601F088
:1039C0005BFA4CF2037301A910480595CDE9013764
:1039D000CDE9034601F050FA602301A90C48059592
:1039E000CDE90137CDE9034601F046FA06B0BDE85E
:1039F000F08100BF0C170020003802400014024084
:103A0000000802400018024000100240000C024072
:103A10000004024037B500230193184B184C1A6C70
:103A200042F080521A641B6C03F080530193019B97
:103A3000144B01221A6002F09BF905466368DA0311
:103A40000BD5114B0E4C01221A6002F091F905467C
:103A500063689B030AD5002006E002F089F9401B49
:103A6000B0F57A7FEAD9032003B030BD02F080F9C7
:103A7000401BB0F57A7FEBD9F5E700BF0038024074
:103A80000070004040000E4244000E4238B50D4622
:103A90000446C8B190F82C3003F0FF021BB980F83F
:103AA0002D20FFF747FF022384F82C30211D2068CA
:103AB00001F03EF962682068294601F06DF90123A2
:103AC00084F82C30002038BD0120FCE770B5054695
:103AD00090F82C00C0B202280E4612D000F0FB0471
:103AE000012C0FD1022385F82C30286801F096F9BB
:103AF0003368022B06BF052385F82C3085F82C404F
:103B0000002070BD0120FCE738B5044690F82C0079
:103B1000C0B202280DD094F82C50EDB2012D09D17D
:103B2000022384F82C30206801F09CF984F82C5092
:103B3000002038BD0120FCE72DE9F341044608B917
:103B4000012041E00368DD0710D4236898075AD4A8
:103B500023681A0700F19C8023685B0700F1BA8094
:103B6000A069002840F01C8100202DE0A44B9A6839
:103B700002F00C02042A07D09A6802F00C02082A0C
:103B80000AD15B68590207D59D4B1B689A03DCD5A7
:103B90006368002BD9D1D3E76268994BB2F5803FB7
:103BA00015D11A6842F480321A606368F3B102F0EA
:103BB000DFF8934D06462B689B03C6D402F0D8F875
:103BC000801B6428F7D9032002B0BDE8F081B2F56C
:103BD000A02F1A6803D142F480221A60E1E722F490
:103BE00080321A601A6822F48022DDE702F0C0F801
:103BF000834D06462B689F03A7D502F0B9F8801BBA
:103C00006428F7D9DFE77E4B9A6812F00C0F07D0D3
:103C10009A6802F00C02082A11D15B685E020ED489
:103C2000774B1A68950702D5E268012A88D11A688D
:103C3000216922F0F80242EAC1021A6088E7E268CC
:103C4000704BB2B101221A6002F092F86C4D064638
:103C50002B68980707D52B68226923F0F80343EAFD
:103C6000C2032B6074E702F083F8801B0228EFD9AF
:103C7000A9E71A6002F07CF8614D06462B689907A7
:103C80007FF566AF02F074F8801B0228F6D99AE738
:103C900062695D4B7AB101221A6002F069F8584DF1
:103CA00006466B6F9F073FF557AF02F061F8801B28
:103CB0000228F6D987E71A6002F05AF8504D0646F6
:103CC0006B6F98077FF548AF02F052F8801B02280F
:103CD000F6D978E74A4B1A6C12F080522BD1019238
:103CE0001A6C42F080521A641B6C03F080530193EB
:103CF000019B0126454D2B68D9051ED5A268404B76
:103D0000012A2AD11A6F42F001021A67A368002B18
:103D100037D002F02DF83A4D074641F288382B6F24
:103D20009B0728D5002E3FF41BAF354A136C23F0B8
:103D30008053136414E70026DCE72B6843F4807398
:103D40002B6002F015F807462B68DA05D6D402F08E
:103D50000FF8C01B0228F7D935E7052A1A6F03D1DF
:103D600042F004021A67CDE722F001021A671A6FC7
:103D700022F00402C9E701F0FBFFC01B4045CED989
:103D800021E701F0F5FF1E4D074641F288382B6F01
:103D90009807C7D501F0ECFFC01B4045F7D912E7E3
:103DA000174DAB6803F00C03082B46D0184E0023C8
:103DB0000228336034D101F0DBFF07462B689901FC
:103DC00028D4D4E907321343626A43EA8213E26AD1
:103DD00043EA0263A26A0A4C5208013A43EA0243E8
:103DE0006B600123336001F0C3FF054623689A012D
:103DF0003FF5BAAE01F0BCFF401B0228F6D9E2E65F
:103E00000038024000004742800E474200700040E8
:103E10006000474201F0ACFFC01B0228CED9D2E6B9
:103E200001F0A6FF04462B689B017FF59DAE01F0D3
:103E30009FFF001B0228F6D9C5E601283FF4C4AE57
:103E40006B68E26903F4800191427FF479AE216AE4
:103E500003F03F028A427FF473AE616A47F6C07294
:103E60001A40B2EB811F7FF46BAEA26A520803F4D2
:103E70004031013AB1EB024F7FF462AEE26A03F0E7
:103E80007063B3EB026F14BF012000209CE600BFFB
:103E900008B513498B6803F00C03042B03D0082BDF
:103EA00003D0104800E0104808BD4A684B684968D4
:103EB00013F4800314BF0C480A48C1F3881118BFDB
:103EC000002302F03F02A1FB0001FCF7FFFD044BC1
:103ED0005B68C3F3014301335B00B0FBF3F0E3E73E
:103EE000003802400024F40000127A002DE9F0416D
:103EF0000D46044610B90120BDE8F081454B1A6813
:103F000002F00F028A422AD323689E072FD4236827
:103F1000D90743D43F4B1A6802F00F02AA4268D86F
:103F200023685A076ED423681B0707D53A4A2169CC
:103F3000936823F4604343EAC1039360FFF7A8FF4B
:103F4000354B364A9B68C3F30313D35CD840344BDC
:103F50001860344B1868FEF78DFF0020CCE7CAB21A
:103F60001A701B6803F00F038B42C4D1CCE75807CB
:103F700041BF294A936843F4E05393602368264A7B
:103F800013F0080F1EBF936843F460439360936877
:103F9000A16823F0F0030B439360B8E762681E4BFF
:103FA000012A1CD11B6813F4003FA4D01A4EB36839
:103FB00023F003031343B36001F0DAFE41F28838C3
:103FC0000746B368626803F00C03B3EB820FA1D01D
:103FD00001F0CEFEC01B4045F3D903208CE7911EB3
:103FE00001291B6802D813F0007FDEE713F0020FEF
:103FF000DBE7EAB21A701B6803F00F03AB427FF4F1
:104000007AAF8DE7044AE168936823F4E0530B43E9
:10401000936088E7003C024000380240543A0208AE
:104020000C0000201C000020044B054A9B68C3F3D1
:104030008223D35C034A1068D8407047003802409E
:10404000643A02080C0000200F2303600B4B9A68AF
:1040500002F0030242609A6802F0F00282609A68FD
:1040600002F4E052C2609B68DB0803F4E053036192
:10407000034B1B6803F00F030B60704700380240CE
:10408000003C02407047000090F83D30012B31D1D8
:104090000268022380F83D30D36843F00103D36007
:1040A0000368154A93421AD0B3F1804F17D0A2F596
:1040B0007C42934213D002F5806293420FD002F506
:1040C000806293420BD002F57842934207D002F50A
:1040D0007052934203D0A2F59432934204D19A686D
:1040E00002F00702062A03D01A6842F001021A60A1
:1040F0000020704701207047000001407047704762
:104100007047704770B50368DD681E69B1070446E3
:104110000ED5AA070CD56FF002021A6101230377AE
:1041200003689B699B076CD0FFF7E9FF00232377A7
:10413000710711D56A070FD523686FF004021A6161
:104140000223237723689B6913F4407F20465ED0C7
:10415000FFF7D5FF00232377330710D528070ED5A7
:1041600023686FF008021A61042323772368DB6950
:104170009907204651D0FFF7C2FF00232377F206AC
:1041800011D5EB060FD523686FF010021A610823D2
:1041900023772368DB6913F4407F204643D0FFF781
:1041A000AEFF00232377F00708D5E90706D523687B
:1041B0006FF001021A612046FFF7D0F9320608D5E8
:1041C0002B0606D523686FF080021A61204600F0A6
:1041D00059FD700608D5690606D523686FF04002C0
:1041E0001A612046FFF78DFFB20622D5AB0620D517
:1041F00023686FF020021A612046BDE8704000F08D
:1042000040BDFFF77BFF2046FFF77AFF8EE7FFF701
:1042100075FF2046FFF774FF9CE7FFF76FFF20460E
:10422000FFF76EFFA9E7FFF769FF2046FFF768FF7A
:10423000B7E770BD334A0368904212D0B0F1804FA7
:104240000FD0A2F57C4290420BD002F580629042E2
:1042500007D002F58062904203D002F57842904286
:1042600019D14A6823F070031343264A904229D09B
:10427000B0F1804F26D0A2F57C42904222D002F5C8
:10428000806290421ED002F5806290421AD002F500
:104290007842904216D01C4A904213D002F58062B8
:1042A00090420FD002F5806290420BD0A2F5983276
:1042B000904207D002F58062904203D002F58062FE
:1042C000904203D1CA6823F4407313434A6923F030
:1042D0008003134303608B68C3620B688362094BDE
:1042E000984203D003F58063984201D10B690363C0
:1042F000012343610369DB0742BF036923F0010324
:1043000003617047000001400040014010B50446C1
:1043100030B390F83D3003F0FF021BB980F83C2029
:10432000FFF7B0FE022384F83D302068211DFFF71F
:1043300081FF012384F84630002084F83E3084F861
:104340003F3084F8403084F8413084F8423084F8BB
:10435000433084F8443084F8453084F83D3010BD53
:104360000120FCE701684B6913F480634FF0000201
:1043700010D06FF480634B612023026380F83D30DE
:1043800080F83E20036C80F83C2043F00403036473
:1043900001207047184670472DE9F843089E0446EF
:1043A00090461F464FEA11498DB22068B9F1010FBE
:1043B0000CBF4369836935EA03030CBF0121002167
:1043C000884501D0002023E07B1CEFD001F0D0FC19
:1043D000801BB84201D8002FE7D12168B9F1010F45
:1043E0000CBF4B698B6935EA03030CBF0121002127
:1043F0008845DAD100232022236384F83D2084F805
:104400003E30226C84F83C3042F0200222640120CD
:10441000BDE8F8832DE9F0410446174698468EB270
:104420002568686936EA000018D06B695A0517D507
:104430002B6843F400732B6023686FF480625A6129
:1044400000232022236384F83D2084F83E30226C30
:1044500042F00402226484F83C300120BDE8F0817F
:104460007B1CDED001F084FCA0EB0800B84201D830
:10447000002FD5D123685B6936EA0303D0D000232F
:104480002022236384F83D2084F83E30226C42F0E1
:104490002002DFE770B504460D46164623685B69C7
:1044A0005B0701D5002070BD2046FFF75BFFC8B950
:1044B0006A1CF3D001F05CFC801BA84201D8002DDF
:1044C000ECD123685B6913F00403E7D12022236356
:1044D00084F83D2084F83E30226C84F83C3042F071
:1044E000200222640120DEE770B504460D46164620
:1044F0002068436913F0400301D0002010E04269B6
:10450000D2060ED56FF0100242612022236384F898
:104510003D2084F83E30226C226484F83C30012037
:1045200070BD01F025FC801BA84201D8002DDFD111
:1045300023685B6913F04003DAD12022236384F8F7
:104540003D2084F83E30226C42F02002E4E770B552
:1045500004460D46164623685B691B0601D50020FC
:1045600070BD2046FFF7FEFEC8B96A1CF3D001F00B
:10457000FFFB801BA84201D8002DECD123685B69AA
:1045800013F08003E7D12022236384F83D2084F8D0
:104590003E30226C84F83C3042F02002226401203C
:1045A000DEE700002DE9FF41154602680B9E9846A4
:1045B000136843F4807313600F460A9B0096002231
:1045C0004FF001110446FFF7E7FE236838B11B687E
:1045D000DB0502D54FF40073236403200AE007F0E3
:1045E000FE071F610A9A194933462046FFF712FF5A
:1045F00018B1012004B0BDE8F081236803905A6926
:1046000003929B69039332460A99039B2046FFF766
:104610009EFF40B1236C042B01BF2268136843F452
:1046200000731360E5E7B8F1010F236802D1EDB222
:104630001D61DFE72A0A1A610A9932462046FFF710
:1046400086FF0028E6D12368F1E700BF02000100E1
:104650002DE9FF41164602680B9D9846136843F406
:10466000806313600268136843F4807313600F461D
:104670000A9B009500224FF001110446FFF78CFEC3
:10468000236848B11B68DB0502D54FF4007323642F
:10469000032004B0BDE8F081FFB207F0FE021A610A
:1046A00029490A9A2B462046FFF7B4FE08B101209B
:1046B000EFE7236803905A6903929B6903932A46A4
:1046C0000A99039B2046FFF742FF40B1236C042B5D
:1046D00001BF2268136843F400731360E7E7B8F181
:1046E000010F236825D1F6B21E612A460A99204699
:1046F000FFF72DFF02460028E8D121680B6843F43C
:1047000080730B6020460A9B00954FF00111FFF764
:1047100043FE23680028B5D147F001071F610A9ABC
:1047200009492B462046FFF775FE003018BF0120CF
:10473000AFE7320A1A610A992A462046FFF707FFB7
:104740000028C3D12368CEE70200010070B50446FB
:1047500008B9012070BD90F83D3003F0FF021BB98D
:1047600080F83C20FEF778FF2268242384F83D304F
:10477000136823F0010313602268136843F40043B5
:1047800013602268136823F400431360FFF74CFCA6
:10479000424B62689A4294BF414B424B98428CBF55
:1047A00000230123002BD4D122683F495368B0FB7A
:1047B000F1F123F03F030B4353606668374B2568E4
:1047C0009E4288BF4FF496732A6A8ABF4B434B1CA4
:1047D0004FF47A7122F03F0284BFB3FBF1F301334F
:1047E00013432B6221686368CA692C4D22F44F423F
:1047F000AB4222F0FF0200F1FF3035D85B00B0FB86
:10480000F3F0431CC3F30B03042B38BF04231343FF
:10481000CB612168D4E907300A68034322F0C00263
:1048200013430B602168D4E903038A6822F403422E
:10483000034322F0FF0213438B602168D4E9053063
:10484000CA68034322F0FF021343CB602268136857
:1048500043F00103136000202023206484F83D30DE
:10486000206384F83E0075E7A56855B903EB430360
:10487000B0FBF3F0431CC3F30B036BB143F40043F1
:10488000C5E719256B43B0FBF3F0431CC3F30B03DF
:1048900013B143F44043BAE70123B8E7A08601000F
:1048A0007F841E00FF083D0040420F002DE9F743C2
:1048B000044699460F4690460C9E01F059FA94F82A
:1048C0003D30202B054603D0022003B0BDE8F08325
:1048D0000090192301223D492046FFF75DFD002885
:1048E000F2D194F83C30012BEED0012384F83C3017
:1048F00023681A68D2075EBF1A6842F001021A6084
:104900002268136823F400631360212384F83D3088
:10491000402384F83E30002323640A9B6362BDF881
:104920002C306385638D2385294BE362CDE90065D7
:104930004B46424639462046FFF734FE00282DD02C
:104940000120C2E7FFF703FE40B1236C042B01BF37
:104950002268136843F400731360F1E7626A236806
:1049600012781A61616A628D4B1C6362238D013A71
:1049700092B2013B62859BB2226823855069400751
:104980000CD55BB14B781361636A01336362238D8D
:10499000013B2385638D013B9BB26385238D2A46B2
:1049A00031462046002BCDD1FFF774FD0028CCD135
:1049B0002268136843F400731360202384F83D30A9
:1049C00084F83C0084F83E007FE700BF020010003E
:1049D0000000FFFF2DE9F043044687B099460D46DD
:1049E0009046109F01F0C4F994F83D30202B064604
:1049F00004D00225284607B0BDE8F08300901923B3
:104A000001227B492046FFF7C7FC0028F1D194F82A
:104A10003C30012BEDD0012384F83C3023681A6828
:104A2000D0075EBF1A6842F001021A60226813685C
:104A300023F400631360222384F83D30402384F87C
:104A40003E30002323640E9B6362BDF83C306385D7
:104A5000638D2385674BE3622946CDE900764B469B
:104A600042462046FFF7F4FD054608B10125C1E79F
:104A7000228D2368B2B902905A6902929A69029211
:104A8000029A1A6842F400721A60DFF86C81238D72
:104A9000002B2FD1202284F83D2084F83C3084F86C
:104AA0003E30A7E7012A0BD11A6822F480621A600F
:104AB000236803905A6903929A690392039AE0E784
:104AC000022A10D11A6822F480621A6022681368E0
:104AD00043F400631360236804905A6904929B694D
:104AE0000493049BD1E705905A6905929B6905934D
:104AF000059BCAE7032B58D8012B0BD13246394608
:104B00002046FFF7F1FC0028B0D123681A69636AD8
:104B10001A7021E0022B00963B464FF000024146FE
:104B2000204624D1FFF738FC00289FD12268136863
:104B300043F40073136023681A69636A1A70626A27
:104B4000531C6362238D013B2385638D013B9BB224
:104B5000638523681B695370636A01336362238D25
:104B6000013B2385638D013B9BB263858FE7FFF794
:104B700013FC024600287FF479AF21680B6823F408
:104B800080630B6023681969636A1970636A009611
:104B900001336362238D013B2385638D013B9BB20F
:104BA000638541463B462046BCE7324639462046AF
:104BB000FFF79AFC00287FF459AF23681A69636AEB
:104BC0001A70636A628D01336362238D013A92B277
:104BD000013B62859BB222682385516949077FF5B5
:104BE00056AF032B02BF136823F4806313608CE776
:104BF000020010000000FFFF0400010010B590F853
:104C00003D30DBB2202B19D10468242280F83D20EE
:104C1000226822F0010222600468626A22F0100217
:104C200062620468626A1143616201680A6842F064
:104C300001020A6080F83D30002010BD0220FCE730
:104C400030B590F83D20D2B2202A18D1056824232F
:104C500080F83D302C6824F001042C600468656AFB
:104C60004FF6F0732B400B439BB2636201680B68F5
:104C700043F001030B6080F83D20002030BD02208E
:104C8000FCE7704770470000074AD36823F4E063ED
:104C90001B041B0C43F0BF63000243F4003300F419
:104CA000E0600343D360704700ED00E070B5174B40
:104CB000DC68C4F30224C4F10705042D04F10403E5
:104CC00028BF04254FF0FF36062B06FA05F38CBFEC
:104CD000033C002421EA0303A34006FA04F422EA79
:104CE0000404002843EA0403A8BF00F160404FEA2F
:104CF0000313BCBF00F00F00054ADBB2AABF00F5EA
:104D00006140135480F8003370BD00BF00ED00E037
:104D100014ED00E0002808DB0123420900F01F0029
:104D200003FA00F0014B43F82200704700E100E075
:104D300030B5D1E907340A684D6A2343154C92B95E
:104D400002682B43224013434A6813438A68134383
:104D5000CA6813430A6913434A6913438A691343B0
:104D60000360002030BD02682B4322F4F842134355
:104D7000036043684A68234013438A681343CA6840
:104D800013430A6913434A6913438A69134343600F
:104D9000E7E700BF0080FFFF30B5CB684D695C1EC0
:104DA0006B1E1B0543EA0434CAB90B688268013BD9
:104DB00002F07042234313434A68013A43EA021364
:104DC0008A68013A43EA02230A69013A43EA024344
:104DD0008A69013A43EA02638360002030BD836838
:104DE00023F4700323F4704323438360C3684A6849
:104DF00003F07043013A43EA02130A68013A13438D
:104E00008A68013A43EA02230A69013A43EA024303
:104E10008A69013A43EA0263C360DEE770B515466A
:104E2000D1E90032044613430069CA68800D43EAA1
:104E300042238A6880050343013A43EA421323610F
:104E400000F096FF0646A06910F0200003D06B1C0E
:104E5000F9D00DB9032070BD00F08AFF801BA84275
:104E6000F1D9F7E7436923F47F5323F03E0343EA84
:104E700041014161002070472DE9F74FDFF8C8C1BB
:104E80006F4CDFF8C881DFF8C8E1002301250A680C
:104E90009D402A40954240F0B9804E6806F00306D6
:104EA0005F000325013EBD40012E6FEA050511D8C4
:104EB000866806EA0509CE68BE4046EA09068660AD
:104EC000466826EA02094E68C6F300169E4046EA86
:104ED000090646604E6806F00306032E07D0C66832
:104EE00006EA05098E68BE4046EA0906C6604E68B5
:104EF00006F00306022E16D14FEAD30A00EB8A0A07
:104F000003F0070BDAF820604FEA8B0B4FF00F0924
:104F100009FA0BF926EA09090E6906FA0BF646EAC0
:104F20000906CAF82060066835404E6806F0030698
:104F3000BE40354305604D6815F4403F66D04FF0E4
:104F4000000BCDF804B0DCF844603E4D46F48046DA
:104F5000CCF84460DCF8446006F480460196019E7B
:104F600023F0030606F1804606F59C3603F003099C
:104F7000D6F808A04FEA89090F2707FA09F7A842CF
:104F80002AEA070749D005F58065A84247D005F50C
:104F90008065A84245D005F58065A84243D04045CC
:104FA00043D0704543D005F54065A84241D005F592
:104FB0008065A8423FD005F58065A8423DD005F543
:104FC0008065A84214BF0A25092505FA09F53D4365
:104FD000B5604D68A768D643ED0254BF374017430C
:104FE000A7604D68E768AD0254BF37401743E760DC
:104FF0004D686768AD0354BF3740174367604D681D
:105000002768ED0354BF3740174327600133102B47
:105010007FF43CAF03B0BDE8F08F5D46D5E70125D6
:10502000D3E70225D1E70325CFE70425CDE7052502
:10503000CBE70625C9E70725C7E70825C5E700BF71
:10504000003C0140000002400038024000100240D5
:10505000001402400369194214BF01200020704768
:105060000AB1816170470904FBE7436901EA030261
:1050700021EA030141EA0241816170472DE9F743CA
:105080001E4688461746044600F072FE0A9D3544C7
:105090002D1A00F06DFE274B1B68C3F3CB338146FE
:1050A0006B4322680193936838EA03030CBF012322
:1050B0000023BB4201D1002031E0731CF3D000F08B
:1050C00057FEA0EB0900A8422CD32268536823F0B6
:1050D000E00353606368B3F5827F0BD1A368B3F537
:1050E000004F02D0B3F5806F04D12268136823F01B
:1050F00040031360A36AB3F5005F09D12268136807
:1051000023F4005313602268136843F400531360C0
:10511000012384F85130002384F85030032003B079
:10512000BDE8F083019B002B019B08BF0025013BDC
:10513000B7E700BF0C000020F0B585B00B46009229
:105140000E461746022101220446FFF797FF054647
:1051500028B1636D43F020036365032515E0124B0E
:10516000124A1B68B3FBF2F24FF47A735343039372
:105170006368B3F5827F0BD10246009733468021E6
:105180002046FFF77BFF0028E3D1284605B0F0BD9D
:10519000039B002BF9D0039B013B039323689B687F
:1051A0001B06F5D4F1E700BF0C00002000366E01AD
:1051B00013B50B464168B1F5827F04460BD1816877
:1051C000B1F5004F02D0B1F5806F04D120680168BD
:1051D00021F0400101606168B1F5827F0ED1A168C4
:1051E0000092B1F5806F4FF0000209D08021204677
:1051F000FFF744FF30B9002002B010BD009200223A
:105200000121F4E7636D43F0200363650320F3E7B6
:1052100010B50446002858D0436A002B51D142688B
:10522000B2F5827F00D0C3610023A36294F85130AD
:1052300003F0FF0223B984F850202046FEF744FB18
:105240002268022384F85130136823F0400313606E
:10525000D4E90023A16803F4827301F404410B43F1
:10526000E16801F400610B43216901F002010B4385
:10527000616901F001010B43A16901F400710B4365
:10528000E16901F038010B43216A01F080010B4311
:10529000A16A01F400510B431360638B626A2168B9
:1052A00002F0100203F0040313434B602268D36939
:1052B00023F40063D36100200123606584F851303A
:1052C00010BD0023C0E90433AEE70120F8E72DE963
:1052D000F3410446884617461D4600F049FD064640
:1052E00094F85100C0B2012840F0A180B8F1000F3D
:1052F00074D0002F72D094F85030012B00F09780BA
:10530000032384F85130A36884F85000B3F5004FAC
:105310004FF000006065C4F83080E786A786A06380
:10532000A087E087C4E9100009D12268136823F040
:10533000400313602268136843F4804313602368BA
:105340001A6851065EBF1A6842F040021A60E268AD
:105350006368B2F5006F44D10BB1012F0AD1226B03
:1053600023681288DA60236B02332363E38E013BE8
:105370009BB2E386E38E9BB2D3B9324629462046E0
:10538000FFF7DAFE00284FD1A36833B901932368F1
:10539000DA6801929B680193019B012384F85130E4
:1053A000606D0023C01A84F8503018BF012015E04A
:1053B0002268976817F0020703D0236B1B88D3601D
:1053C000D1E700F0D5FC801BA842D3D36A1CD1D012
:1053D000012384F8513084F85070032002B0BDE8F6
:1053E000F0810BB1012F0AD1226B236812781A7356
:1053F000236B01332363E38E013B9BB2E386E38E91
:105400009BB2002BB9D02268976817F0020703D02F
:10541000236B1B781373EBE700F0AAFC801BA842F8
:10542000EDD36B1CEBD0D3E720236365ACE7022000
:10543000D4E72DE9F74304461D46884691460A9E67
:1054400000F096FC94F85130DBB2012B07460BD0EC
:105450006268B2F5827F40F0EA80A268002A40F0DC
:10546000E680042B40F0E380B8F1000F4ED0B9F194
:10547000000F4BD0002D49D094F85030012B00F094
:10548000D680012384F8503094F85130C4F8389015
:10549000042B1CBF052384F851300023C4E91033CA
:1054A00063652368E587A587C4F83080E586A5860F
:1054B0001A6852065EBF1A6842F040021A60E2683B
:1054C0006368B2F5006F59D10BB1012D0AD1226B7F
:1054D00023681288DA60236B02332363E38E013B77
:1054E0009BB2E3860125E38E9BB28BB9E38F9BB21F
:1054F00073B93A4631462046FFF71EFE002800F0F9
:10550000828020236365002384F85030012032E03C
:105510002268936898070ED5E38E9BB25BB155B1B4
:10552000236B1B88D360236B02332363E38E013B21
:105530009BB2E386002522689368D9070DD5E38FD7
:105540009BB253B1A36BD2681A80A36B0233A363DF
:10555000E38F013B9BB2E387012500F009FCC01BF0
:10556000B042C0D3731CBED0012384F85130002355
:1055700084F85030032003B0BDE8F0830BB1012D57
:105580000AD1226B236812781A73236B01332363C9
:10559000E38E013B9BB2E38601252BE022689368F2
:1055A00098070ED5E38E9BB25BB155B1236B1B7888
:1055B0001373236B01332363E38E013B9BB2E386BA
:1055C000002522689368D9070DD5E38F9BB253B1AC
:1055D000A36BD2681A70A36B0133A363E38F013B03
:1055E0009BB2E387012500F0C3FBC01BB04201D38F
:1055F000731CB9D1E38E9BB2002BCFD1E38F9BB24A
:10560000002BCBD175E7A36833B901932368DA681F
:1056100001929B680193019B012384F85130606DD6
:105620000023C01A84F8503018BF0120A3E70220DD
:10563000A1E72DE9F3411D4690F85130012B0446B6
:105640008846174603D0022002B0BDE8F0814368C7
:10565000B3F5827F0AD1836843B9042380F85130BF
:10566000134600950A46FFF7E4FEEDE700F080FBE5
:105670000646B8F1000F7ED0002F7CD094F8503051
:10568000012BE0D0012384F85030042384F85130FA
:10569000002363652363E787A386E386C4E91033A9
:1056A000A368C4F83880B3F5004FA78709D12268F2
:1056B000136823F0400313602268136823F48043C7
:1056C000136023681A6851065EBF1A6842F04002F0
:1056D0001A60E3680BB3E38F9BB213B32268976839
:1056E00017F001073CD0A36BD2681A80A36B02337A
:1056F000A363E38F013B9BB2E387ECE722689768E3
:1057000017F001071ED0A36B127B1A70A36B013335
:10571000A363E38F013B9BB2E387E38F9BB2002B34
:10572000ECD1324629462046FFF742FD00BB01235B
:1057300084F85130606D0023C01A84F8503018BFCF
:10574000012081E700F014FB801BA842E5D36A1C0E
:10575000E3D0012384F8513084F85070032073E7BC
:1057600000F006FB801BA842B5D36B1CB3D0F0E75A
:1057700020236365DBE7012066E710B5044640B3EC
:1057800090F8393003F0FF021BB980F83820FDF79C
:1057900041FF22686168022384F83930136823F4DA
:1057A00040330B4313602268A168536B23F0070357
:1057B0000B4353632268E168136C23F47F5323F097
:1057C0003F030B43136400200123E06384F8393066
:1057D00010BD0120FCE77047704770B503685E6834
:1057E0001D68F207044615D5E90513D51A6822F499
:1057F00080721A60C36B43F00103C3630368012224
:105800009A60042380F83930002380F838304369E7
:1058100003B19847B20617D5AB0415D522681368B3
:1058200023F400531360236820229A60E36B43F053
:105830000203E363042384F83930002384F838300A
:1058400063690BB120469847300717D5290515D550
:105850002268136823F400631360236808229A60A7
:10586000E36B43F00403E363042384F8393000233B
:1058700084F8383063690BB12046984772070CD51D
:105880006B050AD52268136823F4806313602368CC
:1058900004229A602046FFF79EFFB00715D5A905A0
:1058A00013D52268136823F400731360236802225F
:1058B0009A60E36BE363012384F83930002384F8B2
:1058C000383023690BB120469847F20614D5EB0413
:1058D00012D52268136823F48053136023681022C2
:1058E0009A60E36BE363012384F83930002384F882
:1058F00038302046FFF770FF70BD000070B590F89B
:105900003830012B4FF002032CD0012280F83820D0
:105910000A0180F839308418D4E9075345EA034373
:10592000093D012D656A194E9ABF05F07F452B434D
:1059300043EA05630568B9B9696A31400B436B6294
:10594000036882699A61C369093B012B04D8436AE1
:10595000026823F07F439362012380F839300023EB
:1059600080F83830184670BDE96931400B43EB616F
:10597000831801689A690A61DB69093B012B9FBFA3
:10598000636A026823F07F431362E5E7F0FFFC00DF
:10599000F0B505684C68EB68D20184321544C3F356
:1059A0000B431C446B6803F470436B6005680E681E
:1059B000EB680136C3F30B431544334443EA044315
:1059C0006B600568CC68EB68C3F30A031C44AB1832
:1059D0009D6805F470459D6005688B68EE6801332D
:1059E000C6F30A061544334443EA0443AB60036834
:1059F000134400251C6924F007041C6103680C692A
:105A000013441C61046891F8326091F83170D1F848
:105A100018C01444A369A561046891F8303043EAC2
:105A20000C63144443EA072343EA0643A361036873
:105A300013445C6924F0FF045C6103684C691344FF
:105A40005C6104681444E36923F4E06323F0070312
:105A5000E3610368D1E9074613443443DC6103681A
:105A600013449C6A9D6203684C6A13449C620B69F0
:105A700063B3012B2CD09C1E022C2BD9072B14BFF7
:105A80000124022403681344DD6A05F0E025DD6289
:105A900003689D18D1E900639B1B8E6A634303333F
:105AA000744343EA0443EB6204681444236B23F415
:105AB000FF6323F0070323630368C96A1344196370
:105AC00001688B5843F001038B50F0BD0424D9E7E3
:105AD0000324D7E70224D5E738B50446002870D060
