:020000040800F2
:10000000000003201998000893400008954000085C
:1000100097400008994000089B400008000000003D
:100020000000000000000000000000002190000817
:100030009D40000800000000B1900008CD89000834
:10004000699800086998000869980008699800088C
:10005000699800086998000869980008699800087C
:10006000699800086998000869980008699800086C
:10007000699800086998000869980008699800085C
:10008000699800086998000869980008699800084C
:10009000699800086998000869980008699800083C
:1000A000699800086998000869980008699800082C
:1000B000699800086998000869980008699800081C
:1000C000699800086998000869980008699800080C
:1000D00069980008699800086998000869980008FC
:1000E00069980008699800086998000869980008EC
:1000F00069980008699800086998000869980008DC
:1001000069980008699800086998000869980008CB
:100110006998000869980008A140000869980008DB
:1001200069980008699800086998000869980008AB
:10013000699800086998000869980008699800089B
:10014000699800086998000869980008699800088B
:10015000699800086998000869980008699800087B
:10016000699800086998000869980008699800086B
:100170006998000869980008699800080000000064
:10018000699800086998000869980008699800084B
:10019000699800086998000869980008699800083B
:0C01A000AD40000869980008B940000854
:1001B00010B5054C237833B9044B13B10448AFF3A1
:1001C00000800123237010BD800300200000000088
:1001D000A843020808B5034B1BB103490348AFF31A
:1001E000008008BD0000000084030020A84302082E
:1001F00081F0004102E000BF83F0004330B54FEAD8
:1002000041044FEA430594EA050F08BF90EA020F44
:100210001FBF54EA000C55EA020C7FEA645C7FEAD7
:10022000655C00F0E2804FEA5454D4EB5555B8BFFA
:100230006D420CDD2C4480EA020281EA030382EA6B
:10024000000083EA010180EA020281EA0303362DFD
:1002500088BF30BD11F0004F4FEA01314FF4801CD0
:100260004CEA113102D0404261EB410113F0004FE2
:100270004FEA03334CEA133302D0524263EB430399
:1002800094EA050F00F0A780A4F10104D5F1200E37
:100290000DDB02FA0EFC22FA05F2801841F1000192
:1002A00003FA0EF2801843FA05F359410EE0A5F166
:1002B00020050EF1200E012A03FA0EFC28BF4CF097
:1002C000020C43FA05F3C01851EBE37101F000454D
:1002D00007D54FF0000EDCF1000C7EEB00006EEB5A
:1002E0000101B1F5801F1BD3B1F5001F0CD34908E4
:1002F0005FEA30004FEA3C0C04F101044FEA44523B
:1003000012F5800F80F09A80BCF1004F08BF5FEAC1
:10031000500C50F1000041EB045141EA050130BDA1
:100320005FEA4C0C404141EB010111F4801FA4F144
:100330000104E9D191F0000F04BF01460020B1FA99
:1003400081F308BF2033A3F10B03B3F120020CDAD1
:100350000C3208DD02F1140CC2F10C0201FA0CF0AF
:1003600021FA02F10CE002F11402D8BFC2F1200C14
:1003700001FA02F120FA0CFCDCBF41EA0C019040CA
:10038000E41AA2BF01EB0451294330BD6FEA040413
:100390001F3C1CDA0C340EDC04F11404C4F12002FE
:1003A00020FA04F001FA02F340EA030021FA04F310
:1003B00045EA030130BDC4F10C04C4F1200220FA67
:1003C00002F001FA04F340EA0300294630BD21FAA5
:1003D00004F0294630BD94F0000F83F4801306BF6B
:1003E00081F480110134013D4EE77FEA645C18BF5F
:1003F0007FEA655C29D094EA050F08BF90EA020FF6
:1004000005D054EA000C04BF1946104630BD91EAED
:10041000030F1EBF0021002030BD5FEA545C05D1F0
:100420004000494128BF41F0004130BD14F580042F
:100430003CBF01F5801130BD01F0004545F0FE41A3
:1004400041F470014FF0000030BD7FEA645C1ABFD8
:10045000194610467FEA655C1CBF0B46024650EA0F
:10046000013406BF52EA033591EA030F41F400213B
:1004700030BD00BF90F0000F04BF0021704730B5C1
:100480004FF4806404F132044FF000054FF0000196
:1004900050E700BF90F0000F04BF0021704730B557
:1004A0004FF4806404F1320410F0004548BF40422C
:1004B0004FF000013EE700BF42004FEAE2014FEA81
:1004C00031014FEA02701FBF12F07F4393F07F4F5C
:1004D00081F06051704732F07F4208BF704793F05F
:1004E0007F4F04BF41F40021704730B54FF4607472
:1004F00001F0004521F000411CE700BF50EA010275
:1005000008BF704730B54FF000050AE050EA01021D
:1005100008BF704730B511F0004502D5404261EB8D
:1005200041014FF4806404F132045FEA915C3FF4CE
:10053000D8AE4FF003025FEADC0C18BF03325FEA6B
:10054000DC0C18BF033202EBDC02C2F1200300FA1C
:1005500003FC20FA02F001FA03FE40EA0E0021FA41
:1005600002F11444BDE600BF70B54FF0FF0C4CF42F
:10057000E06C1CEA11541DBF1CEA135594EA0C0FE1
:1005800095EA0C0F00F0DEF82C4481EA030621EA1C
:100590004C5123EA4C5350EA013518BF52EA033557
:1005A00041F4801143F4801338D0A0FB02CE4FF009
:1005B0000005E1FB02E506F00042E0FB03E54FF039
:1005C0000006E1FB03569CF0000F18BF4EF0010E31
:1005D000A4F1FF04B6F5007F64F5407404D25FEA2D
:1005E0004E0E6D4146EB060642EAC62141EA5551E0
:1005F0004FEAC52040EA5E504FEACE2EB4F1FD0C22
:1006000088BFBCF5E06F1ED8BEF1004F08BF5FEA9F
:10061000500E50F1000041EB045170BD06F0004651
:1006200046EA010140EA020081EA0301B4EB5C04FE
:10063000C2BFD4EB0C0541EA045170BD41F48011F6
:100640004FF0000E013C00F3AB8014F1360FDEBF1B
:10065000002001F0004170BDC4F10004203C35DAF7
:100660000C341BDC04F11404C4F1200500FA05F37A
:1006700020FA04F001FA05F240EA020001F000421B
:1006800021F0004110EBD37021FA04F642EB060191
:100690005EEA430E08BF20EAD37070BDC4F10C04BB
:1006A000C4F1200500FA04F320FA05F001FA04F27F
:1006B00040EA020001F0004110EBD37041F100016B
:1006C0005EEA430E08BF20EAD37070BDC4F1200576
:1006D00000FA05F24EEA020E20FA04F301FA05F2DE
:1006E00043EA020321FA04F001F0004121FA04F286
:1006F00020EA020000EBD3705EEA430E08BF20EA56
:10070000D37070BD94F0000F0FD101F0004640008F
:1007100041EB010111F4801F08BF013CF7D041EA11
:10072000060195F0000F18BF704703F00046520015
:1007300043EB030313F4801F08BF013DF7D043EAE6
:100740000603704794EA0C0F0CEA135518BF95EA9C
:100750000C0F0CD050EA410618BF52EA4306D1D123
:1007600081EA030101F000414FF0000070BD50EA42
:10077000410606BF1046194652EA430619D094EACC
:100780000C0F02D150EA013613D195EA0C0F05D1B6
:1007900052EA03361CBF104619460AD181EA03010A
:1007A00001F0004141F0FE4141F470014FF00000C2
:1007B00070BD41F0FE4141F4780170BD70B54FF05D
:1007C000FF0C4CF4E06C1CEA11541DBF1CEA1355DD
:1007D00094EA0C0F95EA0C0F00F0A7F8A4EB0504BF
:1007E00081EA030E52EA03354FEA013100F08880B6
:1007F0004FEA03334FF0805545EA131343EA12637F
:100800004FEA022245EA111545EA10654FEA002633
:100810000EF000419D4208BF964244F1FD0404F5EC
:10082000407402D25B084FEA3202B61A65EB030548
:100830005B084FEA32024FF480104FF4002CB6EB05
:10084000020E75EB030E22BFB61A754640EA0C0085
:100850005B084FEA3202B6EB020E75EB030E22BFC5
:10086000B61A754640EA5C005B084FEA3202B6EB06
:10087000020E75EB030E22BFB61A754640EA9C00C5
:100880005B084FEA3202B6EB020E75EB030E22BF95
:10089000B61A754640EADC0055EA060E18D04FEA53
:1008A000051545EA16754FEA06164FEAC30343EAF3
:1008B00052734FEAC2025FEA1C1CC0D111F4801FC0
:1008C0000BD141EA00014FF000004FF0004CB6E7B9
:1008D00011F4801F04BF01430020B4F1FD0C88BF58
:1008E000BCF5E06F3FF6AFAEB5EB030C04BFB6EB63
:1008F000020C5FEA500C50F1000041EB045170BD56
:100900000EF0004E4EEA113114EB5C04C2BFD4EB82
:100910000C0541EA045170BD41F480114FF0000E06
:10092000013C90E645EA060E8DE60CEA135594EA82
:100930000C0F08BF95EA0C0F3FF43BAF94EA0C0F85
:100940000AD150EA01347FF434AF95EA0C0F7FF4FA
:1009500025AF104619462CE795EA0C0F06D152EA4E
:1009600003353FF4FDAE1046194622E750EA410632
:1009700018BF52EA43067FF4C5AE50EA41047FF443
:100980000DAF52EA43057FF4EBAE12E74FEA4102A6
:10099000B2F1E04324BFB3F5001CDCF1FE5C0DD9DD
:1009A00001F0004C4FEAC0024CEA5070B2F1004F27
:1009B00040EB830008BF20F00100704711F0804F2A
:1009C00021D113F13872BCBF01F00040704741F4EF
:1009D00080114FEA5252C2F11802C2F1200C10FAF3
:1009E0000CF320FA02F018BF40F001004FEAC123D7
:1009F0004FEAD32303FA0CFC40EA0C0023FA02F37B
:100A00004FEA4303CCE77FEA625307D150EA013350
:100A10001EBF4FF0FE4040F44000704701F0004020
:100A200040F0FE4040F40000704700BF7BB972B94F
:100A30000029BEBF00204FF0004106E008BF00289B
:100A40001CBF6FF000414FF0FF3000F0BDB9ADF1B9
:100A5000080C6DE904CE002909DB002B1ADB00F03D
:100A60004DF8DDF804E0DDE9022304B070474042B0
:100A700061EB4101002B1BDB00F040F8DDF804E0E6
:100A8000DDE9022304B0404261EB4101524263EBD5
:100A900043037047524263EB430300F02FF8DDF845
:100AA00004E0DDE9022304B0404261EB41017047FC
:100AB000524263EB430300F021F8DDF804E0DDE986
:100AC000022304B0524263EB4303704753B94AB95F
:100AD000002908BF00281CBF4FF0FF314FF0FF3046
:100AE00000F072B9ADF1080C6DE904CE00F006F823
:100AF000DDF804E0DDE9022304B070472DE9F0479A
:100B0000089E04468846002B4BD18A42154667D979
:100B1000B2FA82F24AB1C2F1200701FA02F320FAD6
:100B200007F7954047EA030894404FEA154E230C17
:100B3000B8FBFEF71FFA85FC0EFB178843EA084353
:100B400007FB0CF1994209D9EB1807F1FF3080F04F
:100B50001B81994240F21881023F2B445B1AA4B2D8
:100B6000B3FBFEF00EFB103344EA034400FB0CFC25
:100B7000A44509D92C1900F1FF3380F00781A44561
:100B800040F2048102382C4440EA0740A4EB0C04F4
:100B900000271EB1D4400023C6E900433946BDE812
:100BA000F0878B4209D9002E00F0EB800027C6E9C0
:100BB000000138463946BDE8F087B3FA83F7002FC5
:100BC00047D18B4202D3824200F2FA80841A61EB51
:100BD000030301209846002EE0D0C6E90048DDE777
:100BE00002B9FFDEB2FA82F2002A40F08F80491B80
:100BF0004FEA154E1FFA85F80127B1FBFEFC230CC6
:100C00000EFB1C1143EA014308FB0CF1994207D982
:100C1000EB180CF1FF3002D2994200F2CD808446ED
:100C2000591AA3B2B1FBFEF00EFB101443EA0444C0
:100C300008FB00F8A04507D92C1900F1FF3302D2B8
:100C4000A04500F2B6801846A4EB080440EA0C4028
:100C50009FE7C7F1200CBB4022FA0CFE4EEA030EC0
:100C600001FA07F420FA0CF521FA0CF34FEA1E48BA
:100C70002543B3FBF8F92C0C08FB19331FFA8EFA45
:100C800044EA034309FB0AF49C4202FA07F200FA21
:100C900007F10BD91EEB030309F1FF3080F08780C9
:100CA0009C4240F28480A9F1020973441B1BADB23F
:100CB000B3FBF8F008FB103345EA034400FB0AFAE3
:100CC000A24508D91EEB040400F1FF336BD2A24504
:100CD00069D90238744440EA0940A0FB0289A4EBB8
:100CE0000A044C45C2464B4654D351D0002E69D01D
:100CF000B1EB0A0564EB030404FA0CFCFD40FC4074
:100D00004CEA0505C6E90054002747E7C2F1200375
:100D100020FA03F7954001FA02F021FA03F34FEAB3
:100D2000154E3843010CB3FBFEF71FFA85F80EFB96
:100D3000173341EA034107FB08F38B4204FA02F43C
:100D400007D9691807F1FF3C2FD28B422DD9023FFA
:100D50002944CB1A81B2B3FBFEF00EFB103341EAFB
:100D6000034100FB08F38B4207D9691800F1FF3CEF
:100D700017D28B4215D902382944C91A40EA0747CD
:100D80003BE73746304609E70746E7E61846FBE605
:100D90004145ABD2B8EB020A69EB0E0201381346AB
:100DA000A4E76046E9E7184695E76746D1E781463C
:100DB0007CE702382C4447E7ACF1020C2B442FE7C8
:100DC000384608E73746E9E6704700BF00000000F4
:100DD00001F0FF01102A2BDB10F0070F08D010F8EC
:100DE000013B013A8B422DD010F0070F42B3F6D1F0
:100DF000F0B441EA012141EA014122F007047FF009
:100E000000070023F0E80256083C85EA010586EA5F
:100E1000010685FA47F5A3FA87F586FA47F6A5FA9B
:100E200087F68EB9EED1F0BC01F0FF0102F00702A7
:100E300032B110F8013B013A83EA010313B1F8D152
:100E40000020704701387047002D06BF3546033833
:100E5000073815F0010F07D1013015F4807F02BF6C
:100E6000013015F4C03F0130F0BC0138704700BFBD
:100E700090F8252012B103685B691847704700207D
:100E8000704781807047C180704701817047418100
:100E9000704770477047704770477047C38810B4F9
:100EA000D21A83885DF8044BC91A036812B25B6DCD
:100EB00009B218474FF6FF7383814FF0FF33036287
:100EC0001368C3611060704790F825201AB190F83C
:100ED000242002B1186070477047704770470000C7
:100EE0002DE9F0412E4B036000F64C24804600F6BD
:100EF000C81623469E4208D0A3F12C0553F82C3C7B
:100F000028461B6898472B46F4E7A51B254EAD08DD
:100F100075436FF02B0325F0404503FB054508F5AD
:100F2000D6672B469F4208D0A3F12C0453F82C3CE3
:100F300020461B6898472346F4E7EC1BA40874433B
:100F40006FF02B0324F0404403FB0454234608F5C0
:100F500050759D4208D0A3F12C0753F82C3C38461D
:100F60001B6898473B46F4E7651BAD086E4326F0C7
:100F700040466FF02B0308F5DA7703FB0644A742DF
:100F800008D054F82C3CA4F12C051B68284698473F
:100F90002C46F4E7404600F0A2FC4046BDE8F08154
:100FA00014440208A38B2E3A10B50446FFF798FFAD
:100FB000204640F6742121F087F9204610BD70B517
:100FC000036804461B6B154698472368294620464C
:100FD0005B6BBDE870401847002310B58380C38069
:100FE000038143818381C38103824382C0E9053346
:100FF000C3610384438480F82430012380F82530C2
:10100000054B03600B88C384FF23044680F8283017
:101010000BF037FE204610BD945A02082DE9F3412B
:10102000044600F007FD2F4B236004F5DA7504F544
:1010300050764FF6FF77284601A92C35ADF804709D
:10104000FFF7CAFFB542F6D104F5D6664FF6FF7733
:10105000284601A92C35ADF80470FFF7BDFFAE425C
:10106000F6D104F6C8174FF6FF78354606F58476B4
:10107000284601A92C35ADF80480FFF7ADFFB54235
:10108000F6D1BD422E46F0D104F64C264FF6FF773E
:10109000284601A92C35ADF80470FFF79DFFB54235
:1010A000F6D1114B062218689B88C4F84C0A0A2115
:1010B000AB8020460023C4F8582A032284F8523A11
:1010C000C4F8543AC4F85C2AC4F8601AC4F8643A04
:1010D000C4F8683AC4F86C2A84F8703A02B0BDE8E3
:1010E000F08100BF14440208C043020808B5022280
:1010F000B0F9743093FBF2F3C91AB0F9722009B257
:101100006C30FFF7CBFE08BD10B50B460446064A0F
:10111000182100F5BE7011F065FF04F19800BDE8DC
:1011200010400FF04DBC00BF0844020870B50546E2
:1011300000F5DA74002694F8253013BB6389B5F8FE
:101140007220B5F97410D21AB5F87030022091FBF4
:10115000F0F11944B4F9083093FBF0F3C91A2046B2
:1011600012B209B2FFF72BFF012384F825302C239C
:1011700003FB06552046D5F8B431BDE870405B69E5
:1011800018470136092E04F12C04D4D170BDF0B5F6
:10119000B1F90470B1F90650B1F90A30B1F908108B
:1011A000B2F904C0B2F90660B2F90840B2F90A0017
:1011B000394461450CDB04EB0C02BA4208DB2B44DA
:1011C000B34205DB3044A842B4BF00200120F0BD8B
:1011D0000020FCE707B5054801A905F0C7FD18B9CF
:1011E000019803B05DF804FB2A20FAE7E4390120F6
:1011F00070B5064600F55075002495F825308BB97A
:10120000284612B209B2FFF7DAFE012385F825302D
:101210002C2303FB04642846D4F84033BDE8704017
:101220005B6918470134142C05F12C05E5D170BD1C
:101230002DE9F74F00F5DA76044600F5507A354689
:10124000002795F8253053B1B5F90620B5F90A30D5
:10125000043A5B42934240F3828085F825702C3536
:101260005545EED1DFF8C0B296F82530002B51D0AD
:1012700004F5D663002798464FF0000998F825201A
:10128000002A7DD04246314620460193FFF77FFF7A
:10129000019B002874D04FF0000386F8253088F8B1
:1012A0002530336830465B6998474FF484727A433F
:1012B0002C2303FB0929A14404EB4707D9F8B036D6
:1012C00040465B699847B7F84C2AD4F8683A052A33
:1012D00051D11433C4F8683AD4F8683A914A1021CD
:1012E00004F5CA7011F07EFE04F1E4000FF068FB13
:1012F000D4F8683ADBF8002093420BDD894ACBF83A
:101300000030102104F5D27011F06CFE04F59870D5
:101310000FF056FB2C36AE42A6D1D4F8643AD4F87E
:10132000602A01339342C4F8643AC0F2DF8000259A
:10133000C4F8645A04F5D667EE194FF0000896F821
:101340002530002B3CD094F8523AB6F90410B6F987
:101350000620032B26D8DFE803F022CCD0D42B685C
:10136000B5F904109B6D284612B298472B682846A1
:101370005B69984773E7032A0CBF0A330533A9E773
:1013800009F10109B9F1060F08F12C087FF476AFD5
:101390000137032F03F584737FF46DAFBAE7D4F8F8
:1013A0005C3A1944A6EB0509304659F8053012B2EB
:1013B0009B6D09B2984759F8053030465B699847EC
:1013C00008F10108B8F1060F06F12C06B7D105F5B2
:1013D0008475B5F5467FAFD1D4F8543AD4F8582A7D
:1013E00001339342C4F8543A09DB0023C4F8543A59
:1013F00094F8523A013303F0030384F8523A20463A
:10140000FFF7E8FE05462046FFF7E4FE0323B5FBA1
:10141000F3F303EB4303ED1A0623B0FBF3F202FBF5
:1014200013002C2358434FF4847303FB050505F583
:10143000D665254495F82530C3B12046FFF7CAFE8E
:101440001423B0FBF3F202FB130078B9B5F90600E0
:10145000B5F90A20B5F90830022193FBF1F3B5F98B
:101460000410024419442046FFF7C2FE554604F119
:101470006C0800264FF0010995F825309BB3B5F9AB
:1014800006A00AF10A0ABAF5A07FC8BF85F8256050
:10149000424629462046FFF77AFE2B68A8B385F816
:1014A00025605B6928469847D4F86C3A002B12DD1A
:1014B000013B2C22C4F86C3A02FB034383F8ED692C
:1014C000D4F86C3A534303F6C81023442044D3F8AD
:1014D000C8395B699847D4F86C3A23B994F8703AE4
:1014E0000BB984F8709A2C35BD42C5D103B0BDE864
:1014F000F08FD4F85C3A1A4454E7D4F85C3AC91A2D
:1015000050E7D4F85C3AD21A4CE728469B6DB5F9FF
:1015100004100FFA8AF298472B6828465B699847AF
:10152000E1E700BF084402089C0300202DE9F04FCA
:1015300085B0044600F0D4F904F5DA7604F5507568
:101540004FF002080027336830461B6EADF80C8060
:1015500003A904F10409984786F8257031464846E6
:101560002C3608F0BBF9AE42EDD104F64C234FF017
:101570001E084FF0000A04F5D66B0FFA88F20092AD
:101580000BEB0A060F2732681988126E019330465A
:10159000ADF80C1003A9904739B23046009AFFF716
:1015A0000EFD23374FF0010386F8253031464846BB
:1015B000BFB208F093F9E12F06F12C06019BE2D1AE
:1015C0000AF5847A08F11908BAF5467F03F1020397
:1015D0001FFA88F8D1D1022700262B6828461B6EF7
:1015E000ADF80C7003A9984785F825602946484650
:1015F0002C3508F073F95D45EFD104F6C8150A26BD
:101600004FF0040801272B6828461B6EADF80C80AC
:1016100003A9984731B228464FF496722336FFF754
:10162000CEFCB6B285F825702946484608F056F932
:10163000732E05F12C05E6D1D4F8683A0C4A102136
:1016400004F5CA7011F0CEFC0A4B094A1B68102140
:1016500004F5D27011F0C6FC04F1E4000FF0B0F90B
:1016600004F598700FF0ACF905B0BDE8F08F00BF3D
:10167000084402089C0300207047043870477047F4
:1016800010B51021044620F01FFE204610BDA0F129
:101690000400F5E7C068FFF729BDA0F10400FFF7DB
:1016A000F9BFC068FFF730BDA0F10400FFF7F9BF34
:1016B000C068FFF73BBDA0F10400FFF7F9BF0000D1
:1016C00010B500228260044AC16002F108042C3285
:1016D0000460426010BD00BF40440208704770477C
:1016E00010B5034B0360044600F0F6FA204610BD27
:1016F0008844020810B50446FFF7F2FF2046C421D3
:1017000020F0E2FD204610BD10B5044600F060FB5D
:10171000014B2360204610BD8844020800F0DDBA6A
:10172000704770477047704704387047704710B56E
:101730001021044620F0C8FD204610BDA0F1040091
:10174000F5E7000010B500228260044AC16002F192
:10175000080420320460426010BD00BFB444020897
:10176000002202607047000038B50546194804F0B1
:10177000A1FF0A21174805F023F898B9154805F08C
:1017800074F804462868BE2140F6FF736143B1FB3C
:10179000F3F103681E319B68984728680368214667
:1017A000DB6898470C4C0D482368002BC8BF03F139
:1017B000FF334FF02001C8BF236004F02DFB38B980
:1017C00023682BB9286803681B6998470A2323609C
:1017D00038BD00BF9C390120A0030020000002405A
:1017E000704700F598730868496803C370477047ED
:1017F00000F068BC10B54FF4AE71044620F064FDF3
:10180000204610BD10B50446D0F85801FFF7ACFFD4
:101810002046BDE810400DF0A3BF10B50446D0F837
:10182000400158B10368DB68984738B1D4F84001EB
:1018300003689B6898470023C4F8403110BD00003E
:1018400010B5044600F002FC014B2360204610BD99
:10185000F044020870477047704730B585B00368A0
:1018600001816D4601460446D3F8843028469847E6
:1018700095E807003C3484E8070005B030BD30B57A
:1018800085B0036841816D4601460446D3F8843033
:101890002846984795E807003C3484E8070005B0DF
:1018A00030BD0022028042808280C280704780F872
:1018B0003610704770B5036804461B6B1546984791
:1018C0002368294620465B6EBDE87040184700201B
:1018D000704708B5FFF7CCFA08BD806C70477047B9
:1018E0007047704710B50821044620F0EDFC2046F3
:1018F00010BD10B54C21044620F0E6FC204610BD7A
:1019000010B54FF4DA71044620F0DEFC204610BD1D
:1019100070B503685E6B124B1B6804468DB22BB921
:10192000104B114A6C21114821F05AFD1049828D4B
:101930000988914203D80F4B0B4A6D21F3E713F846
:1019400012200D4B1B6853F8220003681B6B98474D
:10195000291A3346204609B2BDE87040184700BF37
:10196000E42D0120DF450208D44602082146020882
:10197000E82D012062460208EC2D012000224FF0E4
:10198000FF31C0E900218260704700000A4A02600E
:1019900000228280C280028142818281C2810282D1
:1019A0004282C0E90522C2610284428480F8242078
:1019B000012280F825207047D85B020870B50446E4
:1019C0001E46BDF91050FFF7FAFA2368314620464B
:1019D0009A6B9047236829462046DB6BBDE8704030
:1019E0001847000010B526220446002121F073FD9F
:1019F0002046FFF7CBFF4FF6FF720C4BA362A28588
:101A000000234FF47F01A4F84020A4F84220084AA4
:101A100084F83830C4E90C3184F83930A387E3877F
:101A200063642260A364204610BD00BF44450208E1
:101A3000544502082DE9F04F04468BB0A2460FF042
:101A400009FE0025974BE5634AF8403B26222946CC
:101A5000504621F040FD5046FFF798FF04F16C0915
:101A6000FF27914B236426224FF6FF73294684F803
:101A700066704846A566ADF820300AAE21F02BFD11
:101A80004846FFF783FF894BE36636F8083DA4F824
:101A900092303146484604F1980B84F894700BF06C
:101AA000F0F804F1E4085846FFF79CFF04F5987736
:101AB0004046FFF797FF3846FFF794FF4FF4A073B7
:101AC0002A46504600932946F023FFF777FF4FF050
:101AD0007F43A366231D18465146039307F0FEFE7D
:101AE00040F2131248466921FFF769FA4FF00403E8
:101AF00048463146ADF820300BF0C3F84946201D6A
:101B000007F0ECFE1E234FF4917200932946F02358
:101B10005846FFF753FF664BC4F8C830D4F89830E6
:101B2000A4F8CC500DF1100AD3F884305946504631
:101B300098479AE8070004F1D40383E807005D4B57
:101B40001B6804F5BE792BB95B4B5C4A60215C488D
:101B500021F046FC5B4B1B88052B03D85A4B574A98
:101B60006121F4E7594B0521186800F0A1FE584A9D
:101B700003460C21484611F035FA4FF0040258464E
:101B8000C4F8E0903146DFF84C91ADF82420CDF850
:101B900020900AF0E7FE5946201D07F09FFE2A46D6
:101BA0001B214046FFF70BFA4FF0FF32D4F8E43028
:101BB000C4F81421A4F81851D3F884304146504693
:101BC00098479AE8070004F5907383E80700394ABC
:101BD000136804F5CA7B002BB6D03A490B88022B58
:101BE000BCD93A4B0221186800F062FE384A03461D
:101BF0000821584611F0F6F94046C4F82CB10AF015
:101C000091FE032340463146ADF82430CDF82090B4
:101C10000AF0A8FE4146201D07F060FE2A46A521D5
:101C20003846FFF7CCF94FF0FF30D4F83031C4F824
:101C30006001A4F86451D3F884303946504698477F
:101C40009AE8070004F5B67383E80700194A136899
:101C500004F5D278002B3FF477AF1A490B88012B9B
:101C60007FF67CAF194B0121186800F021FE184A5D
:101C700003460821404611F0B5F93846C4F878818A
:101C80000AF050FE31463846CDF82090ADF8245089
:101C90000AF068FE201D394607F020FE20460BB0F2
:101CA000BDE8F08FA84602082C5A0208945A020890
:101CB0002200FFFFE42D0120DF4502080F47020844
:101CC00021460208E82D012062460208F02D01207D
:101CD000DC4502084445020870477047704730B43D
:101CE000C56844686A100346ED0704EB02009B6870
:101CF00048BFA25830BC48BFD358184743682BB1DF
:101D000083682BB9C06800F001007047184670471F
:101D10000120704710B51021044620F0D5FA204666
:101D200010BD10B5C421044620F0CEFA204610BDE7
:101D30006C30884208B505D10DF090FCBDE8084034
:101D400000F0D0B908BD0000F8B51A4B018F1B8810
:101D50008B42064629D9184B1B682BB9174B184ADA
:101D600018486C2121F03CFB13F81120164B1B681E
:101D700053F82250154B186800F09AFD2B6807465F
:101D80009B6B284698472B6804469B6C394628462F
:101D900098472B6814FB00F45B6A3946284698473D
:101DA000A4B22044A6F84600F8BD0023A0F84630AF
:101DB000FAE700BFE82D0120E42D0120DF450208ED
:101DC0009447020821460208EC2D0120F02D012045
:101DD0002DE9F743044626460FF03CFC0025374B1F
:101DE000E56346F8403B364B236404F16C074FF043
:101DF0000109FF2384F86630A4F84450A4F8465043
:101E0000A4F84850A4F84A50A4F84C50A4F84E50F6
:101E1000A4F85050A4F85250C4E91555E565A4F84B
:101E20006050A4F8625084F8645084F86590A56608
:101E300038460BF067F8234BC4E92D34224B294672
:101E4000C4E92F353046FFF71CF829463046FFF726
:101E50001AF83046F021FFF718F830464FF4A07119
:101E6000FFF715F804F104084FF07F43A3663146ED
:101E7000404607F033FD02AA4FF4630322F8049DA5
:101E8000694623673846ADF800500AF0C8FD0623BE
:101E9000A4F8A4303846FFF757FF4FF0FF33C4E9EA
:101EA0002A3304F1B4034046C4F89430394607F0AD
:101EB00015FD204603B0BDE8F08300BF6847020867
:101EC0002C5A020850470208311D0008704770471D
:101ED0007047416070477047012303727047704735
:101EE0007047704710B4C468416862100346E40745
:101EF00001EB02009B6848BF8A585DF8044B48BF5D
:101F0000D358184743682BB183682BB9C06800F0D9
:101F100001007047184670470120704710B50C212A
:101F2000044620F0D1F9204610BD10B54FF4AE7133
:101F3000044620F0C9F9204610BD10B51021044612
:101F400020F0C2F9204610BD10B54021044620F013
:101F5000BBF9204610BD10B50DF080FB0368BDE84D
:101F60001040DB6B184770B5044690F8390094F8C0
:101F700038300130C0B2984284F8390005D90123C5
:101F80002372002384F8393070BDB4F93A2000215F
:101F90000FF012FD83B213F0010206D04FF6FF716D
:101FA0000028D8BF0A46981800B2238AC01AA08712
:101FB00060680368DB69984705464DB1A988A38F1F
:101FC00019442B6828461B6B09B29847AD69F4E7A2
:101FD00060680368BDE870405B691847054B1B7873
:101FE0003BB143682BB11A6800F10C01526E1846E0
:101FF00010477047892D012070B5037A0546BBB99B
:1020000040680368DB69984704464CB1A1886B8F30
:10201000C91A236820461B6B09B29847A469F4E7E4
:102020006868036805F10C011B6EBDE87040184735
:1020300070BD0000044B1B6893F858200AB1D86C9F
:1020400000B99868704700BF8C2D0120F8B5044690
:1020500017460E460DF0C4FB164BC4F854711C60B5
:10206000154B2360154BC4F84431154BC4F8586127
:1020700000251868C4F83C51C4F84051C4F84851D0
:10208000C4F84C51C4F85051036801219B6898472B
:10209000284600F0D3FBFFF7CDFF17F0EEFFFFF768
:1020A000C9FF18F065F8FFF7C5FF18F06DF8204676
:1020B000F8BD00BFE02D0120F0470208D847020814
:1020C0008C2D0120064BC0F84C310023C0F8503154
:1020D00000F5A273C0F84801C0F84031704700BF56
:1020E00045220008064BC0F84C310023C0F850319F
:1020F00000F5A273C0F84801C0F84031704700BF36
:10210000152400082DE9F04707469068DDF820A067
:10211000994603681B6A884615469847C32805D820
:10212000424B434AA321434821F05AF968680368A7
:102130001B6A98470F2803D83F4B3D4AA421F2E77A
:10214000E86803681B6A98470B2803D83B4B384A5A
:10215000A521E8E70DF082FA04300DF0A4FAD9F8D1
:10216000000010B10368DB689847D9F8000010B18F
:1021700003681B689847386810B103685B69984723
:10218000D8F8000010B103685B689847386810B150
:1021900003681B689847D8F8000010B103689B6873
:1021A0009847E868036800215B6A9847044620B1B5
:1021B000002343600372224B0360A8680368002178
:1021C0005B6A9847064608B1FFF79EFA686803689D
:1021D00000215B6A9847054610B13146FFF7B2FA15
:1021E000C9F80040C8F800503E60E5B12B1DCAF8A0
:1021F0000030C5F808A03368F5633046DB689847BF
:102200002B6828461B689847214630460FF0CEFBC6
:10221000236820461B699847236820465B699847D6
:102220002846BDE8F0872B46E1E700BF8448020856
:10223000BE4B02081249020853490208F649020837
:102240004448020807B5D0F858310093D0F854211B
:10225000044B00F59E710448FFF754FF03B05DF88E
:1022600004FB00BFD42D0120D02D01202DE9F74F14
:1022700007469068994603681B6A88461546984742
:1022800040F67323984205D8594B5A4AA3215A481D
:1022900021F0A6F8686803681B6A98470F2803D8DE
:1022A000564B544AA421F2E7E86803681B6A984732
:1022B0003F2803D8524B4F4AA521E8E70DF0CEF94D
:1022C00004300DF0F0F9D9F8000010B10368DB68B4
:1022D0009847D9F8000010B103681B689847386820
:1022E00010B103685B699847D8F8000010B1036823
:1022F0005B689847386810B103681B689847D8F83E
:10230000000010B103689B689847E86803680021E3
:102310005B6A98470446B0B106464FF0000B394B54
:10232000C0F804B080F808B046F80C3B30460AF01C
:10233000EFF914232387344BA4F83CB01B78002B0F
:1023400038D101232372A868036800215B6A98478B
:10235000064608B1FEF762FE6868036800215B6A02
:102360009847054610B13146FFF7AAF9C9F8004071
:10237000C8F800503E60002D38D02B1D0C9A136019
:10238000AA603368F5633046DB6898472B682846B7
:102390001B689847214630460FF008FB236820460B
:1023A0001B699847236820465B699847284603B015
:1023B000BDE8F08F154AE068DFF854A0B2F90020BC
:1023C000C4F810B0836BBAF90010019230469847F8
:1023D000E168019ACB6B30461146984730460AF0C7
:1023E00012F9BAF800305B426387ACE72B46C5E7C9
:1023F00084480208994A020812490208534902080F
:10240000F649020868480208892D0120802D012024
:102410007E2D012007B5D0F858310093D0F8542113
:10242000044B00F59E710448FFF720FF03B05DF8F0
:1024300004FB00BFD42D0120D02D012013B50022B4
:1024400049B102AB019203F8052D0268946801AA14
:10245000A04702B010BD0846FBE7C0897047008A5C
:102460007047C088704780887047807A00F07F008E
:102470007047807AC0097047002070479FED010ABD
:10248000704700BF00000000406A7047806A7047D4
:10249000704710B58A880B884C88C169D20A43EA14
:1024A000044351F82200184410BD10B5C2B1137B8B
:1024B000B3B1547BD27A240204F4E0641443026A78
:1024C00098B202EB840213888B4202D192F9020087
:1024D00010BD05D8013880B204320028F3D1F7E7E7
:1024E0000020F5E710B52C2104461FF0EDFE204634
:1024F00010BD000030B58BB00446BDF860500895A3
:10250000BDF85C5007959DF8505006959DF84C50CD
:1025100005959DF8485004959DF8445003959DF805
:10252000405002959DF83C500195BDF838500095FB
:102530000EF096FE064B2360159BE361169B23620B
:10254000199B63621A9BA36220460BB030BD00BF8B
:10255000D44C020830B5184D2C78BFF35B8F14F0C3
:1025600001048FB024D128461FF085FE00B33F231D
:102570000993124B0893124B12490A94CDE9064372
:1025800001220423CDE903320A2315220093CDE969
:102590000B440C230594CDE901440B48FFF7AAFF37
:1025A00028461FF074FE094A094907481FF087FEB4
:1025B00005480FB030BD00BFA4030020746C0208B2
:1025C000706C0208A4680208A80300200000002024
:1025D0009124000810B5002404600C6014601C6095
:1025E00010BD000030B5174D2C78BFF35B8F14F091
:1025F00001048FB022D128461FF03DFEF0B13F23E9
:102600000993114B0893114B11490A940122CDE90A
:1026100006430423CDE9033228230093CDE90B447C
:102620000594CDE901440B48FFF764FF28461FF0ED
:102630002EFE094A094907481FF041FE05480FB020
:1026400030BD00BFD40300206C6C02087C6C020813
:10265000B46B0208D8030020000000209124000879
:1026600030B5184D2C78BFF35B8F14F001048FB098
:1026700024D128461FF0FFFD00B33F230993124BDE
:102680000893124B12490A94CDE906430122042310
:10269000CDE9033214230C220093CDE90B44182317
:1026A0000594CDE901440B48FFF724FF28461FF0AD
:1026B000EEFD094A094907481FF001FE05480FB021
:1026C00030BD00BF04040020786C0208806C020852
:1026D000C46B0208080400200000002091240008B8
:1026E000704710B5042104461FF0EEFD204610BDD2
:1026F00008B5042910D8DFE801F003070B0B0B0025
:1027000000F014F8006808BD00F010F84068FAE71F
:1027100000F00CF88068F6E70020F4E70048704706
:10272000484D02080720704707207047004870474F
:102730003404002010B5FFF793FF044C2060FFF72E
:1027400051FF6060FFF706FFA06010BD3404002059
:1027500000207047002070470EB403B503AB002182
:1027600053F8042B01930EF001F802B05DF804EB6E
:1027700003B070470CB407B504AB53F8042B0193B6
:102780000DF0F4FF03B05DF804EB02B070470000F9
:1027900010B5436C044673B3038F2BB9184B194A19
:1027A000C521194820F01CFEC38E00EB43035B8C4F
:1027B0000BB30FF06EFE238F012B03D8134B144A7B
:1027C000CB21EEE7E28E531C9BB2092B194688BF42
:1027D000A3F10A0104EB410140F63F10498C81420C
:1027E00009D10A2B04EB420228BF002304EB430368
:1027F000508C588451842046BDE810400FF04CBDE9
:10280000D44D0208014F0208DD4D0208214E020896
:102810002F4E02080FF007BD10B586B002AC84E859
:1028200006001A460AAB05930193099B00932146C3
:10283000089B0CF0B1FA06B010BD000038B5D8B94D
:10284000114B12481B681249BBB11A689C681A44A4
:1028500002605A681A440A601C446CB10D4B002295
:102860001A80FFF763FF0546FFF75EFF0A4B1C6007
:102870000A4B1D600A4B188038BD0A4B03600A4B97
:102880000B600A4B1C68E8E7400400204404002069
:10289000480400204C040020E42D0120EC2D0120F0
:1028A000E82D0120DCF90308ACF90308D8F9030886
:1028B000044B1B6853F82100034B1B6803EB4000DB
:1028C000704700BF4804002044040020012380F822
:1028D000781080F87930704770470020704700000A
:1028E0004164034B003118BF01211970704700BFCC
:1028F000892D0120704700207047836B0BB108467B
:10290000184770474FF6FF707047406803689B692F
:102910001847704770477047704700207047B1F9FB
:102920000430838001207047704780F8261070477C
:1029300090F82600704710B50022B1F90840B1F9AF
:102940000A10028042808480C18010BD0022028073
:1029500042808280C28070470177704780ED080A0C
:10296000704780F82410704780F8251070470120C8
:102970007047983070478C30704784307047000043
:10298000034B902283F85A2383F85823704700BFE3
:1029900000E100E0094A0A49D3680A48C3F30A0380
:1029A000013B9BB20B801169C1F30A01013901801F
:1029B0001364536B43F00103536370470068014095
:1029C0005604002054040020014B986A704700BF51
:1029D00084680140024B0122996243F8602C7047E1
:1029E000846801407047704710B52C2104461FF0E1
:1029F0006BFC204610BD10B5BC2104461FF064FCE2
:102A0000204610BD10B531B90A4B0B4A0B4840F2B5
:102A1000FF2120F0E5FCC0E90F120032084918BF81
:102A200001220A7002681946D2F89020BDE81040D1
:102A3000104700BFAD510208A0520208E55102083C
:102A4000882D012008B5094B1B888B4203D8084B01
:102A50001B88934205D9074B074A0848A32120F059
:102A6000BFFC074B1980074B1A8008BD7E2D012043
:102A7000802D01204A5102085D520208E5510208EA
:102A8000842D0120862D012070B5044607F011FA2F
:102A900023689D6E0CF0E2FD01462046A84723689E
:102AA000054AD3F88C502046AC460023A2F51631D7
:102AB000BDE87040604700BF005802D007F0E0B9A1
:102AC00007F0EAB907F0A6B907F015BB10B5044640
:102AD00007F06CFF23682046D3F8BC30BDE81040F7
:102AE000184790F87A301BB1406803681B68184794
:102AF0001846704710B590F8784090F834100C4B99
:102B00008C421A7809D03AB90A4A0B4914880888C5
:102B100010800C8001221A7010BD002AFCD0054ADA
:102B200005491488088810800C800022F3E700BF54
:102B3000822D01207E2D0120802D0120034B4FF09E
:102B400080629A604FF080729A60704700E100E006
:102B5000084B4FF08062C3F88820BFF34F8FBFF35C
:102B60006F8F4FF08072C3F88820BFF34F8FBFF391
:102B70006F8F704700E100E070B500238380114D36
:102B8000114B03602A6892F85810064609B1D06CC0
:102B900000B990680368DB6A98472B68B0FA80F444
:102BA000D86C640928B10368DB6A9847002808BF1D
:102BB00001242CB9054B064A06482C2120F010FCB4
:102BC000304670BD8C2D0120B44F02089050020891
:102BD00024520208EE50020870B5284E3578BFF333
:102BE0005B8F15F0010547D130461FF044FB0028EC
:102BF00042D0234C234B256104F13400C4E9003555
:102C0000C4E90255E58425856585A5850EF06BFA36
:102C100004F1580009F0D4FC1B4BA36520461B4B64
:102C200040F8843BFFF7A8FF194BC4F884302433E5
:102C3000C4F88C304FF4C803C4E928350023C4F825
:102C4000AC30C4F8B030C4F8B430C4F8B830304652
:102C5000104BC4F89050A4F89C5084F8A85084F805
:102C6000A95084F8AA50C4F898301FF010FB0A4A03
:102C70000A4920461FF023FB014870BD5004002084
:102C800058040020F8580208D44F02084C5002089B
:102C9000AC5802088C58020800000020E529000802
:102CA00038B5184C23685BB3174B184A1B6C118856
:102CB0008B4216D1164B198804F020F8236893F83C
:102CC0006A200025013283F86A2083F87C5000F0E6
:102CD00083FA206807F06AFE2846BDE8384000F015
:102CE000BBBC04F00BF82468236820461B6A984795
:102CF000012384F87C300020BDE8384000F0D6BCC9
:102D000038BD00BF8C2D0120006801405604002012
:102D10005404002003685B6C184701207047036867
:102D20009B6A1847FEE7000082B0002301930E4B18
:102D30001A6B42F400021A631A6B02F40002019249
:102D4000019A1A6942F400021A611A6922F4000217
:102D50001A61064B064A1A61064A5A61064B4FF041
:102D600080629A6002B0704700380240F839012052
:102D7000852D0008252D000800E100E040F2EF302D
:102D800070470000024B1B68586803685B6918476E
:102D90008C2D012008B50B280BD8DFE800F01206B7
:102DA000100A0A0A0A0808080808012008BD0520B8
:102DB000FCE7054B054A06486F2120F011FB002077
:102DC000F4E70220F2E700BF08530208DA530208D2
:102DD0002353020808B50A2809D8DFE800F01006D6
:102DE0000E080808080606060600012008BD054B67
:102DF000054A0648902120F0F3FA0020F6E7022069
:102E0000F4E700BF085302082454020823530208C1
:102E1000F8B50C46487FFFF7BDFFA77F054638464B
:102E2000FFF7B8FF06463846FFF7D4FFA38A628B48
:102E3000D21A494B1A64A18A628B521A9A61A18AEA
:102E4000228B521A1A615863A18AE28A42EA01422D
:102E50005A642269DA636268DA602268402A70D0B4
:102E600010D8042A3BD0202A6BD0237F45EA036583
:102E7000394B45F40035DD61617FA27F914267D017
:102E8000364A4BE0B2F5807F1BD0B2F5007F23D0ED
:102E9000802AEAD1A068021DDA62227F45EA026533
:102EA00045F40035DD615E6222695A610278EAB15B
:102EB000012A35D02A4B2B4A2B484FF48D7120F034
:102EC0008FFA217F294A42EA0162DA61E2681A62D6
:102ED0005E6222695A6120E0217F254AF3E7227F62
:102EE00045EA026545F40035DD61F1E7D9694288BC
:102EF000501E21F47F4222F0100242EA0022DA61E1
:102F00000121154BDA6942F02002DA61DA69920692
:102F1000FCD410229A600029B2D0164A1A60F8BD7B
:102F2000DA694088217F22F47F4222F010020138C2
:102F300042F01002FF3942EA002218BF0121DA6193
:102F4000DFE7237F45EA036545F40035024BCBE715
:102F500042F20132E2E700BF00B00240012301006B
:102F6000EE5202089C530208235302080A00020092
:102F7000090002000123020010B5887F0C46FFF70C
:102F800029FF1C4B5863A18AE28A42EA01425A6433
:102F90002269DA63628BA18A521A1A642268082AAB
:102FA00016D1A18A628B521A9A61A18A628B521A37
:102FB0001A615862217F104A42EA0162DA61E268CE
:102FC0001A6222695A612269DA600C4A1A6010BDDD
:102FD0000022D8611A61E1680A0A480902F47842BD
:102FE00000F4FC600243C1F3C4010A439A63044A3B
:102FF000ECE700BF00B0024009000100012302001D
:1030000001230300054B0360054B4FF08062C3F8BA
:103010008820BFF34F8FBFF36F8F70475453020860
:1030200000E100E010B50446FFF7ECFF20464FF446
:103030005A611FF049F9204610BD000070B50546E1
:103040002C460A4B0C30002668602E726E7244F8D3
:10305000203B6022214607F0FFFD05F55A63E6603C
:103060002434A342FBD1284670BD00BF545302084C
:10307000034B1A68D207FCD423229A60704700BF22
:1030800000B002407047000030B50F4C2568ED07D6
:10309000FCD423250904A56041F001010225FF2B82
:1030A00065636164E0630AD00849656241EA0363CD
:1030B000E361074B22626061E060236030BDE5613F
:1030C000039BA363034BF8E700B002400900010033
:1030D000010002000100030030B50E4C2568ED0729
:1030E000FCD423251204A56042F001020225FF2B27
:1030F00065636264E063E16008D01B0643F002137D
:10310000E361054B65626061236030BD034BE361A1
:103110000123F9E700B0024001000200020002FFB3
:1031200030B50B4C2568ED07FCD4232512041B0693
:10313000A56043F40033022542F001026563626436
:10314000E063E160E361034B65626061236030BD71
:1031500000B0024001000200012108B5002208462B
:1031600005F0C3FC0A4B186028B90A4B0A4A28210B
:103170000A4820F035F900220421012005F056FD0F
:10318000074B186018B9074B034A2C21F0E708BD1C
:10319000180500206F54020823550208B85402088D
:1031A00014050020E1540208024B4FF0FF3118686B
:1031B00005F0E6BC18050020014B186805F00CBDB1
:1031C00018050020024B0021186805F0D9BC00BF8B
:1031D00018050020FFF7F0BF0348044900680023EA
:1031E0001A4605F05FBD00BF140500200400002052
:1031F00013B5084C00231A4601A9206805F084FD88
:103200004FF0FF33002201A9206805F07DFD02B0D8
:1032100010BD00BF1405002070477047704770470D
:10322000012070474020704700EB81100830704744
:1032300000EB8110083070470120704740F6742081
:10324000704740F6742303FB01000830704740F6D6
:10325000742303FB010008307047012070471020E1
:10326000704700EB01100830704700EB0110083088
:1032700070470846FEF726BF10B5034B03600446AF
:1032800006F016FB204610BDC455020810B50446D2
:10329000FFF7F2FF204648211FF016F8204610BD28
:1032A00010B5034B0360044606F002FB204610BD38
:1032B0009055020810B50446FFF7F2FF204640F68D
:1032C0007C211FF001F8204610BD000010B5034B13
:1032D0000360044606F0ECFA204610BD5C55020877
:1032E00010B50446FFF7F2FF204618211EF0ECFF50
:1032F000204610BD10B5084B0360044600F6A82018
:10330000FFF7BAFF04F12C00FFF7CAFF04F1140025
:10331000FFF7DCFF204610BDF855020810B5044643
:10332000FFF7E8FF20464FF445611EF0CDFF204631
:1033300010BD00002DE9F341FFF7F0F90546FFF756
:10334000F1F90024014623462846224600940FF056
:10335000EFFE284B284A1A602046FFF76FFA274BEA
:10336000274A284D9A6028480FF04AFE2B78BFF371
:103370005B8FDB0738D428461EF07DFF002833D052
:10338000224C234B236004F6F42604F1140004F1CC
:103390002C0804F6A8276060C4F80880E76026615E
:1033A00006F088FA1B4B6361404606F083FA1A4B1D
:1033B000E362384606F07EFA184BC4F8A83A04F5E2
:1033C0002F60FEF7CDF9224604F52F613046FEF757
:1033D00037FA3046FEF776FE28461EF058FF104AB0
:1033E000104920461EF06BFF0F4802B0BDE8F041C7
:1033F00000F0FAB8F02D0120B41F0020B81F002003
:10340000701100201C05002008000020200500206D
:10341000F85502085C55020890550208C455020888
:1034200000000020F5320008301F00207047000027
:10343000014800F0E7B800BF301F002010B504219C
:1034400004461EF041FF204610BD10B58C210446F5
:103450001EF03AFF204610BD10B51C2104461EF098
:1034600033FF204610BD10B5842104461EF02CFF0A
:10347000204610BD2DE9F041454C464D464F474B87
:1034800047492B60224628461EF019FF454EDFF8BB
:1034900054813846FFF7D2FD2246434938461EF094
:1034A0000EFF304614F040FF2246404930461EF0E1
:1034B00006FF40460DF032FB22463D4940461EF0D5
:1034C000FEFE22463B493C481EF0F9FE3B483C4983
:1034D0008166002301220421C0E90176C560C0E9AC
:1034E0000433C0E90633C0E90833038580F82A3085
:1034F000C3620386C0E90E33C0E9103380F8483058
:1035000080F8492080F84A3080F84B30C0E9133306
:10351000436580F85830C0E91733436680F86C3053
:1035200080F86D3080F86E3080F86F3080F87D1054
:103530005021A0F87E101A21A0F880101421A0F8C4
:1035400082102049204D0860F02129801F4D80F80D
:10355000703029801E4D43674FF4A07129801D4DA6
:1035600080F8783029801C4980F879300B7080F819
:103570007C301A4B80F87A2080F87B2080F8342049
:10358000036022461649BDE8F0411EF098BE00BF18
:10359000000000208C11002090110020F856020835
:1035A00019320008B81F0020053000081B3200083F
:1035B0001D320008E126000808000020301F00200E
:1035C000010000018C2D01207E2D0120842D012081
:1035D000802D0120862D0120822D01200C5602080D
:1035E0001F3200087011002010B50446FFF74CFA96
:1035F00023680349D3F890302046BDE810401847AF
:1036000000B004D008B503680446D3F88430984766
:1036100023682046DB6F9847FFF7EAFD23682046C2
:103620005B6F9847292000F0D9FCFFF7E1FD236884
:1036300020465B6F9847F8E7FFF7C6B9FFF7CAB9AE
:10364000FFF740BAFFF79CB9FFF778BAFFF780BAE7
:10365000FFF7A0B906F0D8BB032821D8DFE800F0B7
:10366000020B12190F4B1A68B2FA82F252090421A6
:103670000D4802F0D7BB0B4B5A68B2FA82F25209DE
:103680000821F5E7074B9A68B2FA82F25209102135
:10369000EEE7044BDA68B2FA82F252092021E7E73A
:1036A000704700BF4420002000100240032821D8AA
:1036B000DFE800F0020B12190F4B1A68003218BF36
:1036C000012204210D4802F0ADBB0B4B5A680032B9
:1036D00018BF01220821F5E7074B9A68003218BF8E
:1036E00001221021EEE7044BDA68003218BF0122F4
:1036F0002021E7E7704700BF44200020001002406F
:1037000003280DD8DFE800F00206080A0421054866
:1037100002F08DBB0821FAE71021F8E72021F6E737
:10372000704700BF0010024008B5032811D8DFE839
:1037300000F0020A0C0E0421074802F06DFB431E44
:103740005842584108BD0821F6E71021F4E720212E
:10375000F2E70020F3E700BF0010024070B5084D0B
:1037600000240126E0B2FFF7DFFF28B155F824302E
:10377000012B18BF45F824600134052CF2D170BD2F
:103780004420002038B50C4B0C4C18800C4B822088
:1037900019806368984740F6110398420AD1094D91
:1037A00023682C60822098472B688220DB6898472A
:1037B000002038BD0120FCE7542000202400002018
:1037C00056200020582000204FF4A071F020FFF771
:1037D000D9BF0000F7B5394D2B6804461B6982201C
:1037E000984780B2208000285AD02B680DF106023D
:1037F0005B6901A982209847314B1B78002B57D079
:10380000BDF8062040F674639A424BD9ADF80630F5
:10381000BDF806209B1AADF80630BDF806200B2334
:10382000B2FBF3F232B1274B1B8893423CBF03F14A
:10383000FF3292B2BDF8043040F6B8318B4295BFEA
:10384000C3F57163C3F56D630E330833ADF804300F
:10385000BDF804100F23B1FBF3F131B11A4B1B88F3
:103860008B423CBF03F1FF3189B2184E184D3068CE
:103870002F6883B2814288BFCB1AB8B298BF5B1A57
:10388000BA428CBF101A801A9BB280B20344052B37
:10389000C8BF31603368C8BF2A6063802B68A380CB
:1038A00003B0F0BDB32A9CBFB422ADF80620AFE749
:1038B000BDF80630A3F5B473ADE700BF5820002073
:1038C0006820002056200020542000205C2000208A
:1038D0006020002037B568460D461446FFF77AFF92
:1038E000BDF8000030B1BDF802302B60BDF80430E7
:1038F0002360012003B030BD054BD3F8882042F48B
:103900007002C3F888204FF000629A60704700BFD1
:1039100000ED00E070B588B000230293204B1A6CD4
:1039200042F010021A641B6C03F010030293064667
:1039300001A903A8029B01F061F9069B4BBB01F0B2
:103940004DF9184C184B236040F2E733E360174BF6
:10395000B0FBF3F001380023606020462361A360D0
:10396000A36101F0ABFA054680B9204601F066F983
:10397000054658B9362001F0A5FF0F2E0DD82A466E
:103980003146362001F06AFF094B1E60284608B018
:1039900070BD01F023F94000D3E70125F6E700BF31
:1039A00000380240F43701200010004040420F0070
:1039B0001C00002007B5064B02A91B6821F8020D68
:1039C0000122044802F065FB03B05DF804FB00BF70
:1039D000140000209438012008B5642005F079F81F
:1039E000FBE7000030B595B03022002108A81FF099
:1039F00072FD1422002103A81FF06DFD00241E4B50
:103A000001941A6C42F080521A641B6C03F08053CC
:103A10000193019B194B02941A6842F440421A60C8
:103A20001B6803F4404302930122029B4FF480334E
:103A3000CDE9082302254FF480030821CDE90E5378
:103A40004FF4B473CDE9101308A80423139312950F
:103A500000F04CFE00F0B8FD0F23CDE903354FF424
:103A6000A0504FF48053CDE90603052103A8059427
:103A700001F016F815B030BD00380240007000406B
:103A80002DE980489BB003F0A3F9FFF7ABFF1422A8
:103A900000210DA81FF01FFD0024C94B00941A6BD4
:103AA000C848C94D42F010021A631A6B02F01002A6
:103AB0000092009A01941A6B42F020021A631A6B6A
:103AC00002F020020192019A02941A6B42F08002E5
:103AD0001A631A6B02F080020292029A03941A6B24
:103AE00042F004021A631A6B02F004020392039A72
:103AF00004941A6B42F001021A631A6B02F001027D
:103B00000492049A05941A6B42F002021A631A6B2B
:103B100002F002020592059A06941A6B42F04002E6
:103B20001A631A6B02F040020692069A07941A6B07
:103B300042F008021A631B6B03F008032246079346
:103B40003C21079B02F06EF9012202219F4802F0FE
:103B500069F9224604219D4802F064F922464FF497
:103B600040519B4802F05EF901263C23CDE90D3619
:103B70000DA903239348109302270F9402F05EF8D7
:103B80000DA99248CDE90D76CDE90F4402F056F823
:103B900004230DA98D48CDE90D36CDE90F4702F07C
:103BA0004DF820230DA98B480F96CDE90D3402F076
:103BB00045F80DA94FF440538548CDE90D36CDE9C0
:103BC0000F4702F03BF88448844B036003F06EFA21
:103BD000DFF82CC2824B2C62C5E900C328464FF4A3
:103BE0008043C5E90434C5E90244C5E9064401F04F
:103BF00085FB1021284601F0D9FD2146284601F019
:103C0000F7FD784DDFF8FCE1AC624FF48273C5E953
:103C100000E34FF400781823C5E9068328460A23F9
:103C2000C5E90244C5E90444C5E90844EB6202F071
:103C3000D1F98F232246394664488DF824308DF817
:103C4000344002F0EFF832464FF47A7309A928465F
:103C500002F01FFA4FF47A7332460DA9284602F09B
:103C6000CAFB3246394659485F4D02F0DBF89DF8F1
:103C70003430D32B04BF5D4B1E705D4B0126C5E96C
:103C800000364FF0100A40230024C5E904A34FF486
:103C9000C073C5E906344FF40063C5E908344FF436
:103CA000005302274FF0040B4FF00308AB620DA93D
:103CB00007232846CDE90D73CDE90FB34FF008096E
:103CC000C5E9024BCDE91187139700F0B9FC4FF617
:103CD000FF7209A9284608940996CDE90A960C9422
:103CE00000F0CEFC304603F09FF84FF6FF7209A9B2
:103CF0002846CDE90979CDE90B6400F0C1FC4FF607
:103D0000FF7209A92846CDE90989CDE90BB400F075
:103D1000B7FC4FF40C730893089B0C934FF6FF729B
:103D200009A92846CDE909B90B9600F0A9FC40F293
:103D30006A51284600F0C2FC342221460DEB0200F5
:103D40001FF0C9FB2B4D2C4B2C61C5E90034092316
:103D5000C5E905361D23C5E9073840F20D1240F2CA
:103D60004313C5E9092340F2171140F24713C5E98F
:103D70000B13C5E90244AC8685F83640284602F0AC
:103D8000D3FEFF21F022CDE912144FF4806005210B
:103D90004FF4A073CDE91401CDE90E240DA9CDE9AE
:103DA000164228462246CDE91037144D18930D943B
:103DB000ADF864408DF8664002F077FF24E000BF64
:103DC0000038024000100240403801200008024044
:103DD000000C024000000240EC380120003002409C
:103DE000A086010094380120383A01206820002084
:103DF000400100A0F4380120006801406420002048
:103E0000005C0040005001402B4B2B601B68984722
:103E10002B682A4DDB689847294BC5E90A47C5E955
:103E20000C442846C5E90034C5E9027401F0FCFDE4
:103E30003146284601F0B8FE224D234F5246214616
:103E40000DA81FF048FB4FF48033C5E900732846E6
:103E50001E4BAB62AC602C612C7685F82040EC6286
:103E6000EC60EE6185F830406E6102F06BFB0DA9ED
:103E70002846CDE90D66CDF83C8002F0F9FC1448E7
:103E8000144B036002F05AFF03F021F903F01EF90E
:103E900004F0AAFD104A1148214604F0D1FD104B50
:103EA000104A18602146104804F0CAFD0F4B1860F4
:103EB00004F0ACFDFEE700BF4C000020F839012003
:103EC00000B002409C390120002001400100000F99
:103ED000E43901200008065044570208D939000887
:103EE0003C38012020570208DD700008F439012019
:103EF0007047704710B586B006AC074B04F8012D2B
:103F00001B68029301230A46CDE90043014603489A
:103F100001F0A4FA06B010BD1000002040380120C6
:103F20007FB506AA002302F8013D084B1B680293E7
:103F30000123CDE900230A460146054801F022FB92
:103F40009DF8170007B05DF804FB00BF10000020CB
:103F5000403801201FB5084C24680092CDE9013497
:103F60000A4601230146054801F00CFB003018BF4A
:103F7000012004B010BD00BF100000204038012017
:103F800002F052BF10B5064C00222046042101F079
:103F900049FF204601220421BDE8104001F042BF44
:103FA0000008024038B50B4C054601224FF4005181
:103FB000094801F037FF00220421204601F032FFBA
:103FC0002846FFF7F7FC204601220421BDE83840CF
:103FD00001F028BF00080240000C024038B50B4C2D
:103FE000054600224FF40051094801F01BFF002252
:103FF0000421204601F016FF2846FFF7DBFC20468F
:1040000001220421BDE8384001F00CBF0008024045
:10401000000C0240F7B5144C144D07460E462046DE
:104020000022042101F0FEFE00224FF40051284638
:1040300001F0F8FE3846FFF7BDFC0D4B0D481B683C
:10404000324601A902F0D7F9284601224FF4005167
:10405000019E01F0E7FE20460122042101F0E2FE6C
:10406000304603B0F0BD00BF00080240000C024023
:10407000140000209438012002F0D6BE0268034BE1
:104080009A4201D102F0BEBE704700BF001000404E
:1040900070477047FEE7FEE7FEE7FEE77047000067
:1040A000014800F009BE00BFF4370120014802F0CA
:1040B0009BBD00BFF4380120014801F0E5BC00BF02
:1040C000F839012082B00E4B00220092596C41F465
:1040D00080415964596C01F480410091009901922A
:1040E000196C41F0805119641B6C03F080530193EB
:1040F000019B0F216FF0010002B001F0AFBB00BFC8
:104100000038024010B5044688B01422002103A8EC
:104110001FF0E1F92268124B9A421ED103F58C334D
:10412000002101915A6C0F4842F480725A645A6C13
:1041300002F480720192019A02911A6B42F001021C
:104140001A631B6B03F001030293029B02220323F9
:1041500003A9CDE9032301F071FD08B010BD00BF34
:1041600000200140000002400268094B9A4282B0E0
:104170000BD100230193074B1A6B42F480521A6350
:104180001B6B03F480530193019B02B0704700BF87
:10419000003002400038024007B50F4B02689A42D7
:1041A00016D10022A3F5F0430192196B41F40001EE
:1041B00019631B6B03F40003019305215A20019B33
:1041C00001F04CFB5A2003B05DF804EB01F07ABB20
:1041D00003B05DF804FB00BF00B002402DE9F043DE
:1041E000044689B01422002103A81FF074F9226844
:1041F000244B9A4243D1244C244800250095236B3C
:1042000043F004032363236B03F004030093009B38
:104210000195236B43F001032363236B03F0010338
:104220000193019B4FF012094FF400734FF0010806
:104230000327042603A9CDE90339CDE905870796AD
:1042400001F0FCFC4FF4807303A911480796CDE9F7
:104250000339CDE9058701F0F1FC0295236C43F4A5
:1042600000032364236C03F400030293029B236A7C
:1042700043F400032362236A23F40003236209B09A
:10428000BDE8F083005C00400038024000080240B6
:1042900000000240F0B599B004461422002107A89E
:1042A0001FF019F930220DEB020000211FF013F965
:1042B00022685E4B9A4240F0B78008230C93C023DB
:1042C0001093042312930CA84FF40033159302F0BB
:1042D000BFFD08B1FFF7DCFE554B564800240094A3
:1042E0005A6C42F080625A645A6C02F0806200920A
:1042F000009A01941A6B42F020021A631A6B02F0C2
:1043000020020192019A02941A6B42F001021A6390
:104310001A6B02F001020292029A03941A6B42F0A5
:1043200002021A631A6B02F002020392039A0494C7
:104330001A6B42F040021A631A6B02F040020492B8
:10434000049A05941A6B42F004021A631A6B02F085
:1043500004020592059A06941A6B42F008021A6349
:104360001B6B03F00803069302250E26069B0B9693
:104370004FF4806307A9CDE90735CDE9094501F080
:104380005DFC41F6580307A92B480B96CDE907358C
:104390000927CDE9094501F051FC032307A9274866
:1043A0000B97CDE90735CDE9094501F047FC4FF4FE
:1043B000706307A921480B96CDE90735CDE909457A
:1043C00001F03CFC4FF40C6307A91D480B96CDE9A6
:1043D0000735CDE9094501F031FCC02307A919488B
:1043E0000B96CDE90735CDE9094501F027FC0823F7
:1043F00007A915480B96CDE90735CDE9094501F028
:104400001DFC4FF4A05307A90D480B97CDE90735C4
:10441000CDE9094501F012FC58202246052101F0A2
:104420001DFA582001F04EFA19B0F0BD00680140A5
:104430000038024000140240000002400004024024
:104440000018024000080240000C02400268094BBC
:104450009A4282B00BD100230193074B5A6B42F072
:1044600040025A635B6B03F040030193019B02B06F
:10447000704700BF000806500038024010B50446DF
:1044800088B01422002103A81FF025F82268144BDD
:104490009A4223D103F56843002101915A6C1148D7
:1044A00042F480125A645A6C02F480120192019A0A
:1044B00002911A6B42F020021A631B6B03F0200377
:1044C0000293029B4FF4607202230321CDE9032380
:1044D0000523CDE9061303A901F0B0FB08B010BD18
:1044E00000500140001402402DE9F04186B0142232
:1044F000002101A81EF0EFFF2B4B1C68002C4FD1B0
:104500004FF00108C3F80080284B00949A6B2848AC
:1045100042EA08029A639B6B03EA080300930227AE
:1045200003260C25009B01A94FF63F03CDE9013777
:10453000CDE9046501F082FB01A91E480595CDE98E
:104540000187CDE9034601F079FB48F2331301A955
:1045500019480595CDE90137CDE9034601F06EFB19
:104560004FF6837301A915480595CDE90137CDE9CB
:10457000034601F063FB4CF2037301A91048059553
:10458000CDE90137CDE9034601F058FB602301A9CD
:104590000C480595CDE90137CDE9034601F04EFB06
:1045A00006B0BDE8F08100BF6C200020003802405A
:1045B00000140240000802400018024000100240AF
:1045C000000C02400004024037B500230193184B51
:1045D000184C1A6C42F080521A641B6C03F0805322
:1045E0000193019B144B01221A6002F017FC05464F
:1045F0006368DA030BD5114B0E4C01221A6002F0EE
:104600000DFC054663689B030AD5002006E002F016
:1046100005FC401BB0F57A7FEAD9032003B030BD1A
:1046200002F0FCFB401BB0F57A7FEBD9F5E700BF49
:10463000003802400070004040000E4244000E422C
:1046400038B50D460446C8B190F82C3003F0FF028F
:104650001BB980F82D20FFF747FF022384F82C3088
:10466000211D206801F03CF962682068294601F0AC
:104670006BF9012384F82C30002038BD0120FCE7C1
:1046800070B5054690F82C00C0B202280E4612D034
:1046900000F0FB04012C0FD1022385F82C30286890
:1046A00001F094F93368022B06BF052385F82C30FE
:1046B00085F82C40002070BD0120FCE738B5044689
:1046C00090F82C00C0B202280DD094F82C50EDB216
:1046D000012D09D1022384F82C30206801F09AF9C9
:1046E00084F82C50002038BD0120FCE72DE9F3416F
:1046F000044608B9012041E00368DD0710D42368AF
:1047000098075AD423681A0700F19C8023685B0736
:1047100000F1BA80A069002840F01C8100202DE043
:10472000A44B9A6802F00C02042A07D09A6802F09F
:104730000C02082A0AD15B68590207D59D4B1B68F9
:104740009A03DCD56368002BD9D1D3E76268994B13
:10475000B2F5803F15D11A6842F480321A6063685E
:10476000F3B102F05BFB934D06462B689B03C6D466
:1047700002F054FB801B6428F7D9032002B0BDE887
:10478000F081B2F5A02F1A6803D142F480221A609A
:10479000E1E722F480321A601A6822F48022DDE711
:1047A00002F03CFB834D06462B689F03A7D502F021
:1047B00035FB801B6428F7D9DFE77E4B9A6812F03F
:1047C0000C0F07D09A6802F00C02082A11D15B681E
:1047D0005E020ED4774B1A68950702D5E268012A6B
:1047E00088D11A68216922F0F80242EAC1021A60EF
:1047F00088E7E268704BB2B101221A6002F00EFB4A
:104800006C4D06462B68980707D52B68226923F064
:10481000F80343EAC2032B6074E702F0FFFA801B3F
:104820000228EFD9A9E71A6002F0F8FA614D0646AE
:104830002B6899077FF566AF02F0F0FA801B02281B
:10484000F6D99AE762695D4B7AB101221A6002F0EB
:10485000E5FA584D06466B6F9F073FF557AF02F0DC
:10486000DDFA801B0228F6D987E71A6002F0D6FA33
:10487000504D06466B6F98077FF548AF02F0CEFAB1
:10488000801B0228F6D978E74A4B1A6C12F0805246
:104890002BD101921A6C42F080521A641B6C03F007
:1048A00080530193019B0126454D2B68D9051ED5E8
:1048B000A268404B012A2AD11A6F42F001021A67FE
:1048C000A368002B37D002F0A9FA3A4D074641F20F
:1048D00088382B6F9B0728D5002E3FF41BAF354A35
:1048E000136C23F08053136414E70026DCE72B6875
:1048F00043F480732B6002F091FA07462B68DA05C7
:10490000D6D402F08BFAC01B0228F7D935E7052A66
:104910001A6F03D142F004021A67CDE722F00102B8
:104920001A671A6F22F00402C9E702F077FAC01B77
:104930004045CED921E702F071FA1E4D074641F2FB
:1049400088382B6F9807C7D502F068FAC01B40451E
:10495000F7D912E7174DAB6803F00C03082B46D0CC
:10496000184E00230228336034D102F057FA07466C
:104970002B68990128D4D4E907321343626A43EAC9
:104980008213E26A43EA0263A26A0A4C5208013ABD
:1049900043EA02436B600123336002F03FFA0546AD
:1049A00023689A013FF5BAAE02F038FA401B02289C
:1049B000F6D9E2E60038024000004742800E474246
:1049C000007000406000474202F028FAC01B022835
:1049D000CED9D2E602F022FA04462B689B017FF57D
:1049E0009DAE02F01BFA001B0228F6D9C5E601288D
:1049F0003FF4C4AE6B68E26903F4800191427FF436
:104A000079AE216A03F03F028A427FF473AE616A95
:104A100047F6C0721A40B2EB811F7FF46BAEA26AF8
:104A2000520803F44031013AB1EB024F7FF462AE19
:104A3000E26A03F07063B3EB026F14BF0120002041
:104A40009CE600BF08B513498B6803F00C03042BE8
:104A500003D0082B03D0104800E0104808BD4A6876
:104A60004B68496813F4800314BF0C480A48C1F32B
:104A7000881118BF002302F03F02A1FB0001FCF7E0
:104A800025F8044B5B68C3F3014301335B00B0FBC3
:104A9000F3F0E3E7003802400024F40000127A004B
:104AA0002DE9F0410D46044610B90120BDE8F08122
:104AB000454B1A6802F00F028A422AD323689E07E8
:104AC0002FD42368D90743D43F4B1A6802F00F0252
:104AD000AA4268D823685A076ED423681B0707D5F3
:104AE0003A4A2169936823F4604343EAC10393601F
:104AF000FFF7A8FF354B364A9B68C3F30313D35C1B
:104B0000D840344B1860344B1868FEF703FF002080
:104B1000CCE7CAB21A701B6803F00F038B42C4D1F2
:104B2000CCE7580741BF294A936843F4E0539360A8
:104B30002368264A13F0080F1EBF936843F46043AE
:104B400093609368A16823F0F0030B439360B8E788
:104B500062681E4B012A1CD11B6813F4003FA4D0CD
:104B60001A4EB36823F003031343B36002F056F9FF
:104B700041F288380746B368626803F00C03B3EB70
:104B8000820FA1D002F04AF9C01B4045F3D903209F
:104B90008CE7911E01291B6802D813F0007FDEE725
:104BA00013F0020FDBE7EAB21A701B6803F00F0381
:104BB000AB427FF47AAF8DE7044AE168936823F44F
:104BC000E0530B43936088E7003C0240003802400A
:104BD000085702080C0000201C000020044B054A66
:104BE0009B68C3F38223D35C034A1068D8407047A4
:104BF00000380240185702080C0000200F23036001
:104C00000B4B9A6802F0030242609A6802F0F002CD
:104C100082609A6802F4E052C2609B68DB0803F489
:104C2000E0530361034B1B6803F00F030B607047F5
:104C300000380240003C02407047000090F83D30D0
:104C4000012B31D10268022380F83D30D36843F054
:104C50000103D3600368154A93421AD0B3F1804F21
:104C600017D0A2F57C42934213D002F580629342A2
:104C70000FD002F5806293420BD002F57842934246
:104C800007D002F57052934203D0A2F594329342BA
:104C900004D19A6802F00702062A03D01A6842F08B
:104CA00001021A6000207047012070470000014097
:104CB000704770477047704770B50368DD681E69BC
:104CC000B10704460ED5AA070CD56FF002021A618F
:104CD0000123037703689B699B076CD0FFF7E9FF0B
:104CE00000232377710711D56A070FD523686FF06A
:104CF00004021A610223237723689B6913F4407F1F
:104D000020465ED0FFF7D5FF00232377330710D569
:104D100028070ED523686FF008021A610423237751
:104D20002368DB699907204651D0FFF7C2FF0023B3
:104D30002377F20611D5EB060FD523686FF010022A
:104D40001A61082323772368DB6913F4407F204628
:104D500043D0FFF7AEFF00232377F00708D5E9071C
:104D600006D523686FF001021A612046FFF786F925
:104D7000320608D52B0606D523686FF080021A612B
:104D8000204600F057FD700608D5690606D5236851
:104D90006FF040021A612046FFF78DFFB20622D560
:104DA000AB0620D523686FF020021A612046BDE8CB
:104DB000704000F03EBDFFF77BFF2046FFF77AFF13
:104DC0008EE7FFF775FF2046FFF774FF9CE7FFF7BC
:104DD0006FFF2046FFF76EFFA9E7FFF769FF204648
:104DE000FFF768FFB7E770BD324A0368904212D000
:104DF000B0F1804F0FD0A2F57C4290420BD002F56B
:104E00008062904207D002F58062904203D002F5A2
:104E10007842904219D14A6823F070031343254A1F
:104E2000904229D0B0F1804F26D0A2F57C4290422A
:104E300022D002F5806290421ED002F5806290423C
:104E40001AD002F57842904216D01B4A904213D0F5
:104E500002F5806290420FD002F5806290420BD042
:104E6000A2F59832904207D002F58062904203D0BA
:104E700002F58062904203D1CA6823F44073134361
:104E80004A6923F0800313438A68C2620A68826217
:104E9000084A904203D002F58062904201D10A692B
:104EA0000263026842F00402026001224261036070
:104EB000704700BF000001400040014010B50446AB
:104EC00030B390F83D3003F0FF021BB980F83C206E
:104ED000FFF7B2FE022384F83D302068211DFFF762
:104EE00083FF012384F84630002084F83E3084F8A4
:104EF0003F3084F8403084F8413084F8423084F800
:104F0000433084F8443084F8453084F83D3010BD97
:104F10000120FCE701684B6913F480634FF0000245
:104F200010D06FF480634B612023026380F83D3022
:104F300080F83E20036C80F83C2043F004030364B7
:104F400001207047184670472DE9F843089E044633
:104F500090461F464FEA11498DB22068B9F1010F02
:104F60000CBF4369836935EA03030CBF01210021AB
:104F7000884501D0002023E07B1CEFD001F04EFFDC
:104F8000801BB84201D8002FE7D12168B9F1010F89
:104F90000CBF4B698B6935EA03030CBF012100216B
:104FA0008845DAD100232022236384F83D2084F849
:104FB0003E30226C84F83C3042F020022264012012
:104FC000BDE8F8832DE9F0410446174698468EB2B5
:104FD0002568686936EA000018D06B695A0517D54C
:104FE0002B6843F400732B6023686FF480625A616E
:104FF00000232022236384F83D2084F83E30226C75
:1050000042F00402226484F83C300120BDE8F081C3
:105010007B1CDED001F002FFA0EB0800B84201D8F3
:10502000002FD5D123685B6936EA0303D0D0002373
:105030002022236384F83D2084F83E30226C42F025
:105040002002DFE770B504460D46164623685B690B
:105050005B0701D5002070BD2046FFF75BFFC8B994
:105060006A1CF3D001F0DAFE801BA84201D8002DA3
:10507000ECD123685B6913F00403E7D1202223639A
:1050800084F83D2084F83E30226C84F83C3042F0B5
:10509000200222640120DEE770B504460D46164664
:1050A0002068436913F0400301D0002010E04269FA
:1050B000D2060ED56FF0100242612022236384F8DD
:1050C0003D2084F83E30226C226484F83C3001207C
:1050D00070BD01F0A3FE801BA84201D8002DDFD1D6
:1050E00023685B6913F04003DAD12022236384F83C
:1050F0003D2084F83E30226C42F02002E4E770B597
:1051000004460D46164623685B691B0601D5002040
:1051100070BD2046FFF7FEFEC8B96A1CF3D001F04F
:105120007DFE801BA84201D8002DECD123685B696D
:1051300013F08003E7D12022236384F83D2084F814
:105140003E30226C84F83C3042F020022264012080
:10515000DEE700002DE9FF41154602680B9E9846E8
:10516000136843F4807313600F460A9B0096002275
:105170004FF001110446FFF7E7FE236838B11B68C2
:10518000DB0502D54FF40073236403200AE007F027
:10519000FE071F610A9A194933462046FFF712FF9E
:1051A00018B1012004B0BDE8F081236803905A696A
:1051B00003929B69039332460A99039B2046FFF7AB
:1051C0009EFF40B1236C042B01BF2268136843F497
:1051D00000731360E5E7B8F1010F236802D1EDB267
:1051E0001D61DFE72A0A1A610A9932462046FFF755
:1051F00086FF0028E6D12368F1E700BF0200010026
:105200002DE9FF41164602680B9D9846136843F44A
:10521000806313600268136843F4807313600F4661
:105220000A9B009500224FF001110446FFF78CFE07
:10523000236848B11B68DB0502D54FF40073236473
:10524000032004B0BDE8F081FFB207F0FE021A614E
:1052500029490A9A2B462046FFF7B4FE08B10120DF
:10526000EFE7236803905A6903929B6903932A46E8
:105270000A99039B2046FFF742FF40B1236C042BA1
:1052800001BF2268136843F400731360E7E7B8F1C5
:10529000010F236825D1F6B21E612A460A992046DD
:1052A000FFF72DFF02460028E8D121680B6843F480
:1052B00080730B6020460A9B00954FF00111FFF7A9
:1052C00043FE23680028B5D147F001071F610A9A01
:1052D00009492B462046FFF775FE003018BF012014
:1052E000AFE7320A1A610A992A462046FFF707FFFC
:1052F0000028C3D12368CEE70200010070B5044640
:1053000008B9012070BD90F83D3003F0FF021BB9D1
:1053100080F83C20FEF762FF2268242384F83D30A9
:10532000136823F0010313602268136843F40043F9
:1053300013602268136823F400431360FFF74EFCE8
:10534000424B62689A4294BF414B424B98428CBF99
:1053500000230123002BD4D122683F495368B0FBBE
:10536000F1F123F03F030B4353606668374B256828
:105370009E4288BF4FF496732A6A8ABF4B434B1CE8
:105380004FF47A7122F03F0284BFB3FBF1F3013393
:1053900013432B6221686368CA692C4D22F44F4283
:1053A000AB4222F0FF0200F1FF3035D85B00B0FBCA
:1053B000F3F0431CC3F30B03042B38BF0423134344
:1053C000CB612168D4E907300A68034322F0C002A8
:1053D00013430B602168D4E903038A6822F4034273
:1053E000034322F0FF0213438B602168D4E90530A8
:1053F000CA68034322F0FF021343CB60226813689C
:1054000043F00103136000202023206484F83D3022
:10541000206384F83E0075E7A56855B903EB4303A4
:10542000B0FBF3F0431CC3F30B036BB143F4004335
:10543000C5E719256B43B0FBF3F0431CC3F30B0323
:1054400013B143F44043BAE70123B8E7A086010053
:105450007F841E00FF083D0040420F002DE9F74306
:10546000044699460F4690460C9E01F0D7FC94F8EE
:105470003D30202B054603D0022003B0BDE8F08369
:105480000090192301223D492046FFF75DFD0028C9
:10549000F2D194F83C30012BEED0012384F83C305B
:1054A00023681A68D2075EBF1A6842F001021A60C8
:1054B0002268136823F400631360212384F83D30CD
:1054C000402384F83E30002323640A9B6362BDF8C6
:1054D0002C306385638D2385294BE362CDE900651C
:1054E0004B46424639462046FFF734FE00282DD071
:1054F0000120C2E7FFF703FE40B1236C042B01BF7C
:105500002268136843F400731360F1E7626A23684A
:1055100012781A61616A628D4B1C6362238D013AB5
:1055200092B2013B62859BB2226823855069400795
:105530000CD55BB14B781361636A01336362238DD1
:10554000013B2385638D013B9BB26385238D2A46F6
:1055500031462046002BCDD1FFF774FD0028CCD179
:105560002268136843F400731360202384F83D30ED
:1055700084F83C0084F83E007FE700BF0200100082
:105580000000FFFF2DE9F043044687B099460D4621
:105590009046109F01F042FC94F83D30202B0646C7
:1055A00004D00225284607B0BDE8F08300901923F7
:1055B00001227B492046FFF7C7FC0028F1D194F86F
:1055C0003C30012BEDD0012384F83C3023681A686D
:1055D000D0075EBF1A6842F001021A6022681368A1
:1055E00023F400631360222384F83D30402384F8C1
:1055F0003E30002323640E9B6362BDF83C3063851C
:10560000638D2385674BE3622946CDE900764B46DF
:1056100042462046FFF7F4FD054608B10125C1E7E3
:10562000228D2368B2B902905A6902929A69029255
:10563000029A1A6842F400721A60DFF86C81238DB6
:10564000002B2FD1202284F83D2084F83C3084F8B0
:105650003E30A7E7012A0BD11A6822F480621A6053
:10566000236803905A6903929A690392039AE0E7C8
:10567000022A10D11A6822F480621A602268136824
:1056800043F400631360236804905A6904929B6991
:105690000493049BD1E705905A6905929B69059391
:1056A000059BCAE7032B58D8012B0BD1324639464C
:1056B0002046FFF7F1FC0028B0D123681A69636A1D
:1056C0001A7021E0022B00963B464FF00002414643
:1056D000204624D1FFF738FC00289FD122681368A8
:1056E00043F40073136023681A69636A1A70626A6C
:1056F000531C6362238D013B2385638D013B9BB269
:10570000638523681B695370636A01336362238D69
:10571000013B2385638D013B9BB263858FE7FFF7D8
:1057200013FC024600287FF479AF21680B6823F44C
:1057300080630B6023681969636A1970636A009655
:1057400001336362238D013B2385638D013B9BB253
:10575000638541463B462046BCE7324639462046F3
:10576000FFF79AFC00287FF459AF23681A69636A2F
:105770001A70636A628D01336362238D013A92B2BB
:10578000013B62859BB222682385516949077FF5F9
:1057900056AF032B02BF136823F4806313608CE7BA
:1057A000020010000000FFFF0400010010B590F897
:1057B0003D30DBB2202B19D10468242280F83D2033
:1057C000226822F0010222600468626A22F010025C
:1057D00062620468626A1143616201680A6842F0A9
:1057E00001020A6080F83D30002010BD0220FCE775
:1057F00030B590F83D20D2B2202A18D10568242374
:1058000080F83D302C6824F001042C600468656A3F
:105810004FF6F0732B400B439BB2636201680B6839
:1058200043F001030B6080F83D20002030BD0220D2
:10583000FCE7704770470000074AD36823F4E06331
:105840001B041B0C43F0BF63000243F4003300F45D
:10585000E0600343D360704700ED00E070B5174B84
:10586000DC68C4F30224C4F10705042D04F1040329
:1058700028BF04254FF0FF36062B06FA05F38CBF30
:10588000033C002421EA0303A34006FA04F422EABD
:105890000404002843EA0403A8BF00F160404FEA73
:1058A0000313BCBF00F00F00054ADBB2AABF00F52E
:1058B0006140135480F8003370BD00BF00ED00E07C
:1058C00014ED00E0002808DB0123420900F01F006E
:1058D00003FA00F0014B43F82200704700E100E0BA
:1058E00030B5D1E907340A684D6A2343154C92B9A3
:1058F00002682B43224013434A6813438A681343C8
:10590000CA6813430A6913434A6913438A691343F4
:105910000360002030BD02682B4322F4F842134399
:10592000036043684A68234013438A681343CA6884
:1059300013430A6913434A6913438A691343436053
:10594000E7E700BF0080FFFF30B5CB684D695C1E04
:105950006B1E1B0543EA0434CAB90B688268013B1D
:1059600002F07042234313434A68013A43EA0213A8
:105970008A68013A43EA02230A69013A43EA024388
:105980008A69013A43EA02638360002030BD83687C
:1059900023F4700323F4704323438360C3684A688D
:1059A00003F07043013A43EA02130A68013A1343D1
:1059B0008A68013A43EA02230A69013A43EA024348
:1059C0008A69013A43EA0263C360DEE770B51546AF
:1059D000D1E90032044613430069CA68800D43EAE6
:1059E00042238A6880050343013A43EA4213236154
:1059F00001F014FA0646A06910F0200003D06B1CD9
:105A0000F9D00DB9032070BD01F008FA801BA8423F
:105A1000F1D9F7E7436923F47F5323F03E0343EAC8
:105A2000410141610020704710B5044640B390F831
:105A3000393003F0FF021BB980F83820FEF7ACFBC9
:105A400022686168022384F83930136823F44033F4
:105A50000B4313602268A168536B23F007030B43C9
:105A600053632268E168136C23F47F5323F03F03F0
:105A70000B43136400200123E06384F8393010BD28
:105A80000120FCE77047704770B503685E681D68C9
:105A9000F207044615D5E90513D51A6822F4807279
:105AA0001A60C36B43F00103C363036801229A6069
:105AB000042380F83930002380F83830436903B17B
:105AC0009847B20617D5AB0415D52268136823F49E
:105AD00000531360236820229A60E36B43F00203B3
